03015102019RedecardExtrato de Movimentacao FinanceiraSACOLAO CURSINO       000301064166236DIARIO         V3.01 - 09/06 - EEFI
032064166236SACOLAO CURSINO       
0340641662360928498246615102019000000000340547C3410008460000017724413102019095031687111020191100000000034513400000000000458701/0107064166236
0340641662360928549641915102019000000000565104C3410008460000017724413102019012429202121020191100000000057272100000000000761701/0107064166236
0340641662360928639317815102019000000000781573C3410008460000017724413102019025429942131020191100000000079211100000000001053801/0107064166236
0340641662360928444040415102019000000000306446C3410008460000017724413102019086031111111020193100000000031057600000000000413001/0107064166236
0340641662360928522338815102019000000000357358C3410008460000017724413102019005532171121020193100000000036217500000000000481701/0107064166236
0340641662360928619610715102019000000000339166C3410008460000017724413102019020432871131020193100000000034374100000000000457501/0107064166236
0340641662360928498246715102019000000000015538C3410008460000017724413102019095031688111020195100000000001577400000000000023601/0107064166236
0340641662360928549642015102019000000000020671C3410008460000017724413102019012429203121020195100000000002098600000000000031501/0107064166236
0340641662360928639317915102019000000000017343C3410008460000017724413102019025429943131020195100000000001760700000000000026401/0107064166236
0340641662360928411998715102019000000000000691C3410008460000017724413102019078030973111020198100000000000070000000000000000901/0107064166236
0340641662360928553263215102019000000000004266C3410008460000017724413102019099929843121020198100000000000432400000000000005801/0107064166236
0340641662360928600992415102019000000000024439C3410008460000017724413102019015830688131020198100000000002476800000000000032901/0107064166236
0340641662360928602965515102019000000000004516C341000846000001772441310201901633041913102019X100000000000458500000000000006901/0107064166236
0340641662360928423147715102019000000000049035C341000846000001772441310201908083018411102019E100000000004978100000000000074601/0107064166236
0340641662360928506313415102019000000000042929C341000846000001772441310201900153191712102019E100000000004358200000000000065301/0107064166236
0340641662360928607962015102019000000000037842C341000846000001772441310201901753238413102019E100000000003841700000000000057501/0107064166236
037064166236       15102019000000002907464 341000846000001772441510201900000000000000000000000
040064166236000000000000000000000109201930092019000000000000000
0500641662360000160000000029074640000000000000000000000000000000000000000000000000000000000000
0520001000022064166236001600000000290746400000000000000000000000000000000000000000000000000000000000
