03008102019RedecardExtrato de Movimentacao FinanceiraSACOLAO CURSINO       000294064166236DIARIO         V3.01 - 09/06 - EEFI
032064166236SACOLAO CURSINO       
0340641662360927755362908102019000000000420956C3410008460000017724406102019070929753041020191100000000042663000000000000567401/0107064166236
0340641662360927899374008102019000000000571396C3410008460000017724406102019090730041051020191100000000057909300000000000769701/0107064166236
0340641662360927914483408102019000000000531165C3410008460000017724406102019003629629061020191100000000053832600000000000716101/0107064166236
0340641662360927721854008102019000000000241381C3410008460000017724406102019062530664041020193100000000024463600000000000325501/0107064166236
0340641662360927865361108102019000000000352970C3410008460000017724406102019082229912051020193100000000035773100000000000476101/0107064166236
0340641662360927983384508102019000000000259307C3410008460000017724406102019098832931061020193100000000026280400000000000349701/0107064166236
0340641662360927755363008102019000000000002867C3410008460000017724406102019070929754041020195100000000000291100000000000004401/0107064166236
0340641662360927899374108102019000000000006342C3410008460000017724406102019090730042051020195100000000000643800000000000009601/0107064166236
0340641662360927914483508102019000000000032755C3410008460000017724406102019003629630061020195100000000003325400000000000049901/0107064166236
0340641662360927835708908102019000000000002521C3410008460000017724406102019074829432051020196100000000000255500000000000003401/0107064166236
0340641662360927792927508102019000000000003540C3410008460000017724406102019055329399041020198100000000000358800000000000004801/0107064166236
0340641662360927792927608102019000000000001331C3410008460000017724406102019055329400041020198100000000000134900000000000001801/0107064166236
0340641662360927795698708102019000000000002490C341000846000001772440610201905602911104102019X100000000000252800000000000003801/0107064166236
0340641662360927838536208102019000000000014967C341000846000001772440610201907552970505102019X100000000001519500000000000022801/0107064166236
0340641662360927702750508102019000000000024336C341000846000001772440610201905773162904102019E100000000002470700000000000037101/0107064166236
0340641662360927845901108102019000000000040266C341000846000001772440610201907733135405102019E100000000004087900000000000061301/0107064166236
0340641662360927972598408102019000000000040840C341000846000001772440610201909622907006102019E100000000004146200000000000062201/0107064166236
037064166236       08102019000000002549430 341000846000001772440810201900000000000000000000000
040064166236000000000000000000000109201930092019000000000000000
0500641662360000170000000025494300000000000000000000000000000000000000000000000000000000000000
0520001000023064166236001700000000254943000000000000000000000000000000000000000000000000000000000000
