03001102019RedecardExtrato de Movimentacao FinanceiraSACOLAO CURSINO       000287064166236DIARIO         V3.01 - 09/06 - EEFI
032064166236SACOLAO CURSINO       
0340641662360927090490801102019000000000418940C3410008460000017724429092019049429865270920191100000000042458100000000000564101/0107064166236
0340641662360927191840801102019000000000869257C3410008460000017724429092019069230166280920191100000000088097700000000001172001/0107064166236
0340641662360927278007601102019000000000816807C3410008460000017724429092019082330000290920191100000000082781300000000001100601/0107064166236
0340641662360927056565901102019000000000261420C3410008460000017724429092019040930616270920193100000000026494400000000000352401/0107064166236
0340641662360927141520601102019000000000493931C3410008460000017724429092019060829313280920193100000000050059100000000000666001/0107064166236
0340641662360927252329101102019000000000301953C3410008460000017724429092019075929300290920193100000000030602500000000000407201/0107064166236
0340641662360927090490901102019000000000013005C3410008460000017724429092019049429866270920195100000000001320300000000000019801/0107064166236
0340641662360927191840901102019000000000001950C3410008460000017724429092019069230167280920195100000000000198000000000000003001/0107064166236
0340641662360927235641801102019000000000002817C3410008460000017724429092019073032511290920196100000000000285500000000000003801/0107064166236
0340641662360927024418301102019000000000017516C3410008460000017724429092019033530177270920198100000000001775200000000000023601/0107064166236
0340641662360927180086901102019000000000007337C3410008460000017724429092019053331264280920198100000000000743600000000000009901/0107064166236
0340641662360927235641901102019000000000006406C3410008460000017724429092019073032512290920198100000000000649200000000000008601/0107064166236
0340641662360927185884901102019000000000006358C341000846000001772442909201905403238628092019X100000000000645500000000000009701/0107064166236
0340641662360927239831801102019000000000003519C341000846000001772442909201907353211029092019X100000000000357300000000000005401/0107064166236
0340641662360927037088401102019000000000035700C341000846000001772442909201903603184127092019E100000000003624400000000000054401/0107064166236
0340641662360927100991201102019000000000027878C341000846000001772442909201905593084828092019E100000000002830200000000000042401/0107064166236
0340641662360927262317601102019000000000092787C341000846000001772442909201907842918529092019E100000000009420100000000000141401/0107064166236
0340641662360927024418401102019000000000000344C341000846000001772442909201903353017827092019Z100000000000034900000000000000501/0107064166236
037064166236       01102019000000003377925 341000846000001772440110201900000000000000000000000
040064166236000000000000000000000109201930092019000000000000000
0500641662360000180000000033779250000000000000000000000000000000000000000000000000000000000000
0520001000024064166236001800000000337792500000000000000000000000000000000000000000000000000000000000
