03029102019RedecardExtrato de Movimentacao FinanceiraSACOLAO CURSINO       000315064166236DIARIO         V3.01 - 09/06 - EEFI
032064166236SACOLAO CURSINO       
0340641662360929866425329102019000000000441581C3410008460000017724427102019042131769251020191100000000044753400000000000595301/0107064166236
0340641662360929979611929102019000000000905583C3410008460000017724427102019062432521261020191100000000091779500000000001221201/0107064166236
0340641662360930077847529102019000000000807520C3410008460000017724427102019076029067271020191100000000081839900000000001087901/0107064166236
0340641662360929831945929102019000000000344835C3410008460000017724427102019033530975251020193100000000034948100000000000464601/0107064166236
0340641662360929945237329102019000000000418750C3410008460000017724427102019053832775261020193100000000042439300000000000564301/0107064166236
0340641662360930058238929102019000000000302093C3410008460000017724427102019071032981271020193100000000030616400000000000407101/0107064166236
0340641662360929914604429102019000000000001583C3410008460000017724427102019046230455261020196100000000000160400000000000002101/0107064166236
0340641662360930039812929102019000000000000899C3410008460000017724427102019066432721271020196100000000000091100000000000001201/0107064166236
0340641662360929801295929102019000000000005522C3410008460000017724427102019025929435251020198100000000000559600000000000007401/0107064166236
0340641662360929914604529102019000000000002469C3410008460000017724427102019046230456261020198100000000000250200000000000003301/0107064166236
0340641662360930039813029102019000000000006826C3410008460000017724427102019066432722271020198100000000000691800000000000009201/0107064166236
0340641662360929804231529102019000000000000889C341000846000001772442710201902663079125102019X100000000000090300000000000001401/0107064166236
0340641662360929917553729102019000000000014297C341000846000001772442710201904693194826102019X100000000001451500000000000021801/0107064166236
0340641662360930041830629102019000000000011821C341000846000001772442710201906693289827102019X100000000001200100000000000018001/0107064166236
0340641662360929811822729102019000000000034082C341000846000001772442710201902853070325102019E100000000003460000000000000051801/0107064166236
0340641662360929925325329102019000000000055782C341000846000001772442710201904892966426102019E100000000005663100000000000084901/0107064166236
0340641662360930046709029102019000000000029261C341000846000001772442710201906822968227102019E100000000002970600000000000044501/0107064166236
037064166236       29102019000000003383793 341000846000001772442910201900000000000000000000000
040064166236000000000000000000000109201930092019000000000000000
0500641662360000170000000033837930000000000000000000000000000000000000000000000000000000000000
0520001000023064166236001700000000338379300000000000000000000000000000000000000000000000000000000000
