03022102019RedecardExtrato de Movimentacao FinanceiraSACOLAO CURSINO       000308064166236DIARIO         V3.01 - 09/06 - EEFI
032064166236SACOLAO CURSINO       
0340641662360929122925122102019000000000431646C3410008460000017724420102019018431712181020191100000000043745900000000000581301/0107064166236
0340641662360929270718222102019000000000712461C3410008460000017724420102019038831928191020191100000000072205900000000000959801/0107064166236
0340641662360929270718322102019000000000001964C3410008460000017724420102019038831929191020191100000000000199000000000000002601/0107064166236
0340641662360929367525722102019000000000962821C3410008460000017724420102019052229695201020191100000000097579900000000001297801/0107064166236
0340641662360929172463022102019000000000305154C3410008460000017724420102019009830266181020193100000000030927000000000000411601/0107064166236
0340641662360929299700022102019000000000469215C3410008460000017724420102019030231028191020193100000000047553800000000000632301/0107064166236
0340641662360929327237822102019000000000315652C3410008460000017724420102019047332243201020193100000000031990500000000000425301/0107064166236
0340641662360929122925222102019000000000003845C3410008460000017724420102019018431713181020195100000000000390400000000000005901/0107064166236
0340641662360929270718422102019000000000011559C3410008460000017724420102019038831930191020195100000000001173500000000000017601/0107064166236
0340641662360929367525822102019000000000009881C3410008460000017724420102019052229696201020195100000000001003200000000000015101/0107064166236
0340641662360929110014622102019000000000001235C3410008460000017724420102019002132851181020196100000000000125200000000000001701/0107064166236
0340641662360929110014722102019000000000002729C3410008460000017724420102019002132852181020196100000000000276600000000000003701/0107064166236
0340641662360929300935622102019000000000018372C3410008460000017724420102019042831886201020196100000000001862000000000000024801/0107064166236
0340641662360929116148322102019000000000007805C341000846000001772442010201900292932218102019X100000000000792400000000000011901/0107064166236
0340641662360929302873422102019000000000013603C341000846000001772442010201904333126420102019X100000000001381000000000000020701/0107064166236
0340641662360929131448422102019000000000054120C341000846000001772442010201900482993818102019E100000000005494400000000000082401/0107064166236
0340641662360929258388822102019000000000063008C341000846000001772442010201902523046219102019E100000000006396800000000000096001/0107064166236
0340641662360929307674522102019000000000052816C341000846000001772442010201904453127520102019E100000000005362000000000000080401/0107064166236
037064166236       22102019000000003437886 341000846000001772442210201900000000000000000000000
040064166236000000000000000000000109201930092019000000000000000
0500641662360000180000000034378860000000000000000000000000000000000000000000000000000000000000
0520001000024064166236001800000000343788600000000000000000000000000000000000000000000000000000000000
