03015102019RedecardExtrato de Movimentacao FinanceiraWESTWING              000473038959011DIARIO         V3.01 - 09/06 - EEFI
032038959011WESTWING              
040038959011000000000000000000000109201930092019000000000000000
040038977672000000000000000000000109201930092019000000000000000
040067603335000000000000000000000109201930092019000000000000000
040077879899000000000000000000000109201930092019000000000000000
044077879899192870889871410201900000000001506418CANCEL.DE VENDAS            522840******185100099037397306092019410962000000000015364085932540060920190778798993192871027012331410201931928710270123310201900000000000000000000000000000000015064               00                            1
044077879899192870889881410201900000000000627518CANCEL.DE VENDAS            453211******643600001189537528092019660295000000000012824046849520280920190778798993192871027014421410201931928710270144210201900000000000000000000000000000000006275               00                            3
044077879899192870889891410201900000000000627518CANCEL.DE VENDAS            453211******643600001189537528092019660295000000000012824046849520280920190778798993192871027014421410201931928710270144210201900000000000000000000000000000000006275               00                            3
044077879899192870889901410201900000000000522518CANCEL.DE VENDAS            490172******050100096591143916092019064410000000000048141014449581160920190778798993192871027014561410201931928710270145610201900000000000000000000000000000000005225               00                            3
044077879899192870889911410201900000000000522718CANCEL.DE VENDAS            490172******050100096591143916092019064410000000000048141014449581160920190778798993192871027014561410201931928710270145610201900000000000000000000000000000000005227               00                            3
044077879899192870889921410201900000000000522718CANCEL.DE VENDAS            490172******050100096591143916092019064410000000000048141014449581160920190778798993192871027014561410201931928710270145610201900000000000000000000000000000000005227               00                            3
044077879899192870889931410201900000000000522718CANCEL.DE VENDAS            490172******050100096591143916092019064410000000000048141014449581160920190778798993192871027014561410201931928710270145610201900000000000000000000000000000000005227               00                            3
044077879899192870889941410201900000000000522718CANCEL.DE VENDAS            490172******050100096591143916092019064410000000000048141014449581160920190778798993192871027014561410201931928710270145610201900000000000000000000000000000000005227               00                            3
044077879899192870889951410201900000000000522718CANCEL.DE VENDAS            490172******050100096591143916092019064410000000000048141014449581160920190778798993192871027014561410201931928710270145610201900000000000000000000000000000000005227               00                            3
044077879899192870889961410201900000000001412618CANCEL.DE VENDAS            498408******604600001761288706082019692283000000000077063012749622060820190778798993192871027015051410201931928710270150510201900000000000000000000000000000000014126               00                            3
044077879899192870889971410201900000000001412518CANCEL.DE VENDAS            498408******604600001761288706082019692283000000000077063012749622060820190778798993192871027015051410201931928710270150510201900000000000000000000000000000000014125               00                            3
044077879899192870889981410201900000000001412518CANCEL.DE VENDAS            498408******604600001761288706082019692283000000000077063012749622060820190778798993192871027015051410201931928710270150510201900000000000000000000000000000000014125               00                            3
044077879899192870889991410201900000000001412518CANCEL.DE VENDAS            498408******604600001761288706082019692283000000000077063012749622060820190778798993192871027015051410201931928710270150510201900000000000000000000000000000000014125               00                            3
044077879899192870890001410201900000000001373018CANCEL.DE VENDAS            037716******101400002712164726082019663829000000000206084045549764260820190778798993192871027015691410201931928710270156910201900000000000000000000000000000000013730               00                            1
044077879899192870890011410201900000000001373318CANCEL.DE VENDAS            037716******101400002712164726082019663829000000000206084045549764260820190778798993192871027015691410201931928710270156910201900000000000000000000000000000000013733               00                            1
044077879899192870890021410201900000000001373318CANCEL.DE VENDAS            037716******101400002712164726082019663829000000000206084045549764260820190778798993192871027015691410201931928710270156910201900000000000000000000000000000000013733               00                            1
044077879899192870890031410201900000000001373318CANCEL.DE VENDAS            037716******101400002712164726082019663829000000000206084045549764260820190778798993192871027015691410201931928710270156910201900000000000000000000000000000000013733               00                            1
044077879899192870890041410201900000000032435418CANCEL.DE VENDAS            515590******384700099217103701102019333778000000000330805017332044011020190778798993192871027017161410201931928710270171610201900000000000000000000000000000000324354               00                            1
044077879899192870890051410201900000000027217218CANCEL.DE VENDAS            515590******384700099281123301102019574778000000000277585017332044011020190778798993192871027017711410201931928710270177110201900000000000000000000000000000000272172               00                            1
044077879899192870890061410201900000000000684418CANCEL.DE VENDAS            490172******050100000784257707102019071325000000000027981076349738071020190778798993192871027018381410201931928710270183810201900000000000000000000000000000000006844               00                            3
044077879899192870890071410201900000000000684618CANCEL.DE VENDAS            490172******050100000784257707102019071325000000000027981076349738071020190778798993192871027018381410201931928710270183810201900000000000000000000000000000000006846               00                            3
0490778798990763497383192871027018380701202000000000007277400000000007962000000000000684614102019000000000359044000000000027981490172XXXXXX0501071020190000078425771033
0490778798990763497383192871027018380702202000000000002704000000000003388600000000000684614102019000000000359044000000000027981490172XXXXXX0501071020190000078425771043
040080884016000000000000000000000109201930092019000000000000000
044080884016192870952071410201900000000001990818CANCEL.DE VENDAS            553636******937800098329508512092019028935000000000068648025249994120920190808840163192871131540071410201931928711315400710201900000000000000000000000000000000019908               00                            1
044080884016192870952081410201900000000001990818CANCEL.DE VENDAS            553636******937800098329508512092019028935000000000068648025249994120920190808840163192871131540071410201931928711315400710201900000000000000000000000000000000019908               00                            1
044080884016192870952091410201900000000001990818CANCEL.DE VENDAS            553636******937800098329508512092019028935000000000068648025249994120920190808840163192871131540071410201931928711315400710201900000000000000000000000000000000019908               00                            1
044080884016192870952101410201900000000000044018CANCEL.DE VENDAS            549167******839000098053992306092019043820000000000053048072949364060920190808840163192871131540101410201931928711315401010201900000000000000000000000000000000000440               00                            1
044080884016192870952111410201900000000000044018CANCEL.DE VENDAS            549167******839000098053992306092019043820000000000053048072949364060920190808840163192871131540101410201931928711315401010201900000000000000000000000000000000000440               00                            1
044080884016192870952121410201900000000000044018CANCEL.DE VENDAS            549167******839000098053992306092019043820000000000053048072949364060920190808840163192871131540101410201931928711315401010201900000000000000000000000000000000000440               00                            1
044080884016192870952131410201900000000000172318CANCEL.DE VENDAS            553636******660700097862365926082019010952000000000020916071449308260820190808840163192871131540641410201931928711315406410201900000000000000000000000000000000001723               00                            1
044080884016192870952141410201900000000000172418CANCEL.DE VENDAS            553636******660700097862365926082019010952000000000020916071449308260820190808840163192871131540641410201931928711315406410201900000000000000000000000000000000001724               00                            1
044080884016192870952151410201900000000000846118CANCEL.DE VENDAS            525664******138300098203569310092019004709000000000017292062149828100920190808840163192871131540751410201931928711315407510201900000000000000000000000000000000008461               00                            1
044080884016192870952161410201900000000000846118CANCEL.DE VENDAS            525664******138300098203569310092019004709000000000017292062149828100920190808840163192871131540751410201931928711315407510201900000000000000000000000000000000008461               00                            1
044080884016192870952171410201900000000000434718CANCEL.DE VENDAS            515590******679800099233147702092019571182000000000062887053249857020920190808840163192871131541641410201931928711315416410201900000000000000000000000000000000004347               00                            1
044080884016192870952181410201900000000000434218CANCEL.DE VENDAS            515590******679800099233147702092019571182000000000062887053249857020920190808840163192871131541641410201931928711315416410201900000000000000000000000000000000004342               00                            1
044080884016192870952191410201900000000000434218CANCEL.DE VENDAS            515590******679800099233147702092019571182000000000062887053249857020920190808840163192871131541641410201931928711315416410201900000000000000000000000000000000004342               00                            1
044080884016192870952201410201900000000000434218CANCEL.DE VENDAS            515590******679800099233147702092019571182000000000062887053249857020920190808840163192871131541641410201931928711315416410201900000000000000000000000000000000004342               00                            1
044080884016192870952211410201900000000000434218CANCEL.DE VENDAS            515590******679800099233147702092019571182000000000062887053249857020920190808840163192871131541641410201931928711315416410201900000000000000000000000000000000004342               00                            1
044080884016192870952221410201900000000000071818CANCEL.DE VENDAS            530994******743000098708287931072019095303000000000045316072649072310720190808840163192871131543011410201931928711315430110201900000000000000000000000000000000000718               00                            1
044080884016192870952231410201900000000000072218CANCEL.DE VENDAS            530994******743000098708287931072019095303000000000045316072649072310720190808840163192871131543011410201931928711315430110201900000000000000000000000000000000000722               00                            1
044080884016192870952241410201900000000000072218CANCEL.DE VENDAS            530994******743000098708287931072019095303000000000045316072649072310720190808840163192871131543011410201931928711315430110201900000000000000000000000000000000000722               00                            1
044080884016192870952251410201900000000000072218CANCEL.DE VENDAS            530994******743000098708287931072019095303000000000045316072649072310720190808840163192871131543011410201931928711315430110201900000000000000000000000000000000000722               00                            1
044080884016192870952261410201900000000000072218CANCEL.DE VENDAS            530994******743000098708287931072019095303000000000045316072649072310720190808840163192871131543011410201931928711315430110201900000000000000000000000000000000000722               00                            1
044080884016192870952271410201900000000000566218CANCEL.DE VENDAS            548984******095100099924824506092019052352000000000022564072949364060920190808840163192871131543271410201931928711315432710201900000000000000000000000000000000005662               00                            1
044080884016192870952281410201900000000000566318CANCEL.DE VENDAS            548984******095100099924824506092019052352000000000022564072949364060920190808840163192871131543271410201931928711315432710201900000000000000000000000000000000005663               00                            1
044080884016192870952291410201900000000000566318CANCEL.DE VENDAS            548984******095100099924824506092019052352000000000022564072949364060920190808840163192871131543271410201931928711315432710201900000000000000000000000000000000005663               00                            1
044080884016192870952301410201900000000000428718CANCEL.DE VENDAS            522688******173100099273848330062019844318000000000053851023249007300620190808840163192871131543521410201931928711315435210201900000000000000000000000000000000004287               00                            1
044080884016192870952311410201900000000000428618CANCEL.DE VENDAS            522688******173100099273848330062019844318000000000053851023249007300620190808840163192871131543521410201931928711315435210201900000000000000000000000000000000004286               00                            1
044080884016192870952321410201900000000000428618CANCEL.DE VENDAS            522688******173100099273848330062019844318000000000053851023249007300620190808840163192871131543521410201931928711315435210201900000000000000000000000000000000004286               00                            1
044080884016192870952331410201900000000000428618CANCEL.DE VENDAS            522688******173100099273848330062019844318000000000053851023249007300620190808840163192871131543521410201931928711315435210201900000000000000000000000000000000004286               00                            1
044080884016192870952341410201900000000000428618CANCEL.DE VENDAS            522688******173100099273848330062019844318000000000053851023249007300620190808840163192871131543521410201931928711315435210201900000000000000000000000000000000004286               00                            1
044080884016192870952351410201900000000000428618CANCEL.DE VENDAS            522688******173100099273848330062019844318000000000053851023249007300620190808840163192871131543521410201931928711315435210201900000000000000000000000000000000004286               00                            1
044080884016192870952361410201900000000000130918CANCEL.DE VENDAS            421960******651400098215682910092019756117000000000025236045349697100920190808840163192871131543761410201931928711315437610201900000000000000000000000000000000001309               00                            3
044080884016192870952371410201900000000000130918CANCEL.DE VENDAS            421960******651400098215682910092019756117000000000025236045349697100920190808840163192871131543761410201931928711315437610201900000000000000000000000000000000001309               00                            3
044080884016192870952381410201900000000000130918CANCEL.DE VENDAS            421960******651400098215682910092019756117000000000025236045349697100920190808840163192871131543761410201931928711315437610201900000000000000000000000000000000001309               00                            3
044080884016192870952391410201900000000000353818CANCEL.DE VENDAS            406655******269800098870695919072019634638000000000020652045749350190720190808840163192871131544101410201931928711315441010201900000000000000000000000000000000003538               00                            3
044080884016192870952401410201900000000000353918CANCEL.DE VENDAS            406655******269800098870695919072019634638000000000020652045749350190720190808840163192871131544101410201931928711315441010201900000000000000000000000000000000003539               00                            3
044080884016192870952411410201900000000000737118CANCEL.DE VENDAS            415274******113900098217942503092019093799000000000022595066149002030920190808840163192871131544121410201931928711315441210201900000000000000000000000000000000007371               00                            3
044080884016192870952421410201900000000000737018CANCEL.DE VENDAS            415274******113900098217942503092019093799000000000022595066149002030920190808840163192871131544121410201931928711315441210201900000000000000000000000000000000007370               00                            3
044080884016192870952431410201900000000000737018CANCEL.DE VENDAS            415274******113900098217942503092019093799000000000022595066149002030920190808840163192871131544121410201931928711315441210201900000000000000000000000000000000007370               00                            3
044080884016192870952441410201900000000000228718CANCEL.DE VENDAS            400439******899900099257982507092019023736000000000013550081749987070920190808840163192871131544681410201931928711315446810201900000000000000000000000000000000002287               00                            3
044080884016192870952451410201900000000000228618CANCEL.DE VENDAS            400439******899900099257982507092019023736000000000013550081749987070920190808840163192871131544681410201931928711315446810201900000000000000000000000000000000002286               00                            3
044080884016192870952461410201900000000000102518CANCEL.DE VENDAS            510044******002200098588417110092019019509000000000037237062149828100920190808840163192871131544911410201931928711315449110201900000000000000000000000000000000001025               00                            1
044080884016192870952471410201900000000000102618CANCEL.DE VENDAS            510044******002200098588417110092019019509000000000037237062149828100920190808840163192871131544911410201931928711315449110201900000000000000000000000000000000001026               00                            1
044080884016192870952481410201900000000000102618CANCEL.DE VENDAS            510044******002200098588417110092019019509000000000037237062149828100920190808840163192871131544911410201931928711315449110201900000000000000000000000000000000001026               00                            1
044080884016192870952491410201900000000000102618CANCEL.DE VENDAS            510044******002200098588417110092019019509000000000037237062149828100920190808840163192871131544911410201931928711315449110201900000000000000000000000000000000001026               00                            1
044080884016192870952501410201900000000000102618CANCEL.DE VENDAS            510044******002200098588417110092019019509000000000037237062149828100920190808840163192871131544911410201931928711315449110201900000000000000000000000000000000001026               00                            1
044080884016192870952511410201900000000000073918CANCEL.DE VENDAS            539083******359900099640391909092019015728000000000036475031249344090920190808840163192871131545091410201931928711315450910201900000000000000000000000000000000000739               00                            1
044080884016192870952521410201900000000000074018CANCEL.DE VENDAS            539083******359900099640391909092019015728000000000036475031249344090920190808840163192871131545091410201931928711315450910201900000000000000000000000000000000000740               00                            1
044080884016192870952531410201900000000000074018CANCEL.DE VENDAS            539083******359900099640391909092019015728000000000036475031249344090920190808840163192871131545091410201931928711315450910201900000000000000000000000000000000000740               00                            1
044080884016192870952541410201900000000000074018CANCEL.DE VENDAS            539083******359900099640391909092019015728000000000036475031249344090920190808840163192871131545091410201931928711315450910201900000000000000000000000000000000000740               00                            1
044080884016192870952551410201900000000000074018CANCEL.DE VENDAS            539083******359900099640391909092019015728000000000036475031249344090920190808840163192871131545091410201931928711315450910201900000000000000000000000000000000000740               00                            1
044080884016192870952561410201900000000000154518CANCEL.DE VENDAS            406655******658300097470089931082019631592000000000064575000349717310820190808840163192871131545301410201931928711315453010201900000000000000000000000000000000001545               00                            3
044080884016192870952571410201900000000000154718CANCEL.DE VENDAS            406655******658300097470089931082019631592000000000064575000349717310820190808840163192871131545301410201931928711315453010201900000000000000000000000000000000001547               00                            3
044080884016192870952581410201900000000000154718CANCEL.DE VENDAS            406655******658300097470089931082019631592000000000064575000349717310820190808840163192871131545301410201931928711315453010201900000000000000000000000000000000001547               00                            3
044080884016192870952591410201900000000000154718CANCEL.DE VENDAS            406655******658300097470089931082019631592000000000064575000349717310820190808840163192871131545301410201931928711315453010201900000000000000000000000000000000001547               00                            3
044080884016192870952601410201900000000000154718CANCEL.DE VENDAS            406655******658300097470089931082019631592000000000064575000349717310820190808840163192871131545301410201931928711315453010201900000000000000000000000000000000001547               00                            3
044080884016192870952611410201900000000000147718CANCEL.DE VENDAS            535081******761900002252157909092019059630000000000015639031249344090920190808840163192871131548671410201931928711315486710201900000000000000000000000000000000001477               00                            1
044080884016192870952621410201900000000000147718CANCEL.DE VENDAS            535081******761900002252157909092019059630000000000015639031249344090920190808840163192871131548671410201931928711315486710201900000000000000000000000000000000001477               00                            1
044080884016192870952631410201900000000000195418CANCEL.DE VENDAS            401684******201600099191397701072019038120000000000025182036049054010720190808840163192871131548791410201931928711315487910201900000000000000000000000000000000001954               00                            3
044080884016192870952641410201900000000000195518CANCEL.DE VENDAS            401684******201600099191397701072019038120000000000025182036049054010720190808840163192871131548791410201931928711315487910201900000000000000000000000000000000001955               00                            3
044080884016192870952651410201900000000000195518CANCEL.DE VENDAS            401684******201600099191397701072019038120000000000025182036049054010720190808840163192871131548791410201931928711315487910201900000000000000000000000000000000001955               00                            3
044080884016192870952661410201900000000000195518CANCEL.DE VENDAS            401684******201600099191397701072019038120000000000025182036049054010720190808840163192871131548791410201931928711315487910201900000000000000000000000000000000001955               00                            3
044080884016192870952671410201900000000000848218CANCEL.DE VENDAS            498453******229700002789429912092019008719000000000052010008349194120920190808840163192871131549031410201931928711315490310201900000000000000000000000000000000008482               00                            3
044080884016192870952681410201900000000000848318CANCEL.DE VENDAS            498453******229700002789429912092019008719000000000052010008349194120920190808840163192871131549031410201931928711315490310201900000000000000000000000000000000008483               00                            3
044080884016192870952691410201900000000000848318CANCEL.DE VENDAS            498453******229700002789429912092019008719000000000052010008349194120920190808840163192871131549031410201931928711315490310201900000000000000000000000000000000008483               00                            3
044080884016192870952701410201900000000000848318CANCEL.DE VENDAS            498453******229700002789429912092019008719000000000052010008349194120920190808840163192871131549031410201931928711315490310201900000000000000000000000000000000008483               00                            3
044080884016192870952711410201900000000000848318CANCEL.DE VENDAS            498453******229700002789429912092019008719000000000052010008349194120920190808840163192871131549031410201931928711315490310201900000000000000000000000000000000008483               00                            3
044080884016192870952721410201900000000000701018CANCEL.DE VENDAS            514868******233800001908651726082019003528000000000079985071449308260820190808840163192871131549231410201931928711315492310201900000000000000000000000000000000007010               00                            1
044080884016192870952731410201900000000000701118CANCEL.DE VENDAS            514868******233800001908651726082019003528000000000079985071449308260820190808840163192871131549231410201931928711315492310201900000000000000000000000000000000007011               00                            1
044080884016192870952741410201900000000000701118CANCEL.DE VENDAS            514868******233800001908651726082019003528000000000079985071449308260820190808840163192871131549231410201931928711315492310201900000000000000000000000000000000007011               00                            1
044080884016192870952751410201900000000000701118CANCEL.DE VENDAS            514868******233800001908651726082019003528000000000079985071449308260820190808840163192871131549231410201931928711315492310201900000000000000000000000000000000007011               00                            1
044080884016192870952761410201900000000000701118CANCEL.DE VENDAS            514868******233800001908651726082019003528000000000079985071449308260820190808840163192871131549231410201931928711315492310201900000000000000000000000000000000007011               00                            1
044080884016192870952771410201900000000000660918CANCEL.DE VENDAS            498453******303800098824742329082019988195000000000033759040349460290820190808840163192871131549861410201931928711315498610201900000000000000000000000000000000006609               00                            3
044080884016192870952781410201900000000000660718CANCEL.DE VENDAS            498453******303800098824742329082019988195000000000033759040349460290820190808840163192871131549861410201931928711315498610201900000000000000000000000000000000006607               00                            3
044080884016192870952791410201900000000000660718CANCEL.DE VENDAS            498453******303800098824742329082019988195000000000033759040349460290820190808840163192871131549861410201931928711315498610201900000000000000000000000000000000006607               00                            3
044080884016192870952801410201900000000000660718CANCEL.DE VENDAS            498453******303800098824742329082019988195000000000033759040349460290820190808840163192871131549861410201931928711315498610201900000000000000000000000000000000006607               00                            3
044080884016192870952811410201900000000000660718CANCEL.DE VENDAS            498453******303800098824742329082019988195000000000033759040349460290820190808840163192871131549861410201931928711315498610201900000000000000000000000000000000006607               00                            3
044080884016192870952821410201900000000000661918CANCEL.DE VENDAS            498408******158300099656115927092019074220000000000040598016749188270920190808840163192871131550141410201931928711315501410201900000000000000000000000000000000006619               00                            3
044080884016192870952831410201900000000000662218CANCEL.DE VENDAS            498408******158300099656115927092019074220000000000040598016749188270920190808840163192871131550141410201931928711315501410201900000000000000000000000000000000006622               00                            3
044080884016192870952841410201900000000000662218CANCEL.DE VENDAS            498408******158300099656115927092019074220000000000040598016749188270920190808840163192871131550141410201931928711315501410201900000000000000000000000000000000006622               00                            3
044080884016192870952851410201900000000000662218CANCEL.DE VENDAS            498408******158300099656115927092019074220000000000040598016749188270920190808840163192871131550141410201931928711315501410201900000000000000000000000000000000006622               00                            3
044080884016192870952861410201900000000000662218CANCEL.DE VENDAS            498408******158300099656115927092019074220000000000040598016749188270920190808840163192871131550141410201931928711315501410201900000000000000000000000000000000006622               00                            3
044080884016192870952871410201900000000000359118CANCEL.DE VENDAS            549167******556500095269899517092019011277000000000049091060449387170920190808840163192871131550221410201931928711315502210201900000000000000000000000000000000003591               00                            1
044080884016192870952881410201900000000000359418CANCEL.DE VENDAS            549167******556500095269899517092019011277000000000049091060449387170920190808840163192871131550221410201931928711315502210201900000000000000000000000000000000003594               00                            1
044080884016192870952891410201900000000000359418CANCEL.DE VENDAS            549167******556500095269899517092019011277000000000049091060449387170920190808840163192871131550221410201931928711315502210201900000000000000000000000000000000003594               00                            1
044080884016192870952901410201900000000000359418CANCEL.DE VENDAS            549167******556500095269899517092019011277000000000049091060449387170920190808840163192871131550221410201931928711315502210201900000000000000000000000000000000003594               00                            1
044080884016192870952911410201900000000000359418CANCEL.DE VENDAS            549167******556500095269899517092019011277000000000049091060449387170920190808840163192871131550221410201931928711315502210201900000000000000000000000000000000003594               00                            1
044080884016192870952921410201900000000000343018CANCEL.DE VENDAS            459080******997100097539297924092019050838000000000028033030949817240920190808840163192871131550301410201931928711315503010201900000000000000000000000000000000003430               00                            3
044080884016192870952931410201900000000000342918CANCEL.DE VENDAS            459080******997100097539297924092019050838000000000028033030949817240920190808840163192871131550301410201931928711315503010201900000000000000000000000000000000003429               00                            3
044080884016192870952941410201900000000000342918CANCEL.DE VENDAS            459080******997100097539297924092019050838000000000028033030949817240920190808840163192871131550301410201931928711315503010201900000000000000000000000000000000003429               00                            3
044080884016192870952951410201900000000000342918CANCEL.DE VENDAS            459080******997100097539297924092019050838000000000028033030949817240920190808840163192871131550301410201931928711315503010201900000000000000000000000000000000003429               00                            3
044080884016192870952961410201900000000000445818CANCEL.DE VENDAS            516292******524900000695650130092019078450000000000038927002149478300920190808840163192871131550601410201931928711315506010201900000000000000000000000000000000004458               00                            1
044080884016192870952971410201900000000000446118CANCEL.DE VENDAS            516292******524900000695650130092019078450000000000038927002149478300920190808840163192871131550601410201931928711315506010201900000000000000000000000000000000004461               00                            1
044080884016192870952981410201900000000000446118CANCEL.DE VENDAS            516292******524900000695650130092019078450000000000038927002149478300920190808840163192871131550601410201931928711315506010201900000000000000000000000000000000004461               00                            1
044080884016192870952991410201900000000000134218CANCEL.DE VENDAS            406669******125200099991288330092019610384000000000030857086549615300920190808840163192871131550641410201931928711315506410201900000000000000000000000000000000001342               00                            3
044080884016192870953001410201900000000000133918CANCEL.DE VENDAS            406669******125200099991288330092019610384000000000030857086549615300920190808840163192871131550641410201931928711315506410201900000000000000000000000000000000001339               00                            3
044080884016192870953011410201900000000000133918CANCEL.DE VENDAS            406669******125200099991288330092019610384000000000030857086549615300920190808840163192871131550641410201931928711315506410201900000000000000000000000000000000001339               00                            3
044080884016192870953021410201900000000000568018CANCEL.DE VENDAS            543882******896700099955862330092019065695000000000014222002149478300920190808840163192871131550881410201931928711315508810201900000000000000000000000000000000005680               00                            1
044080884016192870953031410201900000000000568018CANCEL.DE VENDAS            543882******896700099955862330092019065695000000000014222002149478300920190808840163192871131550881410201931928711315508810201900000000000000000000000000000000005680               00                            1
044080884016192870953041410201900000000000346418CANCEL.DE VENDAS            522840******604600095811460916092019354368000000000057482030649613160920190808840163192871131551171410201931928711315511710201900000000000000000000000000000000003464               00                            1
044080884016192870953051410201900000000000346418CANCEL.DE VENDAS            522840******604600095811460916092019354368000000000057482030649613160920190808840163192871131551171410201931928711315511710201900000000000000000000000000000000003464               00                            1
044080884016192870953061410201900000000000605318CANCEL.DE VENDAS            514945******870100099007811725092019025861000000000018554074249175250920190808840163192871131552071410201931928711315520710201900000000000000000000000000000000006053               00                            1
044080884016192870953071410201900000000000605218CANCEL.DE VENDAS            514945******870100099007811725092019025861000000000018554074249175250920190808840163192871131552071410201931928711315520710201900000000000000000000000000000000006052               00                            1
044080884016192870953081410201900000000000605218CANCEL.DE VENDAS            514945******870100099007811725092019025861000000000018554074249175250920190808840163192871131552071410201931928711315520710201900000000000000000000000000000000006052               00                            1
044080884016192870953091410201900000000000089018CANCEL.DE VENDAS            421847******452000000820960523092019073378000000000012811003349982230920190808840163192871131552131410201931928711315521310201900000000000000000000000000000000000890               00                            3
044080884016192870953101410201900000000000089118CANCEL.DE VENDAS            421847******452000000820960523092019073378000000000012811003349982230920190808840163192871131552131410201931928711315521310201900000000000000000000000000000000000891               00                            3
044080884016192870953111410201900000000000061818CANCEL.DE VENDAS            516292******459700099198255722092019382145000000000029529091549543220920190808840163192871131552171410201931928711315521710201900000000000000000000000000000000000618               00                            1
044080884016192870953121410201900000000000061918CANCEL.DE VENDAS            516292******459700099198255722092019382145000000000029529091549543220920190808840163192871131552171410201931928711315521710201900000000000000000000000000000000000619               00                            1
044080884016192870953131410201900000000000195218CANCEL.DE VENDAS            523421******071500099875955330092019630388000000000064328002149478300920190808840163192871131552341410201931928711315523410201900000000000000000000000000000000001952               00                            1
044080884016192870953141410201900000000000195618CANCEL.DE VENDAS            523421******071500099875955330092019630388000000000064328002149478300920190808840163192871131552341410201931928711315523410201900000000000000000000000000000000001956               00                            1
044080884016192870953151410201900000000000195618CANCEL.DE VENDAS            523421******071500099875955330092019630388000000000064328002149478300920190808840163192871131552341410201931928711315523410201900000000000000000000000000000000001956               00                            1
044080884016192870953161410201900000000000090818CANCEL.DE VENDAS            532930******121400099117419120092019R12472000000000040732050649876200920190808840163192871131553041410201931928711315530410201900000000000000000000000000000000000908               00                            1
044080884016192870953171410201900000000000091118CANCEL.DE VENDAS            532930******121400099117419120092019R12472000000000040732050649876200920190808840163192871131553041410201931928711315530410201900000000000000000000000000000000000911               00                            1
044080884016192870953181410201900000000000091118CANCEL.DE VENDAS            532930******121400099117419120092019R12472000000000040732050649876200920190808840163192871131553041410201931928711315530410201900000000000000000000000000000000000911               00                            1
044080884016192870953191410201900000000000091118CANCEL.DE VENDAS            532930******121400099117419120092019R12472000000000040732050649876200920190808840163192871131553041410201931928711315530410201900000000000000000000000000000000000911               00                            1
044080884016192870953201410201900000000000091118CANCEL.DE VENDAS            532930******121400099117419120092019R12472000000000040732050649876200920190808840163192871131553041410201931928711315530410201900000000000000000000000000000000000911               00                            1
044080884016192870953211410201900000000000358818CANCEL.DE VENDAS            527616******894600099922885930092019052643000000000057243002149478300920190808840163192871131554471410201931928711315544710201900000000000000000000000000000000003588               00                            1
044080884016192870953221410201900000000000358718CANCEL.DE VENDAS            527616******894600099922885930092019052643000000000057243002149478300920190808840163192871131554471410201931928711315544710201900000000000000000000000000000000003587               00                            1
044080884016192870953231410201900000000000358718CANCEL.DE VENDAS            527616******894600099922885930092019052643000000000057243002149478300920190808840163192871131554471410201931928711315544710201900000000000000000000000000000000003587               00                            1
044080884016192870953241410201900000000000307818CANCEL.DE VENDAS            483066******807300099991604530092019087585000000000017653086549615300920190808840163192871131554531410201931928711315545310201900000000000000000000000000000000003078               00                            3
044080884016192870953251410201900000000000307918CANCEL.DE VENDAS            483066******807300099991604530092019087585000000000017653086549615300920190808840163192871131554531410201931928711315545310201900000000000000000000000000000000003079               00                            3
044080884016192870953261410201900000000000594318CANCEL.DE VENDAS            411049******492200098187537714092019053557000000000018219073949853140920190808840163192871131554651410201931928711315546510201900000000000000000000000000000000005943               00                            3
044080884016192870953271410201900000000000594318CANCEL.DE VENDAS            411049******492200098187537714092019053557000000000018219073949853140920190808840163192871131554651410201931928711315546510201900000000000000000000000000000000005943               00                            3
044080884016192870953281410201900000000000594318CANCEL.DE VENDAS            411049******492200098187537714092019053557000000000018219073949853140920190808840163192871131554651410201931928711315546510201900000000000000000000000000000000005943               00                            3
044080884016192870953291410201900000000000098218CANCEL.DE VENDAS            515894******108200095307877717092019527249000000000053428060449387170920190808840163192871131555221410201931928711315552210201900000000000000000000000000000000000982               00                            1
044080884016192870953301410201900000000000098218CANCEL.DE VENDAS            515894******108200095307877717092019527249000000000053428060449387170920190808840163192871131555221410201931928711315552210201900000000000000000000000000000000000982               00                            1
044080884016192870953311410201900000000000098218CANCEL.DE VENDAS            515894******108200095307877717092019527249000000000053428060449387170920190808840163192871131555221410201931928711315552210201900000000000000000000000000000000000982               00                            1
044080884016192870953321410201900000000000978418CANCEL.DE VENDAS            552289******119300098794351919092019029386000000000029990020549028190920190808840163192871131555421410201931928711315554210201900000000000000000000000000000000009784               00                            1
044080884016192870953331410201900000000000978218CANCEL.DE VENDAS            552289******119300098794351919092019029386000000000029990020549028190920190808840163192871131555421410201931928711315554210201900000000000000000000000000000000009782               00                            1
044080884016192870953341410201900000000000978218CANCEL.DE VENDAS            552289******119300098794351919092019029386000000000029990020549028190920190808840163192871131555421410201931928711315554210201900000000000000000000000000000000009782               00                            1
044080884016192870953351410201900000000000141718CANCEL.DE VENDAS            515590******625600099545022723092019581775000000000037429018149560230920190808840163192871131555511410201931928711315555110201900000000000000000000000000000000001417               00                            1
044080884016192870953361410201900000000000141618CANCEL.DE VENDAS            515590******625600099545022723092019581775000000000037429018149560230920190808840163192871131555511410201931928711315555110201900000000000000000000000000000000001416               00                            1
044080884016192870953371410201900000000000141618CANCEL.DE VENDAS            515590******625600099545022723092019581775000000000037429018149560230920190808840163192871131555511410201931928711315555110201900000000000000000000000000000000001416               00                            1
044080884016192870953381410201900000000000449418CANCEL.DE VENDAS            489391******818300098846153918092019013561000000000019385074249624180920190808840163192871131555751410201931928711315557510201900000000000000000000000000000000004494               00                            3
044080884016192870953391410201900000000000449518CANCEL.DE VENDAS            489391******818300098846153918092019013561000000000019385074249624180920190808840163192871131555751410201931928711315557510201900000000000000000000000000000000004495               00                            3
044080884016192870953401410201900000000000449518CANCEL.DE VENDAS            489391******818300098846153918092019013561000000000019385074249624180920190808840163192871131555751410201931928711315557510201900000000000000000000000000000000004495               00                            3
044080884016192870953411410201900000000000540818CANCEL.DE VENDAS            549167******642100001458520920092019077543000000000049624050649876200920190808840163192871131558071410201931928711315580710201900000000000000000000000000000000005408               00                            1
044080884016192870953421410201900000000000540418CANCEL.DE VENDAS            549167******642100001458520920092019077543000000000049624050649876200920190808840163192871131558071410201931928711315580710201900000000000000000000000000000000005404               00                            1
044080884016192870953431410201900000000000540418CANCEL.DE VENDAS            549167******642100001458520920092019077543000000000049624050649876200920190808840163192871131558071410201931928711315580710201900000000000000000000000000000000005404               00                            1
044080884016192870953441410201900000000000540418CANCEL.DE VENDAS            549167******642100001458520920092019077543000000000049624050649876200920190808840163192871131558071410201931928711315580710201900000000000000000000000000000000005404               00                            1
044080884016192870953451410201900000000000540418CANCEL.DE VENDAS            549167******642100001458520920092019077543000000000049624050649876200920190808840163192871131558071410201931928711315580710201900000000000000000000000000000000005404               00                            1
044080884016192870953461410201900000000002107118CANCEL.DE VENDAS            515590******975300096505770316092019141281000000000064597030649613160920190808840163192871131558531410201931928711315585310201900000000000000000000000000000000021071               00                            1
044080884016192870953471410201900000000002107218CANCEL.DE VENDAS            515590******975300096505770316092019141281000000000064597030649613160920190808840163192871131558531410201931928711315585310201900000000000000000000000000000000021072               00                            1
044080884016192870953481410201900000000002107218CANCEL.DE VENDAS            515590******975300096505770316092019141281000000000064597030649613160920190808840163192871131558531410201931928711315585310201900000000000000000000000000000000021072               00                            1
044080884016192870953491410201900000000001250318CANCEL.DE VENDAS            422005******403300099562314701102019073167000000000025554012349651011020190808840163192871131558601410201931928711315586010201900000000000000000000000000000000012503               00                            3
044080884016192870953501410201900000000001250418CANCEL.DE VENDAS            422005******403300099562314701102019073167000000000025554012349651011020190808840163192871131558601410201931928711315586010201900000000000000000000000000000000012504               00                            3
044080884016192870953511410201900000000000761718CANCEL.DE VENDAS            421958******062700099765293523092019892436000000000054130003349982230920190808840163192871131558611410201931928711315586110201900000000000000000000000000000000007617               00                            3
044080884016192870953521410201900000000000761918CANCEL.DE VENDAS            421958******062700099765293523092019892436000000000054130003349982230920190808840163192871131558611410201931928711315586110201900000000000000000000000000000000007619               00                            3
044080884016192870953531410201900000000000761918CANCEL.DE VENDAS            421958******062700099765293523092019892436000000000054130003349982230920190808840163192871131558611410201931928711315586110201900000000000000000000000000000000007619               00                            3
044080884016192870953541410201900000000000761918CANCEL.DE VENDAS            421958******062700099765293523092019892436000000000054130003349982230920190808840163192871131558611410201931928711315586110201900000000000000000000000000000000007619               00                            3
044080884016192870953551410201900000000000761918CANCEL.DE VENDAS            421958******062700099765293523092019892436000000000054130003349982230920190808840163192871131558611410201931928711315586110201900000000000000000000000000000000007619               00                            3
044080884016192870953561410201900000000000926918CANCEL.DE VENDAS            406871******285300099554503730092019078540000000000056856086549615300920190808840163192871131558761410201931928711315587610201900000000000000000000000000000000009269               00                            3
044080884016192870953571410201900000000000927418CANCEL.DE VENDAS            406871******285300099554503730092019078540000000000056856086549615300920190808840163192871131558761410201931928711315587610201900000000000000000000000000000000009274               00                            3
044080884016192870953581410201900000000000927418CANCEL.DE VENDAS            406871******285300099554503730092019078540000000000056856086549615300920190808840163192871131558761410201931928711315587610201900000000000000000000000000000000009274               00                            3
044080884016192870953591410201900000000000417718CANCEL.DE VENDAS            544915******011600099196298522092019R42013000000000017073091549543220920190808840163192871131558841410201931928711315588410201900000000000000000000000000000000004177               00                            1
044080884016192870953601410201900000000000417718CANCEL.DE VENDAS            544915******011600099196298522092019R42013000000000017073091549543220920190808840163192871131558841410201931928711315588410201900000000000000000000000000000000004177               00                            1
044080884016192870953611410201900000000000160718CANCEL.DE VENDAS            421958******797700095295816117092019142682000000000013272044249858170920190808840163192871131559251410201931928711315592510201900000000000000000000000000000000001607               00                            3
044080884016192870953621410201900000000000160618CANCEL.DE VENDAS            421958******797700095295816117092019142682000000000013272044249858170920190808840163192871131559251410201931928711315592510201900000000000000000000000000000000001606               00                            3
044080884016192870953631410201900000000000086218CANCEL.DE VENDAS            523421******081100099578839529072019450305000000000022382014449248290720190808840163192871135040041410201931928711350400410201900000000000000000000000000000000000862               00                            1
044080884016192870953641410201900000000000086218CANCEL.DE VENDAS            523421******081100099578839529072019450305000000000022382014449248290720190808840163192871135040041410201931928711350400410201900000000000000000000000000000000000862               00                            1
044080884016192870953651410201900000000000502818CANCEL.DE VENDAS            553636******030000098880340318082019050300000000000037801062449929180820190808840163192871135041541410201931928711350415410201900000000000000000000000000000000005028               00                            1
044080884016192870953661410201900000000000502618CANCEL.DE VENDAS            553636******030000098880340318082019050300000000000037801062449929180820190808840163192871135041541410201931928711350415410201900000000000000000000000000000000005026               00                            1
044080884016192870953671410201900000000000502618CANCEL.DE VENDAS            553636******030000098880340318082019050300000000000037801062449929180820190808840163192871135041541410201931928711350415410201900000000000000000000000000000000005026               00                            1
044080884016192870953681410201900000000000502618CANCEL.DE VENDAS            553636******030000098880340318082019050300000000000037801062449929180820190808840163192871135041541410201931928711350415410201900000000000000000000000000000000005026               00                            1
044080884016192870953691410201900000000000502618CANCEL.DE VENDAS            553636******030000098880340318082019050300000000000037801062449929180820190808840163192871135041541410201931928711350415410201900000000000000000000000000000000005026               00                            1
044080884016192870953701410201900000000000502618CANCEL.DE VENDAS            553636******030000098880340318082019050300000000000037801062449929180820190808840163192871135041541410201931928711350415410201900000000000000000000000000000000005026               00                            1
044080884016192870953711410201900000000002893318CANCEL.DE VENDAS            472280******003500099141904331072019274941000000000059132056549625310720190808840163192871135042181410201931928711350421810201900000000000000000000000000000000028933               00                            3
044080884016192870953721410201900000000002893418CANCEL.DE VENDAS            472280******003500099141904331072019274941000000000059132056549625310720190808840163192871135042181410201931928711350421810201900000000000000000000000000000000028934               00                            3
044080884016192870953731410201900000000000125918CANCEL.DE VENDAS            553636******388300098715220328072019003087000000000038546086449911280720190808840163192871135044761410201931928711350447610201900000000000000000000000000000000001259               00                            1
044080884016192870953741410201900000000000125718CANCEL.DE VENDAS            553636******388300098715220328072019003087000000000038546086449911280720190808840163192871135044761410201931928711350447610201900000000000000000000000000000000001257               00                            1
044080884016192870953751410201900000000000125718CANCEL.DE VENDAS            553636******388300098715220328072019003087000000000038546086449911280720190808840163192871135044761410201931928711350447610201900000000000000000000000000000000001257               00                            1
044080884016192870953761410201900000000000125718CANCEL.DE VENDAS            553636******388300098715220328072019003087000000000038546086449911280720190808840163192871135044761410201931928711350447610201900000000000000000000000000000000001257               00                            1
044080884016192870953771410201900000000000125718CANCEL.DE VENDAS            553636******388300098715220328072019003087000000000038546086449911280720190808840163192871135044761410201931928711350447610201900000000000000000000000000000000001257               00                            1
044080884016192870953781410201900000000000125718CANCEL.DE VENDAS            553636******388300098715220328072019003087000000000038546086449911280720190808840163192871135044761410201931928711350447610201900000000000000000000000000000000001257               00                            1
044080884016192870953791410201900000000000764818CANCEL.DE VENDAS            550209******634900098968662321082019425115000000000023448046149636210820190808840163192871135044901410201931928711350449010201900000000000000000000000000000000007648               00                            1
044080884016192870953801410201900000000000764918CANCEL.DE VENDAS            550209******634900098968662321082019425115000000000023448046149636210820190808840163192871135044901410201931928711350449010201900000000000000000000000000000000007649               00                            1
044080884016192870953811410201900000000000764918CANCEL.DE VENDAS            550209******634900098968662321082019425115000000000023448046149636210820190808840163192871135044901410201931928711350449010201900000000000000000000000000000000007649               00                            1
044080884016192870953821410201900000000001928618CANCEL.DE VENDAS            514945******025500099346393712082019037429000000000039416001349912120820190808840163192871135046001410201931928711350460010201900000000000000000000000000000000019286               00                            1
044080884016192870953831410201900000000001928618CANCEL.DE VENDAS            514945******025500099346393712082019037429000000000039416001349912120820190808840163192871135046001410201931928711350460010201900000000000000000000000000000000019286               00                            1
044080884016192870953841410201900000000000082918CANCEL.DE VENDAS            523421******414600095871962316092019047802000000000024737030649613160920190808840163192871135050051410201931928711350500510201900000000000000000000000000000000000829               00                            1
044080884016192870953851410201900000000000083018CANCEL.DE VENDAS            523421******414600095871962316092019047802000000000024737030649613160920190808840163192871135050051410201931928711350500510201900000000000000000000000000000000000830               00                            1
044080884016192870953861410201900000000000083018CANCEL.DE VENDAS            523421******414600095871962316092019047802000000000024737030649613160920190808840163192871135050051410201931928711350500510201900000000000000000000000000000000000830               00                            1
044080884016192870953871410201900000000000083018CANCEL.DE VENDAS            523421******414600095871962316092019047802000000000024737030649613160920190808840163192871135050051410201931928711350500510201900000000000000000000000000000000000830               00                            1
044080884016192870953881410201900000000000624018CANCEL.DE VENDAS            544731******786000099953873130092019294083000000000017477002149478300920190808840163192871135051201410201931928711350512010201900000000000000000000000000000000006240               00                            1
044080884016192870953891410201900000000000624118CANCEL.DE VENDAS            544731******786000099953873130092019294083000000000017477002149478300920190808840163192871135051201410201931928711350512010201900000000000000000000000000000000006241               00                            1
044080884016192870953901410201900000000000419818CANCEL.DE VENDAS            545430******901500099875954330092019098320000000000021837002149478300920190808840163192871135051371410201931928711350513710201900000000000000000000000000000000004198               00                            1
044080884016192870953911410201900000000000419718CANCEL.DE VENDAS            545430******901500099875954330092019098320000000000021837002149478300920190808840163192871135051371410201931928711350513710201900000000000000000000000000000000004197               00                            1
044080884016192870953921410201900000000000163218CANCEL.DE VENDAS            435002******506600098079359319092019029429000000000150127004349468190920190808840163192871135051481410201931928711350514810201900000000000000000000000000000000001632               00                            3
044080884016192870953931410201900000000000163418CANCEL.DE VENDAS            435002******506600098079359319092019029429000000000150127004349468190920190808840163192871135051481410201931928711350514810201900000000000000000000000000000000001634               00                            3
044080884016192870953941410201900000000000163418CANCEL.DE VENDAS            435002******506600098079359319092019029429000000000150127004349468190920190808840163192871135051481410201931928711350514810201900000000000000000000000000000000001634               00                            3
044080884016192870953951410201900000000000163418CANCEL.DE VENDAS            435002******506600098079359319092019029429000000000150127004349468190920190808840163192871135051481410201931928711350514810201900000000000000000000000000000000001634               00                            3
044080884016192870953961410201900000000000194918CANCEL.DE VENDAS            550209******277600099984465130092019581208000000000029949002149478300920190808840163192871135051691410201931928711350516910201900000000000000000000000000000000001949               00                            1
044080884016192870953971410201900000000000194818CANCEL.DE VENDAS            550209******277600099984465130092019581208000000000029949002149478300920190808840163192871135051691410201931928711350516910201900000000000000000000000000000000001948               00                            1
044080884016192870953981410201900000000000194818CANCEL.DE VENDAS            550209******277600099984465130092019581208000000000029949002149478300920190808840163192871135051691410201931928711350516910201900000000000000000000000000000000001948               00                            1
044080884016192870953991410201900000000000046818CANCEL.DE VENDAS            498406******133300097973318724092019662355000000000059511030949817240920190808840163192871135052111410201931928711350521110201900000000000000000000000000000000000468               00                            3
044080884016192870954001410201900000000000047018CANCEL.DE VENDAS            498406******133300097973318724092019662355000000000059511030949817240920190808840163192871135052111410201931928711350521110201900000000000000000000000000000000000470               00                            3
044080884016192870954011410201900000000000047018CANCEL.DE VENDAS            498406******133300097973318724092019662355000000000059511030949817240920190808840163192871135052111410201931928711350521110201900000000000000000000000000000000000470               00                            3
044080884016192870954021410201900000000000047018CANCEL.DE VENDAS            498406******133300097973318724092019662355000000000059511030949817240920190808840163192871135052111410201931928711350521110201900000000000000000000000000000000000470               00                            3
044080884016192870954031410201900000000000047018CANCEL.DE VENDAS            498406******133300097973318724092019662355000000000059511030949817240920190808840163192871135052111410201931928711350521110201900000000000000000000000000000000000470               00                            3
044080884016192870954041410201900000000000634118CANCEL.DE VENDAS            553636******496900002501778909092019003675000000000062276031249344090920190808840163192871135052131410201931928711350521310201900000000000000000000000000000000006341               00                            1
044080884016192870954051410201900000000000634218CANCEL.DE VENDAS            553636******496900002501778909092019003675000000000062276031249344090920190808840163192871135052131410201931928711350521310201900000000000000000000000000000000006342               00                            1
044080884016192870954061410201900000000000634218CANCEL.DE VENDAS            553636******496900002501778909092019003675000000000062276031249344090920190808840163192871135052131410201931928711350521310201900000000000000000000000000000000006342               00                            1
044080884016192870954071410201900000000000634218CANCEL.DE VENDAS            553636******496900002501778909092019003675000000000062276031249344090920190808840163192871135052131410201931928711350521310201900000000000000000000000000000000006342               00                            1
044080884016192870954081410201900000000000634218CANCEL.DE VENDAS            553636******496900002501778909092019003675000000000062276031249344090920190808840163192871135052131410201931928711350521310201900000000000000000000000000000000006342               00                            1
044080884016192870954091410201900000000000509018CANCEL.DE VENDAS            415275******512500098826343515092019072937000000000042328096849904150920190808840163192871135052361410201931928711350523610201900000000000000000000000000000000005090               00                            3
044080884016192870954101410201900000000000508618CANCEL.DE VENDAS            415275******512500098826343515092019072937000000000042328096849904150920190808840163192871135052361410201931928711350523610201900000000000000000000000000000000005086               00                            3
044080884016192870954111410201900000000000508618CANCEL.DE VENDAS            415275******512500098826343515092019072937000000000042328096849904150920190808840163192871135052361410201931928711350523610201900000000000000000000000000000000005086               00                            3
044080884016192870954121410201900000000000508618CANCEL.DE VENDAS            415275******512500098826343515092019072937000000000042328096849904150920190808840163192871135052361410201931928711350523610201900000000000000000000000000000000005086               00                            3
044080884016192870954131410201900000000000508618CANCEL.DE VENDAS            415275******512500098826343515092019072937000000000042328096849904150920190808840163192871135052361410201931928711350523610201900000000000000000000000000000000005086               00                            3
044080884016192870954141410201900000000000400418CANCEL.DE VENDAS            498406******258000098527887318092019063649000000000025689074249624180920190808840163192871135052731410201931928711350527310201900000000000000000000000000000000004004               00                            3
044080884016192870954151410201900000000000400418CANCEL.DE VENDAS            498406******258000098527887318092019063649000000000025689074249624180920190808840163192871135052731410201931928711350527310201900000000000000000000000000000000004004               00                            3
044080884016192870954161410201900000000000853418CANCEL.DE VENDAS            550209******316400097860954514092019553272000000000052313091449814140920190808840163192871135052871410201931928711350528710201900000000000000000000000000000000008534               00                            1
044080884016192870954171410201900000000000853218CANCEL.DE VENDAS            550209******316400097860954514092019553272000000000052313091449814140920190808840163192871135052871410201931928711350528710201900000000000000000000000000000000008532               00                            1
044080884016192870954181410201900000000000853218CANCEL.DE VENDAS            550209******316400097860954514092019553272000000000052313091449814140920190808840163192871135052871410201931928711350528710201900000000000000000000000000000000008532               00                            1
044080884016192870954191410201900000000000853218CANCEL.DE VENDAS            550209******316400097860954514092019553272000000000052313091449814140920190808840163192871135052871410201931928711350528710201900000000000000000000000000000000008532               00                            1
044080884016192870954201410201900000000000853218CANCEL.DE VENDAS            550209******316400097860954514092019553272000000000052313091449814140920190808840163192871135052871410201931928711350528710201900000000000000000000000000000000008532               00                            1
044080884016192870954211410201900000000000419318CANCEL.DE VENDAS            459020******280500099927319330092019024856000000000020906086549615300920190808840163192871135052881410201931928711350528810201900000000000000000000000000000000004193               00                            3
044080884016192870954221410201900000000000419518CANCEL.DE VENDAS            459020******280500099927319330092019024856000000000020906086549615300920190808840163192871135052881410201931928711350528810201900000000000000000000000000000000004195               00                            3
044080884016192870954231410201900000000000419518CANCEL.DE VENDAS            459020******280500099927319330092019024856000000000020906086549615300920190808840163192871135052881410201931928711350528810201900000000000000000000000000000000004195               00                            3
044080884016192870954241410201900000000000641818CANCEL.DE VENDAS            512682******456300099944297530092019523030000000000013118002149478300920190808840163192871135053151410201931928711350531510201900000000000000000000000000000000006418               00                            1
044080884016192870954251410201900000000000641918CANCEL.DE VENDAS            512682******456300099944297530092019523030000000000013118002149478300920190808840163192871135053151410201931928711350531510201900000000000000000000000000000000006419               00                            1
044080884016192870954261410201900000000001359318CANCEL.DE VENDAS            490172******015400099875968730092019062750000000000040159086549615300920190808840163192871135053311410201931928711350533110201900000000000000000000000000000000013593               00                            3
044080884016192870954271410201900000000001359218CANCEL.DE VENDAS            490172******015400099875968730092019062750000000000040159086549615300920190808840163192871135053311410201931928711350533110201900000000000000000000000000000000013592               00                            3
044080884016192870954281410201900000000001210118CANCEL.DE VENDAS            406655******077600099598163330092019635330000000000024732086549615300920190808840163192871135053401410201931928711350534010201900000000000000000000000000000000012101               00                            3
044080884016192870954291410201900000000001210218CANCEL.DE VENDAS            406655******077600099598163330092019635330000000000024732086549615300920190808840163192871135053401410201931928711350534010201900000000000000000000000000000000012102               00                            3
044080884016192870954301410201900000000000814018CANCEL.DE VENDAS            412791******333800099452641728092019027566000000000016636047549022280920190808840163192871135053481410201931928711350534810201900000000000000000000000000000000008140               00                            3
044080884016192870954311410201900000000000814018CANCEL.DE VENDAS            412791******333800099452641728092019027566000000000016636047549022280920190808840163192871135053481410201931928711350534810201900000000000000000000000000000000008140               00                            3
044080884016192870954321410201900000000000216018CANCEL.DE VENDAS            498406******323100099037440106092019966516000000000029781055249853060920190808840163192871135053541410201931928711350535410201900000000000000000000000000000000002160               00                            3
044080884016192870954331410201900000000000215918CANCEL.DE VENDAS            498406******323100099037440106092019966516000000000029781055249853060920190808840163192871135053541410201931928711350535410201900000000000000000000000000000000002159               00                            3
044080884016192870954341410201900000000000215918CANCEL.DE VENDAS            498406******323100099037440106092019966516000000000029781055249853060920190808840163192871135053541410201931928711350535410201900000000000000000000000000000000002159               00                            3
044080884016192870954351410201900000000000215918CANCEL.DE VENDAS            498406******323100099037440106092019966516000000000029781055249853060920190808840163192871135053541410201931928711350535410201900000000000000000000000000000000002159               00                            3
044080884016192870954361410201900000000000332218CANCEL.DE VENDAS            553636******606000098355106715092019059347000000000173870002349254150920190808840163192871135054231410201931928711350542310201900000000000000000000000000000000003322               00                            1
044080884016192870954371410201900000000000332618CANCEL.DE VENDAS            553636******606000098355106715092019059347000000000173870002349254150920190808840163192871135054231410201931928711350542310201900000000000000000000000000000000003326               00                            1
044080884016192870954381410201900000000000332618CANCEL.DE VENDAS            553636******606000098355106715092019059347000000000173870002349254150920190808840163192871135054231410201931928711350542310201900000000000000000000000000000000003326               00                            1
044080884016192870954391410201900000000000332618CANCEL.DE VENDAS            553636******606000098355106715092019059347000000000173870002349254150920190808840163192871135054231410201931928711350542310201900000000000000000000000000000000003326               00                            1
044080884016192870954401410201900000000000332618CANCEL.DE VENDAS            553636******606000098355106715092019059347000000000173870002349254150920190808840163192871135054231410201931928711350542310201900000000000000000000000000000000003326               00                            1
044080884016192870954411410201900000000000163118CANCEL.DE VENDAS            554927******724100097835656922082019041116000000000017819074849554220820190808840163192871135054391410201931928711350543910201900000000000000000000000000000000001631               00                            1
044080884016192870954421410201900000000000163218CANCEL.DE VENDAS            554927******724100097835656922082019041116000000000017819074849554220820190808840163192871135054391410201931928711350543910201900000000000000000000000000000000001632               00                            1
044080884016192870954431410201900000000000163218CANCEL.DE VENDAS            554927******724100097835656922082019041116000000000017819074849554220820190808840163192871135054391410201931928711350543910201900000000000000000000000000000000001632               00                            1
044080884016192870954441410201900000000000211518CANCEL.DE VENDAS            552305******934600098804208102092019613313000000000018508053249857020920190808840163192871135054491410201931928711350544910201900000000000000000000000000000000002115               00                            1
044080884016192870954451410201900000000000211618CANCEL.DE VENDAS            552305******934600098804208102092019613313000000000018508053249857020920190808840163192871135054491410201931928711350544910201900000000000000000000000000000000002116               00                            1
044080884016192870954461410201900000000001887418CANCEL.DE VENDAS            522840******178400001813107109092019392173000000000038574031249344090920190808840163192871135055301410201931928711350553010201900000000000000000000000000000000018874               00                            1
044080884016192870954471410201900000000001887518CANCEL.DE VENDAS            522840******178400001813107109092019392173000000000038574031249344090920190808840163192871135055301410201931928711350553010201900000000000000000000000000000000018875               00                            1
044080884016192870954481410201900000000000658918CANCEL.DE VENDAS            544915******112900098498504531082019R42512000000000031204016649638310820190808840163192871135055411410201931928711350554110201900000000000000000000000000000000006589               00                            1
044080884016192870954491410201900000000000658818CANCEL.DE VENDAS            544915******112900098498504531082019R42512000000000031204016649638310820190808840163192871135055411410201931928711350554110201900000000000000000000000000000000006588               00                            1
044080884016192870954501410201900000000000588918CANCEL.DE VENDAS            544570******287900099914846930092019069043000000000012036002149478300920190808840163192871135055731410201931928711350557310201900000000000000000000000000000000005889               00                            1
044080884016192870954511410201900000000000588918CANCEL.DE VENDAS            544570******287900099914846930092019069043000000000012036002149478300920190808840163192871135055731410201931928711350557310201900000000000000000000000000000000005889               00                            1
044080884016192870954521410201900000000005092218CANCEL.DE VENDAS            606282******637100098803301302092019039012000000000104200053249858020920190808840163192871135055881410201931928711350558810201900000000000000000000000000000000050922               00                            5
044080884016192870954531410201900000000005092318CANCEL.DE VENDAS            606282******637100098803301302092019039012000000000104200053249858020920190808840163192871135055881410201931928711350558810201900000000000000000000000000000000050923               00                            5
044080884016192870954541410201900000000000287218CANCEL.DE VENDAS            406669******825600095313065917092019654433000000000033310044249858170920190808840163192871135055891410201931928711350558910201900000000000000000000000000000000002872               00                            3
044080884016192870954551410201900000000000287318CANCEL.DE VENDAS            406669******825600095313065917092019654433000000000033310044249858170920190808840163192871135055891410201931928711350558910201900000000000000000000000000000000002873               00                            3
044080884016192870954561410201900000000000287318CANCEL.DE VENDAS            406669******825600095313065917092019654433000000000033310044249858170920190808840163192871135055891410201931928711350558910201900000000000000000000000000000000002873               00                            3
044080884016192870954571410201900000000000287318CANCEL.DE VENDAS            406669******825600095313065917092019654433000000000033310044249858170920190808840163192871135055891410201931928711350558910201900000000000000000000000000000000002873               00                            3
044080884016192870954581410201900000000000287318CANCEL.DE VENDAS            406669******825600095313065917092019654433000000000033310044249858170920190808840163192871135055891410201931928711350558910201900000000000000000000000000000000002873               00                            3
044080884016192870954591410201900000000000858618CANCEL.DE VENDAS            516220******927100001806410520092019251813000000000037828050649876200920190808840163192871135056131410201931928711350561310201900000000000000000000000000000000008586               00                            1
044080884016192870954601410201900000000000858818CANCEL.DE VENDAS            516220******927100001806410520092019251813000000000037828050649876200920190808840163192871135056131410201931928711350561310201900000000000000000000000000000000008588               00                            1
044080884016192870954611410201900000000000858818CANCEL.DE VENDAS            516220******927100001806410520092019251813000000000037828050649876200920190808840163192871135056131410201931928711350561310201900000000000000000000000000000000008588               00                            1
044080884016192870954621410201900000000001589918CANCEL.DE VENDAS            406655******698400098845701931082019624901000000000064990000349717310820190808840163192871135056141410201931928711350561410201900000000000000000000000000000000015899               00                            3
044080884016192870954631410201900000000001590018CANCEL.DE VENDAS            406655******698400098845701931082019624901000000000064990000349717310820190808840163192871135056141410201931928711350561410201900000000000000000000000000000000015900               00                            3
044080884016192870954641410201900000000001590018CANCEL.DE VENDAS            406655******698400098845701931082019624901000000000064990000349717310820190808840163192871135056141410201931928711350561410201900000000000000000000000000000000015900               00                            3
044080884016192870954651410201900000000001590018CANCEL.DE VENDAS            406655******698400098845701931082019624901000000000064990000349717310820190808840163192871135056141410201931928711350561410201900000000000000000000000000000000015900               00                            3
044080884016192870954661410201900000000003831718CANCEL.DE VENDAS            552289******096900098952553921092019096418000000000195775081549829210920190808840163192871135056181410201931928711350561810201900000000000000000000000000000000038317               00                            1
044080884016192870954671410201900000000003831718CANCEL.DE VENDAS            552289******096900098952553921092019096418000000000195775081549829210920190808840163192871135056181410201931928711350561810201900000000000000000000000000000000038317               00                            1
044080884016192870954681410201900000000003831718CANCEL.DE VENDAS            552289******096900098952553921092019096418000000000195775081549829210920190808840163192871135056181410201931928711350561810201900000000000000000000000000000000038317               00                            1
044080884016192870954691410201900000000003831718CANCEL.DE VENDAS            552289******096900098952553921092019096418000000000195775081549829210920190808840163192871135056181410201931928711350561810201900000000000000000000000000000000038317               00                            1
044080884016192870954701410201900000000003831718CANCEL.DE VENDAS            552289******096900098952553921092019096418000000000195775081549829210920190808840163192871135056181410201931928711350561810201900000000000000000000000000000000038317               00                            1
044080884016192870954711410201900000000000386818CANCEL.DE VENDAS            553639******611500099927405330092019086207000000000073458002149478300920190808840163192871135056621410201931928711350566210201900000000000000000000000000000000003868               00                            1
044080884016192870954721410201900000000000386918CANCEL.DE VENDAS            553639******611500099927405330092019086207000000000073458002149478300920190808840163192871135056621410201931928711350566210201900000000000000000000000000000000003869               00                            1
044080884016192870954731410201900000000000386918CANCEL.DE VENDAS            553639******611500099927405330092019086207000000000073458002149478300920190808840163192871135056621410201931928711350566210201900000000000000000000000000000000003869               00                            1
044080884016192870954741410201900000000000728218CANCEL.DE VENDAS            530994******097800097607310120092019069824000000000014884050649876200920190808840163192871135057291410201931928711350572910201900000000000000000000000000000000007282               00                            1
044080884016192870954751410201900000000000728318CANCEL.DE VENDAS            530994******097800097607310120092019069824000000000014884050649876200920190808840163192871135057291410201931928711350572910201900000000000000000000000000000000007283               00                            1
044080884016192870954761410201900000000000748718CANCEL.DE VENDAS            536518******111900098831420321082019230742000000000015302046149636210820190808840163192871135057311410201931928711350573110201900000000000000000000000000000000007487               00                            1
044080884016192870954771410201900000000000748818CANCEL.DE VENDAS            536518******111900098831420321082019230742000000000015302046149636210820190808840163192871135057311410201931928711350573110201900000000000000000000000000000000007488               00                            1
044080884016192870954781410201900000000000167918CANCEL.DE VENDAS            498407******824100098828040329082019075660000000000014125040349460290820190808840163192871135057411410201931928711350574110201900000000000000000000000000000000001679               00                            3
044080884016192870954791410201900000000000167918CANCEL.DE VENDAS            498407******824100098828040329082019075660000000000014125040349460290820190808840163192871135057411410201931928711350574110201900000000000000000000000000000000001679               00                            3
044080884016192870954801410201900000000000257118CANCEL.DE VENDAS            498408******915400099555107730092019635215000000000045328086549615300920190808840163192871135057801410201931928711350578010201900000000000000000000000000000000002571               00                            3
044080884016192870954811410201900000000000256918CANCEL.DE VENDAS            498408******915400099555107730092019635215000000000045328086549615300920190808840163192871135057801410201931928711350578010201900000000000000000000000000000000002569               00                            3
044080884016192870954821410201900000000000256918CANCEL.DE VENDAS            498408******915400099555107730092019635215000000000045328086549615300920190808840163192871135057801410201931928711350578010201900000000000000000000000000000000002569               00                            3
044080884016192870954831410201900000000000933318CANCEL.DE VENDAS            406669******756700096452941713092019630249000000000057207040749669130920190808840163192871135058191410201931928711350581910201900000000000000000000000000000000009333               00                            3
044080884016192870954841410201900000000000933018CANCEL.DE VENDAS            406669******756700096452941713092019630249000000000057207040749669130920190808840163192871135058191410201931928711350581910201900000000000000000000000000000000009330               00                            3
044080884016192870954851410201900000000000933018CANCEL.DE VENDAS            406669******756700096452941713092019630249000000000057207040749669130920190808840163192871135058191410201931928711350581910201900000000000000000000000000000000009330               00                            3
044080884016192870954861410201900000000000933018CANCEL.DE VENDAS            406669******756700096452941713092019630249000000000057207040749669130920190808840163192871135058191410201931928711350581910201900000000000000000000000000000000009330               00                            3
044080884016192870954871410201900000000000933018CANCEL.DE VENDAS            406669******756700096452941713092019630249000000000057207040749669130920190808840163192871135058191410201931928711350581910201900000000000000000000000000000000009330               00                            3
044080884016192870954881410201900000000000166618CANCEL.DE VENDAS            406655******433400098165858725092019642476000000000054541059049571250920190808840163192871135058231410201931928711350582310201900000000000000000000000000000000001666               00                            3
044080884016192870954891410201900000000000166618CANCEL.DE VENDAS            406655******433400098165858725092019642476000000000054541059049571250920190808840163192871135058231410201931928711350582310201900000000000000000000000000000000001666               00                            3
044080884016192870954901410201900000000000166618CANCEL.DE VENDAS            406655******433400098165858725092019642476000000000054541059049571250920190808840163192871135058231410201931928711350582310201900000000000000000000000000000000001666               00                            3
044080884016192870954911410201900000000000166618CANCEL.DE VENDAS            406655******433400098165858725092019642476000000000054541059049571250920190808840163192871135058231410201931928711350582310201900000000000000000000000000000000001666               00                            3
044080884016192870954921410201900000000000166618CANCEL.DE VENDAS            406655******433400098165858725092019642476000000000054541059049571250920190808840163192871135058231410201931928711350582310201900000000000000000000000000000000001666               00                            3
044080884016192870954931410201900000000000351018CANCEL.DE VENDAS            490172******191000097033044516092019052981000000000046780015049803160920190808840163192871135058571410201931928711350585710201900000000000000000000000000000000003510               00                            3
044080884016192870954941410201900000000000351518CANCEL.DE VENDAS            490172******191000097033044516092019052981000000000046780015049803160920190808840163192871135058571410201931928711350585710201900000000000000000000000000000000003515               00                            3
044080884016192870954951410201900000000000351518CANCEL.DE VENDAS            490172******191000097033044516092019052981000000000046780015049803160920190808840163192871135058571410201931928711350585710201900000000000000000000000000000000003515               00                            3
044080884016192870954961410201900000000000351518CANCEL.DE VENDAS            490172******191000097033044516092019052981000000000046780015049803160920190808840163192871135058571410201931928711350585710201900000000000000000000000000000000003515               00                            3
044080884016192870954971410201900000000000351518CANCEL.DE VENDAS            490172******191000097033044516092019052981000000000046780015049803160920190808840163192871135058571410201931928711350585710201900000000000000000000000000000000003515               00                            3
044080884016192870954981410201900000000000191618CANCEL.DE VENDAS            522840******703300099926773504092019450251000000000031009010549848040920190808840163192871135058951410201931928711350589510201900000000000000000000000000000000001916               00                            1
044080884016192870954991410201900000000000191618CANCEL.DE VENDAS            522840******703300099926773504092019450251000000000031009010549848040920190808840163192871135058951410201931928711350589510201900000000000000000000000000000000001916               00                            1
044080884016192870955001410201900000000000191618CANCEL.DE VENDAS            522840******703300099926773504092019450251000000000031009010549848040920190808840163192871135058951410201931928711350589510201900000000000000000000000000000000001916               00                            1
044080884016192870955011410201900000000000191618CANCEL.DE VENDAS            522840******703300099926773504092019450251000000000031009010549848040920190808840163192871135058951410201931928711350589510201900000000000000000000000000000000001916               00                            1
044080884016192870955021410201900000000000191618CANCEL.DE VENDAS            522840******703300099926773504092019450251000000000031009010549848040920190808840163192871135058951410201931928711350589510201900000000000000000000000000000000001916               00                            1
044080884016192870955031410201900000000000187518CANCEL.DE VENDAS            528392******006600099597118730092019056636000000000020902002149478300920190808840163192871135059141410201931928711350591410201900000000000000000000000000000000001875               00                            1
044080884016192870955041410201900000000000187318CANCEL.DE VENDAS            528392******006600099597118730092019056636000000000020902002149478300920190808840163192871135059141410201931928711350591410201900000000000000000000000000000000001873               00                            1
044080884016192870955051410201900000000000187318CANCEL.DE VENDAS            528392******006600099597118730092019056636000000000020902002149478300920190808840163192871135059141410201931928711350591410201900000000000000000000000000000000001873               00                            1
044080884016192870955061410201900000000000419918CANCEL.DE VENDAS            552937******709600000817990323092019625782000000000013152018149560230920190808840163192871135059151410201931928711350591510201900000000000000000000000000000000004199               00                            1
044080884016192870955071410201900000000000419818CANCEL.DE VENDAS            552937******709600000817990323092019625782000000000013152018149560230920190808840163192871135059151410201931928711350591510201900000000000000000000000000000000004198               00                            1
044080884016192870955081410201900000000000527218CANCEL.DE VENDAS            522840******384200099571132930092019363473000000000187907002149478300920190808840163192871135059431410201931928711350594310201900000000000000000000000000000000005272               00                            1
044080884016192870955091410201900000000000527118CANCEL.DE VENDAS            522840******384200099571132930092019363473000000000187907002149478300920190808840163192871135059431410201931928711350594310201900000000000000000000000000000000005271               00                            1
044080884016192870955101410201900000000000527118CANCEL.DE VENDAS            522840******384200099571132930092019363473000000000187907002149478300920190808840163192871135059431410201931928711350594310201900000000000000000000000000000000005271               00                            1
044080884016192870955111410201900000000000824418CANCEL.DE VENDAS            549167******897800098322593916092019012129000000000042053030649613160920190808840163192871135059461410201931928711350594610201900000000000000000000000000000000008244               00                            1
044080884016192870955121410201900000000000824518CANCEL.DE VENDAS            549167******897800098322593916092019012129000000000042053030649613160920190808840163192871135059461410201931928711350594610201900000000000000000000000000000000008245               00                            1
044080884016192870955131410201900000000000510118CANCEL.DE VENDAS            522688******060600002121396726082019654468000000000034350071449308260820190808840163192871135059481410201931928711350594810201900000000000000000000000000000000005101               00                            1
044080884016192870955141410201900000000000510218CANCEL.DE VENDAS            522688******060600002121396726082019654468000000000034350071449308260820190808840163192871135059481410201931928711350594810201900000000000000000000000000000000005102               00                            1
044080884016192870955151410201900000000000510218CANCEL.DE VENDAS            522688******060600002121396726082019654468000000000034350071449308260820190808840163192871135059481410201931928711350594810201900000000000000000000000000000000005102               00                            1
044080884016192870955161410201900000000000510218CANCEL.DE VENDAS            522688******060600002121396726082019654468000000000034350071449308260820190808840163192871135059481410201931928711350594810201900000000000000000000000000000000005102               00                            1
044080884016192870955171410201900000000000510218CANCEL.DE VENDAS            522688******060600002121396726082019654468000000000034350071449308260820190808840163192871135059481410201931928711350594810201900000000000000000000000000000000005102               00                            1
044080884016192870955181410201900000000000599318CANCEL.DE VENDAS            553665******832100098432953720092019036051000000000024490050649876200920190808840163192871135059781410201931928711350597810201900000000000000000000000000000000005993               00                            1
044080884016192870955191410201900000000000599118CANCEL.DE VENDAS            553665******832100098432953720092019036051000000000024490050649876200920190808840163192871135059781410201931928711350597810201900000000000000000000000000000000005991               00                            1
044080884016192870955201410201900000000000599118CANCEL.DE VENDAS            553665******832100098432953720092019036051000000000024490050649876200920190808840163192871135059781410201931928711350597810201900000000000000000000000000000000005991               00                            1
044080884016192870955211410201900000000000599118CANCEL.DE VENDAS            553665******832100098432953720092019036051000000000024490050649876200920190808840163192871135059781410201931928711350597810201900000000000000000000000000000000005991               00                            1
044080884016192870955221410201900000000000076118CANCEL.DE VENDAS            421958******483100002331436506092019528167000000000020236055249853060920190808840163192871135059901410201931928711350599010201900000000000000000000000000000000000761               00                            3
044080884016192870955231410201900000000000076318CANCEL.DE VENDAS            421958******483100002331436506092019528167000000000020236055249853060920190808840163192871135059901410201931928711350599010201900000000000000000000000000000000000763               00                            3
044080884016192870955241410201900000000000076318CANCEL.DE VENDAS            421958******483100002331436506092019528167000000000020236055249853060920190808840163192871135059901410201931928711350599010201900000000000000000000000000000000000763               00                            3
044080884016192870955251410201900000000000303118CANCEL.DE VENDAS            549167******978400099919879530092019072704000000000033479002149478300920190808840163192871135059981410201931928711350599810201900000000000000000000000000000000003031               00                            1
044080884016192870955261410201900000000000303118CANCEL.DE VENDAS            549167******978400099919879530092019072704000000000033479002149478300920190808840163192871135059981410201931928711350599810201900000000000000000000000000000000003031               00                            1
044080884016192870955271410201900000000000303118CANCEL.DE VENDAS            549167******978400099919879530092019072704000000000033479002149478300920190808840163192871135059981410201931928711350599810201900000000000000000000000000000000003031               00                            1
044080884016192870955281410201900000000000592318CANCEL.DE VENDAS            526863******307400001409791329072019088165000000000047741014449248290720190808840163192871141330171410201931928711413301710201900000000000000000000000000000000005923               00                            1
