03019102019RedecardExtrato de Movimentacao FinanceiraWESTWING              000477038959011DIARIO         V3.01 - 09/06 - EEFI
032038959011WESTWING              
040038959011000000000000000000000109201930092019000000000000000
040038977672000000000000000000000109201930092019000000000000000
0360676033350928864732618102019000000000046564C34100030000000152352015749226151020190000000000471991501202003/030000000001732550000000000037080676033351
0360676033350928683364718102019000000000011487C34100030000000152352055849196131020190000000000116401301202003/030000000000969530000000000020750676033351
0360676033350928140983218102019000000000006832C34100030000000152352031629433081020190000000000068540811201901/010000000000069900000000000001360676033351
0360676033350928287095318102019000000000012490C34100030000000152352055431308091020190000000000125351111201901/010000000000127840000000000002490676033351
0360676033350928336102018102019000000000010926C34100030000000152352074531432101020190000000000109661111201901/010000000000111840000000000002180676033351
0360676033350927580991918102019000000000024944C34100030000000152352056849814021020190000000000252340201202003/040000000001031400000000000022070676033351
0360676033350927580992018102019000000000024822C34100030000000152352056849814021020190000000000252340302202004/040000000001031400000000000022070676033351
0360676033350927676178718102019000000000010297C34100030000000152352086349851031020190000000000104680302202004/100000000001073000000000000026290676033351
0360676033350927815165318102019000000000024357C34100030000000152352049849101051020190000000000246550601202003/060000000002369600000000000050710676033351
0360676033350927815165418102019000000000024245C34100030000000152352049849101051020190000000000246550502202004/060000000002369600000000000050710676033351
0360676033350927958477518102019000000000014339C34100030000000152352062749202061020190000000000145150601202003/100000000001487900000000000036450676033351
0360676033350927958477618102019000000000014271C34100030000000152352062749202061020190000000000145150602202004/100000000001487900000000000036450676033351
0360676033350928401348218102019000000000017654C34100030000000152352095431000111020190000000000177181111201901/010000000000180700000000000003520676033351
0360676033350928261648518102019000000000042449C34100030000000152352052349223091020190000000000429890901202003/060000000001505300000000000032210676033351
0360676033350928145095818102019000000000033060C34100030000000152352010749162081020190000000000336451002202004/100000000003449000000000000084500676033351
0360676033350928261648318102019000000000042830C34100030000000152352052349223091020190000000000429861111201901/060000000001505300000000000032210676033351
0360676033350928394287418102019000000000009966C34100030000000152352085349730101020190000000000101421002202004/100000000001039600000000000025470676033351
0360676033350928261648418102019000000000042651C34100030000000152352052349223091020190000000000429890912201902/060000000001505300000000000032210676033351
0360676033350928394286718102019000000000019317C34100030000000152352085349729101020190000000000194731012201902/050000000000994900000000000021290676033351
0360676033350928489329418102019000000000023482C34100030000000152352021249810111020190000000000236751112201902/020000000000483840000000000010350676033351
0360676033350928489329518102019000000000014376C34100030000000152352021249811111020190000000000144281111201901/100000000001479130000000000036240676033351
0360676033350928489329618102019000000000014311C34100030000000152352021249811111020190000000000144291112201902/100000000001479130000000000036240676033351
0360676033350928489329718102019000000000014239C34100030000000152352021249811111020190000000000144291301202003/100000000001479130000000000036240676033351
0360676033350928394286818102019000000000019226C34100030000000152352085349729101020190000000000194731001202003/050000000000994900000000000021290676033351
0360676033350928394286918102019000000000019134C34100030000000152352085349729101020190000000000194731002202004/050000000000994900000000000021290676033351
0360676033350928394287118102019000000000010098C34100030000000152352085349730101020190000000000101351111201901/100000000001039600000000000025470676033351
0360676033350928394287318102019000000000010013C34100030000000152352085349730101020190000000000101421001202003/100000000001039600000000000025470676033351
0360676033350928145095118102019000000000024345C34100030000000152352010749161081020190000000000244230811201901/040000000000998280000000000021360676033351
0360676033350928145095218102019000000000024231C34100030000000152352010749161081020190000000000244230912201902/040000000000998280000000000021360676033351
0360676033350928145095318102019000000000024120C34100030000000152352010749161081020190000000000244230801202003/040000000000998280000000000021360676033351
0360676033350928145095418102019000000000023998C34100030000000152352010749161081020190000000000244231002202004/040000000000998280000000000021360676033351
0360676033350928145095518102019000000000033538C34100030000000152352010749162081020190000000000336450811201901/100000000003449000000000000084500676033351
0360676033350928145095718102019000000000033228C34100030000000152352010749162081020190000000000336450801202003/100000000003449000000000000084500676033351
0360676033350928394286618102019000000000019398C34100030000000152352085349729101020190000000000194691111201901/050000000000994900000000000021290676033351
0360676033350928640234918102019000000000213739C34100030000000152352025631113131020190000000002145831311201901/010000000002188510000000000042680676033351
0360676033350928760520218102019000000000077722C34100030000000152352042831757141020190000000000780411411201901/010000000000795940000000000015530676033351
0360676033350928683364518102019000000000041454C34100030000000152352055849196131020190000000000416181311201901/030000000000969530000000000020750676033351
0360676033350928683364618102019000000000041268C34100030000000152352055849196131020190000000000416201312201902/030000000000969530000000000020750676033351
0360676033350928683364818102019000000000014445C34100030000000152352055849197131020190000000000145021311201901/100000000001486440000000000036420676033351
0360676033350928683364918102019000000000014377C34100030000000152352055849197131020190000000000145001312201902/100000000001486440000000000036420676033351
0360676033350928683365018102019000000000014309C34100030000000152352055849197131020190000000000145001301202003/100000000001486440000000000036420676033351
0360676033350928783674618102019000000000006213C34100030000000152352084449353141020190000000000062381411201901/060000000000382410000000000008180676033351
0360676033350928783674818102019000000000006154C34100030000000152352084449353141020190000000000062371401202003/060000000000382410000000000008180676033351
0360676033350928864732418102019000000000060887C34100030000000152352015749226151020190000000000611741811201901/030000000001732550000000000037080676033351
0360676033350928864732518102019000000000060628C34100030000000152352015749226151020190000000000611741612201902/030000000001732550000000000037080676033351
0360676033350928261648618102019000000000006009C34100030000000152352052349223091020190000000000061151002202004/060000000001505300000000000032210676033351
0360676033350928394287218102019000000000010061C34100030000000152352085349730101020190000000000101421012201902/100000000001039600000000000025470676033351
0360676033350927380091318102019000000000011787C34100030000000152352099049206300920190000000000119773101202004/100000000001227700000000000030080676033351
0360676033350927380090718102019000000000005214C34100030000000152352099049205300920190000000000052983101202004/060000000000424700000000000009090676033351
0360676033350927958477218102019000000000016751C34100030000000152352062749201061020190000000000169560601202003/030000000000519800000000000011120676033351
0360676033350928845646818102019000000000012180C34100030000000152352061132907151020190000000000122371811201901/010000000000124800000000000002430676033351
0360676033350927676178618102019000000000010346C34100030000000152352086349851031020190000000000104680301202003/100000000001073000000000000026290676033351
0360676033350928145095618102019000000000033380C34100030000000152352010749162081020190000000000336450912201902/100000000003449000000000000084500676033351
0360676033350928489329318102019000000000023588C34100030000000152352021249810111020190000000000236741111201901/020000000000483840000000000010350676033351
0360676033350928783674718102019000000000006181C34100030000000152352084449353141020190000000000062371612201902/060000000000382410000000000008180676033351
0360676033350929096644418102019000000000024368C34100030000000152352098732566171020190000000000244831811201901/010000000000249700000000000004870676033351
0360676033350927470939218102019000000000006056C34100030000000152352027749588011020190000000000061260201202003/030000000000357500000000000007650676033351
0360676033350928892048818102019000000000033158C34100030000000152352097349649151020190000000000334571612201902/030000000000889850000000000019040676033353
0360676033350928663137618102019000000000018242C34100030000000152352051049365131020190000000000183981312201902/050000000000940000000000000020120676033353
0360676033350928415406818102019000000000016246C34100030000000152352003749219111020190000000000164631301202003/030000000000504700000000000010800676033353
0360676033350928955399818102019000000000217286C34100030000000152352071631368161020190000000002183091811201901/010000000002226510000000000043420676033353
0360676033350929051656418102019000000000005209C34100030000000152352062049783171020190000000000052571712201902/040000000000214900000000000004600676033353
0360676033350928718007918102019000000000012676C34100030000000152352068949971141020190000000000128471401202003/100000000001317650000000000032940676033353
0360676033350927615338718102019000000000009361C34100030000000152352071749957031020190000000000094710301202003/060000000000728600000000000015600676033353
0360676033350928663137718102019000000000018156C34100030000000152352051049365131020190000000000183981301202003/050000000000940000000000000020120676033353
0360676033350928892048918102019000000000019896C34100030000000152352097349649151020190000000000201671501202003/030000000000889850000000000019040676033353
0360676033350929051656318102019000000000005234C34100030000000152352062049783171020190000000000052591811201901/040000000000214900000000000004600676033353
0360676033350929051656518102019000000000005185C34100030000000152352062049783171020190000000000052571701202003/040000000000214900000000000004600676033353
0360676033350928718007818102019000000000012732C34100030000000152352068949971141020190000000000128471612201902/100000000001317650000000000032940676033353
0360676033350927615338818102019000000000009316C34100030000000152352071749957031020190000000000094710302202004/060000000000728600000000000015600676033353
0360676033350927848059918102019000000000035030C34100030000000152352034049401051020190000000000354590601202003/050000000001415900000000000030300676033353
0360676033350927848060018102019000000000009490C34100030000000152352034049401051020190000000000096510502202004/050000000001415900000000000030300676033353
0360676033350928415406718102019000000000016329C34100030000000152352003749219111020190000000000164631112201902/030000000000504700000000000010800676033353
0360676033350928911519218102019000000000006581C34100030000000152352023249859161020190000000000066401612201902/10000000000070000000000000003605067603335E
0360676033350928911519118102019000000000006604C34100030000000152352023249859161020190000000000066351811201901/10000000000070000000000000003605067603335E
0360676033350928911519318102019000000000006550C34100030000000152352023249859161020190000000000066401601202003/10000000000070000000000000003605067603335E
037067603335       00000000000000000000000 341000300000001523521910201918102019000000001921636
040067603335000000000000000000000109201930092019000000000000000
0340778798990904724507321102019000000000000000C3410003000000015235200000000075549683160220193200000000022949800000000000573708/0806077879899
03507787989900534966418102019000000000036326D18CANCEL.DE VENDAS            515590XXXXXX3847011020190173320443192871027017711410201900000007787989901102019000000000277585N11112019000000000000000000000000036326000000000652745000000000277585000992811233574778T0928422317200000000000000000000000000000013
03507787989900534966418102019000000000015064D18CANCEL.DE VENDAS            522840XXXXXX1851060920190859325403192871027012331410201900000007787989906092019000000000015364N11112019000000000000000000000000015064000000000094061000000000015364000990373973410962T0928422317200000000000000000000000000000013
03507787989900534966418102019000000000002266D18CANCEL.DE VENDAS            498408XXXXXX6046060820190127496223192871027015051410201900000007787989906082019000000000077063N11112019000000000000000000000000002266000000000306314000000000057737000017612887692283T0928422317200000000000000000000000000000033
03507787989907054984418102019000000000006846D18CANCEL.DE VENDAS            490172XXXXXX0501071020190763497383192871027018381410201900000007787989907102019000000000027981N11112019000000000000000000000000006846000000000359044000000000027981000007842577071325T0928303768900000000000000000000000000000033
03507787989907054984418102019000000000006844D18CANCEL.DE VENDAS            490172XXXXXX0501071020190763497383192871027018381410201900000007787989907102019000000000027981N11112019000000000000000000000000006844000000000359044000000000027981000007842577071325T0928303768900000000000000000000000000000033
03507787989907054984418102019000000000006275D18CANCEL.DE VENDAS            453211XXXXXX6436280920190468495203192871027014421410201900000007787989928092019000000000012824N11112019000000000000000000000000006275000000000497761000000000012824000011895375660295T0928303768900000000000000000000000000000033
03507787989907054984418102019000000000006275D18CANCEL.DE VENDAS            453211XXXXXX6436280920190468495203192871027014421410201900000007787989928092019000000000012824N11112019000000000000000000000000006275000000000497761000000000012824000011895375660295T0928303768900000000000000000000000000000033
03507787989907054984418102019000000000005227D18CANCEL.DE VENDAS            490172XXXXXX0501160920190144495813192871027014561410201900000007787989916092019000000000048141N11112019000000000000000000000000005227000000000540369000000000032046000965911439064410T0928303768900000000000000000000000000000033
03507787989907054984418102019000000000005227D18CANCEL.DE VENDAS            490172XXXXXX0501160920190144495813192871027014561410201900000007787989916092019000000000048141N11112019000000000000000000000000005227000000000540369000000000032046000965911439064410T0928303768900000000000000000000000000000033
03507787989907054984418102019000000000005227D18CANCEL.DE VENDAS            490172XXXXXX0501160920190144495813192871027014561410201900000007787989916092019000000000048141N11112019000000000000000000000000005227000000000540369000000000032046000965911439064410T0928303768900000000000000000000000000000033
03507787989907054984418102019000000000003225D18CANCEL.DE VENDAS            490172XXXXXX0501160920190144495813192871027014561410201900000007787989916092019000000000048141N11112019000000000000000000000000003225000000000540369000000000032046000965911439064410T0928303768900000000000000000000000000000033
03507787989903534988818102019000000000005227D18CANCEL.DE VENDAS            490172XXXXXX0501160920190144495813192871027014561410201900000007787989916092019000000000048141N12112019000000000000000000000000005227000000000540369000000000032046000965911439064410T0928598598300000000000000000000000000000033
03507787989903534988818102019000000000005225D18CANCEL.DE VENDAS            490172XXXXXX0501160920190144495813192871027014561410201900000007787989916092019000000000048141N12112019000000000000000000000000005225000000000540369000000000032046000965911439064410T0928598598300000000000000000000000000000033
03507787989903534988818102019000000000005020D18CANCEL.DE VENDAS            377169XXXXX1014 260820190455497643192871027015691410201900000007787989926082019000000000206084N12112019000000000000000000000000005020000000000262008000000000056372000027121647663829T09285985983000000000000000000000000000000X3
03507787989903534988818102019000000000003315D18CANCEL.DE VENDAS            498408XXXXXX6046060820190127496223192871027015051410201900000007787989906082019000000000077063N12112019000000000000000000000000003315000000000306314000000000057737000017612887692283T0928598598300000000000000000000000000000033
03507787989903534988818102019000000000003278D18CANCEL.DE VENDAS            515590XXXXXX3847011020190173320443192871027017161410201900000007787989901102019000000000330805N12112019000000000000000000000000003278000000000652745000000000330805000992171037333778T0928598598300000000000000000000000000000013
03507787989903534988818102019000000000002002D18CANCEL.DE VENDAS            490172XXXXXX0501160920190144495813192871027014561410201900000007787989916092019000000000048141N12112019000000000000000000000000002002000000000540369000000000032046000965911439064410T0928598598300000000000000000000000000000033
03507787989903534988818102019000000000008433D18CANCEL.DE VENDAS            490172XXXXXX0501071020190763497393192891643317941610201900000007787989907102019000000000173306N12112019000000000000000000000000008433000000000173306000000000173306000997991025009130T0928598598300000000000000000000000000000033
03507787989902374926918102019000000000005375D18CANCEL.DE VENDAS            490172XXXXXX0501071020190763497393192891643317941610201900000007787989907102019000000000173306N08112019000000000000000000000000005375000000000173306000000000173306000997991025009130T0928104546900000000000000000000000000000033
03507787989902374926918102019000000000002331D18CANCEL.DE VENDAS            515590XXXXXX5055280920190627499023192891643304171610201900000007787989928092019000000000021798N08112019000000000000000000000000002331000000000166606000000000007144000997605991562249T0928104546900000000000000000000000000000013
03507787989902374926918102019000000000002224D18CANCEL.DE VENDAS            515590XXXXXX5055280920190627499023192891643304171610201900000007787989928092019000000000021798N08112019000000000000000000000000002224000000000166606000000000007144000997605991562249T0928104546900000000000000000000000000000013
03507787989902374926818102019000000000074627D18CANCEL.DE VENDAS            515590XXXXXX3847011020190173320443192871027017161410201900000007787989901102019000000000330805N08112019000000000000000000000000074627000000000652745000000000330805000992171037333778T0928104546300000000000000000000000000000013
03507787989903804932918102019000000000079214D18CANCEL.DE VENDAS            515590XXXXXX3847011020190173320443192871027017161410201900000007787989901102019000000000330805N11112019000000000000000000000000079214000000000652745000000000330805000992171037333778T0928252227000000000000000000000000000000013
03507787989907634973814102019000000000006846D18CANCEL.DE VENDAS            490172XXXXXX0501071020190763497383192871027018381410201900000007787989907102019000000000027981D07022020000000000027040000000000033886000000000359044000000000027981000007842577071325T0928014998400000000000000000000000000000033
03507787989904823270718102019000000000124742D18CANCEL.DE VENDAS            515590XXXXXX3847011020190173320443192871027017711410201900000007787989901102019000000000277585N11112019000000000000000000000000124742000000000652745000000000277585000992811233574778T0928227764400000000000000000000000000000013
03507787989908733181418102019000000000014125D18CANCEL.DE VENDAS            498408XXXXXX6046060820190127496223192871027015051410201900000007787989906082019000000000077063N11112019000000000000000000000000014125000000000306314000000000057737000017612887692283T0928449310700000000000000000000000000000033
03507787989908733181418102019000000000014125D18CANCEL.DE VENDAS            498408XXXXXX6046060820190127496223192871027015051410201900000007787989906082019000000000077063N11112019000000000000000000000000014125000000000306314000000000057737000017612887692283T0928449310700000000000000000000000000000033
03507787989908733181418102019000000000014125D18CANCEL.DE VENDAS            498408XXXXXX6046060820190127496223192871027015051410201900000007787989906082019000000000077063N11112019000000000000000000000000014125000000000306314000000000057737000017612887692283T0928449310700000000000000000000000000000033
03507787989908733181418102019000000000008713D18CANCEL.DE VENDAS            377169XXXXX1014 260820190455497643192871027015691410201900000007787989926082019000000000206084N11112019000000000000000000000000008713000000000262008000000000056372000027121647663829T09284493107000000000000000000000000000000X3
03507787989900663132318102019000000000016897D18CANCEL.DE VENDAS            490172XXXXXX0501071020190763497393192891643317941610201900000007787989907102019000000000173306N12112019000000000005177000000000022074000000000173306000000000173306000997991025009130T0928526654000000000000000000000000000000033
03507787989900663132318102019000000000003092D18CANCEL.DE VENDAS            490172XXXXXX0501071020190763497393192891643317941610201900000007787989907102019000000000173306N12112019000000000005177000000000008269000000000173306000000000173306000997991025009130T0928526654000000000000000000000000000000033
03507787989900534966318102019000000000055213D18CANCEL.DE VENDAS            515590XXXXXX3847011020190173320443192871027017711410201900000007787989901102019000000000277585N11112019000000000000000000000000055213000000000652745000000000277585000992811233574778T0928422316600000000000000000000000000000013
03507787989903804933018102019000000000006384D18CANCEL.DE VENDAS            498442XXXXXX5203170920190436495453192891643301931610201900000007787989917092019000000000013046N11112019000000000000000000000000006384000000000485775000000000013046000952623819902570T0928252227600000000000000000000000000000033
03507787989903804933018102019000000000005025D18CANCEL.DE VENDAS            498442XXXXXX5203170920190436495453192891643301931610201900000007787989917092019000000000013046N11112019000000000000000000000000005025000000000485775000000000013046000952623819902570T0928252227600000000000000000000000000000033
03507787989907044932016102019000000000007748D18CANCEL.DE VENDAS            490172XXXXXX3566141020190704493203192891703066551610201900000007787989914102019000000000047502D14012020000000000079411000000000087159000000000439515000000000047502000991059527050342T0928724142400000000000000000000000000000033
03507787989908594938108102019000000000039000D18CANCEL.DE VENDAS            490172XXXXXX2605300920190859493813192811602034790810201900000007787989930092019000000000524589D31012020000000000043356000000000082356000000000873623000000000400000000995436177012101T0927371836600000000000000000000000000000033
03507787989908594938108102019000000000002822D18CANCEL.DE VENDAS            490172XXXXXX2605300920190859493813192811603044740810201900000007787989930092019000000000524589D31012020000000000043356000000000046178000000000873623000000000028943000995436177012101T0927371836600000000000000000000000000000033
03507787989907044932016102019000000000007745D18CANCEL.DE VENDAS            490172XXXXXX3566141020190704493203192891703066551610201900000007787989914102019000000000047502D14112019000000000113911000000000121656000000000439515000000000047502000991059527050342T0928724142200000000000000000000000000000033
03507787989906703274218102019000000000054457D18CANCEL.DE VENDAS            515590XXXXXX3847011020190173320443192871027017161410201900000007787989901102019000000000330805N11112019000000000000000000000000054457000000000652745000000000330805000992171037333778T0928374937200000000000000000000000000000013
03507787989903913005316102019000000000136889D18CANCEL.DE VENDAS            400770XXXXXX9224081020190391300533192891643302411610201900000007787989908102019000000000139611D08112019000000000000000000000000136889000000000190342000000000139611000011074953458746T0928171045200000000000000000000000000000033
03507787989903913005318102019000000000013733D18CANCEL.DE VENDAS            377169XXXXX1014 260820190455497643192871027015691410201900000007787989926082019000000000206084N08112019000000000000000000000000013733000000000262008000000000056372000027121647663829T09281710452000000000000000000000000000000X3
03507787989903913005318102019000000000013733D18CANCEL.DE VENDAS            377169XXXXX1014 260820190455497643192871027015691410201900000007787989926082019000000000206084N08112019000000000000000000000000013733000000000262008000000000056372000027121647663829T09281710452000000000000000000000000000000X3
03507787989903913005318102019000000000013730D18CANCEL.DE VENDAS            377169XXXXX1014 260820190455497643192871027015691410201900000007787989926082019000000000206084N08112019000000000000000000000000013730000000000262008000000000056372000027121647663829T09281710452000000000000000000000000000000X3
03507787989903913005318102019000000000008545D18CANCEL.DE VENDAS            498408XXXXXX6046060820190127496223192871027015051410201900000007787989906082019000000000077063N08112019000000000000000000000000008545000000000306314000000000057737000017612887692283T0928171045200000000000000000000000000000033
03507787989909703058218102019000000000002279D18CANCEL.DE VENDAS            422005XXXXXX5136100920190447490653192891643308801610201900000007787989910092019000000000021721N11112019000000000000000000000000002279000000000466658000000000006987000021510385001228T0928414372000000000000000000000000000000035
03507787989909703058218102019000000000001358D18CANCEL.DE VENDAS            498442XXXXXX5203170920190436495453192891643301931610201900000007787989917092019000000000013046N11112019000000000000000000000000001358000000000485775000000000013046000952623819902570T0928414372000000000000000000000000000000035
03507787989909703058218102019000000000000796D18CANCEL.DE VENDAS            422005XXXXXX5136100920190447490653192891643308801610201900000007787989910092019000000000021721N11112019000000000000000000000000000796000000000466658000000000006987000021510385001228T0928414372000000000000000000000000000000035
03507787989909703058218102019000000000000106D18CANCEL.DE VENDAS            515590XXXXXX5055280920190627499023192891643304171610201900000007787989928092019000000000021798N11112019000000000000000000000000000106000000000166606000000000007144000997605991562249T0928414372000000000000000000000000000000015
03507787989902604968918102019000000000002330D18CANCEL.DE VENDAS            515590XXXXXX5055280920190627499023192891643304171610201900000007787989928092019000000000021798N11112019000000000000000000000000002330000000000166606000000000007144000997605991562249T092820406360000000000000000000000000000001X
03507787989902604968918102019000000000002279D18CANCEL.DE VENDAS            422005XXXXXX5136100920190447490653192891643308801610201900000007787989910092019000000000021721N11112019000000000000000000000000002279000000000466658000000000006987000021510385001228T092820406360000000000000000000000000000003X
03507787989902604968918102019000000000001483D18CANCEL.DE VENDAS            422005XXXXXX5136100920190447490653192891643308801610201900000007787989910092019000000000021721N11112019000000000000000000000000001483000000000466658000000000006987000021510385001228T092820406360000000000000000000000000000003X
03507787989907554968321022019000000000027970D18CANCEL.DE VENDAS            489391XXXXXX0461160220190755496833190521336413202102201900000007787989916022019000000000229498D21102019000000000000000000000000027970000000000229498000000000229498000009235477067648T0904724507300000000000000000000000000000033
0360778798990929024297818102019000000000038949C34100030000000152352079549287171020190000000000394921701202003/050000000001536760000000000032880778798991
0360778798990927783210918102019000000000024082C34100030000000152352019949764041020190000000000244860402202004/060000000001431650000000000030640778798991
0360778798990929024298118102019000000000018512C34100030000000152352079549288171020190000000000185991811201901/100000000001906150000000000046700778798991
0360778798990928687091618102019000000000068685C34100030000000152352056649817131020190000000000696011301202003/060000000002624030000000000056150778798991
0360778798990928304886118102019000000000012347C34100030000000152352087849383101020190000000000125661002202004/040000000000693730000000000014840778798991
0360778798990928793708418102019000000000020210C34100030000000152352086749468141020190000000000204831401202003/060000000001272190000000000027220778798991
0360778798990928082308518102019000000000012226C34100030000000152352092149561071020190000000000124370702202004/050000000001083390000000000023190778798991
0360778798990928281011718102019000000000065045C34100030000000152352054649863091020190000000000661961002202004/060000000004488180000000000096050778798991
0360778798990929024298318102019000000000018338C34100030000000152352079549288171020190000000000185941701202003/100000000001906150000000000046700778798991
0360778798990928155062718102019000000000031248C34100030000000152352013049324081020190000000000318011002202004/060000000004550480000000000097380778798991
0360778798990928155063318102019000000000016085C34100030000000152352013049325081020190000000000163701002202004/100000000001678130000000000041110778798991
0360778798990928304886018102019000000000018208C34100030000000152352087849383101020190000000000184421001202003/040000000000693730000000000014840778798991
0360778798990928400606618102019000000000025905C34100030000000152352023949213111020190000000000262501301202003/060000000001351310000000000028910778798991
0360778798990928543155018102019000000000006177C34100030000000152352045849802121020190000000000062591301202003/030000000000191880000000000004110778798991
0360778798990928874736118102019000000000013270C34100030000000152352018049414151020190000000000134511501202003/030000000000581060000000000012430778798991
0360778798990928874736418102019000000000011451C34100030000000152352018049415151020190000000000116071501202003/100000000001189800000000000029150778798991
0360778798990928916714118102019000000000030318C34100030000000152352048749276161020190000000000307361601202003/050000000001084760000000000023210778798991
0360778798990929000878218102019000000000241369C34100030000000152352000229782171020190000000002425061811201901/010000000002473290000000000048230778798991
0360778798990929024297618102019000000000039308C34100030000000152352079549287171020190000000000394931811201901/050000000001536760000000000032880778798991
0360778798990929024298218102019000000000018425C34100030000000152352079549288171020190000000000185941712201902/100000000001906150000000000046700778798991
0360778798990927962370918102019000000000006205C34100030000000152352063649062061020190000000000063110602202004/060000000000809690000000000017320778798991
0360778798990927685618518102019000000000018238C34100030000000152352088549887031020190000000000185410302202004/050000000001818030000000000038900778798991
0360778798990927825532018102019000000000011048C34100030000000152352052249135051020190000000000112350502202004/060000000002069360000000000044280778798991
0360778798990927590377718102019000000000037166C34100030000000152352059049742021020190000000000377830302202004/100000000003873120000000000094890778798991
0360778798990929024297718102019000000000039134C34100030000000152352079549287171020190000000000394921712201902/050000000001536760000000000032880778798991
0360778798990927310135618102019000000000055005C34100030000000152352001149729300920190000000000558933101202004/060000000005337740000000000114220778798991
0360778798990927590377118102019000000000009432C34100030000000152352059049741021020190000000000095890302202004/060000000000587880000000000012580778798991
0360778798990928422317218102019000000000000000C34100030000000152352005349664111020190000000000000001111201901/100000000005503180000000000137580778798993
0360778798990928303768918102019000000000000000C34100030000000152352070549844101020190000000000000001111201901/060000000001390210000000000029750778798993
0360778798990928665380118102019000000000010354C34100030000000152352051549575131020190000000000103951311201901/090000000000959700000000000023990778798993
0360778798990928732798018102019000000000097936C34100030000000152352035930535141020190000000000983381411201901/010000000001002940000000000019560778798993
0360778798990929067300518102019000000000065310C34100030000000152352091431127171020190000000000656181811201901/010000000000669230000000000013050778798993
0360778798990928598598318102019000000000000000C34100030000000152352035349888121020190000000000000001211201901/060000000001754200000000000037530778798993
0360778798990928104546918102019000000000000000C34100030000000152352023749269081020190000000000000000811201901/090000000000917110000000000022930778798993
0360778798990928104546318102019000000000000000C34100030000000152352023749268081020190000000000000000811201901/060000000002133080000000000045650778798993
0360778798990928252227318102019000000000042845C34100030000000152352038049329091020190000000000436031002202004/060000000003135640000000000067090778798993
0360778798990928104546618102019000000000010875C34100030000000152352023749268081020190000000000110671002202004/060000000002133080000000000045650778798993
0360778798990928252227018102019000000000000000C34100030000000152352038049329091020190000000000000001111201901/060000000003135640000000000067090778798993
0360778798990928598598518102019000000000032065C34100030000000152352035349888121020190000000000324921301202003/060000000001754200000000000037530778798993
0360778798990928104547218102019000000000009763C34100030000000152352023749269081020190000000000099361002202004/090000000000917110000000000022930778798993
0360778798990928422316818102019000000000032848C34100030000000152352005349663111020190000000000332861301202003/060000000001693450000000000036250778798993
0360778798990928303769118102019000000000012875C34100030000000152352070549844101020190000000000130411001202003/060000000001390210000000000029750778798993
0360778798990928252227918102019000000000011215C34100030000000152352038049330091020190000000000114131002202004/100000000001170520000000000029260778798993
0360778798990928422317418102019000000000052950C34100030000000152352005349664111020190000000000536561301202003/100000000005503180000000000137580778798993
0360778798990928014998418102019000000000026582C34100030000000152352076349738071020190000000000270400702202004/060000000003590440000000000076830778798993
0360778798990928622814518102019000000000156763C34100030000000152352021232909131020190000000001573821311201901/010000000001605120000000000031300778798993
0360778798990928227764418102019000000000000000C34100030000000152352048232707091020190000000000000001111201901/010000000001272210000000000024790778798993
0360778798990928449310718102019000000000000000C34100030000000152352087331814111020190000000000000001111201901/010000000000521050000000000010170778798993
0360778798990928526654018102019000000000005157C34100030000000152352006631323121020190000000000051771211201901/010000000000256660000000000005000778798993
0360778798990929057664918102019000000000085148C34100030000000152352063549040171020190000000000855491811201901/030000000002289070000000000048970778798993
0360778798990929057665318102019000000000037328C34100030000000152352063549041171020190000000000376701712201902/100000000003863570000000000096590778798993
0360778798990929057665418102019000000000037152C34100030000000152352063549041171020190000000000376701701202003/100000000003863570000000000096590778798993
0360778798990928949814618102019000000000015647C34100030000000152352032649854161020190000000000158631601202003/100000000001626970000000000040670778798993
0360778798990928898211218102019000000000043258C34100030000000152352098849114151020190000000000438481501202003/060000000001935610000000000041420778798993
0360778798990928665379518102019000000000100979C34100030000000152352051549574131020190000000001013781311201901/060000000003402840000000000072830778798993
0360778798990928665379718102019000000000070075C34100030000000152352051549574131020190000000000710091301202003/060000000003402840000000000072830778798993
0360778798990928665380318102019000000000010260C34100030000000152352051549575131020190000000000103971301202003/090000000000959700000000000023990778798993
0360778798990928949814018102019000000000082254C34100030000000152352032649853161020190000000000833891601202003/060000000003958730000000000084720778798993
0360778798990928422316618102019000000000000000C34100030000000152352005349663111020190000000000000001111201901/060000000001693450000000000036250778798993
0360778798990928252227618102019000000000000000C34100030000000152352038049330091020190000000000000001111201901/100000000001170520000000000029260778798993
0360778798990927477499918102019000000000013709C34100030000000152352011749542011020190000000000139370302202004/060000000001179460000000000025250778798993
0360778798990927526202418102019000000000040926C34100030000000152352043649856021020190000000000416060302202004/060000000002285990000000000048920778798993
0360778798990927621053218102019000000000014640C34100030000000152352073149656031020190000000000148830302202004/040000000001429570000000000030600778798993
0360778798990927714637418102019000000000017439C34100030000000152352003549582041020190000000000177310402202004/050000000002059790000000000044080778798993
0360778798990927854361318102019000000000010195C34100030000000152352035549126051020190000000000103670502202004/100000000001063200000000000026580778798993
0360778798990927940115118102019000000000005948C34100030000000152352058449468061020190000000000060500602202004/060000000001797050000000000038470778798993
0360778798990929057665118102019000000000052188C34100030000000152352063549040171020190000000000529161701202003/030000000002289070000000000048970778798993
0360778798990928724142418102019000000000078354C34100030000000152352070449320141020190000000000794111401202003/060000000004395150000000000094070778798993
0360778798990927371836618102019000000000042668C34100030000000152352085949381300920190000000000433563101202004/100000000008736230000000000218410778798993
0360778798990928724142218102019000000000113446C34100030000000152352070449320141020190000000001139111411201901/060000000004395150000000000094070778798993
0360778798990928374937218102019000000000000000C34100030000000152352067032742101020190000000000000001111201901/010000000000555410000000000010840778798993
0360778798990928171045218102019000000000000000C34100030000000152352039130053081020190000000000000000811201901/010000000001903420000000000037120778798993
0360778798990929057665218102019000000000037491C34100030000000152352063549041171020190000000000376681811201901/100000000003863570000000000096590778798993
0360778798990929057665018102019000000000084769C34100030000000152352063549040171020190000000000855451712201902/030000000002289070000000000048970778798993
0360778798990928303769218102019000000000012814C34100030000000152352070549844101020190000000000130411002202004/060000000001390210000000000029750778798993
0360778798990927371836118102019000000000006701C34100030000000152352085949380300920190000000000068093101202004/050000000004360440000000000093310778798993
0360778798990927854360718102019000000000031222C34100030000000152352035549125051020190000000000317500502202004/060000000002570970000000000055020778798993
0360778798990928414372018102019000000000000000C34100030000000152352097030582111020190000000000000001111201901/010000000000046290000000000000900778798995
0360778798990928687092218102019000000000013471C34100030000000152352056649818131020190000000000136511301202003/030000000000418990000000000009470778798995
0360778798990928687092018102019000000000013596C34100030000000152352056649818131020190000000000136501311201901/030000000000418990000000000009470778798995
0360778798990928765770318102019000000000003915C34100030000000152352044132258141020190000000000039311411201901/010000000000040090000000000000780778798995
0360778798990928543155118102019000000000006605C34100030000000152352045849803121020190000000000066301211201901/020000000000135680000000000003070778798995
0360778798990929037130418102019000000000005600C34100030000000152352083929426171020190000000000056261811201901/01000000000005760000000000000134077879899X
0360778798990928204063618102019000000000000000C34100030000000152352026049689091020190000000000000001111201901/03000000000018756000000000000480077879899X
037077879899       21102019000000000000000 341000300000001523521910201918102019000000002561722
040077879899000000000000000000000109201930092019000000000000000
045077879899192890638681610201900000000000233118CANCEL.DE VENDAS            515590******505500099760599128092019562249000000000021798062749902280920190778798993192891643304171610201931928916433041710201900000000000233118102019               44                            1
045077879899192890638691610201900000000000233018CANCEL.DE VENDAS            515590******505500099760599128092019562249000000000021798062749902280920190778798993192891643304171610201931928916433041710201900000000000233018102019               45                            1
045077879899192890638701610201900000000000233018CANCEL.DE VENDAS            515590******505500099760599128092019562249000000000021798062749902280920190778798993192891643304171610201931928916433041710201900000000000233018102019               44                            1
045077879899192890638711610201900000000000227918CANCEL.DE VENDAS            422005******513600002151038510092019001228000000000021721044749065100920190778798993192891643308801610201931928916433088010201900000000000227918102019               44                            3
045077879899192890638721610201900000000000227918CANCEL.DE VENDAS            422005******513600002151038510092019001228000000000021721044749065100920190778798993192891643308801610201931928916433088010201900000000000227918102019               45                            3
045077879899192890638731610201900000000000227918CANCEL.DE VENDAS            422005******513600002151038510092019001228000000000021721044749065100920190778798993192891643308801610201931928916433088010201900000000000227918102019               44                            3
045077879899192890638741610201900000000001690018CANCEL.DE VENDAS            490172******050100099799102507102019009130000000000173306076349739071020190778798993192891643317941610201931928916433179410201900000000001690018102019               45                            3
045077879899192890638751610201900000000001689718CANCEL.DE VENDAS            490172******050100099799102507102019009130000000000173306076349739071020190778798993192891643317941610201931928916433179410201900000000001689718102019               44                            3
045077879899192890638661610201900000000000638318CANCEL.DE VENDAS            498442******520300095262381917092019902570000000000013046043649545170920190778798993192891643301931610201931928916433019310201900000000000638318102019               45                            3
045077879899192890638671610201900000000000638418CANCEL.DE VENDAS            498442******520300095262381917092019902570000000000013046043649545170920190778798993192891643301931610201931928916433019310201900000000000638418102019               44                            3
045077879899192870889871410201900000000001506418CANCEL.DE VENDAS            522840******185100099037397306092019410962000000000015364085932540060920190778798993192871027012331410201931928710270123310201900000000001506418102019               44                            1
045077879899192870889881410201900000000000627518CANCEL.DE VENDAS            453211******643600001189537528092019660295000000000012824046849520280920190778798993192871027014421410201931928710270144210201900000000000627518102019               44                            3
045077879899192870889891410201900000000000627518CANCEL.DE VENDAS            453211******643600001189537528092019660295000000000012824046849520280920190778798993192871027014421410201931928710270144210201900000000000627518102019               44                            3
045077879899192870889901410201900000000000522518CANCEL.DE VENDAS            490172******050100096591143916092019064410000000000048141014449581160920190778798993192871027014561410201931928710270145610201900000000000522518102019               44                            3
045077879899192870889911410201900000000000522718CANCEL.DE VENDAS            490172******050100096591143916092019064410000000000048141014449581160920190778798993192871027014561410201931928710270145610201900000000000522718102019               44                            3
045077879899192870889921410201900000000000522718CANCEL.DE VENDAS            490172******050100096591143916092019064410000000000048141014449581160920190778798993192871027014561410201931928710270145610201900000000000522718102019               44                            3
045077879899192870889931410201900000000000522718CANCEL.DE VENDAS            490172******050100096591143916092019064410000000000048141014449581160920190778798993192871027014561410201931928710270145610201900000000000522718102019               44                            3
045077879899192870889941410201900000000000522718CANCEL.DE VENDAS            490172******050100096591143916092019064410000000000048141014449581160920190778798993192871027014561410201931928710270145610201900000000000522718102019               45                            3
045077879899192870889951410201900000000000522718CANCEL.DE VENDAS            490172******050100096591143916092019064410000000000048141014449581160920190778798993192871027014561410201931928710270145610201900000000000522718102019               44                            3
045077879899192870889961410201900000000001412618CANCEL.DE VENDAS            498408******604600001761288706082019692283000000000077063012749622060820190778798993192871027015051410201931928710270150510201900000000001412618102019               45                            3
045077879899192870889971410201900000000001412518CANCEL.DE VENDAS            498408******604600001761288706082019692283000000000077063012749622060820190778798993192871027015051410201931928710270150510201900000000001412518102019               44                            3
045077879899192870889981410201900000000001412518CANCEL.DE VENDAS            498408******604600001761288706082019692283000000000077063012749622060820190778798993192871027015051410201931928710270150510201900000000001412518102019               44                            3
045077879899192870889991410201900000000001412518CANCEL.DE VENDAS            498408******604600001761288706082019692283000000000077063012749622060820190778798993192871027015051410201931928710270150510201900000000001412518102019               44                            3
045077879899192870890001410201900000000001373018CANCEL.DE VENDAS            037716******101400002712164726082019663829000000000206084045549764260820190778798993192871027015691410201931928710270156910201900000000001373018102019               44                            1
045077879899192870890011410201900000000001373318CANCEL.DE VENDAS            037716******101400002712164726082019663829000000000206084045549764260820190778798993192871027015691410201931928710270156910201900000000001373318102019               45                            1
045077879899192870890021410201900000000001373318CANCEL.DE VENDAS            037716******101400002712164726082019663829000000000206084045549764260820190778798993192871027015691410201931928710270156910201900000000001373318102019               44                            1
045077879899192870890031410201900000000001373318CANCEL.DE VENDAS            037716******101400002712164726082019663829000000000206084045549764260820190778798993192871027015691410201931928710270156910201900000000001373318102019               44                            1
045077879899192870890041410201900000000032435418CANCEL.DE VENDAS            515590******384700099217103701102019333778000000000330805017332044011020190778798993192871027017161410201931928710270171610201900000000032435418102019               45                            1
045077879899192870890051410201900000000027217218CANCEL.DE VENDAS            515590******384700099281123301102019574778000000000277585017332044011020190778798993192871027017711410201931928710270177110201900000000027217218102019               45                            1
045077879899192870890061410201900000000000684418CANCEL.DE VENDAS            490172******050100000784257707102019071325000000000027981076349738071020190778798993192871027018381410201931928710270183810201900000000000684418102019               44                            3
045077879899192870890071410201900000000000684618CANCEL.DE VENDAS            490172******050100000784257707102019071325000000000027981076349738071020190778798993192871027018381410201931928710270183810201900000000000684618102019               44                            3
03508088401603084992816102019000000000005933D18CANCEL.DE VENDAS            549167XXXXXX4969011020190308499283192891753057291610201900000008088401601102019000000000024248D02012020000000002575099000000002581032000000014265233000000000024248000016671891018429T0927488632100000000000000000000000000000011
03508088401608954972914102019000000000003487D18CANCEL.DE VENDAS            536805XXXXXX5845031020190895497293192871429495061410201900000008088401603102019000000000025794D03012020000000001971934000000001975421000000011107293000000000014253000010751649610362T0927689716700000000000000000000000000000011
03508088401608954972916102019000000000004836D18CANCEL.DE VENDAS            516292XXXXXX9405031020190895497293192891721165431610201900000008088401603102019000000000024299D03012020000000001971934000000001976770000000011107293000000000019765000993972075340338T0927689716700000000000000000000000000000011
03508088401608954972916102019000000000006590D18CANCEL.DE VENDAS            534503XXXXXX3761031020190895497293192891753050661610201900000008088401603102019000000000020202D03012020000000001971934000000001978524000000011107293000000000020202000996986903043990T0927689716700000000000000000000000000000011
03508088401605704966016102019000000000013016D18CANCEL.DE VENDAS            554906XXXXXX1108131020190570496603192891753051151610201900000008088401613102019000000000039900D13012020000000001231125000000001244141000000007225787000000000039900000995011257039037T0928688719400000000000000000000000000000011
03508088401608054968118102019000000000014840D18CANCEL.DE VENDAS            525663XXXXXX3781021020190600498363192891727385831610201900000008088401602102019000000000045496N18112019000000000251176000000000266016000000009191224000000000045496000988596405081625T0929028605200000000000000000000000000000011
03508088401608054968118102019000000000014687D18CANCEL.DE VENDAS            421845XXXXXX0397150920190968499043192891740244051610201900000008088401615092019000000000045024N18112019000000000251176000000000265863000000008093188000000000045024000979434763018108T0929028605200000000000000000000000000000031
03508088401608054968118102019000000000014687D18CANCEL.DE VENDAS            421845XXXXXX0397150920190968499043192891740244051610201900000008088401615092019000000000045024N18112019000000000251176000000000265863000000008093188000000000045024000979434763018108T0929028605200000000000000000000000000000031
03508088401608054968118102019000000000014686D18CANCEL.DE VENDAS            421845XXXXXX0397150920190968499043192891740244051610201900000008088401615092019000000000045024N18112019000000000251176000000000265862000000008093188000000000045024000979434763018108T0929028605200000000000000000000000000000031
03508088401608054968118102019000000000014318D18CANCEL.DE VENDAS            498401XXXXXX7619031020190737499433192891753066671610201900000008088401603102019000000000043891N18112019000000000251176000000000265494000000008582171000000000043891000006548233902725T0929028605200000000000000000000000000000031
03508088401608054968118102019000000000014317D18CANCEL.DE VENDAS            498401XXXXXX7619031020190737499433192891753066671610201900000008088401603102019000000000043891N18112019000000000251176000000000265493000000008582171000000000043891000006548233902725T0929028605200000000000000000000000000000031
03508088401608054968118102019000000000014297D18CANCEL.DE VENDAS            498423XXXXXX4940050920190240495543192891740246391610201900000008088401605092019000000000029218N18112019000000000251176000000000265473000000011277726000000000029218000008721967907066T0929028605200000000000000000000000000000031
03508088401608054968118102019000000000014296D18CANCEL.DE VENDAS            498423XXXXXX4940050920190240495543192891740246391610201900000008088401605092019000000000029218N18112019000000000251176000000000265472000000011277726000000000029218000008721967907066T0929028605200000000000000000000000000000031
03508088401608054968118102019000000000014254D18CANCEL.DE VENDAS            552305XXXXXX1135280820190272495993192891753053261610201900000008088401628082019000000000058261N18112019000000000251176000000000265430000000014566214000000000058261000010373353695921T0929028605200000000000000000000000000000011
03508088401608054968118102019000000000014254D18CANCEL.DE VENDAS            552305XXXXXX1135280820190272495993192891753053261610201900000008088401628082019000000000058261N18112019000000000251176000000000265430000000014566214000000000058261000010373353695921T0929028605200000000000000000000000000000011
03508088401608054968118102019000000000014254D18CANCEL.DE VENDAS            552305XXXXXX1135280820190272495993192891753053261610201900000008088401628082019000000000058261N18112019000000000251176000000000265430000000014566214000000000058261000010373353695921T0929028605200000000000000000000000000000011
03508088401608054968118102019000000000014252D18CANCEL.DE VENDAS            552305XXXXXX1135280820190272495993192891753053261610201900000008088401628082019000000000058261N18112019000000000251176000000000265428000000014566214000000000058261000010373353695921T0929028605200000000000000000000000000000011
03508088401608054968118102019000000000013523D18CANCEL.DE VENDAS            515601XXXXXX4060260820190714493083192891740241631610201900000008088401626082019000000000066299N18112019000000000251176000000000264699000000025504339000000000041456000017960767276460T0929028605200000000000000000000000000000011
03508088401608054968118102019000000000013523D18CANCEL.DE VENDAS            515601XXXXXX4060260820190714493083192891740241631610201900000008088401626082019000000000066299N18112019000000000251176000000000264699000000025504339000000000041456000017960767276460T0929028605200000000000000000000000000000011
03508088401608054968118102019000000000013523D18CANCEL.DE VENDAS            515601XXXXXX4060260820190714493083192891740241631610201900000008088401626082019000000000066299N18112019000000000251176000000000264699000000025504339000000000041456000017960767276460T0929028605200000000000000000000000000000011
03508088401608054968118102019000000000013438D18CANCEL.DE VENDAS            534503XXXXXX2092290820190558491723192891721165491610201900000008088401629082019000000000054926N18112019000000000251176000000000264614000000013443477000000000054926000988895949088162T0929028605200000000000000000000000000000011
03508088401608054968118102019000000000013438D18CANCEL.DE VENDAS            534503XXXXXX2092290820190558491723192891721165491610201900000008088401629082019000000000054926N18112019000000000251176000000000264614000000013443477000000000054926000988895949088162T0929028605200000000000000000000000000000011
03508088401608054968118102019000000000013438D18CANCEL.DE VENDAS            534503XXXXXX2092290820190558491723192891721165491610201900000008088401629082019000000000054926N18112019000000000251176000000000264614000000013443477000000000054926000988895949088162T0929028605200000000000000000000000000000011
03508088401608054968118102019000000000013437D18CANCEL.DE VENDAS            534503XXXXXX2092290820190558491723192891721165491610201900000008088401629082019000000000054926N18112019000000000251176000000000264613000000013443477000000000054926000988895949088162T0929028605200000000000000000000000000000011
03508088401608054968118102019000000000013014D18CANCEL.DE VENDAS            554906XXXXXX1108131020190570496603192891753051151610201900000008088401613102019000000000039900N18112019000000000251176000000000264190000000007225787000000000039900000995011257039037T0929028605200000000000000000000000000000011
03508088401608054968118102019000000000012906D18CANCEL.DE VENDAS            455184XXXXXX7928290820190403494603192891727380331610201900000008088401629082019000000000036499N18112019000000000251176000000000264082000000009959779000000000026376000987707157602660T0929028605200000000000000000000000000000031
03508088401608054968118102019000000000012906D18CANCEL.DE VENDAS            455184XXXXXX7928290820190403494603192891727380331610201900000008088401629082019000000000036499N18112019000000000251176000000000264082000000009959779000000000026376000987707157602660T0929028605200000000000000000000000000000031
03508088401608054968118102019000000000012866D18CANCEL.DE VENDAS            525663XXXXXX3781021020190600498363192891727385831610201900000008088401602102019000000000045496N18112019000000000251176000000000264042000000009191224000000000045496000988596405081625T0929028605200000000000000000000000000000011
03508088401608054968118102019000000000012353D18CANCEL.DE VENDAS            553636XXXXXX3287101020190889498043192891727382981610201900000008088401610102019000000000037865N18112019000000000251176000000000263529000000010741952000000000037865000987987427096860T0929028605200000000000000000000000000000011
03508088401608054968118102019000000000012104D18CANCEL.DE VENDAS            523421XXXXXX1017230920190181495603192891740244221610201900000008088401623092019000000000061842N18112019000000000251176000000000263280000000027305670000000000061842000977887505013845T0929028605200000000000000000000000000000011
03508088401608054968118102019000000000012104D18CANCEL.DE VENDAS            523421XXXXXX1017230920190181495603192891740244221610201900000008088401623092019000000000061842N18112019000000000251176000000000263280000000027305670000000000061842000977887505013845T0929028605200000000000000000000000000000011
03508088401608054968118102019000000000012104D18CANCEL.DE VENDAS            523421XXXXXX1017230920190181495603192891740244221610201900000008088401623092019000000000061842N18112019000000000251176000000000263280000000027305670000000000061842000977887505013845T0929028605200000000000000000000000000000011
03508088401608054968118102019000000000012104D18CANCEL.DE VENDAS            523421XXXXXX1017230920190181495603192891740244221610201900000008088401623092019000000000061842N18112019000000000251176000000000263280000000027305670000000000061842000977887505013845T0929028605200000000000000000000000000000011
03508088401608054968118102019000000000012103D18CANCEL.DE VENDAS            523421XXXXXX1017230920190181495603192891740244221610201900000008088401623092019000000000061842N18112019000000000251176000000000263279000000027305670000000000061842000977887505013845T0929028605200000000000000000000000000000011
03508088401608054968118102019000000000011536D18CANCEL.DE VENDAS            406655XXXXXX0292160820190042499323192891753057101610201900000008088401616082019000000000047147N18112019000000000251176000000000262712000000012121889000000000047147000013224557684761T0929028605200000000000000000000000000000031
03508088401608054968118102019000000000011534D18CANCEL.DE VENDAS            406655XXXXXX0292160820190042499323192891753057101610201900000008088401616082019000000000047147N18112019000000000251176000000000262710000000012121889000000000047147000013224557684761T0929028605200000000000000000000000000000031
03508088401608054968118102019000000000011534D18CANCEL.DE VENDAS            406655XXXXXX0292160820190042499323192891753057101610201900000008088401616082019000000000047147N18112019000000000251176000000000262710000000012121889000000000047147000013224557684761T0929028605200000000000000000000000000000031
03508088401608054968118102019000000000011534D18CANCEL.DE VENDAS            406655XXXXXX0292160820190042499323192891753057101610201900000008088401616082019000000000047147N18112019000000000251176000000000262710000000012121889000000000047147000013224557684761T0929028605200000000000000000000000000000031
03508088401608054968118102019000000000011003D18CANCEL.DE VENDAS            552316XXXXXX2629080920190011492843192891753059521610201900000008088401608092019000000000136965N18112019000000000251176000000000262179000000011705145000000000022487000021703623653738T0929028605200000000000000000000000000000011
03508088401608054968118102019000000000011003D18CANCEL.DE VENDAS            552316XXXXXX2629080920190011492843192891753059521610201900000008088401608092019000000000136965N18112019000000000251176000000000262179000000011705145000000000022487000021703623653738T0929028605200000000000000000000000000000011
03508088401608054968118102019000000000010674D18CANCEL.DE VENDAS            515590XXXXXX1108250920190742491753192891721164211610201900000008088401625092019000000000021814N18112019000000000251176000000000261850000000009431671000000000021814000988416925313060T0929028605200000000000000000000000000000011
03508088401608054968118102019000000000010673D18CANCEL.DE VENDAS            515590XXXXXX1108250920190742491753192891721164211610201900000008088401625092019000000000021814N18112019000000000251176000000000261849000000009431671000000000021814000988416925313060T0929028605200000000000000000000000000000011
03508088401608054968118102019000000000010625D18CANCEL.DE VENDAS            412177XXXXXX2123030820190459496813192891721167361610201900000008088401603082019000000000065144N18112019000000000251176000000000261801000000006102676000000000065144000993861893050128T0929028605200000000000000000000000000000031
03508088401608054968118102019000000000010625D18CANCEL.DE VENDAS            412177XXXXXX2123030820190459496813192891721167361610201900000008088401603082019000000000065144N18112019000000000251176000000000261801000000006102676000000000065144000993861893050128T0929028605200000000000000000000000000000031
03508088401608054968118102019000000000010625D18CANCEL.DE VENDAS            412177XXXXXX2123030820190459496813192891721167361610201900000008088401603082019000000000065144N18112019000000000251176000000000261801000000006102676000000000065144000993861893050128T0929028605200000000000000000000000000000031
03508088401608054968118102019000000000010625D18CANCEL.DE VENDAS            412177XXXXXX2123030820190459496813192891721167361610201900000008088401603082019000000000065144N18112019000000000251176000000000261801000000006102676000000000065144000993861893050128T0929028605200000000000000000000000000000031
03508088401608054968118102019000000000010625D18CANCEL.DE VENDAS            412177XXXXXX2123030820190459496813192891721167361610201900000008088401603082019000000000065144N18112019000000000251176000000000261801000000006102676000000000065144000993861893050128T0929028605200000000000000000000000000000031
03508088401608054968118102019000000000010625D18CANCEL.DE VENDAS            412177XXXXXX2123030820190459496813192891721167361610201900000008088401603082019000000000065144N18112019000000000251176000000000261801000000006102676000000000065144000993861893050128T0929028605200000000000000000000000000000031
03508088401608054968118102019000000000010435D18CANCEL.DE VENDAS            553636XXXXXX2598070920190911493373192891740241471610201900000008088401607092019000000000073260N18112019000000000251176000000000261611000000008134255000000000031985000981245101015036T0929028605200000000000000000000000000000011
03508088401608054968118102019000000000010433D18CANCEL.DE VENDAS            553636XXXXXX2598070920190911493373192891740241471610201900000008088401607092019000000000073260N18112019000000000251176000000000261609000000008134255000000000031985000981245101015036T0929028605200000000000000000000000000000011
03508088401608054968118102019000000000010433D18CANCEL.DE VENDAS            553636XXXXXX2598070920190911493373192891740241471610201900000008088401607092019000000000073260N18112019000000000251176000000000261609000000008134255000000000031985000981245101015036T0929028605200000000000000000000000000000011
03508088401608054968118102019000000000010190D18CANCEL.DE VENDAS            422061XXXXXX8113091020190386499693192891753052721610201900000008088401609102019000000000031237N18112019000000000251176000000000261366000000015650108000000000031237000994710891542559T0929028605200000000000000000000000000000031
03508088401608054968118102019000000000010189D18CANCEL.DE VENDAS            422061XXXXXX8113091020190386499693192891753052721610201900000008088401609102019000000000031237N18112019000000000251176000000000261365000000015650108000000000031237000994710891542559T0929028605200000000000000000000000000000031
03508088401608054968118102019000000000010045D18CANCEL.DE VENDAS            541555XXXXXX8019050920190401491343192891721160191610201900000008088401605092019000000000041597N18112019000000000251176000000000261221000000013707117000000000030792000983912295005876T0929028605200000000000000000000000000000011
03508088401608054968118102019000000000010045D18CANCEL.DE VENDAS            541555XXXXXX8019050920190401491343192891721160191610201900000008088401605092019000000000041597N18112019000000000251176000000000261221000000013707117000000000030792000983912295005876T0929028605200000000000000000000000000000011
03508088401608054968118102019000000000010043D18CANCEL.DE VENDAS            541555XXXXXX8019050920190401491343192891721160191610201900000008088401605092019000000000041597N18112019000000000251176000000000261219000000013707117000000000030792000983912295005876T0929028605200000000000000000000000000000011
03508088401608054968118102019000000000009451D18CANCEL.DE VENDAS            422061XXXXXX1901300920190865496153192891740246221610201900000008088401630092019000000000066569N18112019000000000251176000000000260627000000031945092000000000048285000006714381303546T0929028605200000000000000000000000000000031
03508088401608054968118102019000000000009451D18CANCEL.DE VENDAS            422061XXXXXX1901300920190865496153192891740246221610201900000008088401630092019000000000066569N18112019000000000251176000000000260627000000031945092000000000048285000006714381303546T0929028605200000000000000000000000000000031
03508088401608054968118102019000000000009448D18CANCEL.DE VENDAS            422061XXXXXX1901300920190865496153192891740246221610201900000008088401630092019000000000066569N18112019000000000251176000000000260624000000031945092000000000048285000006714381303546T0929028605200000000000000000000000000000031
03508088401608054968118102019000000000009260D18CANCEL.DE VENDAS            422061XXXXXX0066100920190453496973192891727380751610201900000008088401610092019000000000056765N18112019000000000251176000000000260436000000018993478000000000056765000982673801504461T0929028605200000000000000000000000000000031
03508088401608054968118102019000000000009258D18CANCEL.DE VENDAS            422061XXXXXX0066100920190453496973192891727380751610201900000008088401610092019000000000056765N18112019000000000251176000000000260434000000018993478000000000056765000982673801504461T0929028605200000000000000000000000000000031
03508088401608054968118102019000000000009258D18CANCEL.DE VENDAS            422061XXXXXX0066100920190453496973192891727380751610201900000008088401610092019000000000056765N18112019000000000251176000000000260434000000018993478000000000056765000982673801504461T0929028605200000000000000000000000000000031
03508088401608054968118102019000000000009258D18CANCEL.DE VENDAS            422061XXXXXX0066100920190453496973192891727380751610201900000008088401610092019000000000056765N18112019000000000251176000000000260434000000018993478000000000056765000982673801504461T0929028605200000000000000000000000000000031
03508088401608054968118102019000000000009258D18CANCEL.DE VENDAS            422061XXXXXX0066100920190453496973192891727380751610201900000008088401610092019000000000056765N18112019000000000251176000000000260434000000018993478000000000056765000982673801504461T0929028605200000000000000000000000000000031
03508088401608054968118102019000000000009103D18CANCEL.DE VENDAS            606282XXXXXX9823150920190023492553192891727381381610201900000008088401615092019000000000033228N18112019000000000251176000000000260279000000000337680000000000027940000988463033056822T0929028605200000000000000000000000000000051
03508088401608054968118102019000000000009103D18CANCEL.DE VENDAS            606282XXXXXX9823150920190023492553192891727381381610201900000008088401615092019000000000033228N18112019000000000251176000000000260279000000000337680000000000027940000988463033056822T0929028605200000000000000000000000000000051
03508088401608054968118102019000000000009103D18CANCEL.DE VENDAS            606282XXXXXX9823150920190023492553192891727381381610201900000008088401615092019000000000033228N18112019000000000251176000000000260279000000000337680000000000027940000988463033056822T0929028605200000000000000000000000000000051
03508088401608054968118102019000000000008969D18CANCEL.DE VENDAS            552937XXXXXX3976200820190175492973192891740245871610201900000008088401620082019000000000054990N18112019000000000251176000000000260145000000016229852000000000054990000010869429557065T0929028605200000000000000000000000000000011
03508088401608054968118102019000000000008969D18CANCEL.DE VENDAS            552937XXXXXX3976200820190175492973192891740245871610201900000008088401620082019000000000054990N18112019000000000251176000000000260145000000016229852000000000054990000010869429557065T0929028605200000000000000000000000000000011
03508088401608054968118102019000000000008969D18CANCEL.DE VENDAS            552937XXXXXX3976200820190175492973192891740245871610201900000008088401620082019000000000054990N18112019000000000251176000000000260145000000016229852000000000054990000010869429557065T0929028605200000000000000000000000000000011
03508088401608054968118102019000000000008969D18CANCEL.DE VENDAS            552937XXXXXX3976200820190175492973192891740245871610201900000008088401620082019000000000054990N18112019000000000251176000000000260145000000016229852000000000054990000010869429557065T0929028605200000000000000000000000000000011
03508088401608054968118102019000000000008969D18CANCEL.DE VENDAS            552937XXXXXX3976200820190175492973192891740245871610201900000008088401620082019000000000054990N18112019000000000251176000000000260145000000016229852000000000054990000010869429557065T0929028605200000000000000000000000000000011
03508088401608054968118102019000000000008968D18CANCEL.DE VENDAS            552937XXXXXX3976200820190175492973192891740245871610201900000008088401620082019000000000054990N18112019000000000251176000000000260144000000016229852000000000054990000010869429557065T0929028605200000000000000000000000000000011
03508088401608054968118102019000000000008865D18CANCEL.DE VENDAS            530034XXXXXX5053300920190021494783192891727387931610201900000008088401630092019000000000018118N18112019000000000251176000000000260041000000038158128000000000018118000998588835078475T0929028605200000000000000000000000000000011
03508088401608054968118102019000000000008865D18CANCEL.DE VENDAS            530034XXXXXX5053300920190021494783192891727387931610201900000008088401630092019000000000018118N18112019000000000251176000000000260041000000038158128000000000018118000998588835078475T0929028605200000000000000000000000000000011
03508088401608054968118102019000000000008659D18CANCEL.DE VENDAS            553636XXXXXX1517050920190401491343192891753057011610201900000008088401605092019000000000217276N18112019000000000251176000000000259835000000013707117000000000053080000020548293028200T0929028605200000000000000000000000000000011
03508088401608054968118102019000000000008657D18CANCEL.DE VENDAS            553636XXXXXX1517050920190401491343192891753057011610201900000008088401605092019000000000217276N18112019000000000251176000000000259833000000013707117000000000053080000020548293028200T0929028605200000000000000000000000000000011
03508088401608054968118102019000000000008657D18CANCEL.DE VENDAS            553636XXXXXX1517050920190401491343192891753057011610201900000008088401605092019000000000217276N18112019000000000251176000000000259833000000013707117000000000053080000020548293028200T0929028605200000000000000000000000000000011
03508088401608054968118102019000000000008657D18CANCEL.DE VENDAS            553636XXXXXX1517050920190401491343192891753057011610201900000008088401605092019000000000217276N18112019000000000251176000000000259833000000013707117000000000053080000020548293028200T0929028605200000000000000000000000000000011
03508088401608054968118102019000000000008657D18CANCEL.DE VENDAS            553636XXXXXX1517050920190401491343192891753057011610201900000008088401605092019000000000217276N18112019000000000251176000000000259833000000013707117000000000053080000020548293028200T0929028605200000000000000000000000000000011
03508088401608054968118102019000000000008589D18CANCEL.DE VENDAS            536913XXXXXX3017200820190175492973192891755441741610201900000008088401620082019000000000038304N18112019000000000251176000000000259765000000016229852000000000026329000011858247101261T0929028605200000000000000000000000000000011
03508088401608054968118102019000000000008589D18CANCEL.DE VENDAS            536913XXXXXX3017200820190175492973192891755441741610201900000008088401620082019000000000038304N18112019000000000251176000000000259765000000016229852000000000026329000011858247101261T0929028605200000000000000000000000000000011
03508088401608054968118102019000000000008588D18CANCEL.DE VENDAS            536913XXXXXX3017200820190175492973192891755441741610201900000008088401620082019000000000038304N18112019000000000251176000000000259764000000016229852000000000026329000011858247101261T0929028605200000000000000000000000000000011
03508088401608054968118102019000000000008398D18CANCEL.DE VENDAS            552289XXXXXX6950120920190252499943192891755447311610201900000008088401612092019000000000017163N18112019000000000251176000000000259574000000018333510000000000017163000019905341094970T0929028605200000000000000000000000000000011
03508088401608054968118102019000000000008398D18CANCEL.DE VENDAS            552289XXXXXX6950120920190252499943192891755447311610201900000008088401612092019000000000017163N18112019000000000251176000000000259574000000018333510000000000017163000019905341094970T0929028605200000000000000000000000000000011
03508088401608054968118102019000000000008308D18CANCEL.DE VENDAS            481274XXXXXX9506041020190042494063192891755445571610201900000008088401604102019000000000016979N18112019000000000251176000000000259484000000010955468000000000016979000010406171003853T0929028605200000000000000000000000000000031
03508088401608054968118102019000000000008308D18CANCEL.DE VENDAS            481274XXXXXX9506041020190042494063192891755445571610201900000008088401604102019000000000016979N18112019000000000251176000000000259484000000010955468000000000016979000010406171003853T0929028605200000000000000000000000000000031
03508088401608054968118102019000000000008151D18CANCEL.DE VENDAS            490172XXXXXX5098131020190517499853192891740242011610201900000008088401613102019000000000038123N18112019000000000251176000000000259327000000006514426000000000024986000004600767014436T0929028605200000000000000000000000000000031
03508088401608054968118102019000000000008129D18CANCEL.DE VENDAS            550209XXXXXX3096300920190021494783192891727384271610201900000008088401630092019000000000016613N18112019000000000251176000000000259305000000038158128000000000016613000999733369027413T0929028605200000000000000000000000000000011
03508088401608054968118102019000000000008128D18CANCEL.DE VENDAS            550209XXXXXX3096300920190021494783192891727384271610201900000008088401630092019000000000016613N18112019000000000251176000000000259304000000038158128000000000016613000999733369027413T0929028605200000000000000000000000000000011
03508088401608054968118102019000000000008068D18CANCEL.DE VENDAS            485464XXXXXX5622030820190459496813192891740245421610201900000008088401603082019000000000016489N18112019000000000251176000000000259244000000006102676000000000016489000980089521899935T0929028605200000000000000000000000000000031
03508088401608054968118102019000000000008068D18CANCEL.DE VENDAS            485464XXXXXX5622030820190459496813192891740245421610201900000008088401603082019000000000016489N18112019000000000251176000000000259244000000006102676000000000016489000980089521899935T0929028605200000000000000000000000000000031
03508088401608054968118102019000000000007759D18CANCEL.DE VENDAS            523421XXXXXX1017230920190181495603192891727387151610201900000008088401623092019000000000051816N18112019000000000251176000000000258935000000027305670000000000047568000975343095124835T0929028605200000000000000000000000000000011
03508088401608054968118102019000000000007759D18CANCEL.DE VENDAS            523421XXXXXX1017230920190181495603192891727387151610201900000008088401623092019000000000051816N18112019000000000251176000000000258935000000027305670000000000047568000975343095124835T0929028605200000000000000000000000000000011
03508088401608054968118102019000000000007759D18CANCEL.DE VENDAS            523421XXXXXX1017230920190181495603192891727387151610201900000008088401623092019000000000051816N18112019000000000251176000000000258935000000027305670000000000047568000975343095124835T0929028605200000000000000000000000000000011
03508088401608054968118102019000000000007759D18CANCEL.DE VENDAS            523421XXXXXX1017230920190181495603192891727387151610201900000008088401623092019000000000051816N18112019000000000251176000000000258935000000027305670000000000047568000975343095124835T0929028605200000000000000000000000000000011
03508088401608054968118102019000000000007756D18CANCEL.DE VENDAS            550209XXXXXX3057080920190011492843192891721169781610201900000008088401608092019000000000015850N18112019000000000251176000000000258932000000011705145000000000015850000997496675575108T0929028605200000000000000000000000000000011
03508088401608054968118102019000000000007755D18CANCEL.DE VENDAS            550209XXXXXX3057080920190011492843192891721169781610201900000008088401608092019000000000015850N18112019000000000251176000000000258931000000011705145000000000015850000997496675575108T0929028605200000000000000000000000000000011
03508088401608054968118102019000000000007755D18CANCEL.DE VENDAS            523421XXXXXX1017230920190181495603192891727387151610201900000008088401623092019000000000051816N18112019000000000251176000000000258931000000027305670000000000047568000975343095124835T0929028605200000000000000000000000000000011
03508088401608054968118102019000000000007716D18CANCEL.DE VENDAS            514868XXXXXX0570300920190021494783192891721162541610201900000008088401630092019000000000015769N18112019000000000251176000000000258892000000038158128000000000015769000999915613016968T0929028605200000000000000000000000000000011
03508088401608054968118102019000000000007716D18CANCEL.DE VENDAS            514868XXXXXX0570300920190021494783192891721162541610201900000008088401630092019000000000015769N18112019000000000251176000000000258892000000038158128000000000015769000999915613016968T0929028605200000000000000000000000000000011
03508088401608054968118102019000000000007676D18CANCEL.DE VENDAS            406669XXXXXX3483230920190033499823192891740240901610201900000008088401623092019000000000031372N18112019000000000251176000000000258852000000021727083000000000031372000989544585641872T0929028605200000000000000000000000000000031
03508088401608054968118102019000000000007676D18CANCEL.DE VENDAS            406669XXXXXX3483230920190033499823192891740240901610201900000008088401623092019000000000031372N18112019000000000251176000000000258852000000021727083000000000031372000989544585641872T0929028605200000000000000000000000000000031
03508088401608054968118102019000000000007676D18CANCEL.DE VENDAS            406669XXXXXX3483230920190033499823192891740240901610201900000008088401623092019000000000031372N18112019000000000251176000000000258852000000021727083000000000031372000989544585641872T0929028605200000000000000000000000000000031
03508088401608054968118102019000000000007673D18CANCEL.DE VENDAS            406669XXXXXX3483230920190033499823192891740240901610201900000008088401623092019000000000031372N18112019000000000251176000000000258849000000021727083000000000031372000989544585641872T0929028605200000000000000000000000000000031
03508088401608054968118102019000000000007630D18CANCEL.DE VENDAS            606282XXXXXX5737280820190272496003192891753058981610201900000008088401628082019000000000023419N18112019000000000251176000000000258806000000000195074000000000023419000023322635022582T0929028605200000000000000000000000000000051
03508088401608054968118102019000000000007630D18CANCEL.DE VENDAS            606282XXXXXX5737280820190272496003192891753058981610201900000008088401628082019000000000023419N18112019000000000251176000000000258806000000000195074000000000023419000023322635022582T0929028605200000000000000000000000000000051
03508088401608054968118102019000000000007630D18CANCEL.DE VENDAS            606282XXXXXX5737280820190272496003192891753058981610201900000008088401628082019000000000023419N18112019000000000251176000000000258806000000000195074000000000023419000023322635022582T0929028605200000000000000000000000000000051
03508088401608054968118102019000000000007605D18CANCEL.DE VENDAS            553636XXXXXX3856250920190742491753192891740242371610201900000008088401625092019000000000038857N18112019000000000251176000000000258781000000009431671000000000038857000990036455006658T0929028605200000000000000000000000000000011
03508088401608054968118102019000000000007605D18CANCEL.DE VENDAS            553636XXXXXX3856250920190742491753192891740242371610201900000008088401625092019000000000038857N18112019000000000251176000000000258781000000009431671000000000038857000990036455006658T0929028605200000000000000000000000000000011
03508088401608054968118102019000000000007605D18CANCEL.DE VENDAS            553636XXXXXX3856250920190742491753192891740242371610201900000008088401625092019000000000038857N18112019000000000251176000000000258781000000009431671000000000038857000990036455006658T0929028605200000000000000000000000000000011
03508088401608054968118102019000000000007605D18CANCEL.DE VENDAS            553636XXXXXX3856250920190742491753192891740242371610201900000008088401625092019000000000038857N18112019000000000251176000000000258781000000009431671000000000038857000990036455006658T0929028605200000000000000000000000000000011
03508088401608054968118102019000000000007605D18CANCEL.DE VENDAS            553636XXXXXX3856250920190742491753192891740242371610201900000008088401625092019000000000038857N18112019000000000251176000000000258781000000009431671000000000038857000990036455006658T0929028605200000000000000000000000000000011
03508088401608054968118102019000000000007418D18CANCEL.DE VENDAS            541187XXXXXX4569130820190304495643192891740240141610201900000008088401613082019000000000045480N18112019000000000251176000000000258594000000013016790000000000045480000027501617075073T0929028605200000000000000000000000000000011
03508088401608054968118102019000000000007418D18CANCEL.DE VENDAS            541187XXXXXX4569130820190304495643192891740240141610201900000008088401613082019000000000045480N18112019000000000251176000000000258594000000013016790000000000045480000027501617075073T0929028605200000000000000000000000000000011
03508088401608054968118102019000000000007418D18CANCEL.DE VENDAS            541187XXXXXX4569130820190304495643192891740240141610201900000008088401613082019000000000045480N18112019000000000251176000000000258594000000013016790000000000045480000027501617075073T0929028605200000000000000000000000000000011
03508088401608054968118102019000000000007418D18CANCEL.DE VENDAS            541187XXXXXX4569130820190304495643192891740240141610201900000008088401613082019000000000045480N18112019000000000251176000000000258594000000013016790000000000045480000027501617075073T0929028605200000000000000000000000000000011
03508088401608054968118102019000000000007418D18CANCEL.DE VENDAS            541187XXXXXX4569130820190304495643192891740240141610201900000008088401613082019000000000045480N18112019000000000251176000000000258594000000013016790000000000045480000027501617075073T0929028605200000000000000000000000000000011
03508088401608054968118102019000000000007417D18CANCEL.DE VENDAS            541187XXXXXX4569130820190304495643192891740240141610201900000008088401613082019000000000045480N18112019000000000251176000000000258593000000013016790000000000045480000027501617075073T0929028605200000000000000000000000000000011
03508088401608054968118102019000000000007401D18CANCEL.DE VENDAS            498408XXXXXX2421090920190113495793192891755448271610201900000008088401609092019000000000022686N18112019000000000251176000000000258577000000019623264000000000022686000002229949869505T0929028605200000000000000000000000000000031
03508088401608054968118102019000000000007401D18CANCEL.DE VENDAS            498408XXXXXX2421090920190113495793192891755448271610201900000008088401609092019000000000022686N18112019000000000251176000000000258577000000019623264000000000022686000002229949869505T0929028605200000000000000000000000000000031
03508088401608054968118102019000000000007399D18CANCEL.DE VENDAS            498408XXXXXX2421090920190113495793192891755448271610201900000008088401609092019000000000022686N18112019000000000251176000000000258575000000019623264000000000022686000002229949869505T0929028605200000000000000000000000000000031
03508088401608054968118102019000000000007386D18CANCEL.DE VENDAS            422053XXXXXX7104300920190865496153192891753057221610201900000008088401630092019000000000015094N18112019000000000251176000000000258562000000031945092000000000015094000998588961001067T0929028605200000000000000000000000000000031
03508088401608054968118102019000000000007385D18CANCEL.DE VENDAS            422053XXXXXX7104300920190865496153192891753057221610201900000008088401630092019000000000015094N18112019000000000251176000000000258561000000031945092000000000015094000998588961001067T0929028605200000000000000000000000000000031
03508088401608054968118102019000000000007280D18CANCEL.DE VENDAS            516292XXXXXX6601270820190989498093192891740244231610201900000008088401627082019000000000022313N18112019000000000251176000000000258456000000018719560000000000022313000019149689816013T0929028605200000000000000000000000000000011
03508088401608054968118102019000000000007280D18CANCEL.DE VENDAS            553636XXXXXX7172300920190021494783192891740247101610201900000008088401630092019000000000058196N18112019000000000251176000000000258456000000038158128000000000022318000999275873053335T0929028605200000000000000000000000000000011
03508088401608054968118102019000000000007280D18CANCEL.DE VENDAS            553636XXXXXX7172300920190021494783192891740247101610201900000008088401630092019000000000058196N18112019000000000251176000000000258456000000038158128000000000022318000999275873053335T0929028605200000000000000000000000000000011
03508088401608054968118102019000000000007280D18CANCEL.DE VENDAS            553636XXXXXX7172300920190021494783192891740247101610201900000008088401630092019000000000058196N18112019000000000251176000000000258456000000038158128000000000022318000999275873053335T0929028605200000000000000000000000000000011
03508088401608054968118102019000000000007278D18CANCEL.DE VENDAS            516292XXXXXX6601270820190989498093192891740244231610201900000008088401627082019000000000022313N18112019000000000251176000000000258454000000018719560000000000022313000019149689816013T0929028605200000000000000000000000000000011
03508088401608054968118102019000000000007278D18CANCEL.DE VENDAS            516292XXXXXX6601270820190989498093192891740244231610201900000008088401627082019000000000022313N18112019000000000251176000000000258454000000018719560000000000022313000019149689816013T0929028605200000000000000000000000000000011
03508088401608054968118102019000000000007269D18CANCEL.DE VENDAS            549167XXXXXX9240300920190021494783192891727380241610201900000008088401630092019000000000014856N18112019000000000251176000000000258445000000038158128000000000014856000999518279007903T0929028605200000000000000000000000000000011
03508088401608054968118102019000000000007269D18CANCEL.DE VENDAS            549167XXXXXX9240300920190021494783192891727380241610201900000008088401630092019000000000014856N18112019000000000251176000000000258445000000038158128000000000014856000999518279007903T0929028605200000000000000000000000000000011
03508088401608054968118102019000000000007167D18CANCEL.DE VENDAS            498406XXXXXX6404300920190865496153192891753055061610201900000008088401630092019000000000014646N18112019000000000251176000000000258343000000031945092000000000014646000994945955079649T0929028605200000000000000000000000000000031
03508088401608054968118102019000000000007166D18CANCEL.DE VENDAS            498406XXXXXX6404300920190865496153192891753055061610201900000008088401630092019000000000014646N18112019000000000251176000000000258342000000031945092000000000014646000994945955079649T0929028605200000000000000000000000000000031
03508088401608054968118102019000000000007155D18CANCEL.DE VENDAS            514945XXXXXX9568220720190307495833192891740240161610201900000008088401622072019000000000027156N18112019000000000251176000000000258331000000011967985000000000014623000997317009036527T0929028605200000000000000000000000000000011
03508088401608054968118102019000000000007155D18CANCEL.DE VENDAS            514945XXXXXX9568220720190307495833192891740240161610201900000008088401622072019000000000027156N18112019000000000251176000000000258331000000011967985000000000014623000997317009036527T0929028605200000000000000000000000000000011
03508088401608054968118102019000000000007128D18CANCEL.DE VENDAS            539091XXXXXX6947300920190021494783192891753056881610201900000008088401630092019000000000021848N18112019000000000251176000000000258304000000038158128000000000021848000998969597000704T0929028605200000000000000000000000000000011
03508088401608054968118102019000000000007126D18CANCEL.DE VENDAS            539091XXXXXX6947300920190021494783192891753056881610201900000008088401630092019000000000021848N18112019000000000251176000000000258302000000038158128000000000021848000998969597000704T0929028605200000000000000000000000000000011
03508088401608054968118102019000000000007126D18CANCEL.DE VENDAS            539091XXXXXX6947300920190021494783192891753056881610201900000008088401630092019000000000021848N18112019000000000251176000000000258302000000038158128000000000021848000998969597000704T0929028605200000000000000000000000000000011
03508088401608054968118102019000000000007096D18CANCEL.DE VENDAS            498453XXXXXX4499300920190865496153192891740244731610201900000008088401630092019000000000014501N18112019000000000251176000000000258272000000031945092000000000014501000999668575894477T0929028605200000000000000000000000000000031
03508088401608054968118102019000000000007095D18CANCEL.DE VENDAS            498453XXXXXX4499300920190865496153192891740244731610201900000008088401630092019000000000014501N18112019000000000251176000000000258271000000031945092000000000014501000999668575894477T0929028605200000000000000000000000000000031
03508088401608054968118102019000000000006941D18CANCEL.DE VENDAS            550209XXXXXX5641170920190604493873192891721164231610201900000008088401617092019000000000021277N18112019000000000251176000000000258117000000013107898000000000021277000953053653136452T0929028605200000000000000000000000000000011
03508088401608054968118102019000000000006941D18CANCEL.DE VENDAS            550209XXXXXX5641170920190604493873192891721164231610201900000008088401617092019000000000021277N18112019000000000251176000000000258117000000013107898000000000021277000953053653136452T0929028605200000000000000000000000000000011
03508088401608054968118102019000000000006940D18CANCEL.DE VENDAS            550209XXXXXX5641170920190604493873192891721164231610201900000008088401617092019000000000021277N18112019000000000251176000000000258116000000013107898000000000021277000953053653136452T0929028605200000000000000000000000000000011
03508088401608054968118102019000000000006940D18CANCEL.DE VENDAS            415274XXXXXX6114060920190552498533192891740247981610201900000008088401606092019000000000029474N18112019000000000251176000000000258116000000011218927000000000028365000999228273006312T0929028605200000000000000000000000000000031
03508088401608054968118102019000000000006940D18CANCEL.DE VENDAS            415274XXXXXX6114060920190552498533192891740247981610201900000008088401606092019000000000029474N18112019000000000251176000000000258116000000011218927000000000028365000999228273006312T0929028605200000000000000000000000000000031
03508088401608054968118102019000000000006940D18CANCEL.DE VENDAS            415274XXXXXX6114060920190552498533192891740247981610201900000008088401606092019000000000029474N18112019000000000251176000000000258116000000011218927000000000028365000999228273006312T0929028605200000000000000000000000000000031
03508088401608054968118102019000000000006938D18CANCEL.DE VENDAS            415274XXXXXX6114060920190552498533192891740247981610201900000008088401606092019000000000029474N18112019000000000251176000000000258114000000011218927000000000028365000999228273006312T0929028605200000000000000000000000000000031
03508088401608054968118102019000000000006919D18CANCEL.DE VENDAS            498408XXXXXX7011160920190150498033192891721163741610201900000008088401616092019000000000028278N18112019000000000251176000000000258095000000015597671000000000028278000961760933923210T0929028605200000000000000000000000000000031
03508088401608054968118102019000000000006918D18CANCEL.DE VENDAS            498408XXXXXX7011160920190150498033192891721163741610201900000008088401616092019000000000028278N18112019000000000251176000000000258094000000015597671000000000028278000961760933923210T0929028605200000000000000000000000000000031
03508088401608054968118102019000000000006918D18CANCEL.DE VENDAS            498408XXXXXX7011160920190150498033192891721163741610201900000008088401616092019000000000028278N18112019000000000251176000000000258094000000015597671000000000028278000961760933923210T0929028605200000000000000000000000000000031
03508088401608054968118102019000000000006918D18CANCEL.DE VENDAS            498408XXXXXX7011160920190150498033192891721163741610201900000008088401616092019000000000028278N18112019000000000251176000000000258094000000015597671000000000028278000961760933923210T0929028605200000000000000000000000000000031
03508088401608054968118102019000000000006883D18CANCEL.DE VENDAS            422061XXXXXX5337111020190061492933192891727387531610201900000008088401611102019000000000021105N18112019000000000251176000000000258059000000007244041000000000021105000014651873444857T0929028605200000000000000000000000000000031
03508088401608054968118102019000000000006876D18CANCEL.DE VENDAS            530780XXXXXX3922300920190021494783192891727384911610201900000008088401630092019000000000028099N18112019000000000251176000000000258052000000038158128000000000028099000999164441074520T0929028605200000000000000000000000000000011
03508088401608054968118102019000000000006874D18CANCEL.DE VENDAS            530780XXXXXX3922300920190021494783192891727384911610201900000008088401630092019000000000028099N18112019000000000251176000000000258050000000038158128000000000028099000999164441074520T0929028605200000000000000000000000000000011
03508088401608054968118102019000000000006874D18CANCEL.DE VENDAS            530780XXXXXX3922300920190021494783192891727384911610201900000008088401630092019000000000028099N18112019000000000251176000000000258050000000038158128000000000028099000999164441074520T0929028605200000000000000000000000000000011
03508088401608054968118102019000000000006856D18CANCEL.DE VENDAS            415275XXXXXX2139150820190743495983192891753052351610201900000008088401615082019000000000021018N18112019000000000251176000000000258032000000011242893000000000021018000008834663012487T0929028605200000000000000000000000000000031
03508088401608054968118102019000000000006856D18CANCEL.DE VENDAS            415275XXXXXX2139150820190743495983192891753052351610201900000008088401615082019000000000021018N18112019000000000251176000000000258032000000011242893000000000021018000008834663012487T0929028605200000000000000000000000000000031
03508088401608054968118102019000000000006856D18CANCEL.DE VENDAS            415275XXXXXX2139150820190743495983192891753052351610201900000008088401615082019000000000021018N18112019000000000251176000000000258032000000011242893000000000021018000008834663012487T0929028605200000000000000000000000000000031
03508088401608054968118102019000000000006758D18CANCEL.DE VENDAS            550209XXXXXX1113230820190048498053192891740241041610201900000008088401623082019000000000027620N18112019000000000251176000000000257934000000011818102000000000027620000009453857140011T0929028605200000000000000000000000000000011
03508088401608054968118102019000000000006758D18CANCEL.DE VENDAS            550209XXXXXX1113230820190048498053192891740241041610201900000008088401623082019000000000027620N18112019000000000251176000000000257934000000011818102000000000027620000009453857140011T0929028605200000000000000000000000000000011
03508088401608054968118102019000000000006758D18CANCEL.DE VENDAS            550209XXXXXX1113230820190048498053192891740241041610201900000008088401623082019000000000027620N18112019000000000251176000000000257934000000011818102000000000027620000009453857140011T0929028605200000000000000000000000000000011
03508088401608054968118102019000000000006755D18CANCEL.DE VENDAS            550209XXXXXX1113230820190048498053192891740241041610201900000008088401623082019000000000027620N18112019000000000251176000000000257931000000011818102000000000027620000009453857140011T0929028605200000000000000000000000000000011
03508088401608054968118102019000000000006711D18CANCEL.DE VENDAS            490172XXXXXX2991020920190382495593192891755447981610201900000008088401602092019000000000013716N18112019000000000251176000000000257887000000015606050000000000013716000954796307057516T0929028605200000000000000000000000000000031
03508088401608054968118102019000000000006711D18CANCEL.DE VENDAS            490172XXXXXX2991020920190382495593192891755447981610201900000008088401602092019000000000013716N18112019000000000251176000000000257887000000015606050000000000013716000954796307057516T0929028605200000000000000000000000000000031
03508088401608054968118102019000000000006648D18CANCEL.DE VENDAS            498453XXXXXX1802290820190403494603192891721161911610201900000008088401629082019000000000027174N18112019000000000251176000000000257824000000009959779000000000027174000984454997722444T0929028605200000000000000000000000000000031
