03001102019RedecardExtrato de Movimentacao FinanceiraWESTWING              000459038959011DIARIO         V3.01 - 09/06 - EEFI
032038959011WESTWING              
040038959011000000000000000000000109201930092019000000000000000
040038977672000000000000000000000109201930092019000000000000000
0360676033350919979146730092019000000000011686C34100030000000152352027649655180720190000000000120952004202009/100000000001239800000000000030380676033351
0360676033350921509405630092019000000000005162C34100030000000152352058949191030820190000000000053270304202008/090000000000491400000000000012040676033351
0360676033350927278906430092019000000000053199C34100030000000152352082530988290920190000000000534663010201901/010000000000545300000000000010640676033351
0360676033350919214284930092019000000000013990C34100030000000152352030349106110720190000000000144621304202009/100000000001482480000000000036320676033351
0360676033350924730676930092019000000000035093C34100030000000152352007349870040920190000000000362320604202007/100000000003612920000000000088510676033351
0360676033350926006899030092019000000000078062C34100030000000152352057149613170920190000000000807912004202007/100000000008282070000000000202910676033351
0360676033350917202459630092019000000000004825C34100030000000152352000549793210620190000000000049952204202010/100000000000512010000000000012540676033351
0360676033350926383660530092019000000000019103C34100030000000152352047349540200920190000000000195722102202005/050000000001000000000000000021400676033351
0360676033350927233562230092019000000000048482C34100030000000152352072749363290920190000000000497570203202005/060000000003050740000000000065290676033351
0360676033350926579090130092019000000000070193C34100030000000152352090349591220920190000000000719782602202005/100000000007378560000000000180770676033351
0360676033350919214284730092019000000000014140C34100030000000152352030349106110720190000000000144621102202007/100000000001482480000000000036320676033351
0360676033350926006898830092019000000000078895C34100030000000152352057149613170920190000000000807911802202005/100000000008282070000000000202910676033351
0360676033350922828383630092019000000000028334C34100030000000152352017749901160820190000000000290101702202006/100000000002973850000000000072860676033351
0360676033350917202459430092019000000000004871C34100030000000152352000549793210620190000000000049952602202008/100000000000512010000000000012540676033351
0360676033350920090719430092019000000000015206C34100030000000152352059249652190720190000000000155741902202007/100000000001596410000000000039110676033351
0360676033350927233561930092019000000000049235C34100030000000152352072749363290920190000000000497570212201902/060000000003050740000000000065290676033351
0360676033350924730676730092019000000000035460C34100030000000152352007349870040920190000000000362320502202005/100000000003612920000000000088510676033351
0360676033350921805680830092019000000000009670C34100030000000152352026249013060820190000000000098820602202006/100000000001013000000000000024820676033351
0360676033350927139397530092019000000000116862C34100030000000152352060549001280920190000000001186593012201903/050000000004983600000000000106660676033351
0360676033350921674890230092019000000000033146C34100030000000152352070849602040820190000000000338620402202006/100000000003471100000000000085050676033351
0360676033350918792193930092019000000000035847C34100030000000152352097949585060720190000000000366330602202007/100000000003755240000000000092000676033351
0360676033350927233562130092019000000000048747C34100030000000152352072749363290920190000000000497573001202004/060000000003050740000000000065290676033351
0360676033350922212430830092019000000000018613C34100030000000152352058149317100820190000000000190341002202006/100000000001951200000000000047800676033351
0360676033350922992224630092019000000000006448C34100030000000152352049149064170820190000000000066021702202006/060000000000956880000000000020480676033351
0360676033350925804373330092019000000000013616C34100030000000152352001049165150920190000000000139411702202005/100000000001429110000000000035010676033351
0360676033350923163604430092019000000000032283C34100030000000152352086449693190820190000000000332281903202007/100000000003354070000000000082180676033351
0360676033350926006898930092019000000000078506C34100030000000152352057149613170920190000000000807911803202006/100000000008282070000000000202910676033351
0360676033350917786202730092019000000000021261C34100030000000152352020549828260620190000000000219142703202009/100000000002246440000000000055040676033351
0360676033350921805680930092019000000000009622C34100030000000152352026249013060820190000000000098820603202007/100000000001013000000000000024820676033351
0360676033350918792194030092019000000000035670C34100030000000152352097949585060720190000000000366330603202008/100000000003755240000000000092000676033351
0360676033350923951503630092019000000000022253C34100030000000152352095949149270820190000000000229362703202007/100000000002351280000000000057610676033351
0360676033350927139398330092019000000000015764C34100030000000152352060549002280920190000000000162563003202006/100000000001316400000000000032260676033351
0360676033350924667538530092019000000000007245C34100030000000152352078349993030920190000000000074010402202005/100000000000758600000000000018590676033351
0360676033350919979146630092019000000000011753C34100030000000152352027649655180720190000000000120951803202008/100000000001239800000000000030380676033351
0360676033350922212431030092019000000000018413C34100030000000152352058149317100820190000000000190341304202008/100000000001951200000000000047800676033351
0360676033350923951503530092019000000000022364C34100030000000152352095949149270820190000000000229362702202006/100000000002351280000000000057610676033351
0360676033350923080180730092019000000000008589C34100030000000152352061249671180820190000000000087951802202006/100000000000901510000000000022090676033351
0360676033350921509405530092019000000000005190C34100030000000152352058949191030820190000000000053270303202007/090000000000491400000000000012040676033351
0360676033350927139397830092019000000000016172C34100030000000152352060549002280920190000000000162502910201901/100000000001316400000000000032260676033351
0360676033350925804373430092019000000000013551C34100030000000152352001049165150920190000000000139411603202006/100000000001429110000000000035010676033351
0360676033350926579090230092019000000000069882C34100030000000152352090349591220920190000000000719782303202006/100000000007378560000000000180770676033351
0360676033350925645053930092019000000000010032C34100030000000152352054749987130920190000000000102661402202005/050000000000844870000000000018070676033351
0360676033350917307040330092019000000000049635C34100030000000152352031249632220620190000000000511242303202009/100000000006953900000000000170370676033351
0360676033350927091934730092019000000000111082C34100030000000152352049732304270920190000000001116022810201901/010000000001138200000000000022180676033351
0360676033350919214284830092019000000000014070C34100030000000152352030349106110720190000000000144621103202008/100000000001482480000000000036320676033351
0360676033350927193289130092019000000000272389C34100030000000152352069532649280920190000000002737102910201901/010000000002791530000000000054430676033351
0360676033350918375587730092019000000000005601C34100030000000152352076249296020720190000000000057480203202008/080000000000471400000000000011550676033351
0360676033350927193289230092019000000000017544C34100030000000152352069532650280920190000000000176292910201901/010000000000179800000000000003510676033351
0360676033350918792194130092019000000000035481C34100030000000152352097949585060720190000000000366330604202009/100000000003755240000000000092000676033351
0360676033350917202459530092019000000000004850C34100030000000152352000549793210620190000000000049952303202009/100000000000512010000000000012540676033351
0360676033350917673251630092019000000000020076C34100030000000152352091949270250620190000000000205862602202008/100000000002110300000000000051700676033351
0360676033350917307040230092019000000000049856C34100030000000152352031249632220620190000000000511242602202008/100000000006953900000000000170370676033351
0360676033350917673251730092019000000000019976C34100030000000152352091949270250620190000000000205862603202009/100000000002110300000000000051700676033351
0360676033350917786202630092019000000000021367C34100030000000152352020549828260620190000000000219142702202008/100000000002246440000000000055040676033351
0360676033350920185455930092019000000000037316C34100030000000152352089549592200720190000000000386212004202009/100000000003959100000000000097000676033351
0360676033350919979146530092019000000000011811C34100030000000152352027649655180720190000000000120951802202007/100000000001239800000000000030380676033351
0360676033350923080180830092019000000000008546C34100030000000152352061249671180820190000000000087951803202007/100000000000901510000000000022090676033351
0360676033350926985694830092019000000000020603C34100030000000152352099449179260920190000000000212362703202006/100000000002176900000000000053330676033351
0360676033350922828383830092019000000000028049C34100030000000152352017749901160820190000000000290101604202008/100000000002973850000000000072860676033351
0360676033350921674890330092019000000000032983C34100030000000152352070849602040820190000000000338620403202007/100000000003471100000000000085050676033351
0360676033350920090719530092019000000000015131C34100030000000152352059249652190720190000000000155741903202008/100000000001596410000000000039110676033351
0360676033350925186343930092019000000000013221C34100030000000152352099849648080920190000000000136570904202007/100000000001400000000000000034300676033351
0360676033350926579089530092019000000000005167C34100030000000152352090349590220920190000000000052982602202005/060000000002272120000000000048630676033351
0360676033350922087767630092019000000000004987C34100030000000152352088949017080820190000000000051001002202006/060000000000312700000000000006690676033351
0360676033350921805681030092019000000000009571C34100030000000152352026249013060820190000000000098820604202008/100000000001013000000000000024820676033351
0360676033350926579089630092019000000000005144C34100030000000152352090349590220920190000000000052982303202006/060000000002272120000000000048630676033351
0360676033350920090719630092019000000000015048C34100030000000152352059249652190720190000000000155742004202009/100000000001596410000000000039110676033351
0360676033350920185455730092019000000000037702C34100030000000152352089549592200720190000000000386212002202007/100000000003959100000000000097000676033351
0360676033350921674890430092019000000000032797C34100030000000152352070849602040820190000000000338620604202008/100000000003471100000000000085050676033351
0360676033350926985694230092019000000000005189C34100030000000152352099449178260920190000000000053222702202005/050000000000271920000000000005820676033351
0360676033350920185455830092019000000000037516C34100030000000152352089549592200720190000000000386212003202008/100000000003959100000000000097000676033351
0360676033350922212430930092019000000000018521C34100030000000152352058149317100820190000000000190341003202007/100000000001951200000000000047800676033351
0360676033350922828383030092019000000000010033C34100030000000152352017749900160820190000000000102721702202006/060000000000915460000000000019600676033351
0360676033350922828383730092019000000000028199C34100030000000152352017749901160820190000000000290101603202007/100000000002973850000000000072860676033351
0360676033350920573182530092019000000000009578C34100030000000152352084949109240720190000000000098212602202007/080000000000805400000000000019730676033351
0360676033350926985694730092019000000000020706C34100030000000152352099449179260920190000000000212362702202005/100000000002176900000000000053330676033351
0360676033350927007803430092019000000000007977C34100030000000152352029849487270920190000000000080142810201901/030000000000245700000000000005260676033351
0360676033350927007803530092019000000000007936C34100030000000152352029849487270920190000000000080152811201902/030000000000245700000000000005260676033351
0360676033350927007803630092019000000000007894C34100030000000152352029849487270920190000000000080153012201903/030000000000245700000000000005260676033351
0360676033350927139397330092019000000000173058C34100030000000152352060549001280920190000000001738972910201901/050000000004983600000000000106660676033351
0360676033350927139397430092019000000000172166C34100030000000152352060549001280920190000000001739022911201902/050000000004983600000000000106660676033351
0360676033350927139397630092019000000000010404C34100030000000152352060549001280920190000000000106182901202004/050000000004983600000000000106660676033351
0360676033350927139397730092019000000000010346C34100030000000152352060549001280920190000000000106180203202005/050000000004983600000000000106660676033351
0360676033350927139397930092019000000000016094C34100030000000152352060549002280920190000000000162562911201902/100000000001316400000000000032260676033351
0360676033350927139398030092019000000000016010C34100030000000152352060549002280920190000000000162563012201903/100000000001316400000000000032260676033351
0360676033350927139398130092019000000000015929C34100030000000152352060549002280920190000000000162562901202004/100000000001316400000000000032260676033351
0360676033350927139398230092019000000000015839C34100030000000152352060549002280920190000000000162560203202005/100000000001316400000000000032260676033351
0360676033350927233561830092019000000000049512C34100030000000152352072749363290920190000000000497603010201901/060000000003050740000000000065290676033351
0360676033350927233562030092019000000000049004C34100030000000152352072749363290920190000000000497573012201903/060000000003050740000000000065290676033351
0360676033350927233562330092019000000000048250C34100030000000152352072749363290920190000000000497573003202006/060000000003050740000000000065290676033351
0360676033350927233562430092019000000000007184C34100030000000152352072749364290920190000000000072203010201901/100000000000740500000000000018140676033351
0360676033350927233562530092019000000000007148C34100030000000152352072749364290920190000000000072240212201902/100000000000740500000000000018140676033351
0360676033350927233562630092019000000000007115C34100030000000152352072749364290920190000000000072243012201903/100000000000740500000000000018140676033351
0360676033350927233562730092019000000000007077C34100030000000152352072749364290920190000000000072243001202004/100000000000740500000000000018140676033351
0360676033350927233562830092019000000000007039C34100030000000152352072749364290920190000000000072240203202005/100000000000740500000000000018140676033351
0360676033350927233562930092019000000000007005C34100030000000152352072749364290920190000000000072243003202006/100000000000740500000000000018140676033351
0360676033350920573182630092019000000000009533C34100030000000152352084949109240720190000000000098212403202008/080000000000805400000000000019730676033351
0360676033350924730676830092019000000000035285C34100030000000152352007349870040920190000000000362320503202006/100000000003612920000000000088510676033351
0360676033350922717871530092019000000000009219C34100030000000152352086549247150820190000000000094391702202006/100000000000967600000000000023710676033351
0360676033350923333049330092019000000000009344C34100030000000152352042949679210820190000000000095732102202006/100000000000981330000000000024040676033351
0360676033350925186343230092019000000000005532C34100030000000152352099849647080920190000000000056571002202005/050000000002781700000000000059520676033351
0360676033350926383661130092019000000000004923C34100030000000152352047349541200920190000000000050712303202006/100000000000519800000000000012740676033351
0360676033350926383661230092019000000000004898C34100030000000152352047349541200920190000000000050712204202007/100000000000519800000000000012740676033351
0360676033350922717871630092019000000000009175C34100030000000152352086549247150820190000000000094391603202007/100000000000967600000000000023710676033351
0360676033350922717871730092019000000000009128C34100030000000152352086549247150820190000000000094391504202008/100000000000967600000000000023710676033351
0360676033350925186343730092019000000000013355C34100030000000152352099849648080920190000000000136571002202005/100000000001400000000000000034300676033351
0360676033350925186343830092019000000000013291C34100030000000152352099849648080920190000000000136570903202006/100000000001400000000000000034300676033351
0360676033350925266535230092019000000000005037C34100030000000152352027849664090920190000000000051511002202005/060000000000315800000000000006760676033351
0360676033350925266535330092019000000000005012C34100030000000152352027849664090920190000000000051511003202006/060000000000315800000000000006760676033351
0360676033350925381479630092019000000000055979C34100030000000152352058749353100920190000000000572561102202005/050000000002925370000000000062600676033351
0360676033350925700446730092019000000000049529C34100030000000152352087849667140920190000000000507101702202005/100000000005198330000000000127360676033351
0360676033350925700446830092019000000000049292C34100030000000152352087849667140920190000000000507101603202006/100000000005198330000000000127360676033351
0360676033350925700446930092019000000000049039C34100030000000152352087849667140920190000000000507101504202007/100000000005198330000000000127360676033351
0360676033350925804372830092019000000000009114C34100030000000152352001049164150920190000000000093311702202005/050000000000871440000000000018650676033351
0360676033350925804373530092019000000000013479C34100030000000152352001049165150920190000000000139411604202007/100000000001429110000000000035010676033351
0360676033350926218489330092019000000000005154C34100030000000152352017249049190920190000000000052802002202005/100000000000541260000000000013260676033351
0360676033350920861174030092019000000000041812C34100030000000152352073549321270720190000000000428822702202007/100000000004292600000000000105170676033351
0360676033350920861174130092019000000000041605C34100030000000152352073549321270720190000000000428822703202008/100000000004292600000000000105170676033351
0360676033350922479116730092019000000000007197C34100030000000152352098149233120820190000000000073621202202006/060000000000451400000000000009660676033351
0360676033350926218489430092019000000000005129C34100030000000152352017249049190920190000000000052802003202006/100000000000541260000000000013260676033351
0360676033350926218489530092019000000000005102C34100030000000152352017249049190920190000000000052802004202007/100000000000541260000000000013260676033351
0360676033350923080180930092019000000000008498C34100030000000152352061249671180820190000000000087952004202008/100000000000901510000000000022090676033351
0360676033350924431984630092019000000000010880C34100030000000152352025149123010920190000000000112260204202007/100000000001150700000000000028190676033351
0360676033350923163604330092019000000000032443C34100030000000152352086449693190820190000000000332281902202006/100000000003354070000000000082180676033351
0360676033350926383661030092019000000000004949C34100030000000152352047349541200920190000000000050712102202005/100000000000519800000000000012740676033351
0360676033350923163604530092019000000000032106C34100030000000152352086449693190820190000000000332282004202008/100000000003354070000000000082180676033351
0360676033350923333049430092019000000000009294C34100030000000152352042949679210820190000000000095732303202007/100000000000981330000000000024040676033351
0360676033350923333049530092019000000000009246C34100030000000152352042949679210820190000000000095732204202008/100000000000981330000000000024040676033351
0360676033350923607549230092019000000000036251C34100030000000152352031849341240820190000000000371732602202006/100000000003502190000000000085800676033351
0360676033350923607549330092019000000000036084C34100030000000152352031849341240820190000000000371732403202007/100000000003502190000000000085800676033351
0360676033350924286296330092019000000000009052C34100030000000152352082849961300820190000000000093353003202007/100000000000956970000000000023450676033351
0360676033350924568594930092019000000000004965C34100030000000152352050249579020920190000000000051240304202007/090000000000472700000000000011580676033351
0360676033350924667538730092019000000000007168C34100030000000152352078349993030920190000000000074010604202007/100000000000758600000000000018590676033351
0360676033350924431984530092019000000000010938C34100030000000152352025149123010920190000000000112260203202006/100000000001150700000000000028190676033351
0360676033350924286296230092019000000000009096C34100030000000152352082849961300820190000000000093350203202006/100000000000956970000000000023450676033351
0360676033350924568594830092019000000000004992C34100030000000152352050249579020920190000000000051240303202006/090000000000472700000000000011580676033351
0360676033350924667538630092019000000000007209C34100030000000152352078349993030920190000000000074010403202006/100000000000758600000000000018590676033351
0360676033350925731699730092019000000000008725C34100030000000152352071749551140920190000000000089331702202005/100000000000916200000000000022910676033353
0360676033350927057514130092019000000000034705C34100030000000152352041132098270920190000000000348672810201901/010000000000355600000000000006930676033353
0360676033350925941582930092019000000000006042C34100030000000152352013149180160920190000000000062171703202006/100000000000637600000000000015940676033353
0360676033350917024878630092019000000000007613C34100030000000152352035649788190620190000000000077992002202008/100000000000799920000000000020000676033353
0360676033350925166030130092019000000000030300C34100030000000152352095149486080920190000000000309861002202005/100000000003178040000000000079450676033353
0360676033350925391836530092019000000000005527C34100030000000152352043249877100920190000000000056531102202005/100000000000579800000000000014500676033353
0360676033350925419579430092019000000000005220C34100030000000152352074549078110920190000000000053401202202005/050000000000272800000000000005840676033353
0360676033350925166030230092019000000000030156C34100030000000152352095149486080920190000000000309860903202006/100000000003178040000000000079450676033353
0360676033350925731699830092019000000000008683C34100030000000152352071749551140920190000000000089331603202006/100000000000916200000000000022910676033353
0360676033350918708811130092019000000000006253C34100030000000152352082149945060720190000000000064560604202009/100000000000662100000000000016550676033353
0360676033350922645244730092019000000000005421C34100030000000152352042749370140820190000000000056051404202008/100000000000574800000000000014370676033353
0360676033350925874346530092019000000000042477C34100030000000152352096049856150920190000000000434901702202005/050000000002622000000000000056120676033353
0360676033350925941583030092019000000000006010C34100030000000152352013149180160920190000000000062171704202007/100000000000637600000000000015940676033353
0360676033350926042621330092019000000000006656C34100030000000152352042249762170920190000000000068161802202005/060000000000623500000000000013340676033353
0360676033350917024878830092019000000000007536C34100030000000152352035649788190620190000000000077992004202010/100000000000799920000000000020000676033353
0360676033350926042621430092019000000000006623C34100030000000152352042249762170920190000000000068161803202006/060000000000623500000000000013340676033353
0360676033350925166030330092019000000000029996C34100030000000152352095149486080920190000000000309860904202007/100000000003178040000000000079450676033353
0360676033350923838884830092019000000000005767C34100030000000152352054849575260820190000000000059142602202006/100000000000606500000000000015160676033353
0360676033350926425609430092019000000000006880C34100030000000152352063049199210920190000000000070862303202006/060000000001152570000000000024660676033353
0360676033350926425609930092019000000000033379C34100030000000152352063049200210920190000000000342282602202005/100000000003510570000000000087760676033353
0360676033350926425610030092019000000000033231C34100030000000152352063049200210920190000000000342282303202006/100000000003510570000000000087760676033353
0360676033350926559786430092019000000000019836C34100030000000152352085849230220920190000000000203402602202005/050000000001039230000000000022240676033353
0360676033350926559786930092019000000000006787C34100030000000152352085849231220920190000000000069602602202005/100000000000713800000000000017850676033353
0360676033350926559787030092019000000000006757C34100030000000152352085849231220920190000000000069602303202006/100000000000713800000000000017850676033353
0360676033350927044227930092019000000000006808C34100030000000152352014649232270920190000000000068402810201901/020000000000139800000000000002990676033353
0360676033350922540979330092019000000000005206C34100030000000152352012449427130820190000000000053271302202006/070000000000382420000000000009560676033353
0360676033350922645244530092019000000000005477C34100030000000152352042749370140820190000000000056051402202006/100000000000574800000000000014370676033353
0360676033350925391836630092019000000000005500C34100030000000152352043249877100920190000000000056531103202006/100000000000579800000000000014500676033353
0360676033350927143279330092019000000000050984C34100030000000152352061030856280920190000000000512312910201901/010000000000522500000000000010190676033353
0360676033350922645244630092019000000000005448C34100030000000152352042749370140820190000000000056051603202007/100000000000574800000000000014370676033353
0360676033350917024878730092019000000000007576C34100030000000152352035649788190620190000000000077992003202009/100000000000799920000000000020000676033353
0360676033350923060815830092019000000000016750C34100030000000152352056649996180820190000000000171521802202006/100000000001759100000000000043980676033353
0360676033350922540979430092019000000000005181C34100030000000152352012449427130820190000000000053271303202007/070000000000382420000000000009560676033353
0360676033350924219812530092019000000000009869C34100030000000152352067749350300820190000000000101290203202006/100000000001038800000000000025970676033353
0360676033350922984307630092019000000000063000C34100030000000152352033649685170820190000000000645031702202006/100000000006615680000000000165400676033353
0360676033350922984307730092019000000000062689C34100030000000152352033649685170820190000000000645031703202007/100000000006615680000000000165400676033353
0360676033350922984307830092019000000000062356C34100030000000152352033649685170820190000000000645031704202008/100000000006615680000000000165400676033353
0360676033350923104918330092019000000000025254C34100030000000152352072649207190820190000000000258651902202006/100000000002652830000000000066320676033353
0360676033350923104918530092019000000000024991C34100030000000152352072649207190820190000000000258652004202008/100000000002652830000000000066320676033353
0360676033350924510262030092019000000000010838C34100030000000152352036349819020920190000000000111250303202006/100000000001141020000000000028530676033353
0360676033350924510262130092019000000000010781C34100030000000152352036349819020920190000000000111250304202007/100000000001141020000000000028530676033353
0360676033350923060816030092019000000000016573C34100030000000152352056649996180820190000000000171522004202008/100000000001759100000000000043980676033353
0360676033350922092280130092019000000000028308C34100030000000152352073049215080820190000000000289491002202006/100000000002969100000000000074230676033353
0360676033350917253949630092019000000000005078C34100030000000152352083549266210620190000000000052072602202008/080000000000427230000000000010680676033353
0360676033350918646212630092019000000000005255C34100030000000152352050349033050720190000000000053690502202007/090000000000495600000000000012390676033353
0360676033350919428371030092019000000000009628C34100030000000152352079949273130720190000000000099001303202008/100000000000915400000000000022890676033353
0360676033350918646212730092019000000000005229C34100030000000152352050349033050720190000000000053690503202008/090000000000495600000000000012390676033353
0360676033350919428371130092019000000000004863C34100030000000152352079949273130720190000000000050271304202009/100000000000915400000000000022890676033353
0360676033350918813454930092019000000000034378C34100030000000152352005449579070720190000000000355000704202009/100000000003641000000000000091030676033353
0360676033350919247360330092019000000000010016C34100030000000152352014349105110720190000000000102951103202008/100000000001055900000000000026400676033353
0360676033350917344798930092019000000000026646C34100030000000152352016349504220620190000000000273232602202008/100000000002802200000000000070060676033353
0360676033350917344799030092019000000000026527C34100030000000152352016349504220620190000000000273232303202009/100000000002802200000000000070060676033353
0360676033350918646212830092019000000000005200C34100030000000152352050349033050720190000000000053690604202009/090000000000495600000000000012390676033353
0360676033350917413263230092019000000000005323C34100030000000152352038449827230620190000000000054582602202008/100000000000559700000000000013990676033353
0360676033350917413263330092019000000000005298C34100030000000152352038449827230620190000000000054582403202009/100000000000559700000000000013990676033353
0360676033350918708810930092019000000000006317C34100030000000152352082149945060720190000000000064560602202007/100000000000662100000000000016550676033353
0360676033350922092280330092019000000000028029C34100030000000152352073049215080820190000000000289490804202008/100000000002969100000000000074230676033353
0360676033350919129816830092019000000000018491C34100030000000152352082149380100720190000000000190031003202008/100000000001949000000000000048730676033353
0360676033350919129816930092019000000000018383C34100030000000152352082149380100720190000000000190031304202009/100000000001949000000000000048730676033353
0360676033350918080863430092019000000000144058C34100030000000152352095249635290620190000000001485573003202009/100000000015236560000000000380920676033353
0360676033350918813454730092019000000000034732C34100030000000152352005449579070720190000000000355000702202007/100000000003641000000000000091030676033353
0360676033350919304467630092019000000000006755C34100030000000152352047049740120720190000000000069101202202007/100000000000708750000000000017720676033353
0360676033350918813454830092019000000000034549C34100030000000152352005449579070720190000000000355000903202008/100000000003641000000000000091030676033353
0360676033350921545441030092019000000000006421C34100030000000152352043849556030820190000000000066260304202008/080000000000543600000000000013590676033353
0360676033350918080863330092019000000000144750C34100030000000152352095249635290620190000000001485570203202008/100000000015236560000000000380920676033353
0360676033350918708811030092019000000000006286C34100030000000152352082149945060720190000000000064560603202008/100000000000662100000000000016550676033353
0360676033350919304467730092019000000000006721C34100030000000152352047049740120720190000000000069101203202008/100000000000708750000000000017720676033353
0360676033350919304467830092019000000000006685C34100030000000152352047049740120720190000000000069101304202009/100000000000708750000000000017720676033353
0360676033350920123180630092019000000000062362C34100030000000152352074749071200720190000000000641992003202008/100000000006476560000000000161910676033353
0360676033350919428370930092019000000000009676C34100030000000152352079949273130720190000000000099001302202007/100000000000915400000000000022890676033353
0360676033350919247360230092019000000000010065C34100030000000152352014349105110720190000000000102951102202007/100000000001055900000000000026400676033353
0360676033350923104918430092019000000000025129C34100030000000152352072649207190820190000000000258651903202007/100000000002652830000000000066320676033353
0360676033350925941582830092019000000000006072C34100030000000152352013149180160920190000000000062171702202005/100000000000637600000000000015940676033353
0360676033350922808536030092019000000000005636C34100030000000152352002149193160820190000000000057701702202006/060000000000613700000000000013130676033353
0360676033350924219812630092019000000000009822C34100030000000152352067749350300820190000000000101293003202007/100000000001038800000000000025970676033353
0360676033350927044228030092019000000000006774C34100030000000152352014649232270920190000000000068412811201902/020000000000139800000000000002990676033353
0360676033350923838884930092019000000000005739C34100030000000152352054849575260820190000000000059142603202007/100000000000606500000000000015160676033353
0360676033350921545440930092019000000000006455C34100030000000152352043849556030820190000000000066260303202007/080000000000543600000000000013590676033353
0360676033350920123180530092019000000000062671C34100030000000152352074749071200720190000000000641992002202007/100000000006476560000000000161910676033353
0360676033350926425609330092019000000000006910C34100030000000152352063049199210920190000000000070862602202005/060000000001152570000000000024660676033353
0360676033350923060815930092019000000000016667C34100030000000152352056649996180820190000000000171521803202007/100000000001759100000000000043980676033353
0360676033350925731699930092019000000000008639C34100030000000152352071749551140920190000000000089331504202007/100000000000916200000000000022910676033353
0360676033350925391836730092019000000000005469C34100030000000152352043249877100920190000000000056531304202007/100000000000579800000000000014500676033353
0360676033350920123180730092019000000000056947C34100030000000152352074749071200720190000000000589382004202009/100000000006476560000000000161910676033353
0360676033350919247360430092019000000000009959C34100030000000152352014349105110720190000000000102951304202009/100000000001055900000000000026400676033353
0360676033350922092280230092019000000000028173C34100030000000152352073049215080820190000000000289490903202007/100000000002969100000000000074230676033353
0360676033350919129816730092019000000000018582C34100030000000152352082149380100720190000000000190031002202007/100000000001949000000000000048730676033353
0360676033350921803616030092019000000000016699C34100030000000152352001549284060820190000000000170650602202006/10000000000179910000000000009265067603335X
0360676033350921803616130092019000000000016616C34100030000000152352001549284060820190000000000170650603202007/10000000000179910000000000009265067603335X
0360676033350924902131430092019000000000007236C34100030000000152352041349931060920190000000000073960702202005/06000000000045540000000000001166067603335X
0360676033350924902131530092019000000000007198C34100030000000152352041349931060920190000000000073960903202006/06000000000045540000000000001166067603335X
0360676033350923604183130092019000000000006216C34100030000000152352006749612240820190000000000063742602202006/06000000000039250000000000001005067603335X
0360676033350924103471130092019000000000016257C34100030000000152352028849756290820190000000000166850203202006/10000000000175900000000000009059067603335X
0360676033350925786537630092019000000000010058C34100030000000152352060549680140920190000000000102981702202005/05000000000052843000000000001353067603335X
0360676033350921803616230092019000000000016528C34100030000000152352001549284060820190000000000170650604202008/10000000000179910000000000009265067603335X
0360676033350925153354430092019000000000069194C34100030000000152352092049484080920190000000000707601002202005/10000000000746028000000000038420067603335X
0360676033350925153354530092019000000000068864C34100030000000152352092049484080920190000000000707600903202006/10000000000746028000000000038420067603335X
0360676033350925153354630092019000000000068499C34100030000000152352092049484080920190000000000707600904202007/10000000000746028000000000038420067603335X
0360676033350924103471230092019000000000016180C34100030000000152352028849756290820190000000000166853003202007/10000000000175900000000000009059067603335X
0360676033350921074733830092019000000000020212C34100030000000152352098749304290720190000000000207440203202007/10000000000218700000000000011263067603335E
0360676033350923612356230092019000000000007786C34100030000000152352009049104240820190000000000079842602202006/10000000000084177000000000004335067603335E
0360676033350925156051630092019000000000005142C34100030000000152352092749654080920190000000000052840903202006/07000000000038990000000000002008067603335E
0360676033350925156051730092019000000000005115C34100030000000152352092749654080920190000000000052840904202007/07000000000038990000000000002008067603335E
0360676033350925156051530092019000000000005167C34100030000000152352092749654080920190000000000052841002202005/07000000000038990000000000002008067603335E
0360676033350923612356330092019000000000007750C34100030000000152352009049104240820190000000000079842403202007/10000000000084177000000000004335067603335E
0360676033350921074733930092019000000000020116C34100030000000152352098749304290720190000000000207443003202008/10000000000218700000000000011263067603335E
037067603335       00000000000000000000000 341000300000001523520110201930092019000000005761868
040067603335000000000000000000000109201930092019000000000000000
03507787989904964923327092019000000000007032D18CANCEL.DE VENDAS            527468XXXXXX3047200920190496492333192701039553512709201900000007787989920092019000000000043112D21022020000000000011379000000000018411000000000242622000000000043112000015604675077421T0926393233800000000000000000000000000000011
03507787989908554983610072019000000000002211D18CANCEL.DE VENDAS            549167XXXXXX6171130620190855498363191911758340281007201900000007787989913062019000000000754244D14042020000000000059403000000000061614000000000839401000000000022666000992651169030181T0916478956900000000000000000000000000000011
03507787989908554983612092019000000000011963D18CANCEL.DE VENDAS            549167XXXXXX6171130620190855498363192551445142051209201900000007787989913062019000000000754244D14042020000000000059403000000000071366000000000839401000000000122638000992651169030181T0916478956900000000000000000000000000000011
03507787989908554983610072019000000000002211D18CANCEL.DE VENDAS            549167XXXXXX6171130620190855498363191911758340281007201900000007787989913062019000000000754244D14022020000000000069787000000000071998000000000839401000000000022666000992651169030181T0916478956700000000000000000000000000000011
03507787989908554983612092019000000000011963D18CANCEL.DE VENDAS            549167XXXXXX6171130620190855498363192551445142051209201900000007787989913062019000000000754244D14022020000000000069787000000000081750000000000839401000000000122638000992651169030181T0916478956700000000000000000000000000000011
03507787989902254995710072019000000000000780D18CANCEL.DE VENDAS            549167XXXXXX6171310520190225499573191911758341431007201900000007787989931052019000000001212300D02032020000000000151044000000000151824000000001874235000000000007990000009632973018415T0915194452400000000000000000000000000000011
03507787989902254995718072019000000000023110D18CANCEL.DE VENDAS            549167XXXXXX6171310520190225499573191991146572221807201900000007787989931052019000000001212300D02032020000000000151044000000000174154000000001874235000000000236900000009632973018415T0915194452400000000000000000000000000000011
03507787989902254995710072019000000000000780D18CANCEL.DE VENDAS            549167XXXXXX6171310520190225499573191911758341431007201900000007787989931052019000000001212300D01042020000000000151044000000000151824000000001874235000000000007990000009632973018415T0915194452500000000000000000000000000000011
03507787989902254995718072019000000000023110D18CANCEL.DE VENDAS            549167XXXXXX6171310520190225499573191991146572221807201900000007787989931052019000000001212300D01042020000000000151044000000000174154000000001874235000000000236900000009632973018415T0915194452500000000000000000000000000000011
03507787989908554983610072019000000000002211D18CANCEL.DE VENDAS            549167XXXXXX6171130620190855498363191911758340281007201900000007787989913062019000000000754244D16032020000000000059403000000000061614000000000839401000000000022666000992651169030181T0916478956800000000000000000000000000000011
03507787989908554983612092019000000000011963D18CANCEL.DE VENDAS            549167XXXXXX6171130620190855498363192551445142051209201900000007787989913062019000000000754244D16032020000000000059403000000000071366000000000839401000000000122638000992651169030181T0916478956800000000000000000000000000000011
03507787989906124929017092019000000000010331D18CANCEL.DE VENDAS            542820XXXXXX7779030820190612492903192601540570761709201900000007787989903082019000000000095311D03032020000000000009776000000000020107000000000175486000000000095311000982575857501072T0921519331900000000000000000000000000000011
03507787989906124929017092019000000000010331D18CANCEL.DE VENDAS            542820XXXXXX7779030820190612492903192601540570761709201900000007787989903082019000000000095311D03042020000000000009776000000000020107000000000175486000000000095311000982575857501072T0921519332000000000000000000000000000000011
03507787989904964923327092019000000000007032D18CANCEL.DE VENDAS            527468XXXXXX3047200920190496492333192701039553512709201900000007787989920092019000000000043112D23032020000000000002923000000000009955000000000242622000000000043112000015604675077421T0926393233900000000000000000000000000000011
03507787989903414908810092019000000000006410D18CANCEL.DE VENDAS            542820XXXXXX7169240820190341490883192531026290871009201900000007787989924082019000000000052163D26022020000000000008446000000000014856000000000189462000000000039303000981579719271876T0923617293900000000000000000000000000000011
03507787989901654930306092019000000000007087D18CANCEL.DE VENDAS            539083XXXXXX5557200820190165493033192491816107920609201900000007787989920082019000000000043454D20022020000000000013660000000000020747000000000275743000000000043454000010885603064991T0923268688300000000000000000000000000000011
03507787989909214933807082019000000000011269D18CANCEL.DE VENDAS            498406XXXXXX4880030720190921493383192191522196480708201900000007787989903072019000000000129560D03032020000000000001364000000000012633000000000129560000000000115580000003035399695312T0918458493100000000000000000000000000000033
03507787989909214933807082019000000000011269D18CANCEL.DE VENDAS            498406XXXXXX4880030720190921493383192191522196480708201900000007787989903072019000000000129560D03042020000000000001364000000000012633000000000129560000000000115580000003035399695312T0918458493200000000000000000000000000000033
03507787989901274962223082019000000000004485D18CANCEL.DE VENDAS            498453XXXXXX9876060820190127496223192351039593542308201900000007787989906082019000000000067577D06022020000000000006536000000000011021000000000306314000000000027499000013930203076823T0921848939300000000000000000000000000000033
03507787989904324950301082019000000000010187D18CANCEL.DE VENDAS            490172XXXXXX0501230720190432495033192131106180510108201900000007787989923072019000000000083589D23032020000000000024849000000000035036000000000580390000000000083589000009504109088210T0920460841400000000000000000000000000000033
03507787989904324950319092019000000000023588D18CANCEL.DE VENDAS            498408XXXXXX7573230720190432495033192621423183361909201900000007787989923072019000000000316395D23032020000000000024849000000000048437000000000580390000000000241923000009043951777996T0920460841400000000000000000000000000000033
03507787989904213265030092019000000000032335D18CANCEL.DE VENDAS            514868XXXXXX3257240920190957301713192701039552592709201900000007787989924092019000000000032978N28102019000000000067502000000000099837000000000092457000000000032978000979579857038560T0927061569300000000000000000000000000000013
03507787989904213265030092019000000000023681D18CANCEL.DE VENDAS            498406XXXXXX5878010720190145328563192701039557302709201900000007787989901072019000000000024152N28102019000000000067502000000000091183000000000217130000000000024152000984240261031626T0927061569300000000000000000000000000000033
03507787989904213265030092019000000000007032D18CANCEL.DE VENDAS            527468XXXXXX3047200920190496492333192701039553512709201900000007787989920092019000000000043112N28102019000000000067502000000000074534000000000242622000000000043112000015604675077421T0927061569300000000000000000000000000000013
03507787989904213265030092019000000000007032D18CANCEL.DE VENDAS            527468XXXXXX3047200920190496492333192701039553512709201900000007787989920092019000000000043112N28102019000000000067502000000000074534000000000242622000000000043112000015604675077421T0927061569300000000000000000000000000000013
03507787989904213265030092019000000000007032D18CANCEL.DE VENDAS            527468XXXXXX3047200920190496492333192701039553512709201900000007787989920092019000000000043112N28102019000000000067502000000000074534000000000242622000000000043112000015604675077421T0927061569300000000000000000000000000000013
03507787989904213265030092019000000000007029D18CANCEL.DE VENDAS            527468XXXXXX3047200920190496492333192701039553512709201900000007787989920092019000000000043112N28102019000000000067502000000000074531000000000242622000000000043112000015604675077421T0927061569300000000000000000000000000000013
03507787989904213265030092019000000000006564D18CANCEL.DE VENDAS            491674XXXXXX6209200920190338498633192701039550482709201900000007787989920092019000000000020122N28102019000000000067502000000000074066000000000551629000000000020122000015604705484275T0927061569300000000000000000000000000000033
03507787989904213265030092019000000000006564D18CANCEL.DE VENDAS            491674XXXXXX6209200920190338498633192701039550482709201900000007787989920092019000000000020122N28102019000000000067502000000000074066000000000551629000000000020122000015604705484275T0927061569300000000000000000000000000000033
03507787989904213265030092019000000000006563D18CANCEL.DE VENDAS            491674XXXXXX6209200920190338498633192701039550482709201900000007787989920092019000000000020122N28102019000000000067502000000000074065000000000551629000000000020122000015604705484275T0927061569300000000000000000000000000000033
03507787989904213265030092019000000000006546D18CANCEL.DE VENDAS            406669XXXXXX2600300820190691499073192701039555452709201900000007787989930082019000000000013377N28102019000000000067502000000000074048000000000190929000000000013377000014331133621141T0927061569300000000000000000000000000000033
03507787989904213265030092019000000000006545D18CANCEL.DE VENDAS            406669XXXXXX2600300820190691499073192701039555452709201900000007787989930082019000000000013377N28102019000000000067502000000000074047000000000190929000000000013377000014331133621141T0927061569300000000000000000000000000000033
03507787989904213265030092019000000000003191D18CANCEL.DE VENDAS            498401XXXXXX5366150920190966494103192701039550942709201900000007787989915092019000000000065682N28102019000000000067502000000000070693000000000304435000000000009782000988413497096381T0927061569300000000000000000000000000000033
03507787989904213265030092019000000000003191D18CANCEL.DE VENDAS            498401XXXXXX5366150920190966494103192701039550942709201900000007787989915092019000000000065682N28102019000000000067502000000000070693000000000304435000000000009782000988413497096381T0927061569300000000000000000000000000000033
03507787989904213265030092019000000000003191D18CANCEL.DE VENDAS            498401XXXXXX5366150920190966494103192701039550942709201900000007787989915092019000000000065682N28102019000000000067502000000000070693000000000304435000000000009782000988413497096381T0927061569300000000000000000000000000000033
03507787989904213265030092019000000000002993D18CANCEL.DE VENDAS            453211XXXXXX2922020720190637492553192701039557032709201900000007787989902072019000000000012599N28102019000000000067502000000000070495000000000344026000000000006116000010933769640814T0927061569300000000000000000000000000000033
03507787989904213265030092019000000000002992D18CANCEL.DE VENDAS            453211XXXXXX2922020720190637492553192701039557032709201900000007787989902072019000000000012599N28102019000000000067502000000000070494000000000344026000000000006116000010933769640814T0927061569300000000000000000000000000000033
03507787989903534961305072019000000000022910D18CANCEL.DE VENDAS            406669XXXXXX3210010720190353496133191861526387790507201900000007787989901072019000000000234978D01042020000000000077510000000000100420000000001100918000000000234978000991934287612829T0918218900600000000000000000000000000000033
03507787989903534961305072019000000000022910D18CANCEL.DE VENDAS            406669XXXXXX3210010720190353496133191861526387790507201900000007787989901072019000000000234978D02032020000000000077510000000000100420000000001100918000000000234978000991934287612829T0918218900500000000000000000000000000000033
03507787989904324950301082019000000000010187D18CANCEL.DE VENDAS            490172XXXXXX0501230720190432495033192131106180510108201900000007787989923072019000000000083589D26022020000000000024849000000000035036000000000580390000000000083589000009504109088210T0920460841300000000000000000000000000000033
03507787989904324950319092019000000000023588D18CANCEL.DE VENDAS            498408XXXXXX7573230720190432495033192621423183361909201900000007787989923072019000000000316395D26022020000000000024849000000000048437000000000580390000000000241923000009043951777996T0920460841300000000000000000000000000000033
0360778798990924577624330092019000000000026175C34100030000000152352052349422020920190000000000268680303202006/100000000002649760000000000064920778798991
0360778798990918703745730092019000000000010256C34100030000000152352000449225060720190000000000105330603202008/080000000000863770000000000021160778798991
0360778798990926393233830092019000000000011106C34100030000000152352049649233200920190000000000113792102202005/060000000002426220000000000051920778798991
0360778798990924296101630092019000000000017623C34100030000000152352085149911300820190000000000180860203202006/100000000001854000000000000045420778798991
0360778798990918284480130092019000000000040951C34100030000000152352050849320010720190000000000420280203202008/100000000005729930000000000140380778798991
0360778798990923482431530092019000000000012218C34100030000000152352073849522220820190000000000125292602202006/060000000004572990000000000097850778798991
0360778798990923804634330092019000000000012603C34100030000000152352070449880260820190000000000129882603202007/100000000001331430000000000032620778798991
0360778798990926866584730092019000000000013829C34100030000000152352073249369250920190000000000142512603202006/060000000001646510000000000035240778798991
0360778798990923735825530092019000000000014479C34100030000000152352044449763250820190000000000148472602202006/060000000004049990000000000086670778798991
0360778798990925391490230092019000000000034501C34100030000000152352061049747100920190000000000354631103202006/100000000003333370000000000081670778798991
0360778798990920582456130092019000000000020927C34100030000000152352087049999240720190000000000215582403202008/100000000002209920000000000054140778798991
0360778798990916904311330092019000000000009578C34100030000000152352022049512180620190000000000098591903202009/090000000002490270000000000061010778798991
0360778798990925091908230092019000000000006581C34100030000000152352090449450070920190000000000067620903202006/060000000000637070000000000013630778798991
0360778798990924740001330092019000000000010974C34100030000000152352009549738040920190000000000112680503202006/060000000001983490000000000042450778798991
0360778798990925285704130092019000000000023527C34100030000000152352030149612090920190000000000241791003202006/060000000003668940000000000078510778798991
0360778798990916190323630092019000000000016514C34100030000000152352087549034100620190000000000169741103202009/100000000001740010000000000042630778798991
0360778798990926582694930092019000000000024923C34100030000000152352091149871220920190000000000255572602202005/100000000002311550000000000056640778798991
0360778798990926866584630092019000000000013898C34100030000000152352073249369250920190000000000142512602202005/060000000001646510000000000035240778798991
0360778798990918284480230092019000000000040741C34100030000000152352050849320010720190000000000420280104202009/100000000005729930000000000140380778798991
0360778798990920963827230092019000000000009531C34100030000000152352086149117280720190000000000097772802202007/070000000000701560000000000017190778798991
0360778798990926025692830092019000000000044586C34100030000000152352059449065170920190000000000461452004202007/100000000004730340000000000115890778798991
0360778798990925391490330092019000000000034306C34100030000000152352061049747100920190000000000354631304202007/100000000003333370000000000081670778798991
0360778798990916478956930092019000000000057456C34100030000000152352085549836130620190000000000594031404202010/100000000008394010000000000205650778798991
0360778798990923342293830092019000000000010491C34100030000000152352045149564210820190000000000108622204202008/100000000001931140000000000047310778798991
0360778798990924740002030092019000000000027238C34100030000000152352009549739040920190000000000281220604202007/100000000002782460000000000068170778798991
0360778798990917213670730092019000000000011633C34100030000000152352003149979210620190000000000120442204202010/100000000001234690000000000030250778798991
0360778798990924063437830092019000000000013880C34100030000000152352026249711280820190000000000142382802202006/060000000001030870000000000022060778798991
0360778798990918513845130092019000000000035290C34100030000000152352037049881040720190000000000364360604202009/100000000005447980000000000133480778798991
0360778798990922098321630092019000000000025315C34100030000000152352091349597080820190000000000258881002202006/100000000002653790000000000065020778798991
0360778798990915579859030092019000000000022105C34100030000000152352019049690040620190000000000225860502202008/100000000002315330000000000056730778798991
0360778798990921777965430092019000000000016176C34100030000000152352098949564050820190000000000165280502202006/100000000001694310000000000041510778798991
0360778798990927158105830092019000000000033563C34100030000000152352062749902280920190000000000340793012201903/060000000001666060000000000035640778798991
0360778798990922512164630092019000000000041841C34100030000000152352029449226130820190000000000428101302202006/100000000004388490000000000107520778798991
0360778798990922401522930092019000000000014126C34100030000000152352000349544120820190000000000144511202202006/100000000001481330000000000036290778798991
0360778798990919619906330092019000000000046533C34100030000000152352038149525150720190000000000476431702202007/100000000004883990000000000119660778798991
0360778798990925500823830092019000000000023559C34100030000000152352024249030120920190000000000241041302202005/060000000003255320000000000069660778798991
0360778798990925711145130092019000000000006041C34100030000000152352090349300140920190000000000061851702202005/050000000001589710000000000034000778798991
0360778798990923172678530092019000000000038927C34100030000000152352088549845190820190000000000398691902202006/100000000003976580000000000097430778798991
0360778798990923083786730092019000000000008747C34100030000000152352062149116180820190000000000089571802202006/060000000001501830000000000032140778798991
0360778798990916478956730092019000000000068196C34100030000000152352085549836130620190000000000697871402202008/100000000008394010000000000205650778798991
0360778798990924740001230092019000000000019547C34100030000000152352009549738040920190000000000199720502202005/060000000001983490000000000042450778798991
0360778798990922223894430092019000000000008530C34100030000000152352060749686100820190000000000087231002202006/060000000000660060000000000014120778798991
0360778798990921678451630092019000000000007835C34100030000000152352071649894040820190000000000080040402202006/060000000002562460000000000054830778798991
0360778798990924740001830092019000000000027523C34100030000000152352009549739040920190000000000281220502202005/100000000002782460000000000068170778798991
0360778798990925091908130092019000000000006612C34100030000000152352090449450070920190000000000067621002202005/060000000000637070000000000013630778798991
0360778798990915472421930092019000000000017238C34100030000000152352090449863030620190000000000176100402202008/100000000001805290000000000044230778798991
0360778798990925911549630092019000000000015341C34100030000000152352029649549160920190000000000157071702202005/050000000001916200000000000041010778798991
0360778798990927240218830092019000000000071151C34100030000000152352073549660290920190000000000715083010201901/050000000002018130000000000043190778798991
0360778798990927097944130092019000000000067650C34100030000000152352051232398270920190000000000679672810201901/010000000000693180000000000013510778798991
0360778798990927199351330092019000000000130709C34100030000000152352071129271280920190000000001313432910201901/010000000001339540000000000026110778798991
0360778798990915194452430092019000000000147173C34100030000000152352022549957310520190000000001510440203202009/100000000018742350000000000459190778798991
0360778798990915194452530092019000000000146419C34100030000000152352022549957310520190000000001510440104202010/100000000018742350000000000459190778798991
0360778798990919383512530092019000000000025844C34100030000000152352065949726120720190000000000265691203202008/100000000002618270000000000064150778798991
0360778798990926025692630092019000000000045062C34100030000000152352059449065170920190000000000461451802202005/100000000004730340000000000115890778798991
0360778798990921388050830092019000000000010669C34100030000000152352098349100010820190000000000109500203202007/080000000000898020000000000022000778798991
0360778798990921388050930092019000000000010615C34100030000000152352098349100010820190000000000109500104202008/080000000000898020000000000022000778798991
0360778798990921822694430092019000000000005324C34100030000000152352028449631060820190000000000054680603202007/090000000000504450000000000012360778798991
0360778798990920879616430092019000000000009683C34100030000000152352075749989270720190000000000099802703202008/090000000000920710000000000022560778798991
0360778798990921088570830092019000000000009617C34100030000000152352013449244290720190000000000098700203202007/090000000000910570000000000022310778798991
0360778798990922108237030092019000000000050262C34100030000000152352025449317090820190000000000519210904202008/100000000005322490000000000130400778798991
0360778798990915472422030092019000000000017153C34100030000000152352090449863030620190000000000176100403202009/100000000001805290000000000044230778798991
0360778798990915579859130092019000000000021996C34100030000000152352019049690040620190000000000225860503202009/100000000002315330000000000056730778798991
0360778798990921822694530092019000000000005296C34100030000000152352028449631060820190000000000054680604202008/090000000000504450000000000012360778798991
0360778798990921822693730092019000000000007473C34100030000000152352028449630060820190000000000076370602202006/060000000000894010000000000019130778798991
0360778798990921822694330092019000000000005351C34100030000000152352028449631060820190000000000054680602202006/090000000000504450000000000012360778798991
0360778798990919619906430092019000000000046311C34100030000000152352038149525150720190000000000476431603202008/100000000004883990000000000119660778798991
0360778798990922098321030092019000000000010324C34100030000000152352091349596080820190000000000105581002202006/060000000002292720000000000049080778798991
0360778798990922098321730092019000000000025194C34100030000000152352091349597080820190000000000258880903202007/100000000002653790000000000065020778798991
0360778798990922098321830092019000000000025065C34100030000000152352091349597080820190000000000258880804202008/100000000002653790000000000065020778798991
0360778798990922108236830092019000000000050772C34100030000000152352025449317090820190000000000519211002202006/100000000005322490000000000130400778798991
0360778798990922108236930092019000000000050530C34100030000000152352025449317090820190000000000519210903202007/100000000005322490000000000130400778798991
0360778798990920879616330092019000000000009731C34100030000000152352075749989270720190000000000099802702202007/090000000000920710000000000022560778798991
0360778798990915579859230092019000000000021876C34100030000000152352019049690040620190000000000225860604202010/100000000002315330000000000056730778798991
0360778798990915731078230092019000000000011200C34100030000000152352079150000060620190000000000115080903202009/100000000002050820000000000050240778798991
0360778798990915731078330092019000000000011144C34100030000000152352079150000060620190000000000115080704202010/100000000002050820000000000050240778798991
0360778798990916287689630092019000000000048299C34100030000000152352020749130110620190000000000494091202202008/100000000005064950000000000124090778798991
0360778798990916287689730092019000000000048061C34100030000000152352020749130110620190000000000494091203202009/100000000005064950000000000124090778798991
0360778798990916287689830092019000000000047798C34100030000000152352020749130110620190000000000494091304202010/100000000005064950000000000124090778798991
0360778798990916337896630092019000000000010219C34100030000000152352055749027120620190000000000104561302202008/080000000000857470000000000021010778798991
0360778798990916478956830092019000000000057742C34100030000000152352085549836130620190000000000594031603202009/100000000008394010000000000205650778798991
0360778798990916888024430092019000000000020655C34100030000000152352091249812170620190000000000211511802202008/080000000001734600000000000042500778798991
0360778798990917213670530092019000000000011745C34100030000000152352003149979210620190000000000120442602202008/100000000001234690000000000030250778798991
0360778798990917213670630092019000000000011693C34100030000000152352003149979210620190000000000120442303202009/100000000001234690000000000030250778798991
0360778798990917996495930092019000000000010066C34100030000000152352082449730280620190000000000103310203202008/090000000000953160000000000023350778798991
0360778798990917996496030092019000000000010018C34100030000000152352082449730280620190000000000103313003202009/090000000000953160000000000023350778798991
0360778798990918513844930092019000000000056111C34100030000000152352037049881040720190000000000573220402202007/100000000005447980000000000133480778798991
0360778798990918703745630092019000000000010307C34100030000000152352000449225060720190000000000105330602202007/080000000000863770000000000021160778798991
0360778798990921519331930092019000000000009524C34100030000000152352061249290030820190000000000097760303202007/090000000001754860000000000042990778798991
0360778798990919102336430092019000000000043297C34100030000000152352000549477100720190000000000442771002202007/100000000003806750000000000093260778798991
0360778798990921519332030092019000000000009473C34100030000000152352061249290030820190000000000097760304202008/090000000001754860000000000042990778798991
0360778798990921777964830092019000000000008562C34100030000000152352098949563050820190000000000087480502202006/060000000002261460000000000048390778798991
0360778798990921777965530092019000000000016096C34100030000000152352098949564050820190000000000165280503202007/100000000001694310000000000041510778798991
0360778798990919102336530092019000000000023226C34100030000000152352000549477100720190000000000238691003202008/100000000003806750000000000093260778798991
0360778798990919102336630092019000000000023091C34100030000000152352000549477100720190000000000238691304202009/100000000003806750000000000093260778798991
0360778798990919619906530092019000000000046073C34100030000000152352038149525150720190000000000476431504202009/100000000004883990000000000119660778798991
0360778798990919383512430092019000000000025972C34100030000000152352065949726120720190000000000265691202202007/100000000002618270000000000064150778798991
0360778798990921777965630092019000000000016008C34100030000000152352098949564050820190000000000165280604202008/100000000001694310000000000041510778798991
0360778798990924366382030092019000000000017958C34100030000000152352015549927310820190000000000185250104202007/100000000001899000000000000046530778798991
0360778798990925808380730092019000000000009503C34100030000000152352001949200150920190000000000098281604202007/100000000001007470000000000024680778798991
0360778798990916904311230092019000000000019277C34100030000000152352022049512180620190000000000197441902202008/090000000002490270000000000061010778798991
0360778798990925391489530092019000000000036775C34100030000000152352061049746100920190000000000376141102202005/060000000006676390000000000142880778798991
0360778798990925500823930092019000000000023442C34100030000000152352024249030120920190000000000241041303202006/060000000003255320000000000069660778798991
0360778798990926672147330092019000000000012301C34100030000000152352017249198230920190000000000126722403202006/100000000001299000000000000031830778798991
0360778798990926228092830092019000000000029063C34100030000000152352019449631190920190000000000297712002202005/060000000002329370000000000049860778798991
0360778798990920424749530092019000000000049596C34100030000000152352058549514230720190000000000508572602202007/100000000005213500000000000127730778798991
0360778798990926025692030092019000000000021638C34100030000000152352059449064170920190000000000221581802202005/060000000003327400000000000071200778798991
0360778798990923342293730092019000000000021609C34100030000000152352045149564210820190000000000222572303202007/100000000001931140000000000047310778798991
0360778798990919383512630092019000000000025702C34100030000000152352065949726120720190000000000265691304202009/100000000002618270000000000064150778798991
0360778798990923172678730092019000000000038522C34100030000000152352088549845190820190000000000398692004202008/100000000003976580000000000097430778798991
0360778798990915731078130092019000000000021651C34100030000000152352079150000060620190000000000221300702202008/100000000002050820000000000050240778798991
0360778798990926025692730092019000000000044840C34100030000000152352059449065170920190000000000461451803202006/100000000004730340000000000115890778798991
0360778798990926672146730092019000000000013109C34100030000000152352017249197230920190000000000135042403202006/060000000003238270000000000069300778798991
0360778798990927158105630092019000000000040251C34100030000000152352062749902280920190000000000404462910201901/060000000001666060000000000035640778798991
0360778798990927158106130092019000000000013215C34100030000000152352062749902280920190000000000136283003202006/060000000001666060000000000035640778798991
0360778798990927158105730092019000000000040038C34100030000000152352062749902280920190000000000404422911201902/060000000001666060000000000035640778798991
0360778798990925285704030092019000000000023644C34100030000000152352030149612090920190000000000241791002202005/060000000003668940000000000078510778798991
0360778798990920582456030092019000000000021024C34100030000000152352087049999240720190000000000215582602202007/100000000002209920000000000054140778798991
0360778798990918513845030092019000000000055834C34100030000000152352037049881040720190000000000573220403202008/100000000005447980000000000133480778798991
0360778798990921088570930092019000000000009571C34100030000000152352013449244290720190000000000098703003202008/090000000000910570000000000022310778798991
0360778798990924366381930092019000000000018050C34100030000000152352015549927310820190000000000185250203202006/100000000001899000000000000046530778798991
0360778798990915472422130092019000000000017056C34100030000000152352090449863030620190000000000176100604202010/100000000001805290000000000044230778798991
0360778798990924577623730092019000000000027084C34100030000000152352052349421020920190000000000278010303202006/060000000004792840000000000102570778798991
0360778798990924577624430092019000000000026036C34100030000000152352052349422020920190000000000268680304202007/100000000002649760000000000064920778798991
0360778798990924740001930092019000000000027387C34100030000000152352009549739040920190000000000281220503202006/100000000002782460000000000068170778798991
0360778798990924813265730092019000000000006936C34100030000000152352039049690050920190000000000070880602202005/060000000001253050000000000026820778798991
0360778798990924813265830092019000000000006902C34100030000000152352039049690050920190000000000070880603202006/060000000001253050000000000026820778798991
0360778798990925103242730092019000000000008715C34100030000000152352000749379080920190000000000089121002202005/060000000002282260000000000048840778798991
0360778798990925103242830092019000000000008673C34100030000000152352000749379080920190000000000089120903202006/060000000002282260000000000048840778798991
0360778798990925285704830092019000000000065348C34100030000000152352030149614090920190000000000668271002202005/100000000006850580000000000167840778798991
0360778798990925285704930092019000000000065026C34100030000000152352030149614090920190000000000668271003202006/100000000006850580000000000167840778798991
0360778798990925285705030092019000000000064648C34100030000000152352030149614090920190000000000668271304202007/100000000006850580000000000167840778798991
0360778798990916190323530092019000000000016596C34100030000000152352087549034100620190000000000169741102202008/100000000001740010000000000042630778798991
0360778798990926672146630092019000000000013169C34100030000000152352017249197230920190000000000135042602202005/060000000003238270000000000069300778798991
0360778798990926025692130092019000000000014837C34100030000000152352059449064170920190000000000152691803202006/060000000003327400000000000071200778798991
0360778798990925391489630092019000000000036594C34100030000000152352061049746100920190000000000376141103202006/060000000006676390000000000142880778798991
0360778798990925391490130092019000000000034672C34100030000000152352061049747100920190000000000354631102202005/100000000003333370000000000081670778798991
0360778798990925655502730092019000000000005955C34100030000000152352057249453130920190000000000060941402202005/050000000000852660000000000018240778798991
0360778798990925808380530092019000000000009599C34100030000000152352001949200150920190000000000098281702202005/100000000001007470000000000024680778798991
0360778798990925808380630092019000000000009553C34100030000000152352001949200150920190000000000098281603202006/100000000001007470000000000024680778798991
0360778798990926175068430092019000000000011904C34100030000000152352089549397180920190000000000121921902202005/060000000002297550000000000049180778798991
0360778798990924063438530092019000000000010069C34100030000000152352026249712280820190000000000103833003202007/080000000000851490000000000020860778798991
0360778798990926175068530092019000000000011845C34100030000000152352089549397180920190000000000121921903202006/060000000002297550000000000049180778798991
0360778798990926393233930092019000000000002838C34100030000000152352049649233200920190000000000029232303202006/060000000002426220000000000051920778798991
0360778798990923342293630092019000000000021724C34100030000000152352045149564210820190000000000222572102202006/100000000001931140000000000047310778798991
0360778798990922401523030092019000000000014057C34100030000000152352000349544120820190000000000144511203202007/100000000001481330000000000036290778798991
0360778798990924296101730092019000000000017538C34100030000000152352085149911300820190000000000180863003202007/100000000001854000000000000045420778798991
0360778798990922401523130092019000000000013980C34100030000000152352000349544120820190000000000144511304202008/100000000001481330000000000036290778798991
0360778798990922512164030092019000000000005792C34100030000000152352029449225130820190000000000059261302202006/060000000001298040000000000027780778798991
0360778798990923617293930092019000000000008237C34100030000000152352034149088240820190000000000084462602202006/060000000001894620000000000040540778798991
0360778798990922512164730092019000000000041635C34100030000000152352029449226130820190000000000428101303202007/100000000004388490000000000107520778798991
0360778798990922617566330092019000000000012232C34100030000000152352060149815140820190000000000125171402202006/100000000001283100000000000031440778798991
0360778798990922617566530092019000000000012107C34100030000000152352060149815140820190000000000125171404202008/100000000001283100000000000031440778798991
0360778798990923172678630092019000000000038735C34100030000000152352088549845190820190000000000398691903202007/100000000003976580000000000097430778798991
0360778798990923268688330092019000000000013335C34100030000000152352016549303200820190000000000136602002202006/060000000002757430000000000059000778798991
0360778798990926228092930092019000000000005708C34100030000000152352019449631190920190000000000058762003202006/060000000002329370000000000049860778798991
0360778798990923804634230092019000000000012666C34100030000000152352070449880260820190000000000129882602202006/100000000001331430000000000032620778798991
0360778798990916190323730092019000000000016420C34100030000000152352087549034100620190000000000169741304202010/100000000001740010000000000042630778798991
0360778798990923968839130092019000000000010286C34100030000000152352098049190270820190000000000105492702202006/060000000003107280000000000066500778798991
0360778798990924063438430092019000000000010122C34100030000000152352026249712280820190000000000103832802202006/080000000000851490000000000020860778798991
0360778798990924183312230092019000000000023970C34100030000000152352054849234290820190000000000246000203202006/060000000004121200000000000088190778798991
0360778798990926393234430092019000000000010849C34100030000000152352049649234200920190000000000111152102202005/100000000001139470000000000027920778798991
0360778798990926393234530092019000000000010791C34100030000000152352049649234200920190000000000111152303202006/100000000001139470000000000027920778798991
0360778798990926393234630092019000000000010736C34100030000000152352049649234200920190000000000111152204202007/100000000001139470000000000027920778798991
0360778798990926582695030092019000000000024813C34100030000000152352091149871220920190000000000255572303202006/100000000002311550000000000056640778798991
0360778798990926672147230092019000000000012358C34100030000000152352017249198230920190000000000126722602202005/100000000001299000000000000031830778798991
0360778798990926707480530092019000000000013484C34100030000000152352045249811240920190000000000138272602202005/060000000001824060000000000039030778798991
0360778798990926707480630092019000000000007223C34100030000000152352045249811240920190000000000074422503202006/060000000001824060000000000039030778798991
0360778798990926866585530092019000000000040444C34100030000000152352073249371250920190000000000414722602202005/100000000004251380000000000104160778798991
0360778798990926866585630092019000000000040244C34100030000000152352073249371250920190000000000414722603202006/100000000004251380000000000104160778798991
0360778798990927017558330092019000000000043798C34100030000000152352032149418270920190000000000440032810201901/040000000001302950000000000027890778798991
0360778798990927017558430092019000000000043567C34100030000000152352032149418270920190000000000439992811201902/040000000001302950000000000027890778798991
0360778798990924183313030092019000000000009553C34100030000000152352054849236290820190000000000098040203202006/100000000001005000000000000024620778798991
0360778798990924183313130092019000000000009507C34100030000000152352054849236290820190000000000098043003202007/100000000001005000000000000024620778798991
0360778798990922512164830092019000000000041414C34100030000000152352029449226130820190000000000428101304202008/100000000004388490000000000107520778798991
0360778798990922617566430092019000000000012167C34100030000000152352060149815140820190000000000125171603202007/100000000001283100000000000031440778798991
0360778798990927158105930092019000000000020400C34100030000000152352062749902280920190000000000208192901202004/060000000001666060000000000035640778798991
0360778798990927240219130092019000000000019203C34100030000000152352073549660290920190000000000196013001202004/050000000002018130000000000043190778798991
0360778798990927158106030092019000000000013279C34100030000000152352062749902280920190000000000136280203202005/060000000001666060000000000035640778798991
0360778798990927240219230092019000000000008585C34100030000000152352073549660290920190000000000088110203202005/050000000002018130000000000043190778798991
0360778798990927282659530092019000000000157172C34100030000000152352083432519290920190000000001579613010201901/010000000001611030000000000031420778798991
0360778798990920424749630092019000000000049376C34100030000000152352058549514230720190000000000508572303202008/100000000005213500000000000127730778798991
0360778798990927017558530092019000000000022783C34100030000000152352032149418270920190000000000231333012201903/040000000001302950000000000027890778798991
0360778798990927017558630092019000000000016044C34100030000000152352032149418270920190000000000163712801202004/040000000001302950000000000027890778798991
0360778798990927240218930092019000000000070760C34100030000000152352073549660290920190000000000715100212201902/050000000002018130000000000043190778798991
0360778798990927240219030092019000000000025669C34100030000000152352073549660290920190000000000260643012201903/050000000002018130000000000043190778798991
0360778798990926745409230092019000000000010025C34100030000000152352030349758240920190000000000103292503202006/070000000000741560000000000018540778798993
0360778798990919906936030092019000000000015594C34100030000000152352013849575180720190000000000161392004202009/100000000002369050000000000059230778798993
0360778798990918548445130092019000000000163215C34100030000000152352021449870040720190000000001685150604202009/100000000017283590000000000432090778798993
0360778798990927151727230092019000000000081188C34100030000000152352062031263280920190000000000815822910201901/010000000000832040000000000016220778798993
0360778798990918548444930092019000000000164954C34100030000000152352021449870040720190000000001685150402202007/100000000017283590000000000432090778798993
0360778798990926230712430092019000000000018833C34100030000000152352003749159190920190000000000194912004202007/100000000001999000000000000049980778798993
0360778798990919253841330092019000000000010687C34100030000000152352015849515110720190000000000109311102202007/070000000000784810000000000019620778798993
0360778798990917415429630092019000000000015682C34100030000000152352038949991230620190000000000160812602202008/100000000001649390000000000041230778798993
0360778798990917848100530092019000000000034885C34100030000000152352036349869270620190000000000359743003202009/100000000003689710000000000092240778798993
0360778798990918458493130092019000000000001329C34100030000000152352092149338030720190000000000013640303202008/100000000001295600000000000032390778798993
0360778798990918548445030092019000000000164141C34100030000000152352021449870040720190000000001685150403202008/100000000017283590000000000432090778798993
0360778798990919311122530092019000000000017297C34100030000000152352048649615120720190000000000177821203202008/100000000001823750000000000045590778798993
0360778798990917549466830092019000000000031380C34100030000000152352054249159240620190000000000321782602202008/100000000003300420000000000082510778798993
0360778798990917990598830092019000000000010204C34100030000000152352066349238280620190000000000104720203202008/080000000001412630000000000035320778798993
0360778798990917549466930092019000000000031230C34100030000000152352054249159240620190000000000321782503202009/100000000003300420000000000082510778798993
0360778798990918652474530092019000000000019171C34100030000000152352051749996050720190000000000197930604202009/100000000002030000000000000050750778798993
0360778798990917260894030092019000000000014849C34100030000000152352085149651210620190000000000152262602202008/100000000001561610000000000039040778798993
0360778798990918458493230092019000000000001322C34100030000000152352092149338030720190000000000013640304202009/100000000001295600000000000032390778798993
0360778798990922763091630092019000000000009813C34100030000000152352073749281150820190000000000100951603202007/100000000001035320000000000025880778798993
0360778798990923206786130092019000000000017724C34100030000000152352001649299200820190000000000181562002202006/100000000001862160000000000046550778798993
0360778798990921951503430092019000000000020926C34100030000000152352042949861070820190000000000213890702202006/060000000004370120000000000093520778798993
0360778798990921951504030092019000000000010275C34100030000000152352042949862070820190000000000105020702202006/070000000000753970000000000018850778798993
0360778798990921951504130092019000000000010221C34100030000000152352042949862070820190000000000105020903202007/070000000000753970000000000018850778798993
0360778798990922004153630092019000000000015419C34100030000000152352074449990080820190000000000157681002202006/100000000001617220000000000040430778798993
0360778798990922004153830092019000000000015267C34100030000000152352074449990080820190000000000157680804202008/100000000001617220000000000040430778798993
0360778798990922132700230092019000000000009559C34100030000000152352007549967090820190000000000097751002202006/100000000001002510000000000025060778798993
0360778798990922814711730092019000000000030075C34100030000000152352003549980160820190000000000307921702202006/100000000003158160000000000078950778798993
0360778798990922132700330092019000000000009513C34100030000000152352007549967090820190000000000097750903202007/100000000001002510000000000025060778798993
0360778798990922132700430092019000000000009463C34100030000000152352007549967090820190000000000097750904202008/100000000001002510000000000025060778798993
0360778798990922763091730092019000000000009762C34100030000000152352073749281150820190000000000100951504202008/100000000001035320000000000025880778798993
0360778798990922363398230092019000000000024432C34100030000000152352066949902110820190000000000249891102202006/060000000004395240000000000094070778798993
0360778798990922363398830092019000000000035047C34100030000000152352066949903110820190000000000358461102202006/080000000002941140000000000073520778798993
0360778798990922363398930092019000000000034874C34100030000000152352066949903110820190000000000358461103202007/080000000002941140000000000073520778798993
0360778798990922363399030092019000000000034677C34100030000000152352066949903110820190000000000358461304202008/080000000002941140000000000073520778798993
0360778798990922422986130092019000000000019819C34100030000000152352084849344120820190000000000202741202202006/060000000003509480000000000075120778798993
0360778798990922546601430092019000000000009877C34100030000000152352013749872130820190000000000101561303202007/100000000001041620000000000026040778798993
0360778798990922763090930092019000000000006576C34100030000000152352073749280150820190000000000067331702202006/060000000006801710000000000145550778798993
0360778798990922763091530092019000000000009860C34100030000000152352073749281150820190000000000100951702202006/100000000001035320000000000025880778798993
0360778798990926932582030092019000000000005723C34100030000000152352086549817260920190000000000058702702202005/060000000001746300000000000037370778798993
0360778798990917618993230092019000000000012419C34100030000000152352078849936250620190000000000127982603202009/100000000001312680000000000032820778798993
0360778798990924847780530092019000000000025629C34100030000000152352023449241050920190000000000264610604202007/100000000002612400000000000065320778798993
0360778798990923110792730092019000000000031087C34100030000000152352073849929190820190000000000318391902202006/100000000002831370000000000070790778798993
0360778798990923110792830092019000000000030933C34100030000000152352073849929190820190000000000318391903202007/100000000002831370000000000070790778798993
0360778798990923110792930092019000000000030764C34100030000000152352073849929190820190000000000318392004202008/100000000002831370000000000070790778798993
0360778798990923206786330092019000000000017543C34100030000000152352001649299200820190000000000181562004202008/100000000001862160000000000046550778798993
0360778798990923379325130092019000000000020804C34100030000000152352029949585210820190000000000213152102202006/060000000003431900000000000073450778798993
0360778798990919906935830092019000000000025469C34100030000000152352013849575180720190000000000260811802202007/100000000002369050000000000059230778798993
0360778798990927050260630092019000000000012344C34100030000000152352016049630270920190000000000127303003202006/060000000002264410000000000048450778798993
0360778798990921848940030092019000000000009961C34100030000000152352012749623060820190000000000102300603202007/100000000001049220000000000026230778798993
0360778798990922546601530092019000000000009825C34100030000000152352013749872130820190000000000101561304202008/100000000001041620000000000026040778798993
0360778798990920603861330092019000000000030028C34100030000000152352000949023250720190000000000307912602202007/100000000003158020000000000078950778798993
0360778798990920749699930092019000000000010478C34100030000000152352030449765260720190000000000107982603202008/080000000000885980000000000022150778798993
0360778798990920923582630092019000000000030400C34100030000000152352081249734280720190000000000311842802202007/100000000002862080000000000071550778798993
0360778798990921220949130092019000000000009669C34100030000000152352055850000310720190000000000099230203202007/070000000000712390000000000017810778798993
0360778798990921657415730092019000000000007184C34100030000000152352066749805040820190000000000073390402202006/060000000002775600000000000059400778798993
0360778798990921714222430092019000000000043649C34100030000000152352083949603050820190000000000448200503202007/100000000004596960000000000114920778798993
0360778798990920519771830092019000000000009815C34100030000000152352072049364240720190000000000100652602202007/100000000001032350000000000025810778798993
0360778798990921118051230092019000000000025485C34100030000000152352026749986300720190000000000262813003202008/100000000003423810000000000085600778798993
0360778798990920519771930092019000000000009770C34100030000000152352072049364240720190000000000100652403202008/100000000001032350000000000025810778798993
0360778798990921848940130092019000000000009908C34100030000000152352012749623060820190000000000102300604202008/100000000001049220000000000026230778798993
0360778798990927050260130092019000000000066961C34100030000000152352016049630270920190000000000672742810201901/060000000002264410000000000048450778798993
0360778798990922996490830092019000000000012697C34100030000000152352035149396170820190000000000130001702202006/060000000002750520000000000058860778798993
0360778798990917618993130092019000000000012481C34100030000000152352078849936250620190000000000127982602202008/100000000001312680000000000032820778798993
0360778798990926805044030092019000000000013642C34100030000000152352058449580250920190000000000139892602202005/060000000003029720000000000064840778798993
0360778798990926611717030092019000000000040565C34100030000000152352002849271230920190000000000415962602202005/060000000007212000000000000154350778798993
0360778798990924304094630092019000000000014022C34100030000000152352099749051310820190000000000143910203202006/060000000001815210000000000038850778798993
0360778798990921848939330092019000000000006396C34100030000000152352012749622060820190000000000065360602202006/060000000003063140000000000065550778798993
0360778798990921848939930092019000000000010010C34100030000000152352012749623060820190000000000102300602202006/100000000001049220000000000026230778798993
0360778798990924847780330092019000000000025893C34100030000000152352023449241050920190000000000264610602202005/100000000002612400000000000065320778798993
0360778798990927151245330092019000000000010720C34100030000000152352046849521280920190000000000110020203202005/070000000000789930000000000019750778798993
0360778798990922004153730092019000000000015346C34100030000000152352074449990080820190000000000157680903202007/100000000001617220000000000040430778798993
0360778798990920031589530092019000000000019807C34100030000000152352045049305190720190000000000203871903202008/080000000001672790000000000041820778798993
0360778798990920129233230092019000000000009813C34100030000000152352076149432200720190000000000100522002202007/070000000000721650000000000018040778798993
0360778798990920460841430092019000000000024125C34100030000000152352043249503230720190000000000248492303202008/100000000005803900000000000145100778798993
0360778798990920603862430092019000000000013130C34100030000000152352000949024250720190000000000135282503202008/090000000001248740000000000031220778798993
0360778798990920749699830092019000000000010530C34100030000000152352030449765260720190000000000107982602202007/080000000000885980000000000022150778798993
0360778798990921714221730092019000000000014872C34100030000000152352083949602050820190000000000151960502202006/060000000002487800000000000053250778798993
0360778798990925238901330092019000000000019676C34100030000000152352010749149090920190000000000201211002202005/070000000001444640000000000036120778798993
0360778798990922546601330092019000000000009926C34100030000000152352013749872130820190000000000101561302202006/100000000001041620000000000026040778798993
0360778798990922814711130092019000000000007462C34100030000000152352003549979160820190000000000076401702202006/060000000006654030000000000142410778798993
0360778798990927151244330092019000000000159059C34100030000000152352046849520280920190000000001598302910201901/060000000004977610000000000106520778798993
0360778798990923206785530092019000000000013408C34100030000000152352001649298200820190000000000137352002202006/060000000002662650000000000056970778798993
0360778798990924847779830092019000000000017213C34100030000000152352023449240050920190000000000176780603202006/060000000001946300000000000041640778798993
0360778798990917260894130092019000000000014783C34100030000000152352085149651210620190000000000152262303202009/100000000001561610000000000039040778798993
0360778798990925947272430092019000000000043489C34100030000000152352014449582160920190000000000445261702202005/100000000004352110000000000108800778798993
0360778798990920852860130092019000000000010319C34100030000000152352060349048270720190000000000105832702202007/080000000000868320000000000021710778798993
0360778798990924847780430092019000000000025765C34100030000000152352023449241050920190000000000264610603202006/100000000002612400000000000065320778798993
0360778798990924184096530092019000000000009619C34100030000000152352039749174290820190000000000098720203202006/070000000000708790000000000017720778798993
0360778798990923379325730092019000000000010466C34100030000000152352029949586210820190000000000107232102202006/080000000000879900000000000022000778798993
0360778798990923379325830092019000000000010411C34100030000000152352029949586210820190000000000107232303202007/080000000000879900000000000022000778798993
0360778798990918323378530092019000000000011883C34100030000000152352063749256020720190000000000121950203202008/100000000002679700000000000067000778798993
0360778798990925683348330092019000000000018500C34100030000000152352040049432130920190000000000190321603202006/060000000003275350000000000070100778798993
0360778798990924954520930092019000000000020911C34100030000000152352054549828060920190000000000213730702202005/060000000004176470000000000089380778798993
0360778798990924954521030092019000000000014918C34100030000000152352054549828060920190000000000153290903202006/060000000004176470000000000089380778798993
0360778798990925238901430092019000000000019579C34100030000000152352010749149090920190000000000201211003202006/070000000001444640000000000036120778798993
0360778798990925303843330092019000000000020670C34100030000000152352044749065100920190000000000211411102202005/060000000004666580000000000099860778798993
0360778798990925303843430092019000000000013895C34100030000000152352044749065100920190000000000142821103202006/060000000004666580000000000099860778798993
0360778798990925303843930092019000000000021508C34100030000000152352044749066100920190000000000219981102202005/100000000002256340000000000056400778798993
0360778798990925303844030092019000000000021401C34100030000000152352044749066100920190000000000219981103202006/100000000002256340000000000056400778798993
0360778798990925303844130092019000000000021281C34100030000000152352044749066100920190000000000219981304202007/100000000002256340000000000056400778798993
0360778798990923379325930092019000000000010357C34100030000000152352029949586210820190000000000107232204202008/080000000000879900000000000022000778798993
0360778798990923419704330092019000000000006972C34100030000000152352058649694220820190000000000071492602202006/060000000002029440000000000043440778798993
0360778798990923715452330092019000000000006470C34100030000000152352039649961250820190000000000066342602202006/060000000002283460000000000048850778798993
0360778798990923844237330092019000000000063892C34100030000000152352056149137260820190000000000655162602202006/100000000005985810000000000149650778798993
0360778798990923844237430092019000000000063575C34100030000000152352056149137260820190000000000655162603202007/100000000005985810000000000149650778798993
0360778798990923994008530092019000000000057821C34100030000000152352083249959270820190000000000593012702202006/100000000005623100000000000140580778798993
0360778798990924044869530092019000000000006071C34100030000000152352011249440280820190000000000062272802202006/060000000003891290000000000083270778798993
0360778798990924184096630092019000000000009573C34100030000000152352039749174290820190000000000098723003202007/070000000000708790000000000017720778798993
0360778798990924229169230092019000000000010244C34100030000000152352069149907300820190000000000105130203202006/060000000001909290000000000040870778798993
0360778798990924304095230092019000000000015290C34100030000000152352099749052310820190000000000156920203202006/100000000001609480000000000040240778798993
0360778798990924304095330092019000000000015212C34100030000000152352099749052310820190000000000156920104202007/100000000001609480000000000040240778798993
0360778798990924613888830092019000000000013280C34100030000000152352065549028030920190000000000135670402202005/060000000002959910000000000063330778798993
0360778798990924613888930092019000000000007353C34100030000000152352065549028030920190000000000075490403202006/060000000002959910000000000063330778798993
0360778798990924764794930092019000000000009379C34100030000000152352094149486040920190000000000095830502202005/060000000001608410000000000034420778798993
0360778798990925425611630092019000000000042031C34100030000000152352075949502110920190000000000429971202202005/060000000008211120000000000175740778798993
0360778798990925425611730092019000000000041824C34100030000000152352075949502110920190000000000429971203202006/060000000008211120000000000175740778798993
0360778798990925531505230092019000000000012333C34100030000000152352007649353120920190000000000126191302202005/050000000002927720000000000062650778798993
0360778798990923715452930092019000000000010699C34100030000000152352039649962250820190000000000109712602202006/100000000001125280000000000028130778798993
0360778798990917848100430092019000000000035070C34100030000000152352036349869270620190000000000359742802202008/100000000003689710000000000092240778798993
0360778798990925531505830092019000000000013903C34100030000000152352007649354120920190000000000142961303202006/100000000001466210000000000036660778798993
0360778798990925531505930092019000000000013830C34100030000000152352007649354120920190000000000142961304202007/100000000001466210000000000036660778798993
0360778798990925683348230092019000000000024694C34100030000000152352040049432130920190000000000252701402202005/060000000003275350000000000070100778798993
0360778798990925683348830092019000000000009882C34100030000000152352040049433130920190000000000101131402202005/070000000000726090000000000018150778798993
0360778798990925683348930092019000000000009830C34100030000000152352040049433130920190000000000101131603202006/070000000000726090000000000018150778798993
0360778798990925738228430092019000000000006729C34100030000000152352073249746140920190000000000068891702202005/050000000003194040000000000068350778798993
0360778798990925876774230092019000000000012699C34100030000000152352096649410150920190000000000130021702202005/050000000003044350000000000065150778798993
0360778798990925947271830092019000000000029568C34100030000000152352014449581160920190000000000302731702202005/060000000005403690000000000115640778798993
0360778798990925947271930092019000000000023595C34100030000000152352014449581160920190000000000242781703202006/060000000005403690000000000115640778798993
0360778798990927151245230092019000000000010780C34100030000000152352046849521280920190000000000110022901202004/070000000000789930000000000019750778798993
0360778798990927151245030092019000000000010892C34100030000000152352046849521280920190000000000110022911201902/070000000000789930000000000019750778798993
0360778798990927050260230092019000000000066620C34100030000000152352016049630270920190000000000672802811201902/060000000002264410000000000048450778798993
0360778798990927050260330092019000000000032944C34100030000000152352016049630270920190000000000334503012201903/060000000002264410000000000048450778798993
0360778798990926745408530092019000000000006802C34100030000000152352030349757240920190000000000069752602202005/060000000002386460000000000051070778798993
0360778798990926745408630092019000000000006770C34100030000000152352030349757240920190000000000069752503202006/060000000002386460000000000051070778798993
0360778798990926745409130092019000000000010073C34100030000000152352030349758240920190000000000103292602202005/070000000000741560000000000018540778798993
0360778798990927151245130092019000000000010835C34100030000000152352046849521280920190000000000110023012201903/070000000000789930000000000019750778798993
0360778798990927151245430092019000000000010669C34100030000000152352046849521280920190000000000110023003202006/070000000000789930000000000019750778798993
0360778798990925947272530092019000000000043274C34100030000000152352014449582160920190000000000445261703202006/100000000004352110000000000108800778798993
