03025102019RedecardExtrato de Movimentacao FinanceiraWESTWING              000483038959011DIARIO         V3.01 - 09/06 - EEFI
032038959011WESTWING              
040038959011000000000000000000000109201930092019000000000000000
040038977672000000000000000000000109201930092019000000000000000
040067603335000000000000000000000109201930092019000000000000000
040077879899000000000000000000000109201930092019000000000000000
0360808840160929457331724102019000000002928972C34100030000000152352077949792211020190000000029677072101202003/060000000169564550000000003628780808840161
0360808840160929641909624102019000000005297233C34100030000000152352036249384231020190000000053442572312201902/060000000171866630000000003677990808840161
0360808840160929530062124102019000000003453421C34100030000000152352007049832221020190000000034840772312201902/060000000121574300000000002601680808840161
0360808840160929556536224102019000000000013135C34100030000000152352091349080221020190000000000132522312201902/020000000000270840000000000005800808840163
0360808840160929483897724102019000000002078635C34100030000000152352065149162211020190000000021061242101202003/060000000115075010000000002462660808840163
0360808840160929667473424102019000000000022903C34100030000000152352018049387231020190000000000231062312201902/050000000000842400000000000018030808840163
0360808840160929667472824102019000000004187142C34100030000000152352018049386231020190000000042243122312201902/060000000137891560000000002950910808840163
0360808840160929556535624102019000000003010918C34100030000000152352091349079221020190000000030376462312201902/060000000096994380000000002075730808840163
037080884016       00000000000000000000000 341000300000001523522510201924102019000000020992359
040080884016000000000000000000000109201930092019000000000000000
044080884016192970670742410201900000000000735418CANCEL.DE VENDAS            527468******040800098799912123092019056655000000000022546018149560230920190808840163192970841550242410201931929708415502410201900000000000000000000000000000000007354               00                            1
044080884016192970670752410201900000000000735518CANCEL.DE VENDAS            527468******040800098799912123092019056655000000000022546018149560230920190808840163192970841550242410201931929708415502410201900000000000000000000000000000000007355               00                            1
044080884016192970670762410201900000000000735518CANCEL.DE VENDAS            527468******040800098799912123092019056655000000000022546018149560230920190808840163192970841550242410201931929708415502410201900000000000000000000000000000000007355               00                            1
044080884016192970670772410201900000000000531718CANCEL.DE VENDAS            490172******074300094402281917092019064097000000000052994044249858170920190808840163192970841550302410201931929708415503010201900000000000000000000000000000000005317               00                            3
044080884016192970670782410201900000000000531518CANCEL.DE VENDAS            490172******074300094402281917092019064097000000000052994044249858170920190808840163192970841550302410201931929708415503010201900000000000000000000000000000000005315               00                            3
044080884016192970670792410201900000000000531518CANCEL.DE VENDAS            490172******074300094402281917092019064097000000000052994044249858170920190808840163192970841550302410201931929708415503010201900000000000000000000000000000000005315               00                            3
044080884016192970670802410201900000000000531518CANCEL.DE VENDAS            490172******074300094402281917092019064097000000000052994044249858170920190808840163192970841550302410201931929708415503010201900000000000000000000000000000000005315               00                            3
044080884016192970670812410201900000000000531518CANCEL.DE VENDAS            490172******074300094402281917092019064097000000000052994044249858170920190808840163192970841550302410201931929708415503010201900000000000000000000000000000000005315               00                            3
044080884016192970670822410201900000000001010818CANCEL.DE VENDAS            498453******697500099608357330092019859677000000000020657086549615300920190808840163192970841550352410201931929708415503510201900000000000000000000000000000000010108               00                            3
044080884016192970670832410201900000000001010718CANCEL.DE VENDAS            498453******697500099608357330092019859677000000000020657086549615300920190808840163192970841550352410201931929708415503510201900000000000000000000000000000000010107               00                            3
044080884016192970670842410201900000000000060718CANCEL.DE VENDAS            514087******003200097996187323092019R25342000000000026327018149560230920190808840163192970841550402410201931929708415504010201900000000000000000000000000000000000607               00                            1
044080884016192970670852410201900000000000060818CANCEL.DE VENDAS            514087******003200097996187323092019R25342000000000026327018149560230920190808840163192970841550402410201931929708415504010201900000000000000000000000000000000000608               00                            1
044080884016192970670862410201900000000000060818CANCEL.DE VENDAS            514087******003200097996187323092019R25342000000000026327018149560230920190808840163192970841550402410201931929708415504010201900000000000000000000000000000000000608               00                            1
044080884016192970670872410201900000000000060818CANCEL.DE VENDAS            514087******003200097996187323092019R25342000000000026327018149560230920190808840163192970841550402410201931929708415504010201900000000000000000000000000000000000608               00                            1
044080884016192970670882410201900000000000288918CANCEL.DE VENDAS            415275******522200099144709122092019024986000000000022125086549701220920190808840163192970841550422410201931929708415504210201900000000000000000000000000000000002889               00                            3
044080884016192970670892410201900000000000288718CANCEL.DE VENDAS            415275******522200099144709122092019024986000000000022125086549701220920190808840163192970841550422410201931929708415504210201900000000000000000000000000000000002887               00                            3
044080884016192970670902410201900000000000288718CANCEL.DE VENDAS            415275******522200099144709122092019024986000000000022125086549701220920190808840163192970841550422410201931929708415504210201900000000000000000000000000000000002887               00                            3
044080884016192970670912410201900000000000100118CANCEL.DE VENDAS            553636******613200099157628107092019022180000000000130251091149337070920190808840163192970841550432410201931929708415504310201900000000000000000000000000000000001001               00                            1
044080884016192970670922410201900000000000100018CANCEL.DE VENDAS            553636******613200099157628107092019022180000000000130251091149337070920190808840163192970841550432410201931929708415504310201900000000000000000000000000000000001000               00                            1
044080884016192970670932410201900000000000100018CANCEL.DE VENDAS            553636******613200099157628107092019022180000000000130251091149337070920190808840163192970841550432410201931929708415504310201900000000000000000000000000000000001000               00                            1
044080884016192970670942410201900000000000100018CANCEL.DE VENDAS            553636******613200099157628107092019022180000000000130251091149337070920190808840163192970841550432410201931929708415504310201900000000000000000000000000000000001000               00                            1
044080884016192970670952410201900000000000640418CANCEL.DE VENDAS            534513******954600095655381524092019026940000000000039239046249503240920190808840163192970841551042410201931929708415510410201900000000000000000000000000000000006404               00                            1
044080884016192970670962410201900000000000639918CANCEL.DE VENDAS            534513******954600095655381524092019026940000000000039239046249503240920190808840163192970841551042410201931929708415510410201900000000000000000000000000000000006399               00                            1
044080884016192970670972410201900000000000639918CANCEL.DE VENDAS            534513******954600095655381524092019026940000000000039239046249503240920190808840163192970841551042410201931929708415510410201900000000000000000000000000000000006399               00                            1
044080884016192970670982410201900000000000639918CANCEL.DE VENDAS            534513******954600095655381524092019026940000000000039239046249503240920190808840163192970841551042410201931929708415510410201900000000000000000000000000000000006399               00                            1
044080884016192970670992410201900000000000639918CANCEL.DE VENDAS            534513******954600095655381524092019026940000000000039239046249503240920190808840163192970841551042410201931929708415510410201900000000000000000000000000000000006399               00                            1
044080884016192970671002410201900000000000067518CANCEL.DE VENDAS            498442******264400097949930123092019991599000000000016647003349982230920190808840163192970841551142410201931929708415511410201900000000000000000000000000000000000675               00                            3
044080884016192970671012410201900000000000067518CANCEL.DE VENDAS            498442******264400097949930123092019991599000000000016647003349982230920190808840163192970841551142410201931929708415511410201900000000000000000000000000000000000675               00                            3
044080884016192970671022410201900000000000665618CANCEL.DE VENDAS            525631******245000099043663305092019241821000000000027206040149134050920190808840163192970841551382410201931929708415513810201900000000000000000000000000000000006656               00                            1
044080884016192970671032410201900000000000665618CANCEL.DE VENDAS            525631******245000099043663305092019241821000000000027206040149134050920190808840163192970841551382410201931929708415513810201900000000000000000000000000000000006656               00                            1
044080884016192970671042410201900000000000665618CANCEL.DE VENDAS            525631******245000099043663305092019241821000000000027206040149134050920190808840163192970841551382410201931929708415513810201900000000000000000000000000000000006656               00                            1
044080884016192970671052410201900000000000665618CANCEL.DE VENDAS            525631******245000099043663305092019241821000000000027206040149134050920190808840163192970841551382410201931929708415513810201900000000000000000000000000000000006656               00                            1
044080884016192970671062410201900000000000290418CANCEL.DE VENDAS            552305******952000099569791307092019681594000000000051196091149337070920190808840163192970841551442410201931929708415514410201900000000000000000000000000000000002904               00                            1
044080884016192970671072410201900000000000290418CANCEL.DE VENDAS            552305******952000099569791307092019681594000000000051196091149337070920190808840163192970841551442410201931929708415514410201900000000000000000000000000000000002904               00                            1
044080884016192970671082410201900000000000290418CANCEL.DE VENDAS            552305******952000099569791307092019681594000000000051196091149337070920190808840163192970841551442410201931929708415514410201900000000000000000000000000000000002904               00                            1
044080884016192970671092410201900000000000290418CANCEL.DE VENDAS            552305******952000099569791307092019681594000000000051196091149337070920190808840163192970841551442410201931929708415514410201900000000000000000000000000000000002904               00                            1
044080884016192970671102410201900000000000290418CANCEL.DE VENDAS            552305******952000099569791307092019681594000000000051196091149337070920190808840163192970841551442410201931929708415514410201900000000000000000000000000000000002904               00                            1
044080884016192970671112410201900000000000730918CANCEL.DE VENDAS            403246******332800002188962904092019032867000000000044818094749692040920190808840163192970841551852410201931929708415518510201900000000000000000000000000000000007309               00                            3
044080884016192970671122410201900000000000731018CANCEL.DE VENDAS            403246******332800002188962904092019032867000000000044818094749692040920190808840163192970841551852410201931929708415518510201900000000000000000000000000000000007310               00                            3
044080884016192970671132410201900000000000731018CANCEL.DE VENDAS            403246******332800002188962904092019032867000000000044818094749692040920190808840163192970841551852410201931929708415518510201900000000000000000000000000000000007310               00                            3
044080884016192970671142410201900000000000731018CANCEL.DE VENDAS            403246******332800002188962904092019032867000000000044818094749692040920190808840163192970841551852410201931929708415518510201900000000000000000000000000000000007310               00                            3
044080884016192970671152410201900000000000731018CANCEL.DE VENDAS            403246******332800002188962904092019032867000000000044818094749692040920190808840163192970841551852410201931929708415518510201900000000000000000000000000000000007310               00                            3
044080884016192970671162410201900000000000034018CANCEL.DE VENDAS            539083******359900099640391909092019015728000000000036475031249344090920190808840163192970841551912410201931929708415519110201900000000000000000000000000000000000340               00                            1
044080884016192970671172410201900000000000033818CANCEL.DE VENDAS            539083******359900099640391909092019015728000000000036475031249344090920190808840163192970841551912410201931929708415519110201900000000000000000000000000000000000338               00                            1
044080884016192970671182410201900000000000033818CANCEL.DE VENDAS            539083******359900099640391909092019015728000000000036475031249344090920190808840163192970841551912410201931929708415519110201900000000000000000000000000000000000338               00                            1
044080884016192970671192410201900000000000033818CANCEL.DE VENDAS            539083******359900099640391909092019015728000000000036475031249344090920190808840163192970841551912410201931929708415519110201900000000000000000000000000000000000338               00                            1
044080884016192970671202410201900000000000033818CANCEL.DE VENDAS            539083******359900099640391909092019015728000000000036475031249344090920190808840163192970841551912410201931929708415519110201900000000000000000000000000000000000338               00                            1
044080884016192970671212410201900000000000850618CANCEL.DE VENDAS            530033******741800097021476916092019089685000000000065980030649613160920190808840163192970841551932410201931929708415519310201900000000000000000000000000000000008506               00                            1
044080884016192970671222410201900000000000850318CANCEL.DE VENDAS            530033******741800097021476916092019089685000000000065980030649613160920190808840163192970841551932410201931929708415519310201900000000000000000000000000000000008503               00                            1
044080884016192970671232410201900000000000850318CANCEL.DE VENDAS            530033******741800097021476916092019089685000000000065980030649613160920190808840163192970841551932410201931929708415519310201900000000000000000000000000000000008503               00                            1
044080884016192970671242410201900000000000850318CANCEL.DE VENDAS            530033******741800097021476916092019089685000000000065980030649613160920190808840163192970841551932410201931929708415519310201900000000000000000000000000000000008503               00                            1
044080884016192970671252410201900000000000850318CANCEL.DE VENDAS            530033******741800097021476916092019089685000000000065980030649613160920190808840163192970841551932410201931929708415519310201900000000000000000000000000000000008503               00                            1
044080884016192970671262410201900000000000058518CANCEL.DE VENDAS            515590******283400000804513322092019092862000000000064192091549543220920190808840163192970841551972410201931929708415519710201900000000000000000000000000000000000585               00                            1
044080884016192970671272410201900000000000058618CANCEL.DE VENDAS            515590******283400000804513322092019092862000000000064192091549543220920190808840163192970841551972410201931929708415519710201900000000000000000000000000000000000586               00                            1
044080884016192970671282410201900000000000058618CANCEL.DE VENDAS            515590******283400000804513322092019092862000000000064192091549543220920190808840163192970841551972410201931929708415519710201900000000000000000000000000000000000586               00                            1
044080884016192970671292410201900000000000058618CANCEL.DE VENDAS            515590******283400000804513322092019092862000000000064192091549543220920190808840163192970841551972410201931929708415519710201900000000000000000000000000000000000586               00                            1
044080884016192970671302410201900000000000058618CANCEL.DE VENDAS            515590******283400000804513322092019092862000000000064192091549543220920190808840163192970841551972410201931929708415519710201900000000000000000000000000000000000586               00                            1
044080884016192970671312410201900000000000192618CANCEL.DE VENDAS            550209******623100096746895124092019454407000000000025446046249503240920190808840163192970841552012410201931929708415520110201900000000000000000000000000000000001926               00                            1
044080884016192970671322410201900000000000192618CANCEL.DE VENDAS            550209******623100096746895124092019454407000000000025446046249503240920190808840163192970841552012410201931929708415520110201900000000000000000000000000000000001926               00                            1
044080884016192970671332410201900000000000192618CANCEL.DE VENDAS            550209******623100096746895124092019454407000000000025446046249503240920190808840163192970841552012410201931929708415520110201900000000000000000000000000000000001926               00                            1
044080884016192970671342410201900000000000192618CANCEL.DE VENDAS            550209******623100096746895124092019454407000000000025446046249503240920190808840163192970841552012410201931929708415520110201900000000000000000000000000000000001926               00                            1
044080884016192970671352410201900000000000190418CANCEL.DE VENDAS            514945******523700099468320723092019073117000000000015655018149560230920190808840163192970841552042410201931929708415520410201900000000000000000000000000000000001904               00                            1
044080884016192970671362410201900000000000190418CANCEL.DE VENDAS            514945******523700099468320723092019073117000000000015655018149560230920190808840163192970841552042410201931929708415520410201900000000000000000000000000000000001904               00                            1
044080884016192970671372410201900000000000206418CANCEL.DE VENDAS            406655******990500099638586527092019601225000000000021498016749188270920190808840163192970841552702410201931929708415527010201900000000000000000000000000000000002064               00                            3
044080884016192970671382410201900000000000206418CANCEL.DE VENDAS            406655******990500099638586527092019601225000000000021498016749188270920190808840163192970841552702410201931929708415527010201900000000000000000000000000000000002064               00                            3
044080884016192970671392410201900000000000516518CANCEL.DE VENDAS            498453******795600003133058305092019024119000000000023745024049554050920190808840163192970841553542410201931929708415535410201900000000000000000000000000000000005165               00                            3
044080884016192970671402410201900000000000516318CANCEL.DE VENDAS            498453******795600003133058305092019024119000000000023745024049554050920190808840163192970841553542410201931929708415535410201900000000000000000000000000000000005163               00                            3
044080884016192970671412410201900000000000516318CANCEL.DE VENDAS            498453******795600003133058305092019024119000000000023745024049554050920190808840163192970841553542410201931929708415535410201900000000000000000000000000000000005163               00                            3
044080884016192970671422410201900000000000205918CANCEL.DE VENDAS            554906******128100099206208122092019007695000000000053510091549543220920190808840163192970841553652410201931929708415536510201900000000000000000000000000000000002059               00                            1
044080884016192970671432410201900000000000205718CANCEL.DE VENDAS            554906******128100099206208122092019007695000000000053510091549543220920190808840163192970841553652410201931929708415536510201900000000000000000000000000000000002057               00                            1
044080884016192970671442410201900000000000205718CANCEL.DE VENDAS            554906******128100099206208122092019007695000000000053510091549543220920190808840163192970841553652410201931929708415536510201900000000000000000000000000000000002057               00                            1
044080884016192970671452410201900000000000205718CANCEL.DE VENDAS            554906******128100099206208122092019007695000000000053510091549543220920190808840163192970841553652410201931929708415536510201900000000000000000000000000000000002057               00                            1
044080884016192970671462410201900000000000205718CANCEL.DE VENDAS            554906******128100099206208122092019007695000000000053510091549543220920190808840163192970841553652410201931929708415536510201900000000000000000000000000000000002057               00                            1
044080884016192970671472410201900000000000043918CANCEL.DE VENDAS            406655******228400001387083722092019691621000000000024510086549701220920190808840163192970841553882410201931929708415538810201900000000000000000000000000000000000439               00                            3
044080884016192970671482410201900000000000044218CANCEL.DE VENDAS            406655******228400001387083722092019691621000000000024510086549701220920190808840163192970841553882410201931929708415538810201900000000000000000000000000000000000442               00                            3
044080884016192970671492410201900000000000044218CANCEL.DE VENDAS            406655******228400001387083722092019691621000000000024510086549701220920190808840163192970841553882410201931929708415538810201900000000000000000000000000000000000442               00                            3
044080884016192970671502410201900000000000044218CANCEL.DE VENDAS            406655******228400001387083722092019691621000000000024510086549701220920190808840163192970841553882410201931929708415538810201900000000000000000000000000000000000442               00                            3
044080884016192970671512410201900000000000176818CANCEL.DE VENDAS            523421******785500096184126324092019184036000000000043378046249503240920190808840163192970841554282410201931929708415542810201900000000000000000000000000000000001768               00                            1
044080884016192970671522410201900000000000176818CANCEL.DE VENDAS            523421******785500096184126324092019184036000000000043378046249503240920190808840163192970841554282410201931929708415542810201900000000000000000000000000000000001768               00                            1
044080884016192970671532410201900000000000176818CANCEL.DE VENDAS            523421******785500096184126324092019184036000000000043378046249503240920190808840163192970841554282410201931929708415542810201900000000000000000000000000000000001768               00                            1
044080884016192970671542410201900000000000149218CANCEL.DE VENDAS            406655******210900099948253530092019661100000000000085637086549615300920190808840163192970841554392410201931929708415543910201900000000000000000000000000000000001492               00                            3
044080884016192970671552410201900000000000149218CANCEL.DE VENDAS            406655******210900099948253530092019661100000000000085637086549615300920190808840163192970841554392410201931929708415543910201900000000000000000000000000000000001492               00                            3
044080884016192970671562410201900000000000149218CANCEL.DE VENDAS            406655******210900099948253530092019661100000000000085637086549615300920190808840163192970841554392410201931929708415543910201900000000000000000000000000000000001492               00                            3
044080884016192970671572410201900000000000149218CANCEL.DE VENDAS            406655******210900099948253530092019661100000000000085637086549615300920190808840163192970841554392410201931929708415543910201900000000000000000000000000000000001492               00                            3
044080884016192970671582410201900000000000022518CANCEL.DE VENDAS            544731******228200097527511523092019555779000000000033335018149560230920190808840163192970841554612410201931929708415546110201900000000000000000000000000000000000225               00                            1
044080884016192970671592410201900000000000022518CANCEL.DE VENDAS            544731******228200097527511523092019555779000000000033335018149560230920190808840163192970841554612410201931929708415546110201900000000000000000000000000000000000225               00                            1
044080884016192970671602410201900000000000022518CANCEL.DE VENDAS            544731******228200097527511523092019555779000000000033335018149560230920190808840163192970841554612410201931929708415546110201900000000000000000000000000000000000225               00                            1
044080884016192970671612410201900000000000254218CANCEL.DE VENDAS            498453******361300096180066516092019915668000000000018735015049803160920190808840163192970841554662410201931929708415546610201900000000000000000000000000000000002542               00                            3
044080884016192970671622410201900000000000254318CANCEL.DE VENDAS            498453******361300096180066516092019915668000000000018735015049803160920190808840163192970841554662410201931929708415546610201900000000000000000000000000000000002543               00                            3
044080884016192970671632410201900000000000297818CANCEL.DE VENDAS            553636******489800097832836915072019099365000000000038596039249356150720190808840163192970841554852410201931929708415548510201900000000000000000000000000000000002978               00                            1
044080884016192970671642410201900000000000297718CANCEL.DE VENDAS            553636******489800097832836915072019099365000000000038596039249356150720190808840163192970841554852410201931929708415548510201900000000000000000000000000000000002977               00                            1
044080884016192970671652410201900000000000883018CANCEL.DE VENDAS            498401******187600099388972909092019039321000000000036089011349579090920190808840163192970841555602410201931929708415556010201900000000000000000000000000000000008830               00                            3
044080884016192970671662410201900000000000882918CANCEL.DE VENDAS            498401******187600099388972909092019039321000000000036089011349579090920190808840163192970841555602410201931929708415556010201900000000000000000000000000000000008829               00                            3
044080884016192970671672410201900000000000882918CANCEL.DE VENDAS            498401******187600099388972909092019039321000000000036089011349579090920190808840163192970841555602410201931929708415556010201900000000000000000000000000000000008829               00                            3
044080884016192970671682410201900000000000882918CANCEL.DE VENDAS            498401******187600099388972909092019039321000000000036089011349579090920190808840163192970841555602410201931929708415556010201900000000000000000000000000000000008829               00                            3
044080884016192970671692410201900000000000221118CANCEL.DE VENDAS            553096******967100099550225723092019909137000000000059414018149560230920190808840163192970841555892410201931929708415558910201900000000000000000000000000000000002211               00                            1
044080884016192970671702410201900000000000220918CANCEL.DE VENDAS            553096******967100099550225723092019909137000000000059414018149560230920190808840163192970841555892410201931929708415558910201900000000000000000000000000000000002209               00                            1
044080884016192970671712410201900000000000220918CANCEL.DE VENDAS            553096******967100099550225723092019909137000000000059414018149560230920190808840163192970841555892410201931929708415558910201900000000000000000000000000000000002209               00                            1
044080884016192970671722410201900000000000220918CANCEL.DE VENDAS            553096******967100099550225723092019909137000000000059414018149560230920190808840163192970841555892410201931929708415558910201900000000000000000000000000000000002209               00                            1
044080884016192970671732410201900000000000220918CANCEL.DE VENDAS            553096******967100099550225723092019909137000000000059414018149560230920190808840163192970841555892410201931929708415558910201900000000000000000000000000000000002209               00                            1
044080884016192970671742410201900000000000089618CANCEL.DE VENDAS            422061******699300098877626708082019533066000000000032685075149951080820190808840163192970841556012410201931929708415560110201900000000000000000000000000000000000896               00                            3
044080884016192970671752410201900000000000089718CANCEL.DE VENDAS            422061******699300098877626708082019533066000000000032685075149951080820190808840163192970841556012410201931929708415560110201900000000000000000000000000000000000897               00                            3
044080884016192970671762410201900000000000089718CANCEL.DE VENDAS            422061******699300098877626708082019533066000000000032685075149951080820190808840163192970841556012410201931929708415560110201900000000000000000000000000000000000897               00                            3
044080884016192970671772410201900000000000089718CANCEL.DE VENDAS            422061******699300098877626708082019533066000000000032685075149951080820190808840163192970841556012410201931929708415560110201900000000000000000000000000000000000897               00                            3
044080884016192970671782410201900000000000089718CANCEL.DE VENDAS            422061******699300098877626708082019533066000000000032685075149951080820190808840163192970841556012410201931929708415560110201900000000000000000000000000000000000897               00                            3
044080884016192970671792410201900000000000254718CANCEL.DE VENDAS            490172******025300099881704926092019046787000000000030600087149890260920190808840163192970841556212410201931929708415562110201900000000000000000000000000000000002547               00                            3
044080884016192970671802410201900000000000255118CANCEL.DE VENDAS            490172******025300099881704926092019046787000000000030600087149890260920190808840163192970841556212410201931929708415562110201900000000000000000000000000000000002551               00                            3
044080884016192970671812410201900000000000255118CANCEL.DE VENDAS            490172******025300099881704926092019046787000000000030600087149890260920190808840163192970841556212410201931929708415562110201900000000000000000000000000000000002551               00                            3
044080884016192970671822410201900000000000255118CANCEL.DE VENDAS            490172******025300099881704926092019046787000000000030600087149890260920190808840163192970841556212410201931929708415562110201900000000000000000000000000000000002551               00                            3
044080884016192970671832410201900000000000255118CANCEL.DE VENDAS            490172******025300099881704926092019046787000000000030600087149890260920190808840163192970841556212410201931929708415562110201900000000000000000000000000000000002551               00                            3
044080884016192970671842410201900000000000570418CANCEL.DE VENDAS            535858******938400098810628723092019075993000000000023839018149560230920190808840163192970841556242410201931929708415562410201900000000000000000000000000000000005704               00                            1
044080884016192970671852410201900000000000570518CANCEL.DE VENDAS            535858******938400098810628723092019075993000000000023839018149560230920190808840163192970841556242410201931929708415562410201900000000000000000000000000000000005705               00                            1
044080884016192970671862410201900000000000671318CANCEL.DE VENDAS            415274******514900098814635723092019092716000000000022290003349982230920190808840163192970841556312410201931929708415563110201900000000000000000000000000000000006713               00                            3
044080884016192970671872410201900000000000671218CANCEL.DE VENDAS            415274******514900098814635723092019092716000000000022290003349982230920190808840163192970841556312410201931929708415563110201900000000000000000000000000000000006712               00                            3
044080884016192970671882410201900000000001011118CANCEL.DE VENDAS            453211******792200098765307904102019634806000000000030994004249406041020190808840163192970841556472410201931929708415564710201900000000000000000000000000000000010111               00                            3
044080884016192970671892410201900000000001011018CANCEL.DE VENDAS            453211******792200098765307904102019634806000000000030994004249406041020190808840163192970841556472410201931929708415564710201900000000000000000000000000000000010110               00                            3
044080884016192970671902410201900000000001011018CANCEL.DE VENDAS            453211******792200098765307904102019634806000000000030994004249406041020190808840163192970841556472410201931929708415564710201900000000000000000000000000000000010110               00                            3
044080884016192970671912410201900000000000372718CANCEL.DE VENDAS            554906******902500099570450730092019010651000000000044803002149478300920190808840163192970841556582410201931929708415565810201900000000000000000000000000000000003727               00                            1
044080884016192970671922410201900000000000372818CANCEL.DE VENDAS            554906******902500099570450730092019010651000000000044803002149478300920190808840163192970841556582410201931929708415565810201900000000000000000000000000000000003728               00                            1
044080884016192970671932410201900000000000372818CANCEL.DE VENDAS            554906******902500099570450730092019010651000000000044803002149478300920190808840163192970841556582410201931929708415565810201900000000000000000000000000000000003728               00                            1
044080884016192970671942410201900000000000210418CANCEL.DE VENDAS            498442******091700098811621723092019073247000000000034096003349982230920190808840163192970841556602410201931929708415566010201900000000000000000000000000000000002104               00                            3
044080884016192970671952410201900000000000210418CANCEL.DE VENDAS            498442******091700098811621723092019073247000000000034096003349982230920190808840163192970841556602410201931929708415566010201900000000000000000000000000000000002104               00                            3
044080884016192970671962410201900000000001182218CANCEL.DE VENDAS            516291******922600099617203727092019040660000000000048322033149918270920190808840163192970841556972410201931929708415569710201900000000000000000000000000000000011822               00                            1
044080884016192970671972410201900000000001182218CANCEL.DE VENDAS            516291******922600099617203727092019040660000000000048322033149918270920190808840163192970841556972410201931929708415569710201900000000000000000000000000000000011822               00                            1
044080884016192970671982410201900000000001182218CANCEL.DE VENDAS            516291******922600099617203727092019040660000000000048322033149918270920190808840163192970841556972410201931929708415569710201900000000000000000000000000000000011822               00                            1
044080884016192970671992410201900000000001182218CANCEL.DE VENDAS            516291******922600099617203727092019040660000000000048322033149918270920190808840163192970841556972410201931929708415569710201900000000000000000000000000000000011822               00                            1
044080884016192970672002410201900000000000134618CANCEL.DE VENDAS            453211******894000097606479720092019664713000000000046759034549444200920190808840163192970841557342410201931929708415573410201900000000000000000000000000000000001346               00                            3
044080884016192970672012410201900000000000134518CANCEL.DE VENDAS            453211******894000097606479720092019664713000000000046759034549444200920190808840163192970841557342410201931929708415573410201900000000000000000000000000000000001345               00                            3
044080884016192970672022410201900000000000134518CANCEL.DE VENDAS            453211******894000097606479720092019664713000000000046759034549444200920190808840163192970841557342410201931929708415573410201900000000000000000000000000000000001345               00                            3
044080884016192970672032410201900000000000134518CANCEL.DE VENDAS            453211******894000097606479720092019664713000000000046759034549444200920190808840163192970841557342410201931929708415573410201900000000000000000000000000000000001345               00                            3
044080884016192970672042410201900000000000187218CANCEL.DE VENDAS            521397******405700098840931721082019035505000000000032047046149636210820190808840163192970841557652410201931929708415576510201900000000000000000000000000000000001872               00                            1
044080884016192970672052410201900000000000187018CANCEL.DE VENDAS            521397******405700098840931721082019035505000000000032047046149636210820190808840163192970841557652410201931929708415576510201900000000000000000000000000000000001870               00                            1
044080884016192970672062410201900000000000187018CANCEL.DE VENDAS            521397******405700098840931721082019035505000000000032047046149636210820190808840163192970841557652410201931929708415576510201900000000000000000000000000000000001870               00                            1
044080884016192970672072410201900000000000187018CANCEL.DE VENDAS            521397******405700098840931721082019035505000000000032047046149636210820190808840163192970841557652410201931929708415576510201900000000000000000000000000000000001870               00                            1
044080884016192970672082410201900000000000187018CANCEL.DE VENDAS            521397******405700098840931721082019035505000000000032047046149636210820190808840163192970841557652410201931929708415576510201900000000000000000000000000000000001870               00                            1
044080884016192970672092410201900000000000625418CANCEL.DE VENDAS            534503******376100099578182530092019033542000000000025566002149478300920190808840163192970841557812410201931929708415578110201900000000000000000000000000000000006254               00                            1
044080884016192970672102410201900000000000625518CANCEL.DE VENDAS            534503******376100099578182530092019033542000000000025566002149478300920190808840163192970841557812410201931929708415578110201900000000000000000000000000000000006255               00                            1
044080884016192970672112410201900000000000625518CANCEL.DE VENDAS            534503******376100099578182530092019033542000000000025566002149478300920190808840163192970841557812410201931929708415578110201900000000000000000000000000000000006255               00                            1
044080884016192970672122410201900000000000625518CANCEL.DE VENDAS            534503******376100099578182530092019033542000000000025566002149478300920190808840163192970841557812410201931929708415578110201900000000000000000000000000000000006255               00                            1
044080884016192970672132410201900000000000484418CANCEL.DE VENDAS            470598******527300099081614112062019010608000000000020599038249759120620190808840163192970841557912410201931929708415579110201900000000000000000000000000000000004844               00                            3
044080884016192970672142410201900000000000484218CANCEL.DE VENDAS            470598******527300099081614112062019010608000000000020599038249759120620190808840163192970841557912410201931929708415579110201900000000000000000000000000000000004842               00                            3
044080884016192970672152410201900000000000484218CANCEL.DE VENDAS            470598******527300099081614112062019010608000000000020599038249759120620190808840163192970841557912410201931929708415579110201900000000000000000000000000000000004842               00                            3
044080884016192970672162410201900000000000647418CANCEL.DE VENDAS            525664******138300097087291113092019050123000000000017641058349997130920190808840163192970841558112410201931929708415581110201900000000000000000000000000000000006474               00                            1
044080884016192970672172410201900000000000647418CANCEL.DE VENDAS            525664******138300097087291113092019050123000000000017641058349997130920190808840163192970841558112410201931929708415581110201900000000000000000000000000000000006474               00                            1
044080884016192970672182410201900000000000773118CANCEL.DE VENDAS            520156******201800001665093706092019067077000000000015800072949364060920190808840163192970841558282410201931929708415582810201900000000000000000000000000000000007731               00                            1
044080884016192970672192410201900000000000773118CANCEL.DE VENDAS            520156******201800001665093706092019067077000000000015800072949364060920190808840163192970841558282410201931929708415582810201900000000000000000000000000000000007731               00                            1
044080884016192970672202410201900000000000052818CANCEL.DE VENDAS            553665******848800095380090117092019072794000000000028571060449387170920190808840163192970841558512410201931929708415585110201900000000000000000000000000000000000528               00                            1
044080884016192970672212410201900000000000052818CANCEL.DE VENDAS            553665******848800095380090117092019072794000000000028571060449387170920190808840163192970841558512410201931929708415585110201900000000000000000000000000000000000528               00                            1
044080884016192970672222410201900000000000052818CANCEL.DE VENDAS            553665******848800095380090117092019072794000000000028571060449387170920190808840163192970841558512410201931929708415585110201900000000000000000000000000000000000528               00                            1
044080884016192970672232410201900000000000052818CANCEL.DE VENDAS            553665******848800095380090117092019072794000000000028571060449387170920190808840163192970841558512410201931929708415585110201900000000000000000000000000000000000528               00                            1
044080884016192970672242410201900000000000101818CANCEL.DE VENDAS            498453******266200099072269922092019966496000000000018940086549701220920190808840163192970841558892410201931929708415588910201900000000000000000000000000000000001018               00                            3
044080884016192970672252410201900000000000101718CANCEL.DE VENDAS            498453******266200099072269922092019966496000000000018940086549701220920190808840163192970841558892410201931929708415588910201900000000000000000000000000000000001017               00                            3
044080884016192970672262410201900000000000101718CANCEL.DE VENDAS            498453******266200099072269922092019966496000000000018940086549701220920190808840163192970841558892410201931929708415588910201900000000000000000000000000000000001017               00                            3
044080884016192970672272410201900000000000640718CANCEL.DE VENDAS            453211******145100099251391901072019620319000000000026192036049054010720190808840163192970841559762410201931929708415597610201900000000000000000000000000000000006407               00                            3
044080884016192970672282410201900000000000640818CANCEL.DE VENDAS            453211******145100099251391901072019620319000000000026192036049054010720190808840163192970841559762410201931929708415597610201900000000000000000000000000000000006408               00                            3
044080884016192970672292410201900000000000640818CANCEL.DE VENDAS            453211******145100099251391901072019620319000000000026192036049054010720190808840163192970841559762410201931929708415597610201900000000000000000000000000000000006408               00                            3
044080884016192970672302410201900000000000640818CANCEL.DE VENDAS            453211******145100099251391901072019620319000000000026192036049054010720190808840163192970841559762410201931929708415597610201900000000000000000000000000000000006408               00                            3
044080884016192970672312410201900000000000269918CANCEL.DE VENDAS            516292******458400000845956510092019231117000000000057754062149828100920190808840163192970841559812410201931929708415598110201900000000000000000000000000000000002699               00                            1
044080884016192970672322410201900000000000269718CANCEL.DE VENDAS            516292******458400000845956510092019231117000000000057754062149828100920190808840163192970841559812410201931929708415598110201900000000000000000000000000000000002697               00                            1
044080884016192970672332410201900000000000269718CANCEL.DE VENDAS            516292******458400000845956510092019231117000000000057754062149828100920190808840163192970841559812410201931929708415598110201900000000000000000000000000000000002697               00                            1
044080884016192970672342410201900000000000269718CANCEL.DE VENDAS            516292******458400000845956510092019231117000000000057754062149828100920190808840163192970841559812410201931929708415598110201900000000000000000000000000000000002697               00                            1
044080884016192970672352410201900000000000269718CANCEL.DE VENDAS            516292******458400000845956510092019231117000000000057754062149828100920190808840163192970841559812410201931929708415598110201900000000000000000000000000000000002697               00                            1
044080884016192970672362410201900000000000708618CANCEL.DE VENDAS            444054******829900097631614723092019054603000000000014482003349982230920190808840163192970841559972410201931929708415599710201900000000000000000000000000000000007086               00                            3
044080884016192970672372410201900000000000708618CANCEL.DE VENDAS            444054******829900097631614723092019054603000000000014482003349982230920190808840163192970841559972410201931929708415599710201900000000000000000000000000000000007086               00                            3
044080884016192970672382410201900000000000496718CANCEL.DE VENDAS            421958******193300099199878109082019998639000000000062960008349474090820190808840163192970841561812410201931929708415618110201900000000000000000000000000000000004967               00                            3
044080884016192970672392410201900000000000497018CANCEL.DE VENDAS            421958******193300099199878109082019998639000000000062960008349474090820190808840163192970841561812410201931929708415618110201900000000000000000000000000000000004970               00                            3
044080884016192970672402410201900000000000497018CANCEL.DE VENDAS            421958******193300099199878109082019998639000000000062960008349474090820190808840163192970841561812410201931929708415618110201900000000000000000000000000000000004970               00                            3
044080884016192970672412410201900000000000497018CANCEL.DE VENDAS            421958******193300099199878109082019998639000000000062960008349474090820190808840163192970841561812410201931929708415618110201900000000000000000000000000000000004970               00                            3
044080884016192970672422410201900000000000120918CANCEL.DE VENDAS            553636******223500099171508121082019012953000000000023431046149636210820190808840163192970841563422410201931929708415634210201900000000000000000000000000000000001209               00                            1
044080884016192970672432410201900000000000120918CANCEL.DE VENDAS            553636******223500099171508121082019012953000000000023431046149636210820190808840163192970841563422410201931929708415634210201900000000000000000000000000000000001209               00                            1
044080884016192970672442410201900000000000120918CANCEL.DE VENDAS            553636******223500099171508121082019012953000000000023431046149636210820190808840163192970841563422410201931929708415634210201900000000000000000000000000000000001209               00                            1
044080884016192970672452410201900000000000270418CANCEL.DE VENDAS            498406******614100098191755510082019057162000000000035760043349746100820190808840163192970841564172410201931929708415641710201900000000000000000000000000000000002704               00                            3
044080884016192970672462410201900000000000270118CANCEL.DE VENDAS            498406******614100098191755510082019057162000000000035760043349746100820190808840163192970841564172410201931929708415641710201900000000000000000000000000000000002701               00                            3
044080884016192970672472410201900000000000270118CANCEL.DE VENDAS            498406******614100098191755510082019057162000000000035760043349746100820190808840163192970841564172410201931929708415641710201900000000000000000000000000000000002701               00                            3
044080884016192970672482410201900000000000270118CANCEL.DE VENDAS            498406******614100098191755510082019057162000000000035760043349746100820190808840163192970841564172410201931929708415641710201900000000000000000000000000000000002701               00                            3
044080884016192970672492410201900000000000270118CANCEL.DE VENDAS            498406******614100098191755510082019057162000000000035760043349746100820190808840163192970841564172410201931929708415641710201900000000000000000000000000000000002701               00                            3
044080884016192970672502410201900000000000932418CANCEL.DE VENDAS            490172******209200002136362726082019013243000000000028582056649934260820190808840163192970841565062410201931929708415650610201900000000000000000000000000000000009324               00                            3
044080884016192970672512410201900000000000932318CANCEL.DE VENDAS            490172******209200002136362726082019013243000000000028582056649934260820190808840163192970841565062410201931929708415650610201900000000000000000000000000000000009323               00                            3
044080884016192970672522410201900000000000932318CANCEL.DE VENDAS            490172******209200002136362726082019013243000000000028582056649934260820190808840163192970841565062410201931929708415650610201900000000000000000000000000000000009323               00                            3
044080884016192970672532410201900000000000487018CANCEL.DE VENDAS            422061******883200099185120322092019502061000000000095739086549701220920190808840163192970903080102410201931929709030801010201900000000000000000000000000000000004870               00                            3
044080884016192970672542410201900000000000487218CANCEL.DE VENDAS            422061******883200099185120322092019502061000000000095739086549701220920190808840163192970903080102410201931929709030801010201900000000000000000000000000000000004872               00                            3
044080884016192970672552410201900000000000487218CANCEL.DE VENDAS            422061******883200099185120322092019502061000000000095739086549701220920190808840163192970903080102410201931929709030801010201900000000000000000000000000000000004872               00                            3
044080884016192970672562410201900000000000011518CANCEL.DE VENDAS            552305******310300098139990723092019655588000000000060541018149560230920190808840163192970903080382410201931929709030803810201900000000000000000000000000000000000115               00                            1
044080884016192970672572410201900000000000011918CANCEL.DE VENDAS            552305******310300098139990723092019655588000000000060541018149560230920190808840163192970903080382410201931929709030803810201900000000000000000000000000000000000119               00                            1
044080884016192970672582410201900000000000011918CANCEL.DE VENDAS            552305******310300098139990723092019655588000000000060541018149560230920190808840163192970903080382410201931929709030803810201900000000000000000000000000000000000119               00                            1
044080884016192970672592410201900000000000011918CANCEL.DE VENDAS            552305******310300098139990723092019655588000000000060541018149560230920190808840163192970903080382410201931929709030803810201900000000000000000000000000000000000119               00                            1
044080884016192970672602410201900000000000011918CANCEL.DE VENDAS            552305******310300098139990723092019655588000000000060541018149560230920190808840163192970903080382410201931929709030803810201900000000000000000000000000000000000119               00                            1
044080884016192970672612410201900000000000306318CANCEL.DE VENDAS            515601******703800096103504719092019555863000000000012750020549028190920190808840163192970903080432410201931929709030804310201900000000000000000000000000000000003063               00                            1
044080884016192970672622410201900000000000306318CANCEL.DE VENDAS            515601******703800096103504719092019555863000000000012750020549028190920190808840163192970903080432410201931929709030804310201900000000000000000000000000000000003063               00                            1
044080884016192970672632410201900000000000596018CANCEL.DE VENDAS            552305******651000099503567130092019670312000000000059970002149478300920190808840163192970903080882410201931929709030808810201900000000000000000000000000000000005960               00                            1
044080884016192970672642410201900000000000595818CANCEL.DE VENDAS            552305******651000099503567130092019670312000000000059970002149478300920190808840163192970903080882410201931929709030808810201900000000000000000000000000000000005958               00                            1
044080884016192970672652410201900000000000595818CANCEL.DE VENDAS            552305******651000099503567130092019670312000000000059970002149478300920190808840163192970903080882410201931929709030808810201900000000000000000000000000000000005958               00                            1
044080884016192970672662410201900000000000595818CANCEL.DE VENDAS            552305******651000099503567130092019670312000000000059970002149478300920190808840163192970903080882410201931929709030808810201900000000000000000000000000000000005958               00                            1
044080884016192970672672410201900000000001710918CANCEL.DE VENDAS            498406******203400099916453730092019970583000000000052136086549615300920190808840163192970903081132410201931929709030811310201900000000000000000000000000000000017109               00                            3
044080884016192970672682410201900000000001710818CANCEL.DE VENDAS            498406******203400099916453730092019970583000000000052136086549615300920190808840163192970903081132410201931929709030811310201900000000000000000000000000000000017108               00                            3
044080884016192970672692410201900000000000158718CANCEL.DE VENDAS            552289******703300098845259523092019029293000000000018997018149560230920190808840163192970903081242410201931929709030812410201900000000000000000000000000000000001587               00                            1
044080884016192970672702410201900000000000158718CANCEL.DE VENDAS            552289******703300098845259523092019029293000000000018997018149560230920190808840163192970903081242410201931929709030812410201900000000000000000000000000000000001587               00                            1
044080884016192970672712410201900000000000684218CANCEL.DE VENDAS            459384******359100099091163125092019895612000000000013983059049571250920190808840163192970903081462410201931929709030814610201900000000000000000000000000000000006842               00                            3
044080884016192970672722410201900000000000684218CANCEL.DE VENDAS            459384******359100099091163125092019895612000000000013983059049571250920190808840163192970903081462410201931929709030814610201900000000000000000000000000000000006842               00                            3
044080884016192970672732410201900000000000237618CANCEL.DE VENDAS            515590******753800099963390530092019120364000000000018994002149478300920190808840163192970903081642410201931929709030816410201900000000000000000000000000000000002376               00                            1
044080884016192970672742410201900000000000237618CANCEL.DE VENDAS            515590******753800099963390530092019120364000000000018994002149478300920190808840163192970903081642410201931929709030816410201900000000000000000000000000000000002376               00                            1
044080884016192970672752410201900000000000237618CANCEL.DE VENDAS            515590******753800099963390530092019120364000000000018994002149478300920190808840163192970903081642410201931929709030816410201900000000000000000000000000000000002376               00                            1
044080884016192970672762410201900000000000306918CANCEL.DE VENDAS            552305******651000000572464530092019664835000000000052586002149478300920190808840163192970903081912410201931929709030819110201900000000000000000000000000000000003069               00                            1
044080884016192970672772410201900000000000306818CANCEL.DE VENDAS            552305******651000000572464530092019664835000000000052586002149478300920190808840163192970903081912410201931929709030819110201900000000000000000000000000000000003068               00                            1
044080884016192970672782410201900000000000306818CANCEL.DE VENDAS            552305******651000000572464530092019664835000000000052586002149478300920190808840163192970903081912410201931929709030819110201900000000000000000000000000000000003068               00                            1
044080884016192970672792410201900000000000306818CANCEL.DE VENDAS            552305******651000000572464530092019664835000000000052586002149478300920190808840163192970903081912410201931929709030819110201900000000000000000000000000000000003068               00                            1
044080884016192970672802410201900000000000960918CANCEL.DE VENDAS            422061******233900099701811907102019250063000000000049087077049002071020190808840163192970903082162410201931929709030821610201900000000000000000000000000000000009609               00                            3
044080884016192970672812410201900000000000960718CANCEL.DE VENDAS            422061******233900099701811907102019250063000000000049087077049002071020190808840163192970903082162410201931929709030821610201900000000000000000000000000000000009607               00                            3
044080884016192970672822410201900000000000960718CANCEL.DE VENDAS            422061******233900099701811907102019250063000000000049087077049002071020190808840163192970903082162410201931929709030821610201900000000000000000000000000000000009607               00                            3
044080884016192970672832410201900000000000960718CANCEL.DE VENDAS            422061******233900099701811907102019250063000000000049087077049002071020190808840163192970903082162410201931929709030821610201900000000000000000000000000000000009607               00                            3
044080884016192970672842410201900000000000681418CANCEL.DE VENDAS            550209******075600095541741101092019778623000000000085289026249779010920190808840163192970903082282410201931929709030822810201900000000000000000000000000000000006814               00                            1
044080884016192970672852410201900000000000681418CANCEL.DE VENDAS            550209******075600095541741101092019778623000000000085289026249779010920190808840163192970903082282410201931929709030822810201900000000000000000000000000000000006814               00                            1
044080884016192970672862410201900000000000681418CANCEL.DE VENDAS            550209******075600095541741101092019778623000000000085289026249779010920190808840163192970903082282410201931929709030822810201900000000000000000000000000000000006814               00                            1
044080884016192970672872410201900000000000681418CANCEL.DE VENDAS            550209******075600095541741101092019778623000000000085289026249779010920190808840163192970903082282410201931929709030822810201900000000000000000000000000000000006814               00                            1
044080884016192970672882410201900000000000681418CANCEL.DE VENDAS            550209******075600095541741101092019778623000000000085289026249779010920190808840163192970903082282410201931929709030822810201900000000000000000000000000000000006814               00                            1
044080884016192970672892410201900000000000398418CANCEL.DE VENDAS            549167******470800001221853506092019057728000000000015032072949364060920190808840163192970903082332410201931929709030823310201900000000000000000000000000000000003984               00                            1
044080884016192970672902410201900000000000398318CANCEL.DE VENDAS            549167******470800001221853506092019057728000000000015032072949364060920190808840163192970903082332410201931929709030823310201900000000000000000000000000000000003983               00                            1
044080884016192970672912410201900000000000150418CANCEL.DE VENDAS            421644******145500099954418130092019064446000000000012837086549615300920190808840163192970903082402410201931929709030824010201900000000000000000000000000000000001504               00                            3
044080884016192970672922410201900000000000150418CANCEL.DE VENDAS            421644******145500099954418130092019064446000000000012837086549615300920190808840163192970903082402410201931929709030824010201900000000000000000000000000000000001504               00                            3
044080884016192970672932410201900000000000051318CANCEL.DE VENDAS            421848******443100099213455925092019040468000000000032843059049571250920190808840163192970903082472410201931929709030824710201900000000000000000000000000000000000513               00                            3
044080884016192970672942410201900000000000051418CANCEL.DE VENDAS            421848******443100099213455925092019040468000000000032843059049571250920190808840163192970903082472410201931929709030824710201900000000000000000000000000000000000514               00                            3
044080884016192970672952410201900000000000051418CANCEL.DE VENDAS            421848******443100099213455925092019040468000000000032843059049571250920190808840163192970903082472410201931929709030824710201900000000000000000000000000000000000514               00                            3
044080884016192970672962410201900000000000051418CANCEL.DE VENDAS            421848******443100099213455925092019040468000000000032843059049571250920190808840163192970903082472410201931929709030824710201900000000000000000000000000000000000514               00                            3
044080884016192970672972410201900000000000051418CANCEL.DE VENDAS            421848******443100099213455925092019040468000000000032843059049571250920190808840163192970903082472410201931929709030824710201900000000000000000000000000000000000514               00                            3
044080884016192970672982410201900000000000665318CANCEL.DE VENDAS            522273******206700098642001725092019011897000000000013598074249175250920190808840163192970903082532410201931929709030825310201900000000000000000000000000000000006653               00                            1
044080884016192970672992410201900000000000665418CANCEL.DE VENDAS            522273******206700098642001725092019011897000000000013598074249175250920190808840163192970903082532410201931929709030825310201900000000000000000000000000000000006654               00                            1
044080884016192970673002410201900000000000204018CANCEL.DE VENDAS            542974******792200099912851930092019047691000000000057518002149478300920190808840163192970903082942410201931929709030829410201900000000000000000000000000000000002040               00                            1
044080884016192970673012410201900000000000204118CANCEL.DE VENDAS            542974******792200099912851930092019047691000000000057518002149478300920190808840163192970903082942410201931929709030829410201900000000000000000000000000000000002041               00                            1
044080884016192970673022410201900000000000204118CANCEL.DE VENDAS            542974******792200099912851930092019047691000000000057518002149478300920190808840163192970903082942410201931929709030829410201900000000000000000000000000000000002041               00                            1
044080884016192970673032410201900000000000050918CANCEL.DE VENDAS            406655******918400099984299930092019611984000000000041911086549615300920190808840163192970903083352410201931929709030833510201900000000000000000000000000000000000509               00                            3
044080884016192970673042410201900000000000050418CANCEL.DE VENDAS            406655******918400099984299930092019611984000000000041911086549615300920190808840163192970903083352410201931929709030833510201900000000000000000000000000000000000504               00                            3
044080884016192970673052410201900000000000050418CANCEL.DE VENDAS            406655******918400099984299930092019611984000000000041911086549615300920190808840163192970903083352410201931929709030833510201900000000000000000000000000000000000504               00                            3
044080884016192970673062410201900000000000050418CANCEL.DE VENDAS            406655******918400099984299930092019611984000000000041911086549615300920190808840163192970903083352410201931929709030833510201900000000000000000000000000000000000504               00                            3
044080884016192970673072410201900000000000183618CANCEL.DE VENDAS            498453******747000098081938525082019069393000000000023215039949269250820190808840163192970903083682410201931929709030836810201900000000000000000000000000000000001836               00                            3
044080884016192970673082410201900000000000183618CANCEL.DE VENDAS            498453******747000098081938525082019069393000000000023215039949269250820190808840163192970903083682410201931929709030836810201900000000000000000000000000000000001836               00                            3
044080884016192970673092410201900000000000183618CANCEL.DE VENDAS            498453******747000098081938525082019069393000000000023215039949269250820190808840163192970903083682410201931929709030836810201900000000000000000000000000000000001836               00                            3
044080884016192970673102410201900000000000051718CANCEL.DE VENDAS            498408******935000099962246130092019917426000000000026190086549615300920190808840163192970903083882410201931929709030838810201900000000000000000000000000000000000517               00                            3
044080884016192970673112410201900000000000051618CANCEL.DE VENDAS            498408******935000099962246130092019917426000000000026190086549615300920190808840163192970903083882410201931929709030838810201900000000000000000000000000000000000516               00                            3
044080884016192970673122410201900000000000051618CANCEL.DE VENDAS            498408******935000099962246130092019917426000000000026190086549615300920190808840163192970903083882410201931929709030838810201900000000000000000000000000000000000516               00                            3
044080884016192970673132410201900000000000051618CANCEL.DE VENDAS            498408******935000099962246130092019917426000000000026190086549615300920190808840163192970903083882410201931929709030838810201900000000000000000000000000000000000516               00                            3
044080884016192970673142410201900000000000645418CANCEL.DE VENDAS            553665******543000097983510931082019026361000000000039576016649638310820190808840163192970903083922410201931929709030839210201900000000000000000000000000000000006454               00                            1
044080884016192970673152410201900000000000645518CANCEL.DE VENDAS            553665******543000097983510931082019026361000000000039576016649638310820190808840163192970903083922410201931929709030839210201900000000000000000000000000000000006455               00                            1
044080884016192970673162410201900000000000645518CANCEL.DE VENDAS            553665******543000097983510931082019026361000000000039576016649638310820190808840163192970903083922410201931929709030839210201900000000000000000000000000000000006455               00                            1
044080884016192970673172410201900000000000645518CANCEL.DE VENDAS            553665******543000097983510931082019026361000000000039576016649638310820190808840163192970903083922410201931929709030839210201900000000000000000000000000000000006455               00                            1
044080884016192970673182410201900000000000645518CANCEL.DE VENDAS            553665******543000097983510931082019026361000000000039576016649638310820190808840163192970903083922410201931929709030839210201900000000000000000000000000000000006455               00                            1
044080884016192970673192410201900000000000080318CANCEL.DE VENDAS            518814******120100098815172519092019551822000000000059268020549028190920190808840163192970903084262410201931929709030842610201900000000000000000000000000000000000803               00                            1
044080884016192970673202410201900000000000080318CANCEL.DE VENDAS            518814******120100098815172519092019551822000000000059268020549028190920190808840163192970903084262410201931929709030842610201900000000000000000000000000000000000803               00                            1
044080884016192970673212410201900000000000080318CANCEL.DE VENDAS            518814******120100098815172519092019551822000000000059268020549028190920190808840163192970903084262410201931929709030842610201900000000000000000000000000000000000803               00                            1
044080884016192970673222410201900000000000080318CANCEL.DE VENDAS            518814******120100098815172519092019551822000000000059268020549028190920190808840163192970903084262410201931929709030842610201900000000000000000000000000000000000803               00                            1
044080884016192970673232410201900000000000080318CANCEL.DE VENDAS            518814******120100098815172519092019551822000000000059268020549028190920190808840163192970903084262410201931929709030842610201900000000000000000000000000000000000803               00                            1
044080884016192970673242410201900000000000133318CANCEL.DE VENDAS            422061******239200098727211723092019064057000000000014723003349982230920190808840163192970903084922410201931929709030849210201900000000000000000000000000000000001333               00                            3
044080884016192970673252410201900000000000133318CANCEL.DE VENDAS            422061******239200098727211723092019064057000000000014723003349982230920190808840163192970903084922410201931929709030849210201900000000000000000000000000000000001333               00                            3
044080884016192970673262410201900000000000560218CANCEL.DE VENDAS            550209******081600096969013716092019783483000000000017766030649613160920190808840163192970903085462410201931929709030854610201900000000000000000000000000000000005602               00                            1
044080884016192970673272410201900000000000560318CANCEL.DE VENDAS            550209******081600096969013716092019783483000000000017766030649613160920190808840163192970903085462410201931929709030854610201900000000000000000000000000000000005603               00                            1
044080884016192970673282410201900000000000452518CANCEL.DE VENDAS            530780******782600099948261130092019033022000000000015456002149478300920190808840163192970903085862410201931929709030858610201900000000000000000000000000000000004525               00                            1
044080884016192970673292410201900000000000452518CANCEL.DE VENDAS            530780******782600099948261130092019033022000000000015456002149478300920190808840163192970903085862410201931929709030858610201900000000000000000000000000000000004525               00                            1
044080884016192970673302410201900000000000386718CANCEL.DE VENDAS            406669******637700099536766130092019681696000000000053550086549615300920190808840163192970903086092410201931929709030860910201900000000000000000000000000000000003867               00                            3
044080884016192970673312410201900000000000386518CANCEL.DE VENDAS            406669******637700099536766130092019681696000000000053550086549615300920190808840163192970903086092410201931929709030860910201900000000000000000000000000000000003865               00                            3
044080884016192970673322410201900000000000386518CANCEL.DE VENDAS            406669******637700099536766130092019681696000000000053550086549615300920190808840163192970903086092410201931929709030860910201900000000000000000000000000000000003865               00                            3
044080884016192970673332410201900000000000386518CANCEL.DE VENDAS            406669******637700099536766130092019681696000000000053550086549615300920190808840163192970903086092410201931929709030860910201900000000000000000000000000000000003865               00                            3
044080884016192970673342410201900000000000032218CANCEL.DE VENDAS            498408******792500099855958730092019941305000000000046970086549615300920190808840163192970903086212410201931929709030862110201900000000000000000000000000000000000322               00                            3
044080884016192970673352410201900000000000032118CANCEL.DE VENDAS            498408******792500099855958730092019941305000000000046970086549615300920190808840163192970903086212410201931929709030862110201900000000000000000000000000000000000321               00                            3
044080884016192970673362410201900000000000032118CANCEL.DE VENDAS            498408******792500099855958730092019941305000000000046970086549615300920190808840163192970903086212410201931929709030862110201900000000000000000000000000000000000321               00                            3
044080884016192970673372410201900000000000032118CANCEL.DE VENDAS            498408******792500099855958730092019941305000000000046970086549615300920190808840163192970903086212410201931929709030862110201900000000000000000000000000000000000321               00                            3
044080884016192970673382410201900000000000153918CANCEL.DE VENDAS            553636******246600099630567327092019088703000000000015013033149918270920190808840163192970903086362410201931929709030863610201900000000000000000000000000000000001539               00                            1
044080884016192970673392410201900000000000154018CANCEL.DE VENDAS            553636******246600099630567327092019088703000000000015013033149918270920190808840163192970903086362410201931929709030863610201900000000000000000000000000000000001540               00                            1
044080884016192970673402410201900000000000343518CANCEL.DE VENDAS            415275******711200098778078525092019007581000000000046374059049571250920190808840163192970903086402410201931929709030864010201900000000000000000000000000000000003435               00                            3
044080884016192970673412410201900000000000343518CANCEL.DE VENDAS            415275******711200098778078525092019007581000000000046374059049571250920190808840163192970903086402410201931929709030864010201900000000000000000000000000000000003435               00                            3
044080884016192970673422410201900000000000343518CANCEL.DE VENDAS            415275******711200098778078525092019007581000000000046374059049571250920190808840163192970903086402410201931929709030864010201900000000000000000000000000000000003435               00                            3
044080884016192970673432410201900000000000343518CANCEL.DE VENDAS            415275******711200098778078525092019007581000000000046374059049571250920190808840163192970903086402410201931929709030864010201900000000000000000000000000000000003435               00                            3
044080884016192970673442410201900000000000423318CANCEL.DE VENDAS            422061******078300099082453322092019355042000000000017846086549701220920190808840163192970903086492410201931929709030864910201900000000000000000000000000000000004233               00                            3
044080884016192970673452410201900000000000423418CANCEL.DE VENDAS            422061******078300099082453322092019355042000000000017846086549701220920190808840163192970903086492410201931929709030864910201900000000000000000000000000000000004234               00                            3
044080884016192970673462410201900000000000624318CANCEL.DE VENDAS            515787******762800098462953919092019929325000000000019143020549028190920190808840163192970903086592410201931929709030865910201900000000000000000000000000000000006243               00                            1
044080884016192970673472410201900000000000624518CANCEL.DE VENDAS            515787******762800098462953919092019929325000000000019143020549028190920190808840163192970903086592410201931929709030865910201900000000000000000000000000000000006245               00                            1
044080884016192970673482410201900000000000624518CANCEL.DE VENDAS            515787******762800098462953919092019929325000000000019143020549028190920190808840163192970903086592410201931929709030865910201900000000000000000000000000000000006245               00                            1
044080884016192970673492410201900000000000296118CANCEL.DE VENDAS            459080******641800098258821725082019089856000000000017301039949269250820190808840163192970903086862410201931929709030868610201900000000000000000000000000000000002961               00                            3
044080884016192970673502410201900000000000296118CANCEL.DE VENDAS            459080******641800098258821725082019089856000000000017301039949269250820190808840163192970903086862410201931929709030868610201900000000000000000000000000000000002961               00                            3
044080884016192970673512410201900000000000117318CANCEL.DE VENDAS            515787******762800098852384923092019937394000000000017589018149560230920190808840163192970903086882410201931929709030868810201900000000000000000000000000000000001173               00                            1
044080884016192970673522410201900000000000117318CANCEL.DE VENDAS            515787******762800098852384923092019937394000000000017589018149560230920190808840163192970903086882410201931929709030868810201900000000000000000000000000000000001173               00                            1
044080884016192970673532410201900000000000135218CANCEL.DE VENDAS            422061******667100097759987124092019144267000000000034673030949817240920190808840163192970903087052410201931929709030870510201900000000000000000000000000000000001352               00                            3
044080884016192970673542410201900000000000135518CANCEL.DE VENDAS            422061******667100097759987124092019144267000000000034673030949817240920190808840163192970903087052410201931929709030870510201900000000000000000000000000000000001355               00                            3
044080884016192970673552410201900000000000135518CANCEL.DE VENDAS            422061******667100097759987124092019144267000000000034673030949817240920190808840163192970903087052410201931929709030870510201900000000000000000000000000000000001355               00                            3
044080884016192970673562410201900000000000135518CANCEL.DE VENDAS            422061******667100097759987124092019144267000000000034673030949817240920190808840163192970903087052410201931929709030870510201900000000000000000000000000000000001355               00                            3
044080884016192970673572410201900000000000135518CANCEL.DE VENDAS            422061******667100097759987124092019144267000000000034673030949817240920190808840163192970903087052410201931929709030870510201900000000000000000000000000000000001355               00                            3
044080884016192970673582410201900000000000058318CANCEL.DE VENDAS            478309******986100098465206519092019003783000000000049144004349468190920190808840163192970903087152410201931929709030871510201900000000000000000000000000000000000583               00                            3
044080884016192970673592410201900000000000058318CANCEL.DE VENDAS            478309******986100098465206519092019003783000000000049144004349468190920190808840163192970903087152410201931929709030871510201900000000000000000000000000000000000583               00                            3
044080884016192970673602410201900000000000699818CANCEL.DE VENDAS            546056******268000097919002315092019020112000000000035743002349254150920190808840163192970903087322410201931929709030873210201900000000000000000000000000000000006998               00                            1
044080884016192970673612410201900000000000699518CANCEL.DE VENDAS            546056******268000097919002315092019020112000000000035743002349254150920190808840163192970903087322410201931929709030873210201900000000000000000000000000000000006995               00                            1
044080884016192970673622410201900000000000699518CANCEL.DE VENDAS            546056******268000097919002315092019020112000000000035743002349254150920190808840163192970903087322410201931929709030873210201900000000000000000000000000000000006995               00                            1
044080884016192970673632410201900000000000699518CANCEL.DE VENDAS            546056******268000097919002315092019020112000000000035743002349254150920190808840163192970903087322410201931929709030873210201900000000000000000000000000000000006995               00                            1
044080884016192970673642410201900000000000699518CANCEL.DE VENDAS            546056******268000097919002315092019020112000000000035743002349254150920190808840163192970903087322410201931929709030873210201900000000000000000000000000000000006995               00                            1
044080884016192970673652410201900000000000218318CANCEL.DE VENDAS            528392******006600099597118730092019056636000000000020902002149478300920190808840163192970903087552410201931929709030875510201900000000000000000000000000000000002183               00                            1
044080884016192970673662410201900000000000218318CANCEL.DE VENDAS            528392******006600099597118730092019056636000000000020902002149478300920190808840163192970903087552410201931929709030875510201900000000000000000000000000000000002183               00                            1
044080884016192970673672410201900000000000218318CANCEL.DE VENDAS            528392******006600099597118730092019056636000000000020902002149478300920190808840163192970903087552410201931929709030875510201900000000000000000000000000000000002183               00                            1
044080884016192970673682410201900000000000622818CANCEL.DE VENDAS            550209******789100098831405101092019237364000000000018064026249779010920190808840163192970903087692410201931929709030876910201900000000000000000000000000000000006228               00                            1
044080884016192970673692410201900000000000622818CANCEL.DE VENDAS            550209******789100098831405101092019237364000000000018064026249779010920190808840163192970903087692410201931929709030876910201900000000000000000000000000000000006228               00                            1
044080884016192970673702410201900000000000577518CANCEL.DE VENDAS            536805******341300099955882330092019690743000000000041969002149478300920190808840163192970903087712410201931929709030877110201900000000000000000000000000000000005775               00                            1
044080884016192970673712410201900000000000577618CANCEL.DE VENDAS            536805******341300099955882330092019690743000000000041969002149478300920190808840163192970903087712410201931929709030877110201900000000000000000000000000000000005776               00                            1
044080884016192970673722410201900000000000577618CANCEL.DE VENDAS            536805******341300099955882330092019690743000000000041969002149478300920190808840163192970903087712410201931929709030877110201900000000000000000000000000000000005776               00                            1
044080884016192970673732410201900000000000577618CANCEL.DE VENDAS            536805******341300099955882330092019690743000000000041969002149478300920190808840163192970903087712410201931929709030877110201900000000000000000000000000000000005776               00                            1
044080884016192970673742410201900000000000506918CANCEL.DE VENDAS            515590******658100098977135321072019181269000000000014308002649617210720190808840163192970903087762410201931929709030877610201900000000000000000000000000000000005069               00                            1
044080884016192970673752410201900000000000506918CANCEL.DE VENDAS            515590******658100098977135321072019181269000000000014308002649617210720190808840163192970903087762410201931929709030877610201900000000000000000000000000000000005069               00                            1
044080884016192970673762410201900000000000042718CANCEL.DE VENDAS            606282******093100099642253323092019069093000000000054219018149561230920190808840163192970903087802410201931929709030878010201900000000000000000000000000000000000427               00                            5
044080884016192970673772410201900000000000042718CANCEL.DE VENDAS            606282******093100099642253323092019069093000000000054219018149561230920190808840163192970903087802410201931929709030878010201900000000000000000000000000000000000427               00                            5
044080884016192970673782410201900000000000042718CANCEL.DE VENDAS            606282******093100099642253323092019069093000000000054219018149561230920190808840163192970903087802410201931929709030878010201900000000000000000000000000000000000427               00                            5
044080884016192970673792410201900000000000042718CANCEL.DE VENDAS            606282******093100099642253323092019069093000000000054219018149561230920190808840163192970903087802410201931929709030878010201900000000000000000000000000000000000427               00                            5
044080884016192970673802410201900000000000042718CANCEL.DE VENDAS            606282******093100099642253323092019069093000000000054219018149561230920190808840163192970903087802410201931929709030878010201900000000000000000000000000000000000427               00                            5
044080884016192970673812410201900000000001772418CANCEL.DE VENDAS            498401******747900002144355726082019976335000000000054337056649934260820190808840163192970903088282410201931929709030882810201900000000000000000000000000000000017724               00                            3
044080884016192970673822410201900000000001772518CANCEL.DE VENDAS            498401******747900002144355726082019976335000000000054337056649934260820190808840163192970903088282410201931929709030882810201900000000000000000000000000000000017725               00                            3
044080884016192970673832410201900000000001772518CANCEL.DE VENDAS            498401******747900002144355726082019976335000000000054337056649934260820190808840163192970903088282410201931929709030882810201900000000000000000000000000000000017725               00                            3
044080884016192970673842410201900000000000477918CANCEL.DE VENDAS            526863******793400098615445319092019018287000000000023029020549028190920190808840163192970903088472410201931929709030884710201900000000000000000000000000000000004779               00                            1
044080884016192970673852410201900000000000478018CANCEL.DE VENDAS            526863******793400098615445319092019018287000000000023029020549028190920190808840163192970903088472410201931929709030884710201900000000000000000000000000000000004780               00                            1
044080884016192970673862410201900000000000478018CANCEL.DE VENDAS            526863******793400098615445319092019018287000000000023029020549028190920190808840163192970903088472410201931929709030884710201900000000000000000000000000000000004780               00                            1
044080884016192970673872410201900000000000332418CANCEL.DE VENDAS            553665******680800094234284702092019057245000000000027192053249857020920190808840163192970903088542410201931929709030885410201900000000000000000000000000000000003324               00                            1
044080884016192970673882410201900000000000332718CANCEL.DE VENDAS            553665******680800094234284702092019057245000000000027192053249857020920190808840163192970903088542410201931929709030885410201900000000000000000000000000000000003327               00                            1
044080884016192970673892410201900000000000332718CANCEL.DE VENDAS            553665******680800094234284702092019057245000000000027192053249857020920190808840163192970903088542410201931929709030885410201900000000000000000000000000000000003327               00                            1
044080884016192970673902410201900000000000332718CANCEL.DE VENDAS            553665******680800094234284702092019057245000000000027192053249857020920190808840163192970903088542410201931929709030885410201900000000000000000000000000000000003327               00                            1
044080884016192970673912410201900000000000804318CANCEL.DE VENDAS            554906******687300002911300706092019087817000000000016437072949364060920190808840163192970903089172410201931929709030891710201900000000000000000000000000000000008043               00                            1
044080884016192970673922410201900000000000804218CANCEL.DE VENDAS            554906******687300002911300706092019087817000000000016437072949364060920190808840163192970903089172410201931929709030891710201900000000000000000000000000000000008042               00                            1
044080884016192970673932410201900000000000072418CANCEL.DE VENDAS            402934******001400099956838530092019141912000000000033142086549615300920190808840163192970903089202410201931929709030892010201900000000000000000000000000000000000724               00                            3
044080884016192970673942410201900000000000072618CANCEL.DE VENDAS            402934******001400099956838530092019141912000000000033142086549615300920190808840163192970903089202410201931929709030892010201900000000000000000000000000000000000726               00                            3
044080884016192970673952410201900000000000072618CANCEL.DE VENDAS            402934******001400099956838530092019141912000000000033142086549615300920190808840163192970903089202410201931929709030892010201900000000000000000000000000000000000726               00                            3
044080884016192970673962410201900000000000072618CANCEL.DE VENDAS            402934******001400099956838530092019141912000000000033142086549615300920190808840163192970903089202410201931929709030892010201900000000000000000000000000000000000726               00                            3
044080884016192970673972410201900000000000022518CANCEL.DE VENDAS            553636******393400099174449101072019000599000000000040251051849676010720190808840163192970903089742410201931929709030897410201900000000000000000000000000000000000225               00                            1
044080884016192970673982410201900000000000022518CANCEL.DE VENDAS            553636******393400099174449101072019000599000000000040251051849676010720190808840163192970903089742410201931929709030897410201900000000000000000000000000000000000225               00                            1
044080884016192970673992410201900000000000022518CANCEL.DE VENDAS            553636******393400099174449101072019000599000000000040251051849676010720190808840163192970903089742410201931929709030897410201900000000000000000000000000000000000225               00                            1
044080884016192970674002410201900000000000022518CANCEL.DE VENDAS            553636******393400099174449101072019000599000000000040251051849676010720190808840163192970903089742410201931929709030897410201900000000000000000000000000000000000225               00                            1
044080884016192970674012410201900000000000022518CANCEL.DE VENDAS            553636******393400099174449101072019000599000000000040251051849676010720190808840163192970903089742410201931929709030897410201900000000000000000000000000000000000225               00                            1
044080884016192970674022410201900000000000022518CANCEL.DE VENDAS            553636******393400099174449101072019000599000000000040251051849676010720190808840163192970903089742410201931929709030897410201900000000000000000000000000000000000225               00                            1
044080884016192970674032410201900000000000610818CANCEL.DE VENDAS            444456******724600099119428314102019045913000000000018727071049827141020190808840163192970903089952410201931929709030899510201900000000000000000000000000000000006108               00                            3
044080884016192970674042410201900000000000610918CANCEL.DE VENDAS            444456******724600099119428314102019045913000000000018727071049827141020190808840163192970903089952410201931929709030899510201900000000000000000000000000000000006109               00                            3
044080884016192970674052410201900000000000610918CANCEL.DE VENDAS            444456******724600099119428314102019045913000000000018727071049827141020190808840163192970903089952410201931929709030899510201900000000000000000000000000000000006109               00                            3
044080884016192970674062410201900000000000288318CANCEL.DE VENDAS            552236******320600099982248330092019098309000000000026612002149478300920190808840163192970903089992410201931929709030899910201900000000000000000000000000000000002883               00                            1
044080884016192970674072410201900000000000288318CANCEL.DE VENDAS            552236******320600099982248330092019098309000000000026612002149478300920190808840163192970903089992410201931929709030899910201900000000000000000000000000000000002883               00                            1
044080884016192970674082410201900000000000288318CANCEL.DE VENDAS            552236******320600099982248330092019098309000000000026612002149478300920190808840163192970903089992410201931929709030899910201900000000000000000000000000000000002883               00                            1
044080884016192970674092410201900000000000288318CANCEL.DE VENDAS            552236******320600099982248330092019098309000000000026612002149478300920190808840163192970903089992410201931929709030899910201900000000000000000000000000000000002883               00                            1
044080884016192970674102410201900000000005914418CANCEL.DE VENDAS            512267******313600098581639530092019R14408000000000362619002149478300920190808840163192970922110412410201931929709221104110201900000000000000000000000000000000059144               00                            1
044080884016192970674112410201900000000005914318CANCEL.DE VENDAS            512267******313600098581639530092019R14408000000000362619002149478300920190808840163192970922110412410201931929709221104110201900000000000000000000000000000000059143               00                            1
044080884016192970674122410201900000000005914318CANCEL.DE VENDAS            512267******313600098581639530092019R14408000000000362619002149478300920190808840163192970922110412410201931929709221104110201900000000000000000000000000000000059143               00                            1
