03022102019RedecardExtrato de Movimentacao FinanceiraWESTWING              000480038959011DIARIO         V3.01 - 09/06 - EEFI
032038959011WESTWING              
040038959011000000000000000000000109201930092019000000000000000
040038977672000000000000000000000109201930092019000000000000000
040067603335000000000000000000000109201930092019000000000000000
040077879899000000000000000000000109201930092019000000000000000
044077879899192940777682110201900000000000028318CANCEL.DE VENDAS            515590******783400000536808520092019085669000000000017924049649233200920190778798993192941011381982110201931929410113819810201900000000000000000000000000000000000283               00                            1
044077879899192940777692110201900000000000028318CANCEL.DE VENDAS            515590******783400000536808520092019085669000000000017924049649233200920190778798993192941011381982110201931929410113819810201900000000000000000000000000000000000283               00                            1
044077879899192940777702110201900000000000028318CANCEL.DE VENDAS            515590******783400000536808520092019085669000000000017924049649233200920190778798993192941011381982110201931929410113819810201900000000000000000000000000000000000283               00                            1
044077879899192940777712110201900000000000028318CANCEL.DE VENDAS            515590******783400000536808520092019085669000000000017924049649233200920190778798993192941011381982110201931929410113819810201900000000000000000000000000000000000283               00                            1
044077879899192940777722110201900000000000028318CANCEL.DE VENDAS            515590******783400000536808520092019085669000000000017924049649233200920190778798993192941011381982110201931929410113819810201900000000000000000000000000000000000283               00                            1
044077879899192940777732110201900000000000028318CANCEL.DE VENDAS            515590******783400000536808520092019085669000000000017924049649233200920190778798993192941011381982110201931929410113819810201900000000000000000000000000000000000283               00                            1
044077879899192940777742110201900000000001109318CANCEL.DE VENDAS            514868******044800001797117109092019033322000000000106151030149612090920190778798993192941011386462110201931929410113864610201900000000000000000000000000000000011093               00                            1
044077879899192940777752110201900000000001109418CANCEL.DE VENDAS            514868******044800001797117109092019033322000000000106151030149612090920190778798993192941011386462110201931929410113864610201900000000000000000000000000000000011094               00                            1
044077879899192940777762110201900000000001109418CANCEL.DE VENDAS            514868******044800001797117109092019033322000000000106151030149612090920190778798993192941011386462110201931929410113864610201900000000000000000000000000000000011094               00                            1
044077879899192940777772110201900000000001859818CANCEL.DE VENDAS            491675******692600000217544311092019280897000000000088025075949502110920190778798993192941011388342110201931929410113883410201900000000000000000000000000000000018598               00                            3
044077879899192940777782110201900000000001860118CANCEL.DE VENDAS            491675******692600000217544311092019280897000000000088025075949502110920190778798993192941011388342110201931929410113883410201900000000000000000000000000000000018601               00                            3
044077879899192940777792110201900000000001860118CANCEL.DE VENDAS            491675******692600000217544311092019280897000000000088025075949502110920190778798993192941011388342110201931929410113883410201900000000000000000000000000000000018601               00                            3
044077879899192940777802110201900000000001860118CANCEL.DE VENDAS            491675******692600000217544311092019280897000000000088025075949502110920190778798993192941011388342110201931929410113883410201900000000000000000000000000000000018601               00                            3
040080884016000000000000000000000109201930092019000000000000000
044080884016192940934252110201900000000000441418CANCEL.DE VENDAS            422061******772500098930364107092019523852000000000054573081749987070920190808840163192941129400152110201931929411294001510201900000000000000000000000000000000004414               00                            3
044080884016192940934262110201900000000000441818CANCEL.DE VENDAS            422061******772500098930364107092019523852000000000054573081749987070920190808840163192941129400152110201931929411294001510201900000000000000000000000000000000004418               00                            3
044080884016192940934272110201900000000000441818CANCEL.DE VENDAS            422061******772500098930364107092019523852000000000054573081749987070920190808840163192941129400152110201931929411294001510201900000000000000000000000000000000004418               00                            3
044080884016192940934282110201900000000000441818CANCEL.DE VENDAS            422061******772500098930364107092019523852000000000054573081749987070920190808840163192941129400152110201931929411294001510201900000000000000000000000000000000004418               00                            3
044080884016192940934292110201900000000000441818CANCEL.DE VENDAS            422061******772500098930364107092019523852000000000054573081749987070920190808840163192941129400152110201931929411294001510201900000000000000000000000000000000004418               00                            3
044080884016192940934302110201900000000000193118CANCEL.DE VENDAS            498406******749400097496666931082019093335000000000057202000349717310820190808840163192941129401962110201931929411294019610201900000000000000000000000000000000001931               00                            3
044080884016192940934312110201900000000000193018CANCEL.DE VENDAS            498406******749400097496666931082019093335000000000057202000349717310820190808840163192941129401962110201931929411294019610201900000000000000000000000000000000001930               00                            3
044080884016192940934322110201900000000000193018CANCEL.DE VENDAS            498406******749400097496666931082019093335000000000057202000349717310820190808840163192941129401962110201931929411294019610201900000000000000000000000000000000001930               00                            3
044080884016192940934332110201900000000000193018CANCEL.DE VENDAS            498406******749400097496666931082019093335000000000057202000349717310820190808840163192941129401962110201931929411294019610201900000000000000000000000000000000001930               00                            3
044080884016192940934342110201900000000000193018CANCEL.DE VENDAS            498406******749400097496666931082019093335000000000057202000349717310820190808840163192941129401962110201931929411294019610201900000000000000000000000000000000001930               00                            3
044080884016192940934352110201900000000002982118CANCEL.DE VENDAS            490172******751200098495993322092019050910000000000127776086549701220920190808840163192941129404872110201931929411294048710201900000000000000000000000000000000029821               00                            3
044080884016192940934362110201900000000002982018CANCEL.DE VENDAS            490172******751200098495993322092019050910000000000127776086549701220920190808840163192941129404872110201931929411294048710201900000000000000000000000000000000029820               00                            3
044080884016192940934372110201900000000002982018CANCEL.DE VENDAS            490172******751200098495993322092019050910000000000127776086549701220920190808840163192941129404872110201931929411294048710201900000000000000000000000000000000029820               00                            3
044080884016192940934382110201900000000002982018CANCEL.DE VENDAS            490172******751200098495993322092019050910000000000127776086549701220920190808840163192941129404872110201931929411294048710201900000000000000000000000000000000029820               00                            3
044080884016192940934392110201900000000000702718CANCEL.DE VENDAS            522840******869600098504732719092019212575000000000102406020549028190920190808840163192941129404882110201931929411294048810201900000000000000000000000000000000007027               00                            1
044080884016192940934402110201900000000000702918CANCEL.DE VENDAS            522840******869600098504732719092019212575000000000102406020549028190920190808840163192941129404882110201931929411294048810201900000000000000000000000000000000007029               00                            1
044080884016192940934412110201900000000000702918CANCEL.DE VENDAS            522840******869600098504732719092019212575000000000102406020549028190920190808840163192941129404882110201931929411294048810201900000000000000000000000000000000007029               00                            1
044080884016192940934422110201900000000001033918CANCEL.DE VENDAS            529323******291800001156862702082019042463000000000063391031849488020820190808840163192941129407252110201931929411294072510201900000000000000000000000000000000010339               00                            1
044080884016192940934432110201900000000001033918CANCEL.DE VENDAS            529323******291800001156862702082019042463000000000063391031849488020820190808840163192941129407252110201931929411294072510201900000000000000000000000000000000010339               00                            1
044080884016192940934442110201900000000001033918CANCEL.DE VENDAS            529323******291800001156862702082019042463000000000063391031849488020820190808840163192941129407252110201931929411294072510201900000000000000000000000000000000010339               00                            1
044080884016192940934452110201900000000001033918CANCEL.DE VENDAS            529323******291800001156862702082019042463000000000063391031849488020820190808840163192941129407252110201931929411294072510201900000000000000000000000000000000010339               00                            1
044080884016192940934462110201900000000001033918CANCEL.DE VENDAS            529323******291800001156862702082019042463000000000063391031849488020820190808840163192941129407252110201931929411294072510201900000000000000000000000000000000010339               00                            1
044080884016192940934472110201900000000001033918CANCEL.DE VENDAS            529323******291800001156862702082019042463000000000063391031849488020820190808840163192941129407252110201931929411294072510201900000000000000000000000000000000010339               00                            1
044080884016192940934482110201900000000001384418CANCEL.DE VENDAS            544540******353300099215978726092019025268000000000028294002549200260920190808840163192941129407872110201931929411294078710201900000000000000000000000000000000013844               00                            1
044080884016192940934492110201900000000001384518CANCEL.DE VENDAS            544540******353300099215978726092019025268000000000028294002549200260920190808840163192941129407872110201931929411294078710201900000000000000000000000000000000013845               00                            1
044080884016192940934502110201900000000000185518CANCEL.DE VENDAS            515590******820200099206110922092019230067000000000047439091549543220920190808840163192941129408692110201931929411294086910201900000000000000000000000000000000001855               00                            1
044080884016192940934512110201900000000000185718CANCEL.DE VENDAS            515590******820200099206110922092019230067000000000047439091549543220920190808840163192941129408692110201931929411294086910201900000000000000000000000000000000001857               00                            1
044080884016192940934522110201900000000000185718CANCEL.DE VENDAS            515590******820200099206110922092019230067000000000047439091549543220920190808840163192941129408692110201931929411294086910201900000000000000000000000000000000001857               00                            1
044080884016192940934532110201900000000000185718CANCEL.DE VENDAS            515590******820200099206110922092019230067000000000047439091549543220920190808840163192941129408692110201931929411294086910201900000000000000000000000000000000001857               00                            1
044080884016192940934542110201900000000000185718CANCEL.DE VENDAS            515590******820200099206110922092019230067000000000047439091549543220920190808840163192941129408692110201931929411294086910201900000000000000000000000000000000001857               00                            1
044080884016192940934552110201900000000000459918CANCEL.DE VENDAS            515601******369300097374216531082019923845000000000029678016649638310820190808840163192941129408712110201931929411294087110201900000000000000000000000000000000004599               00                            1
044080884016192940934562110201900000000000459918CANCEL.DE VENDAS            515601******369300097374216531082019923845000000000029678016649638310820190808840163192941129408712110201931929411294087110201900000000000000000000000000000000004599               00                            1
044080884016192940934572110201900000000000098118CANCEL.DE VENDAS            489391******552700095329717117092019096479000000000022477044249858170920190808840163192941129408882110201931929411294088810201900000000000000000000000000000000000981               00                            3
044080884016192940934582110201900000000000098118CANCEL.DE VENDAS            489391******552700095329717117092019096479000000000022477044249858170920190808840163192941129408882110201931929411294088810201900000000000000000000000000000000000981               00                            3
044080884016192940934592110201900000000000098118CANCEL.DE VENDAS            489391******552700095329717117092019096479000000000022477044249858170920190808840163192941129408882110201931929411294088810201900000000000000000000000000000000000981               00                            3
044080884016192940934602110201900000000001263418CANCEL.DE VENDAS            459080******586900098832494718082019049010000000000137141057449547180820190808840163192941129409162110201931929411294091610201900000000000000000000000000000000012634               00                            3
044080884016192940934612110201900000000001263418CANCEL.DE VENDAS            459080******586900098832494718082019049010000000000137141057449547180820190808840163192941129409162110201931929411294091610201900000000000000000000000000000000012634               00                            3
044080884016192940934622110201900000000001263418CANCEL.DE VENDAS            459080******586900098832494718082019049010000000000137141057449547180820190808840163192941129409162110201931929411294091610201900000000000000000000000000000000012634               00                            3
044080884016192940934632110201900000000000323418CANCEL.DE VENDAS            421847******733100097869203125092019091272000000000033904059049571250920190808840163192941129409312110201931929411294093110201900000000000000000000000000000000003234               00                            3
044080884016192940934642110201900000000000323518CANCEL.DE VENDAS            421847******733100097869203125092019091272000000000033904059049571250920190808840163192941129409312110201931929411294093110201900000000000000000000000000000000003235               00                            3
044080884016192940934652110201900000000000323518CANCEL.DE VENDAS            421847******733100097869203125092019091272000000000033904059049571250920190808840163192941129409312110201931929411294093110201900000000000000000000000000000000003235               00                            3
044080884016192940934662110201900000000000323518CANCEL.DE VENDAS            421847******733100097869203125092019091272000000000033904059049571250920190808840163192941129409312110201931929411294093110201900000000000000000000000000000000003235               00                            3
044080884016192940934672110201900000000000323518CANCEL.DE VENDAS            421847******733100097869203125092019091272000000000033904059049571250920190808840163192941129409312110201931929411294093110201900000000000000000000000000000000003235               00                            3
044080884016192940934682110201900000000000362518CANCEL.DE VENDAS            523421******747700099001064320092019708107000000000015010050649876200920190808840163192941129409402110201931929411294094010201900000000000000000000000000000000003625               00                            1
044080884016192940934692110201900000000000362618CANCEL.DE VENDAS            523421******747700099001064320092019708107000000000015010050649876200920190808840163192941129409402110201931929411294094010201900000000000000000000000000000000003626               00                            1
044080884016192940934702110201900000000001451318CANCEL.DE VENDAS            553636******738800098835140718082019091202000000000129341062449929180820190808840163192941129409532110201931929411294095310201900000000000000000000000000000000014513               00                            1
044080884016192940934712110201900000000001451518CANCEL.DE VENDAS            553636******738800098835140718082019091202000000000129341062449929180820190808840163192941129409532110201931929411294095310201900000000000000000000000000000000014515               00                            1
044080884016192940934722110201900000000001451518CANCEL.DE VENDAS            553636******738800098835140718082019091202000000000129341062449929180820190808840163192941129409532110201931929411294095310201900000000000000000000000000000000014515               00                            1
044080884016192940934732110201900000000001451518CANCEL.DE VENDAS            553636******738800098835140718082019091202000000000129341062449929180820190808840163192941129409532110201931929411294095310201900000000000000000000000000000000014515               00                            1
044080884016192940934742110201900000000000157618CANCEL.DE VENDAS            498408******869300098274887101092019745445000000000051289021349903010920190808840163192941129410242110201931929411294102410201900000000000000000000000000000000001576               00                            3
044080884016192940934752110201900000000000157618CANCEL.DE VENDAS            498408******869300098274887101092019745445000000000051289021349903010920190808840163192941129410242110201931929411294102410201900000000000000000000000000000000001576               00                            3
044080884016192940934762110201900000000000157618CANCEL.DE VENDAS            498408******869300098274887101092019745445000000000051289021349903010920190808840163192941129410242110201931929411294102410201900000000000000000000000000000000001576               00                            3
044080884016192940934772110201900000000000157618CANCEL.DE VENDAS            498408******869300098274887101092019745445000000000051289021349903010920190808840163192941129410242110201931929411294102410201900000000000000000000000000000000001576               00                            3
044080884016192940934782110201900000000000157618CANCEL.DE VENDAS            498408******869300098274887101092019745445000000000051289021349903010920190808840163192941129410242110201931929411294102410201900000000000000000000000000000000001576               00                            3
044080884016192940934792110201900000000001017718CANCEL.DE VENDAS            515590******728200098836926930092019284958000000000062413002149478300920190808840163192941129410262110201931929411294102610201900000000000000000000000000000000010177               00                            1
044080884016192940934802110201900000000001018018CANCEL.DE VENDAS            515590******728200098836926930092019284958000000000062413002149478300920190808840163192941129410262110201931929411294102610201900000000000000000000000000000000010180               00                            1
044080884016192940934812110201900000000001018018CANCEL.DE VENDAS            515590******728200098836926930092019284958000000000062413002149478300920190808840163192941129410262110201931929411294102610201900000000000000000000000000000000010180               00                            1
044080884016192940934822110201900000000001018018CANCEL.DE VENDAS            515590******728200098836926930092019284958000000000062413002149478300920190808840163192941129410262110201931929411294102610201900000000000000000000000000000000010180               00                            1
044080884016192940934832110201900000000000691418CANCEL.DE VENDAS            549159******296700099377214331072019602045000000000061741072649072310720190808840163192941129410622110201931929411294106210201900000000000000000000000000000000006914               00                            1
044080884016192940934842110201900000000000691118CANCEL.DE VENDAS            549159******296700099377214331072019602045000000000061741072649072310720190808840163192941129410622110201931929411294106210201900000000000000000000000000000000006911               00                            1
044080884016192940934852110201900000000000691118CANCEL.DE VENDAS            549159******296700099377214331072019602045000000000061741072649072310720190808840163192941129410622110201931929411294106210201900000000000000000000000000000000006911               00                            1
044080884016192940934862110201900000000000691118CANCEL.DE VENDAS            549159******296700099377214331072019602045000000000061741072649072310720190808840163192941129410622110201931929411294106210201900000000000000000000000000000000006911               00                            1
044080884016192940934872110201900000000000691118CANCEL.DE VENDAS            549159******296700099377214331072019602045000000000061741072649072310720190808840163192941129410622110201931929411294106210201900000000000000000000000000000000006911               00                            1
044080884016192940934882110201900000000000691118CANCEL.DE VENDAS            549159******296700099377214331072019602045000000000061741072649072310720190808840163192941129410622110201931929411294106210201900000000000000000000000000000000006911               00                            1
044080884016192940934892110201900000000000256018CANCEL.DE VENDAS            406669******517900099553870709092019644974000000000012332011349579090920190808840163192941129410762110201931929411294107610201900000000000000000000000000000000002560               00                            3
044080884016192940934902110201900000000000255918CANCEL.DE VENDAS            406669******517900099553870709092019644974000000000012332011349579090920190808840163192941129410762110201931929411294107610201900000000000000000000000000000000002559               00                            3
044080884016192940934912110201900000000000441918CANCEL.DE VENDAS            422061******772500098452608714092019493152000000000016468073949853140920190808840163192941129410782110201931929411294107810201900000000000000000000000000000000004419               00                            3
044080884016192940934922110201900000000000442018CANCEL.DE VENDAS            422061******772500098452608714092019493152000000000016468073949853140920190808840163192941129410782110201931929411294107810201900000000000000000000000000000000004420               00                            3
044080884016192940934932110201900000000000473918CANCEL.DE VENDAS            498406******663200098518887118092019093882000000000019756074249624180920190808840163192941129411542110201931929411294115410201900000000000000000000000000000000004739               00                            3
044080884016192940934942110201900000000000474018CANCEL.DE VENDAS            498406******663200098518887118092019093882000000000019756074249624180920190808840163192941129411542110201931929411294115410201900000000000000000000000000000000004740               00                            3
044080884016192940934952110201900000000000231818CANCEL.DE VENDAS            498453******787000098434796907092019017579000000000017871081749987070920190808840163192941129411682110201931929411294116810201900000000000000000000000000000000002318               00                            3
044080884016192940934962110201900000000000231918CANCEL.DE VENDAS            498453******787000098434796907092019017579000000000017871081749987070920190808840163192941129411682110201931929411294116810201900000000000000000000000000000000002319               00                            3
044080884016192940934972110201900000000000454718CANCEL.DE VENDAS            515787******490700098548696706092019856041000000000030497072949364060920190808840163192941129412042110201931929411294120410201900000000000000000000000000000000004547               00                            1
044080884016192940934982110201900000000000454818CANCEL.DE VENDAS            515787******490700098548696706092019856041000000000030497072949364060920190808840163192941129412042110201931929411294120410201900000000000000000000000000000000004548               00                            1
044080884016192940934992110201900000000000261418CANCEL.DE VENDAS            419628******209700098983223121082019414270000000000044623030549801210820190808840163192941129412172110201931929411294121710201900000000000000000000000000000000002614               00                            3
044080884016192940935002110201900000000000261318CANCEL.DE VENDAS            419628******209700098983223121082019414270000000000044623030549801210820190808840163192941129412172110201931929411294121710201900000000000000000000000000000000002613               00                            3
044080884016192940935012110201900000000000261318CANCEL.DE VENDAS            419628******209700098983223121082019414270000000000044623030549801210820190808840163192941129412172110201931929411294121710201900000000000000000000000000000000002613               00                            3
044080884016192940935022110201900000000000261318CANCEL.DE VENDAS            419628******209700098983223121082019414270000000000044623030549801210820190808840163192941129412172110201931929411294121710201900000000000000000000000000000000002613               00                            3
044080884016192940935032110201900000000000739718CANCEL.DE VENDAS            421958******347000098271654521082019682779000000000068106030549801210820190808840163192941129412242110201931929411294122410201900000000000000000000000000000000007397               00                            3
044080884016192940935042110201900000000000740218CANCEL.DE VENDAS            421958******347000098271654521082019682779000000000068106030549801210820190808840163192941129412242110201931929411294122410201900000000000000000000000000000000007402               00                            3
044080884016192940935052110201900000000000740218CANCEL.DE VENDAS            421958******347000098271654521082019682779000000000068106030549801210820190808840163192941129412242110201931929411294122410201900000000000000000000000000000000007402               00                            3
044080884016192940935062110201900000000000740218CANCEL.DE VENDAS            421958******347000098271654521082019682779000000000068106030549801210820190808840163192941129412242110201931929411294122410201900000000000000000000000000000000007402               00                            3
044080884016192940935072110201900000000000740218CANCEL.DE VENDAS            421958******347000098271654521082019682779000000000068106030549801210820190808840163192941129412242110201931929411294122410201900000000000000000000000000000000007402               00                            3
044080884016192940935082110201900000000000740218CANCEL.DE VENDAS            421958******347000098271654521082019682779000000000068106030549801210820190808840163192941129412242110201931929411294122410201900000000000000000000000000000000007402               00                            3
044080884016192940935092110201900000000000127118CANCEL.DE VENDAS            553636******610400099030289701102019015743000000000037609030849928011020190808840163192941129412252110201931929411294122510201900000000000000000000000000000000001271               00                            1
044080884016192940935102110201900000000000127118CANCEL.DE VENDAS            553636******610400099030289701102019015743000000000037609030849928011020190808840163192941129412252110201931929411294122510201900000000000000000000000000000000001271               00                            1
044080884016192940935112110201900000000000127118CANCEL.DE VENDAS            553636******610400099030289701102019015743000000000037609030849928011020190808840163192941129412252110201931929411294122510201900000000000000000000000000000000001271               00                            1
044080884016192940935122110201900000000000127118CANCEL.DE VENDAS            553636******610400099030289701102019015743000000000037609030849928011020190808840163192941129412252110201931929411294122510201900000000000000000000000000000000001271               00                            1
044080884016192940935132110201900000000000432318CANCEL.DE VENDAS            422061******734600000295886523072019045578000000000102900043949052230720190808840163192941129413002110201931929411294130010201900000000000000000000000000000000004323               00                            3
044080884016192940935142110201900000000000432318CANCEL.DE VENDAS            422061******734600000295886523072019045578000000000102900043949052230720190808840163192941129413002110201931929411294130010201900000000000000000000000000000000004323               00                            3
044080884016192940935152110201900000000000432318CANCEL.DE VENDAS            422061******734600000295886523072019045578000000000102900043949052230720190808840163192941129413002110201931929411294130010201900000000000000000000000000000000004323               00                            3
044080884016192940935162110201900000000000432318CANCEL.DE VENDAS            422061******734600000295886523072019045578000000000102900043949052230720190808840163192941129413002110201931929411294130010201900000000000000000000000000000000004323               00                            3
044080884016192940935172110201900000000000337418CANCEL.DE VENDAS            549167******957400099962591530092019043976000000000034137002149478300920190808840163192941129413462110201931929411294134610201900000000000000000000000000000000003374               00                            1
044080884016192940935182110201900000000000337718CANCEL.DE VENDAS            549167******957400099962591530092019043976000000000034137002149478300920190808840163192941129413462110201931929411294134610201900000000000000000000000000000000003377               00                            1
044080884016192940935192110201900000000000337718CANCEL.DE VENDAS            549167******957400099962591530092019043976000000000034137002149478300920190808840163192941129413462110201931929411294134610201900000000000000000000000000000000003377               00                            1
044080884016192940935202110201900000000000337718CANCEL.DE VENDAS            549167******957400099962591530092019043976000000000034137002149478300920190808840163192941129413462110201931929411294134610201900000000000000000000000000000000003377               00                            1
044080884016192940935212110201900000000000428418CANCEL.DE VENDAS            490172******509800000460076713102019014436000000000038123051749985131020190808840163192941129413512110201931929411294135110201900000000000000000000000000000000004284               00                            3
044080884016192940935222110201900000000000428618CANCEL.DE VENDAS            490172******509800000460076713102019014436000000000038123051749985131020190808840163192941129413512110201931929411294135110201900000000000000000000000000000000004286               00                            3
044080884016192940935232110201900000000000428618CANCEL.DE VENDAS            490172******509800000460076713102019014436000000000038123051749985131020190808840163192941129413512110201931929411294135110201900000000000000000000000000000000004286               00                            3
044080884016192940935242110201900000000000709818CANCEL.DE VENDAS            498423******016100099240682121082019087050000000000049090030549801210820190808840163192941129413622110201931929411294136210201900000000000000000000000000000000007098               00                            3
044080884016192940935252110201900000000000709418CANCEL.DE VENDAS            498423******016100099240682121082019087050000000000049090030549801210820190808840163192941129413622110201931929411294136210201900000000000000000000000000000000007094               00                            3
044080884016192940935262110201900000000000709418CANCEL.DE VENDAS            498423******016100099240682121082019087050000000000049090030549801210820190808840163192941129413622110201931929411294136210201900000000000000000000000000000000007094               00                            3
044080884016192940935272110201900000000000709418CANCEL.DE VENDAS            498423******016100099240682121082019087050000000000049090030549801210820190808840163192941129413622110201931929411294136210201900000000000000000000000000000000007094               00                            3
044080884016192940935282110201900000000000709418CANCEL.DE VENDAS            498423******016100099240682121082019087050000000000049090030549801210820190808840163192941129413622110201931929411294136210201900000000000000000000000000000000007094               00                            3
044080884016192940935292110201900000000000709418CANCEL.DE VENDAS            498423******016100099240682121082019087050000000000049090030549801210820190808840163192941129413622110201931929411294136210201900000000000000000000000000000000007094               00                            3
044080884016192940935302110201900000000002574718CANCEL.DE VENDAS            498408******556100099064115931082019056187000000000078926000349717310820190808840163192941129413742110201931929411294137410201900000000000000000000000000000000025747               00                            3
044080884016192940935312110201900000000002574518CANCEL.DE VENDAS            498408******556100099064115931082019056187000000000078926000349717310820190808840163192941129413742110201931929411294137410201900000000000000000000000000000000025745               00                            3
044080884016192940935322110201900000000002574518CANCEL.DE VENDAS            498408******556100099064115931082019056187000000000078926000349717310820190808840163192941129413742110201931929411294137410201900000000000000000000000000000000025745               00                            3
044080884016192940935332110201900000000001201218CANCEL.DE VENDAS            458919******038100098747654505092019490720000000000049102024049554050920190808840163192941129413762110201931929411294137610201900000000000000000000000000000000012012               00                            3
044080884016192940935342110201900000000001201318CANCEL.DE VENDAS            458919******038100098747654505092019490720000000000049102024049554050920190808840163192941129413762110201931929411294137610201900000000000000000000000000000000012013               00                            3
044080884016192940935352110201900000000001201318CANCEL.DE VENDAS            458919******038100098747654505092019490720000000000049102024049554050920190808840163192941129413762110201931929411294137610201900000000000000000000000000000000012013               00                            3
044080884016192940935362110201900000000001201318CANCEL.DE VENDAS            458919******038100098747654505092019490720000000000049102024049554050920190808840163192941129413762110201931929411294137610201900000000000000000000000000000000012013               00                            3
044080884016192940935372110201900000000000765218CANCEL.DE VENDAS            525631******544300000850530909102019236453000000000023456055749879091020190808840163192941129413922110201931929411294139210201900000000000000000000000000000000007652               00                            1
044080884016192940935382110201900000000000765118CANCEL.DE VENDAS            525631******544300000850530909102019236453000000000023456055749879091020190808840163192941129413922110201931929411294139210201900000000000000000000000000000000007651               00                            1
044080884016192940935392110201900000000000765118CANCEL.DE VENDAS            525631******544300000850530909102019236453000000000023456055749879091020190808840163192941129413922110201931929411294139210201900000000000000000000000000000000007651               00                            1
044080884016192940935402110201900000000000238718CANCEL.DE VENDAS            498406******508100001933595326082019082544000000000121189056649934260820190808840163192941129414222110201931929411294142210201900000000000000000000000000000000002387               00                            3
044080884016192940935412110201900000000000238718CANCEL.DE VENDAS            498406******508100001933595326082019082544000000000121189056649934260820190808840163192941129414222110201931929411294142210201900000000000000000000000000000000002387               00                            3
044080884016192940935422110201900000000000309118CANCEL.DE VENDAS            552316******880600001684146506092019612015000000000024864072949364060920190808840163192941129414422110201931929411294144210201900000000000000000000000000000000003091               00                            1
044080884016192940935432110201900000000000309418CANCEL.DE VENDAS            552316******880600001684146506092019612015000000000024864072949364060920190808840163192941129414422110201931929411294144210201900000000000000000000000000000000003094               00                            1
044080884016192940935442110201900000000000309418CANCEL.DE VENDAS            552316******880600001684146506092019612015000000000024864072949364060920190808840163192941129414422110201931929411294144210201900000000000000000000000000000000003094               00                            1
044080884016192940935452110201900000000000309418CANCEL.DE VENDAS            552316******880600001684146506092019612015000000000024864072949364060920190808840163192941129414422110201931929411294144210201900000000000000000000000000000000003094               00                            1
044080884016192940935462110201900000000000604618CANCEL.DE VENDAS            536518******911000097851041725092019893918000000000037059074249175250920190808840163192941129414462110201931929411294144610201900000000000000000000000000000000006046               00                            1
044080884016192940935472110201900000000000604418CANCEL.DE VENDAS            536518******911000097851041725092019893918000000000037059074249175250920190808840163192941129414462110201931929411294144610201900000000000000000000000000000000006044               00                            1
044080884016192940935482110201900000000000604418CANCEL.DE VENDAS            536518******911000097851041725092019893918000000000037059074249175250920190808840163192941129414462110201931929411294144610201900000000000000000000000000000000006044               00                            1
044080884016192940935492110201900000000000604418CANCEL.DE VENDAS            536518******911000097851041725092019893918000000000037059074249175250920190808840163192941129414462110201931929411294144610201900000000000000000000000000000000006044               00                            1
044080884016192940935502110201900000000000604418CANCEL.DE VENDAS            536518******911000097851041725092019893918000000000037059074249175250920190808840163192941129414462110201931929411294144610201900000000000000000000000000000000006044               00                            1
044080884016192940935512110201900000000001114218CANCEL.DE VENDAS            522840******707700099997625520092019051871000000000022771050649876200920190808840163192941129415112110201931929411294151110201900000000000000000000000000000000011142               00                            1
044080884016192940935522110201900000000001114218CANCEL.DE VENDAS            522840******707700099997625520092019051871000000000022771050649876200920190808840163192941129415112110201931929411294151110201900000000000000000000000000000000011142               00                            1
044080884016192940935532110201900000000000195418CANCEL.DE VENDAS            549167******138600001234402302082019022008000000000057771031849488020820190808840163192941129415722110201931929411294157210201900000000000000000000000000000000001954               00                            1
044080884016192940935542110201900000000000195418CANCEL.DE VENDAS            549167******138600001234402302082019022008000000000057771031849488020820190808840163192941129415722110201931929411294157210201900000000000000000000000000000000001954               00                            1
044080884016192940935552110201900000000000195418CANCEL.DE VENDAS            549167******138600001234402302082019022008000000000057771031849488020820190808840163192941129415722110201931929411294157210201900000000000000000000000000000000001954               00                            1
044080884016192940935562110201900000000000522418CANCEL.DE VENDAS            400437******711500000432465130092019080596000000000045702086549615300920190808840163192941129416732110201931929411294167310201900000000000000000000000000000000005224               00                            3
044080884016192940935572110201900000000000522518CANCEL.DE VENDAS            400437******711500000432465130092019080596000000000045702086549615300920190808840163192941129416732110201931929411294167310201900000000000000000000000000000000005225               00                            3
044080884016192940935582110201900000000000522518CANCEL.DE VENDAS            400437******711500000432465130092019080596000000000045702086549615300920190808840163192941129416732110201931929411294167310201900000000000000000000000000000000005225               00                            3
044080884016192940935592110201900000000000522518CANCEL.DE VENDAS            400437******711500000432465130092019080596000000000045702086549615300920190808840163192941129416732110201931929411294167310201900000000000000000000000000000000005225               00                            3
044080884016192940935602110201900000000000368918CANCEL.DE VENDAS            515590******090600099172796924082019422056000000000025666035149679240820190808840163192941129416962110201931929411294169610201900000000000000000000000000000000003689               00                            1
044080884016192940935612110201900000000000369218CANCEL.DE VENDAS            515590******090600099172796924082019422056000000000025666035149679240820190808840163192941129416962110201931929411294169610201900000000000000000000000000000000003692               00                            1
044080884016192940935622110201900000000000369218CANCEL.DE VENDAS            515590******090600099172796924082019422056000000000025666035149679240820190808840163192941129416962110201931929411294169610201900000000000000000000000000000000003692               00                            1
044080884016192940935632110201900000000000369218CANCEL.DE VENDAS            515590******090600099172796924082019422056000000000025666035149679240820190808840163192941129416962110201931929411294169610201900000000000000000000000000000000003692               00                            1
044080884016192940935642110201900000000000447118CANCEL.DE VENDAS            498401******696200001410411507092019022138000000000042388081749987070920190808840163192941129417202110201931929411294172010201900000000000000000000000000000000004471               00                            3
044080884016192940935652110201900000000000447318CANCEL.DE VENDAS            498401******696200001410411507092019022138000000000042388081749987070920190808840163192941129417202110201931929411294172010201900000000000000000000000000000000004473               00                            3
044080884016192940935662110201900000000000447318CANCEL.DE VENDAS            498401******696200001410411507092019022138000000000042388081749987070920190808840163192941129417202110201931929411294172010201900000000000000000000000000000000004473               00                            3
044080884016192940935672110201900000000000306618CANCEL.DE VENDAS            514868******182500097060734116092019088488000000000013671030649613160920190808840163192941129417692110201931929411294176910201900000000000000000000000000000000003066               00                            1
044080884016192940935682110201900000000000306518CANCEL.DE VENDAS            514868******182500097060734116092019088488000000000013671030649613160920190808840163192941129417692110201931929411294176910201900000000000000000000000000000000003065               00                            1
044080884016192940935692110201900000000000961618CANCEL.DE VENDAS            498406******949700099478793724082019051525000000000058942019049132240820190808840163192941129417832110201931929411294178310201900000000000000000000000000000000009616               00                            3
044080884016192940935702110201900000000000961318CANCEL.DE VENDAS            498406******949700099478793724082019051525000000000058942019049132240820190808840163192941129417832110201931929411294178310201900000000000000000000000000000000009613               00                            3
044080884016192940935712110201900000000000961318CANCEL.DE VENDAS            498406******949700099478793724082019051525000000000058942019049132240820190808840163192941129417832110201931929411294178310201900000000000000000000000000000000009613               00                            3
044080884016192940935722110201900000000000961318CANCEL.DE VENDAS            498406******949700099478793724082019051525000000000058942019049132240820190808840163192941129417832110201931929411294178310201900000000000000000000000000000000009613               00                            3
044080884016192940935732110201900000000000961318CANCEL.DE VENDAS            498406******949700099478793724082019051525000000000058942019049132240820190808840163192941129417832110201931929411294178310201900000000000000000000000000000000009613               00                            3
044080884016192940935742110201900000000000961318CANCEL.DE VENDAS            498406******949700099478793724082019051525000000000058942019049132240820190808840163192941129417832110201931929411294178310201900000000000000000000000000000000009613               00                            3
044080884016192940935752110201900000000002622018CANCEL.DE VENDAS            498408******028400001422105120082019654915000000000160765002249309200820190808840163192941129417872110201931929411294178710201900000000000000000000000000000000026220               00                            3
044080884016192940935762110201900000000002622118CANCEL.DE VENDAS            498408******028400001422105120082019654915000000000160765002249309200820190808840163192941129417872110201931929411294178710201900000000000000000000000000000000026221               00                            3
044080884016192940935772110201900000000002622118CANCEL.DE VENDAS            498408******028400001422105120082019654915000000000160765002249309200820190808840163192941129417872110201931929411294178710201900000000000000000000000000000000026221               00                            3
044080884016192940935782110201900000000002622118CANCEL.DE VENDAS            498408******028400001422105120082019654915000000000160765002249309200820190808840163192941129417872110201931929411294178710201900000000000000000000000000000000026221               00                            3
044080884016192940935792110201900000000002622118CANCEL.DE VENDAS            498408******028400001422105120082019654915000000000160765002249309200820190808840163192941129417872110201931929411294178710201900000000000000000000000000000000026221               00                            3
044080884016192940935802110201900000000002622118CANCEL.DE VENDAS            498408******028400001422105120082019654915000000000160765002249309200820190808840163192941129417872110201931929411294178710201900000000000000000000000000000000026221               00                            3
044080884016192940935812110201900000000000140218CANCEL.DE VENDAS            498408******869300098054802718092019066631000000000029090074249624180920190808840163192941129418102110201931929411294181010201900000000000000000000000000000000001402               00                            3
044080884016192940935822110201900000000000140218CANCEL.DE VENDAS            498408******869300098054802718092019066631000000000029090074249624180920190808840163192941129418102110201931929411294181010201900000000000000000000000000000000001402               00                            3
044080884016192940935832110201900000000000140218CANCEL.DE VENDAS            498408******869300098054802718092019066631000000000029090074249624180920190808840163192941129418102110201931929411294181010201900000000000000000000000000000000001402               00                            3
044080884016192940935842110201900000000000140218CANCEL.DE VENDAS            498408******869300098054802718092019066631000000000029090074249624180920190808840163192941129418102110201931929411294181010201900000000000000000000000000000000001402               00                            3
044080884016192940935852110201900000000000162118CANCEL.DE VENDAS            422061******367600002254551909092019234276000000000039750011349579090920190808840163192941129418762110201931929411294187610201900000000000000000000000000000000001621               00                            3
044080884016192940935862110201900000000000162118CANCEL.DE VENDAS            422061******367600002254551909092019234276000000000039750011349579090920190808840163192941129418762110201931929411294187610201900000000000000000000000000000000001621               00                            3
044080884016192940935872110201900000000000162118CANCEL.DE VENDAS            422061******367600002254551909092019234276000000000039750011349579090920190808840163192941129418762110201931929411294187610201900000000000000000000000000000000001621               00                            3
044080884016192940935882110201900000000000162118CANCEL.DE VENDAS            422061******367600002254551909092019234276000000000039750011349579090920190808840163192941129418762110201931929411294187610201900000000000000000000000000000000001621               00                            3
044080884016192940935892110201900000000000162118CANCEL.DE VENDAS            422061******367600002254551909092019234276000000000039750011349579090920190808840163192941129418762110201931929411294187610201900000000000000000000000000000000001621               00                            3
044080884016192940935902110201900000000000072018CANCEL.DE VENDAS            498406******229900000750876911092019040756000000000021036076649267110920190808840163192941129418922110201931929411294189210201900000000000000000000000000000000000720               00                            3
044080884016192940935912110201900000000000072018CANCEL.DE VENDAS            498406******229900000750876911092019040756000000000021036076649267110920190808840163192941129418922110201931929411294189210201900000000000000000000000000000000000720               00                            3
044080884016192940935922110201900000000001061618CANCEL.DE VENDAS            406669******779200098265257110092019625228000000000124000045349697100920190808840163192941129418972110201931929411294189710201900000000000000000000000000000000010616               00                            3
044080884016192940935932110201900000000001061618CANCEL.DE VENDAS            406669******779200098265257110092019625228000000000124000045349697100920190808840163192941129418972110201931929411294189710201900000000000000000000000000000000010616               00                            3
044080884016192940935942110201900000000000718518CANCEL.DE VENDAS            523421******607600098864691918082019770232000000000036702062449929180820190808840163192941129419212110201931929411294192110201900000000000000000000000000000000007185               00                            1
044080884016192940935952110201900000000000718318CANCEL.DE VENDAS            523421******607600098864691918082019770232000000000036702062449929180820190808840163192941129419212110201931929411294192110201900000000000000000000000000000000007183               00                            1
044080884016192940935962110201900000000000718318CANCEL.DE VENDAS            523421******607600098864691918082019770232000000000036702062449929180820190808840163192941129419212110201931929411294192110201900000000000000000000000000000000007183               00                            1
044080884016192940935972110201900000000000718318CANCEL.DE VENDAS            523421******607600098864691918082019770232000000000036702062449929180820190808840163192941129419212110201931929411294192110201900000000000000000000000000000000007183               00                            1
044080884016192940935982110201900000000000718318CANCEL.DE VENDAS            523421******607600098864691918082019770232000000000036702062449929180820190808840163192941129419212110201931929411294192110201900000000000000000000000000000000007183               00                            1
044080884016192940935992110201900000000000874418CANCEL.DE VENDAS            522688******459600098095743709092019111354000000000017870031249344090920190808840163192941129419262110201931929411294192610201900000000000000000000000000000000008744               00                            1
044080884016192940936002110201900000000000874418CANCEL.DE VENDAS            522688******459600098095743709092019111354000000000017870031249344090920190808840163192941129419262110201931929411294192610201900000000000000000000000000000000008744               00                            1
044080884016192940936012110201900000000000473418CANCEL.DE VENDAS            554906******093000099979358530092019034237000000000047107002149478300920190808840163192941129419402110201931929411294194010201900000000000000000000000000000000004734               00                            1
044080884016192940936022110201900000000000473618CANCEL.DE VENDAS            554906******093000099979358530092019034237000000000047107002149478300920190808840163192941129419402110201931929411294194010201900000000000000000000000000000000004736               00                            1
044080884016192940936032110201900000000000473618CANCEL.DE VENDAS            554906******093000099979358530092019034237000000000047107002149478300920190808840163192941129419402110201931929411294194010201900000000000000000000000000000000004736               00                            1
044080884016192940936042110201900000000000470318CANCEL.DE VENDAS            553639******611500099927405330092019086207000000000073458002149478300920190808840163192941129419782110201931929411294197810201900000000000000000000000000000000004703               00                            1
044080884016192940936052110201900000000000470318CANCEL.DE VENDAS            553639******611500099927405330092019086207000000000073458002149478300920190808840163192941129419782110201931929411294197810201900000000000000000000000000000000004703               00                            1
044080884016192940936062110201900000000000470318CANCEL.DE VENDAS            553639******611500099927405330092019086207000000000073458002149478300920190808840163192941129419782110201931929411294197810201900000000000000000000000000000000004703               00                            1
044080884016192940936072110201900000000000107318CANCEL.DE VENDAS            542661******668500097698770306092019035148000000000082390072949364060920190808840163192941134320202110201931929411343202010201900000000000000000000000000000000001073               00                            1
044080884016192940936082110201900000000000107318CANCEL.DE VENDAS            542661******668500097698770306092019035148000000000082390072949364060920190808840163192941134320202110201931929411343202010201900000000000000000000000000000000001073               00                            1
044080884016192940936092110201900000000000107318CANCEL.DE VENDAS            542661******668500097698770306092019035148000000000082390072949364060920190808840163192941134320202110201931929411343202010201900000000000000000000000000000000001073               00                            1
044080884016192940936102110201900000000001124218CANCEL.DE VENDAS            415275******411900098643091910092019026748000000000022976045349697100920190808840163192941134320772110201931929411343207710201900000000000000000000000000000000011242               00                            3
044080884016192940936112110201900000000001124218CANCEL.DE VENDAS            415275******411900098643091910092019026748000000000022976045349697100920190808840163192941134320772110201931929411343207710201900000000000000000000000000000000011242               00                            3
044080884016192940936122110201900000000000753918CANCEL.DE VENDAS            498423******983800002142901728082019884870000000000058996011849595280820190808840163192941134321022110201931929411343210210201900000000000000000000000000000000007539               00                            3
044080884016192940936132110201900000000000753918CANCEL.DE VENDAS            498423******983800002142901728082019884870000000000058996011849595280820190808840163192941134321022110201931929411343210210201900000000000000000000000000000000007539               00                            3
044080884016192940936142110201900000000000753918CANCEL.DE VENDAS            498423******983800002142901728082019884870000000000058996011849595280820190808840163192941134321022110201931929411343210210201900000000000000000000000000000000007539               00                            3
044080884016192940936152110201900000000000753918CANCEL.DE VENDAS            498423******983800002142901728082019884870000000000058996011849595280820190808840163192941134321022110201931929411343210210201900000000000000000000000000000000007539               00                            3
044080884016192940936162110201900000000000241618CANCEL.DE VENDAS            515590******463500097986512909092019173760000000000013148031249344090920190808840163192941134321272110201931929411343212710201900000000000000000000000000000000002416               00                            1
044080884016192940936172110201900000000000241518CANCEL.DE VENDAS            515590******463500097986512909092019173760000000000013148031249344090920190808840163192941134321272110201931929411343212710201900000000000000000000000000000000002415               00                            1
044080884016192940936182110201900000000000599018CANCEL.DE VENDAS            514945******046500001350056327082019049412000000000030593098949809270820190808840163192941134321572110201931929411343215710201900000000000000000000000000000000005990               00                            1
044080884016192940936192110201900000000000598718CANCEL.DE VENDAS            514945******046500001350056327082019049412000000000030593098949809270820190808840163192941134321572110201931929411343215710201900000000000000000000000000000000005987               00                            1
044080884016192940936202110201900000000000598718CANCEL.DE VENDAS            514945******046500001350056327082019049412000000000030593098949809270820190808840163192941134321572110201931929411343215710201900000000000000000000000000000000005987               00                            1
044080884016192940936212110201900000000000598718CANCEL.DE VENDAS            514945******046500001350056327082019049412000000000030593098949809270820190808840163192941134321572110201931929411343215710201900000000000000000000000000000000005987               00                            1
044080884016192940936222110201900000000000598718CANCEL.DE VENDAS            514945******046500001350056327082019049412000000000030593098949809270820190808840163192941134321572110201931929411343215710201900000000000000000000000000000000005987               00                            1
044080884016192940936232110201900000000000605618CANCEL.DE VENDAS            498453******162800098196653510092019950591000000000030942045349697100920190808840163192941134322092110201931929411343220910201900000000000000000000000000000000006056               00                            3
044080884016192940936242110201900000000000605618CANCEL.DE VENDAS            498453******162800098196653510092019950591000000000030942045349697100920190808840163192941134322092110201931929411343220910201900000000000000000000000000000000006056               00                            3
044080884016192940936252110201900000000000605618CANCEL.DE VENDAS            498453******162800098196653510092019950591000000000030942045349697100920190808840163192941134322092110201931929411343220910201900000000000000000000000000000000006056               00                            3
044080884016192940936262110201900000000000605618CANCEL.DE VENDAS            498453******162800098196653510092019950591000000000030942045349697100920190808840163192941134322092110201931929411343220910201900000000000000000000000000000000006056               00                            3
044080884016192940936272110201900000000000605618CANCEL.DE VENDAS            498453******162800098196653510092019950591000000000030942045349697100920190808840163192941134322092110201931929411343220910201900000000000000000000000000000000006056               00                            3
044080884016192940936282110201900000000000616818CANCEL.DE VENDAS            540105******778900099304893112092019015479000000000066673025249994120920190808840163192941134322302110201931929411343223010201900000000000000000000000000000000006168               00                            1
044080884016192940936292110201900000000000616718CANCEL.DE VENDAS            540105******778900099304893112092019015479000000000066673025249994120920190808840163192941134322302110201931929411343223010201900000000000000000000000000000000006167               00                            1
044080884016192940936302110201900000000000487818CANCEL.DE VENDAS            514945******441300098513279906092019048610000000000025064072949364060920190808840163192941134322672110201931929411343226710201900000000000000000000000000000000004878               00                            1
044080884016192940936312110201900000000000488018CANCEL.DE VENDAS            514945******441300098513279906092019048610000000000025064072949364060920190808840163192941134322672110201931929411343226710201900000000000000000000000000000000004880               00                            1
044080884016192940936322110201900000000000488018CANCEL.DE VENDAS            514945******441300098513279906092019048610000000000025064072949364060920190808840163192941134322672110201931929411343226710201900000000000000000000000000000000004880               00                            1
044080884016192940936332110201900000000000047218CANCEL.DE VENDAS            553636******094300001693789910072019063317000000000039741001749305100720190808840163192941134322782110201931929411343227810201900000000000000000000000000000000000472               00                            1
044080884016192940936342110201900000000000047418CANCEL.DE VENDAS            553636******094300001693789910072019063317000000000039741001749305100720190808840163192941134322782110201931929411343227810201900000000000000000000000000000000000474               00                            1
044080884016192940936352110201900000000000047418CANCEL.DE VENDAS            553636******094300001693789910072019063317000000000039741001749305100720190808840163192941134322782110201931929411343227810201900000000000000000000000000000000000474               00                            1
044080884016192940936362110201900000000000047418CANCEL.DE VENDAS            553636******094300001693789910072019063317000000000039741001749305100720190808840163192941134322782110201931929411343227810201900000000000000000000000000000000000474               00                            1
044080884016192940936372110201900000000000047418CANCEL.DE VENDAS            553636******094300001693789910072019063317000000000039741001749305100720190808840163192941134322782110201931929411343227810201900000000000000000000000000000000000474               00                            1
044080884016192940936382110201900000000000529018CANCEL.DE VENDAS            409308******531700002749104912092019274371000000000053520008349194120920190808840163192941134323062110201931929411343230610201900000000000000000000000000000000005290               00                            3
044080884016192940936392110201900000000000529518CANCEL.DE VENDAS            409308******531700002749104912092019274371000000000053520008349194120920190808840163192941134323062110201931929411343230610201900000000000000000000000000000000005295               00                            3
044080884016192940936402110201900000000000529518CANCEL.DE VENDAS            409308******531700002749104912092019274371000000000053520008349194120920190808840163192941134323062110201931929411343230610201900000000000000000000000000000000005295               00                            3
044080884016192940936412110201900000000000529518CANCEL.DE VENDAS            409308******531700002749104912092019274371000000000053520008349194120920190808840163192941134323062110201931929411343230610201900000000000000000000000000000000005295               00                            3
044080884016192940936422110201900000000000529518CANCEL.DE VENDAS            409308******531700002749104912092019274371000000000053520008349194120920190808840163192941134323062110201931929411343230610201900000000000000000000000000000000005295               00                            3
044080884016192940936432110201900000000001496818CANCEL.DE VENDAS            544731******249200099541453330092019135675000000000030592002149478300920190808840163192941134324722110201931929411343247210201900000000000000000000000000000000014968               00                            1
044080884016192940936442110201900000000001496918CANCEL.DE VENDAS            544731******249200099541453330092019135675000000000030592002149478300920190808840163192941134324722110201931929411343247210201900000000000000000000000000000000014969               00                            1
044080884016192940936452110201900000000000500018CANCEL.DE VENDAS            439388******656100099226579530092019086951000000000016480086549615300920190808840163192941134324802110201931929411343248010201900000000000000000000000000000000005000               00                            3
044080884016192940936462110201900000000000500118CANCEL.DE VENDAS            439388******656100099226579530092019086951000000000016480086549615300920190808840163192941134324802110201931929411343248010201900000000000000000000000000000000005001               00                            3
044080884016192940936472110201900000000000128818CANCEL.DE VENDAS            525496******077500002717895530082019032151000000000018818086249531300820190808840163192941134325052110201931929411343250510201900000000000000000000000000000000001288               00                            1
044080884016192940936482110201900000000000128818CANCEL.DE VENDAS            525496******077500002717895530082019032151000000000018818086249531300820190808840163192941134325052110201931929411343250510201900000000000000000000000000000000001288               00                            1
044080884016192940936492110201900000000000128818CANCEL.DE VENDAS            525496******077500002717895530082019032151000000000018818086249531300820190808840163192941134325052110201931929411343250510201900000000000000000000000000000000001288               00                            1
044080884016192940936502110201900000000000756718CANCEL.DE VENDAS            523421******468700001801145709092019176746000000000047863031249344090920190808840163192941134325672110201931929411343256710201900000000000000000000000000000000007567               00                            1
044080884016192940936512110201900000000000757018CANCEL.DE VENDAS            523421******468700001801145709092019176746000000000047863031249344090920190808840163192941134325672110201931929411343256710201900000000000000000000000000000000007570               00                            1
044080884016192940936522110201900000000000757018CANCEL.DE VENDAS            523421******468700001801145709092019176746000000000047863031249344090920190808840163192941134325672110201931929411343256710201900000000000000000000000000000000007570               00                            1
044080884016192940936532110201900000000000757018CANCEL.DE VENDAS            523421******468700001801145709092019176746000000000047863031249344090920190808840163192941134325672110201931929411343256710201900000000000000000000000000000000007570               00                            1
044080884016192940936542110201900000000000757018CANCEL.DE VENDAS            523421******468700001801145709092019176746000000000047863031249344090920190808840163192941134325672110201931929411343256710201900000000000000000000000000000000007570               00                            1
044080884016192940936552110201900000000000255018CANCEL.DE VENDAS            489391******469600000934644308092019034692000000000016938095949236080920190808840163192941134325752110201931929411343257510201900000000000000000000000000000000002550               00                            3
044080884016192940936562110201900000000000254918CANCEL.DE VENDAS            489391******469600000934644308092019034692000000000016938095949236080920190808840163192941134325752110201931929411343257510201900000000000000000000000000000000002549               00                            3
044080884016192940936572110201900000000000080218CANCEL.DE VENDAS            544731******269000001209369106092019572576000000000019173072949364060920190808840163192941134326992110201931929411343269910201900000000000000000000000000000000000802               00                            1
044080884016192940936582110201900000000000080318CANCEL.DE VENDAS            544731******269000001209369106092019572576000000000019173072949364060920190808840163192941134326992110201931929411343269910201900000000000000000000000000000000000803               00                            1
044080884016192940936592110201900000000000080318CANCEL.DE VENDAS            544731******269000001209369106092019572576000000000019173072949364060920190808840163192941134326992110201931929411343269910201900000000000000000000000000000000000803               00                            1
044080884016192940936602110201900000000000108018CANCEL.DE VENDAS            489167******111800099640379909092019006133000000000031911011349579090920190808840163192941134327042110201931929411343270410201900000000000000000000000000000000001080               00                            3
044080884016192940936612110201900000000000108218CANCEL.DE VENDAS            489167******111800099640379909092019006133000000000031911011349579090920190808840163192941134327042110201931929411343270410201900000000000000000000000000000000001082               00                            3
044080884016192940936622110201900000000000108218CANCEL.DE VENDAS            489167******111800099640379909092019006133000000000031911011349579090920190808840163192941134327042110201931929411343270410201900000000000000000000000000000000001082               00                            3
044080884016192940936632110201900000000000108218CANCEL.DE VENDAS            489167******111800099640379909092019006133000000000031911011349579090920190808840163192941134327042110201931929411343270410201900000000000000000000000000000000001082               00                            3
044080884016192940936642110201900000000000108218CANCEL.DE VENDAS            489167******111800099640379909092019006133000000000031911011349579090920190808840163192941134327042110201931929411343270410201900000000000000000000000000000000001082               00                            3
044080884016192940936652110201900000000002450118CANCEL.DE VENDAS            498408******983000001111773530072019779897000000000082731027449432300720190808840163192941134327302110201931929411343273010201900000000000000000000000000000000024501               00                            3
044080884016192940936662110201900000000002450018CANCEL.DE VENDAS            498408******983000001111773530072019779897000000000082731027449432300720190808840163192941134327302110201931929411343273010201900000000000000000000000000000000024500               00                            3
044080884016192940936672110201900000000001261318CANCEL.DE VENDAS            553636******961400002099688509092019006472000000000025777031249344090920190808840163192941134327532110201931929411343275310201900000000000000000000000000000000012613               00                            1
044080884016192940936682110201900000000001261218CANCEL.DE VENDAS            553636******961400002099688509092019006472000000000025777031249344090920190808840163192941134327532110201931929411343275310201900000000000000000000000000000000012612               00                            1
044080884016192940936692110201900000000000766718CANCEL.DE VENDAS            459316******674300001658799728082019006437000000000058863011849595280820190808840163192941134328212110201931929411343282110201900000000000000000000000000000000007667               00                            3
044080884016192940936702110201900000000000766918CANCEL.DE VENDAS            459316******674300001658799728082019006437000000000058863011849595280820190808840163192941134328212110201931929411343282110201900000000000000000000000000000000007669               00                            3
044080884016192940936712110201900000000000766918CANCEL.DE VENDAS            459316******674300001658799728082019006437000000000058863011849595280820190808840163192941134328212110201931929411343282110201900000000000000000000000000000000007669               00                            3
044080884016192940936722110201900000000000766918CANCEL.DE VENDAS            459316******674300001658799728082019006437000000000058863011849595280820190808840163192941134328212110201931929411343282110201900000000000000000000000000000000007669               00                            3
044080884016192940936732110201900000000000766918CANCEL.DE VENDAS            459316******674300001658799728082019006437000000000058863011849595280820190808840163192941134328212110201931929411343282110201900000000000000000000000000000000007669               00                            3
044080884016192940936742110201900000000000766918CANCEL.DE VENDAS            459316******674300001658799728082019006437000000000058863011849595280820190808840163192941134328212110201931929411343282110201900000000000000000000000000000000007669               00                            3
044080884016192940936752110201900000000013368218CANCEL.DE VENDAS            439027******465500098785021321082019614730000000000347538030549801210820190808840163192941134328222110201931929411343282210201900000000000000000000000000000000133682               00                            3
044080884016192940936762110201900000000013368318CANCEL.DE VENDAS            439027******465500098785021321082019614730000000000347538030549801210820190808840163192941134328222110201931929411343282210201900000000000000000000000000000000133683               00                            3
044080884016192940936772110201900000000000526218CANCEL.DE VENDAS            527616******302700099915891930092019039358000000000062340002149478300920190808840163192941134328262110201931929411343282610201900000000000000000000000000000000005262               00                            1
044080884016192940936782110201900000000000526218CANCEL.DE VENDAS            527616******302700099915891930092019039358000000000062340002149478300920190808840163192941134328262110201931929411343282610201900000000000000000000000000000000005262               00                            1
044080884016192940936792110201900000000000526218CANCEL.DE VENDAS            527616******302700099915891930092019039358000000000062340002149478300920190808840163192941134328262110201931929411343282610201900000000000000000000000000000000005262               00                            1
044080884016192940936802110201900000000000526218CANCEL.DE VENDAS            527616******302700099915891930092019039358000000000062340002149478300920190808840163192941134328262110201931929411343282610201900000000000000000000000000000000005262               00                            1
044080884016192940936812110201900000000000675618CANCEL.DE VENDAS            553636******255800098748680514102019060239000000000020711087749887141020190808840163192941134328442110201931929411343284410201900000000000000000000000000000000006756               00                            1
044080884016192940936822110201900000000000675618CANCEL.DE VENDAS            553636******255800098748680514102019060239000000000020711087749887141020190808840163192941134328442110201931929411343284410201900000000000000000000000000000000006756               00                            1
044080884016192940936832110201900000000000675618CANCEL.DE VENDAS            553636******255800098748680514102019060239000000000020711087749887141020190808840163192941134328442110201931929411343284410201900000000000000000000000000000000006756               00                            1
044080884016192940936842110201900000000000537718CANCEL.DE VENDAS            522840******291500001207991327082019192073000000000065333098949809270820190808840163192941134328892110201931929411343288910201900000000000000000000000000000000005377               00                            1
044080884016192940936852110201900000000000537818CANCEL.DE VENDAS            522840******291500001207991327082019192073000000000065333098949809270820190808840163192941134328892110201931929411343288910201900000000000000000000000000000000005378               00                            1
044080884016192940936862110201900000000002977918CANCEL.DE VENDAS            553636******477800099586370701102019094706000000000065749030849928011020190808840163192941134329122110201931929411343291210201900000000000000000000000000000000029779               00                            1
044080884016192940936872110201900000000002977918CANCEL.DE VENDAS            553636******477800099586370701102019094706000000000065749030849928011020190808840163192941134329122110201931929411343291210201900000000000000000000000000000000029779               00                            1
044080884016192940936882110201900000000001092318CANCEL.DE VENDAS            523421******150000099391210709092019157864000000000039687031249344090920190808840163192941134329352110201931929411343293510201900000000000000000000000000000000010923               00                            1
044080884016192940936892110201900000000001092218CANCEL.DE VENDAS            523421******150000099391210709092019157864000000000039687031249344090920190808840163192941134329352110201931929411343293510201900000000000000000000000000000000010922               00                            1
044080884016192940936902110201900000000001092218CANCEL.DE VENDAS            523421******150000099391210709092019157864000000000039687031249344090920190808840163192941134329352110201931929411343293510201900000000000000000000000000000000010922               00                            1
044080884016192940936912110201900000000000622518CANCEL.DE VENDAS            515590******191900097262796710092019363669000000000012721062149828100920190808840163192941134329492110201931929411343294910201900000000000000000000000000000000006225               00                            1
044080884016192940936922110201900000000000622418CANCEL.DE VENDAS            515590******191900097262796710092019363669000000000012721062149828100920190808840163192941134329492110201931929411343294910201900000000000000000000000000000000006224               00                            1
044080884016192940936932110201900000000000299118CANCEL.DE VENDAS            406669******488800001773548314082019652875000000000019495044949313140820190808840163192941134329772110201931929411343297710201900000000000000000000000000000000002991               00                            3
044080884016192940936942110201900000000000299018CANCEL.DE VENDAS            406669******488800001773548314082019652875000000000019495044949313140820190808840163192941134329772110201931929411343297710201900000000000000000000000000000000002990               00                            3
044080884016192940936952110201900000000000299018CANCEL.DE VENDAS            406669******488800001773548314082019652875000000000019495044949313140820190808840163192941134329772110201931929411343297710201900000000000000000000000000000000002990               00                            3
044080884016192940936962110201900000000000742118CANCEL.DE VENDAS            498408******289300003119020706092019031924000000000015168055249853060920190808840163192941134330372110201931929411343303710201900000000000000000000000000000000007421               00                            3
044080884016192940936972110201900000000000742218CANCEL.DE VENDAS            498408******289300003119020706092019031924000000000015168055249853060920190808840163192941134330372110201931929411343303710201900000000000000000000000000000000007422               00                            3
044080884016192940936982110201900000000000606718CANCEL.DE VENDAS            522840******856800097982233912092019031582000000000030994025249994120920190808840163192941134330922110201931929411343309210201900000000000000000000000000000000006067               00                            1
044080884016192940936992110201900000000000606618CANCEL.DE VENDAS            522840******856800097982233912092019031582000000000030994025249994120920190808840163192941134330922110201931929411343309210201900000000000000000000000000000000006066               00                            1
044080884016192940937002110201900000000000606618CANCEL.DE VENDAS            522840******856800097982233912092019031582000000000030994025249994120920190808840163192941134330922110201931929411343309210201900000000000000000000000000000000006066               00                            1
044080884016192940937012110201900000000000606618CANCEL.DE VENDAS            522840******856800097982233912092019031582000000000030994025249994120920190808840163192941134330922110201931929411343309210201900000000000000000000000000000000006066               00                            1
044080884016192940937022110201900000000000606618CANCEL.DE VENDAS            522840******856800097982233912092019031582000000000030994025249994120920190808840163192941134330922110201931929411343309210201900000000000000000000000000000000006066               00                            1
044080884016192940937032110201900000000000692118CANCEL.DE VENDAS            552289******940300097769820310092019017554000000000132377062149828100920190808840163192941134331502110201931929411343315010201900000000000000000000000000000000006921               00                            1
044080884016192940937042110201900000000000692118CANCEL.DE VENDAS            552289******940300097769820310092019017554000000000132377062149828100920190808840163192941134331502110201931929411343315010201900000000000000000000000000000000006921               00                            1
044080884016192940937052110201900000000000692118CANCEL.DE VENDAS            552289******940300097769820310092019017554000000000132377062149828100920190808840163192941134331502110201931929411343315010201900000000000000000000000000000000006921               00                            1
044080884016192940937062110201900000000000692118CANCEL.DE VENDAS            552289******940300097769820310092019017554000000000132377062149828100920190808840163192941134331502110201931929411343315010201900000000000000000000000000000000006921               00                            1
044080884016192940937072110201900000000000980918CANCEL.DE VENDAS            522840******420500099130416714102019593948000000000020048087749887141020190808840163192941134331692110201931929411343316910201900000000000000000000000000000000009809               00                            1
044080884016192940937082110201900000000000981018CANCEL.DE VENDAS            522840******420500099130416714102019593948000000000020048087749887141020190808840163192941134331692110201931929411343316910201900000000000000000000000000000000009810               00                            1
044080884016192940937092110201900000000000659418CANCEL.DE VENDAS            406669******490600001245533527082019632971000000000013476083849977270820190808840163192941134334152110201931929411343341510201900000000000000000000000000000000006594               00                            3
044080884016192940937102110201900000000000659418CANCEL.DE VENDAS            406669******490600001245533527082019632971000000000013476083849977270820190808840163192941134334152110201931929411343341510201900000000000000000000000000000000006594               00                            3
044080884016192940937112110201900000000002006718CANCEL.DE VENDAS            498408******520600001486010930092019099785000000000123050086549615300920190808840163192941134334362110201931929411343343610201900000000000000000000000000000000020067               00                            3
044080884016192940937122110201900000000002007018CANCEL.DE VENDAS            498408******520600001486010930092019099785000000000123050086549615300920190808840163192941134334362110201931929411343343610201900000000000000000000000000000000020070               00                            3
044080884016192940937132110201900000000002007018CANCEL.DE VENDAS            498408******520600001486010930092019099785000000000123050086549615300920190808840163192941134334362110201931929411343343610201900000000000000000000000000000000020070               00                            3
044080884016192940937142110201900000000002007018CANCEL.DE VENDAS            498408******520600001486010930092019099785000000000123050086549615300920190808840163192941134334362110201931929411343343610201900000000000000000000000000000000020070               00                            3
044080884016192940937152110201900000000000188718CANCEL.DE VENDAS            421958******752900098410378305092019063992000000000072652024049554050920190808840163192941134335292110201931929411343352910201900000000000000000000000000000000001887               00                            3
044080884016192940937162110201900000000000188518CANCEL.DE VENDAS            421958******752900098410378305092019063992000000000072652024049554050920190808840163192941134335292110201931929411343352910201900000000000000000000000000000000001885               00                            3
044080884016192940937172110201900000000000188518CANCEL.DE VENDAS            421958******752900098410378305092019063992000000000072652024049554050920190808840163192941134335292110201931929411343352910201900000000000000000000000000000000001885               00                            3
044080884016192940937182110201900000000000188518CANCEL.DE VENDAS            421958******752900098410378305092019063992000000000072652024049554050920190808840163192941134335292110201931929411343352910201900000000000000000000000000000000001885               00                            3
044080884016192940937192110201900000000000188518CANCEL.DE VENDAS            421958******752900098410378305092019063992000000000072652024049554050920190808840163192941134335292110201931929411343352910201900000000000000000000000000000000001885               00                            3
044080884016192940937202110201900000000000219918CANCEL.DE VENDAS            512707******551500099157210106092019789310000000000032398072949364060920190808840163192941134337812110201931929411343378110201900000000000000000000000000000000002199               00                            1
044080884016192940937212110201900000000000219818CANCEL.DE VENDAS            512707******551500099157210106092019789310000000000032398072949364060920190808840163192941134337812110201931929411343378110201900000000000000000000000000000000002198               00                            1
044080884016192940937222110201900000000002705318CANCEL.DE VENDAS            554927******789800096754942113092019087311000000000110578058349997130920190808840163192941134338022110201931929411343380210201900000000000000000000000000000000027053               00                            1
044080884016192940937232110201900000000002705318CANCEL.DE VENDAS            554927******789800096754942113092019087311000000000110578058349997130920190808840163192941134338022110201931929411343380210201900000000000000000000000000000000027053               00                            1
044080884016192940937242110201900000000002705318CANCEL.DE VENDAS            554927******789800096754942113092019087311000000000110578058349997130920190808840163192941134338022110201931929411343380210201900000000000000000000000000000000027053               00                            1
044080884016192940937252110201900000000002705318CANCEL.DE VENDAS            554927******789800096754942113092019087311000000000110578058349997130920190808840163192941134338022110201931929411343380210201900000000000000000000000000000000027053               00                            1
044080884016192940937262110201900000000000439618CANCEL.DE VENDAS            523421******606800000981573128082019528330000000000028750027249599280820190808840163192941134338082110201931929411343380810201900000000000000000000000000000000004396               00                            1
044080884016192940937272110201900000000000439718CANCEL.DE VENDAS            523421******606800000981573128082019528330000000000028750027249599280820190808840163192941134338082110201931929411343380810201900000000000000000000000000000000004397               00                            1
044080884016192940937282110201900000000000439718CANCEL.DE VENDAS            523421******606800000981573128082019528330000000000028750027249599280820190808840163192941134338082110201931929411343380810201900000000000000000000000000000000004397               00                            1
044080884016192940937292110201900000000000439718CANCEL.DE VENDAS            523421******606800000981573128082019528330000000000028750027249599280820190808840163192941134338082110201931929411343380810201900000000000000000000000000000000004397               00                            1
044080884016192940937302110201900000000000544318CANCEL.DE VENDAS            515590******844500001468623308102019550152000000000056038014049952081020190808840163192941134338642110201931929411343386410201900000000000000000000000000000000005443               00                            1
044080884016192940937312110201900000000000544218CANCEL.DE VENDAS            515590******844500001468623308102019550152000000000056038014049952081020190808840163192941134338642110201931929411343386410201900000000000000000000000000000000005442               00                            1
044080884016192940937322110201900000000000544218CANCEL.DE VENDAS            515590******844500001468623308102019550152000000000056038014049952081020190808840163192941134338642110201931929411343386410201900000000000000000000000000000000005442               00                            1
0490808840160003497173192941129401960203202000000000037203500000000037396500000000000193021102019000000008555752000000000011834498406XXXXXX7494310820190009749666691063
0490808840160213499033192941129410240203202000000000031099800000000031257400000000000157621102019000000009755551000000000009663498408XXXXXX8693010920190009827488711063
0490808840160240495543192941134335290603202000000000033097100000000033285600000000000188521102019000000011277726000000000011559421958XXXXXX7529050920190009841037831063
0490808840160817499873192941129400150903202000000000025152600000000025594400000000000441821102019000000006367278000000000027084422061XXXXXX7725070920190009893036411063
0490808840160312493443192941134325671003202000000000103852800000000104609800000000000757021102019000000024800319000000000046410523421XXXXXX4687090920190000180114571061
0490808840160083491943192941134323061303202000000000040147300000000040676800000000000529521102019000000011986133000000000032460409308XXXXXX5317120920190000274910491063
0490808840160915495433192941129408692303202000000000029373400000000029559100000000000185721102019000000010388576000000000011384515590XXXXXX8202220920190009920611091061
0490808840160742491753192941129414462603202000000000026707900000000027312300000000000604421102019000000009431671000000000037059536518XXXXXX9110250920190009785104171061
0490808840160021494783192941129410260203202000000000215209400000000216227400000000001018021102019000000038158128000000000062413515590XXXXXX7282300920190009883692691051
0490808840160021494783192941129413460203202000000000214871700000000215209400000000000337721102019000000038158128000000000017251549167XXXXXX9574300920190009996259151051
0490808840160021494783192941134328260203202000000000214345500000000214871700000000000526221102019000000038158128000000000032262527616XXXXXX3027300920190009991589191051
0490808840160021494783192941129410263103202000000000142664000000000143682000000000001018021102019000000038158128000000000062413515590XXXXXX7282300920190009883692691061
0490808840160021494783192941134328263103202000000000142137800000000142664000000000000526221102019000000038158128000000000032262527616XXXXXX3027300920190009991589191061
0490808840160865496153192941129416730203202000000000201317400000000201839900000000000522521102019000000031945092000000000032035400437XXXXXX7115300920190000043246511053
0490808840160865496153192941134334360203202000000000199310400000000201317400000000002007021102019000000031945092000000000123050498408XXXXXX5206300920190000148601091053
0490808840160865496153192941129416733103202000000000139490900000000140013400000000000522521102019000000031945092000000000032035400437XXXXXX7115300920190000043246511063
0490808840160865496153192941134334363103202000000000137483900000000139490900000000002007021102019000000031945092000000000123050498408XXXXXX5206300920190000148601091063
0490808840160308499283192941129412250203202000000000097730400000000097857500000000000127121102019000000014265233000000000007793553636XXXXXX6104011020190009903028971051
0490808840160308499283192941129412250104202000000000056570900000000056698000000000000127121102019000000014265233000000000007793553636XXXXXX6104011020190009903028971061
0490808840160140499523192941134338641002202000000000228227800000000228772000000000000544221102019000000020507488000000000033367515590XXXXXX8445081020190000146862331041
0490808840160140499523192941134338640903202000000000142207100000000142751300000000000544221102019000000020507488000000000033367515590XXXXXX8445081020190000146862331051
0490808840160140499523192941134338640804202000000000091379700000000091923900000000000544221102019000000020507488000000000033367515590XXXXXX8445081020190000146862331061
0500389590110000000000000000000000000000000000000000000000000000000000000000000000000000000000
055400437******711500000432465130092019080596000000000045702086549615080884016100219092821480807191515697183274257              
055400437******711500000432465130092019080596000000000045702086549615080884016100219092821480807191515697183274257              
055400437******711500000432465130092019080596000000000045702086549615080884016100219092821480807191515697183274257              
055400437******711500000432465130092019080596000000000045702086549615080884016100219092821480807191515697183274257              
055406669******517900099553870709092019644974000000000012332011349579080884016100219090720433688894615679010892009              
055406669******517900099553870709092019644974000000000012332011349579080884016100219090720433688894615679010892009              
055406669******779200098265257110092019625228000000000124000045349697080884016100319091010525281911515681253711786              
055406669******779200098265257110092019625228000000000124000045349697080884016100319091010525281911515681253711786              
055406669******488800001773548314082019652875000000000019495044949313080884016110619081419303457634515658233280508              
055406669******488800001773548314082019652875000000000019495044949313080884016110619081419303457634515658233280508              
055406669******488800001773548314082019652875000000000019495044949313080884016110619081419303457634515658233280508              
055406669******490600001245533527082019632971000000000013476083849977080884016110819082614593373744515668444098573              
055406669******490600001245533527082019632971000000000013476083849977080884016110819082614593373744515668444098573              
055409308******531700002749104912092019274371000000000053520008349194080884016110719091123261102724615682552624350              
055409308******531700002749104912092019274371000000000053520008349194080884016110719091123261102724615682552624350              
055409308******531700002749104912092019274371000000000053520008349194080884016110719091123261102724615682552624350              
055409308******531700002749104912092019274371000000000053520008349194080884016110719091123261102724615682552624350              
055409308******531700002749104912092019274371000000000053520008349194080884016110719091123261102724615682552624350              
055415275******411900098643091910092019026748000000000022976045349697080884016110619091009460009194315681202737755              
055415275******411900098643091910092019026748000000000022976045349697080884016110619091009460009194315681202737755              
055419628******209700098983223121082019414270000000000044623030549801080884016100319082114253643764615664093013657              
055419628******209700098983223121082019414270000000000044623030549801080884016100319082114253643764615664093013657              
