03030102019RedecardExtrato de Movimentacao FinanceiraWESTWING              000488038959011DIARIO         V3.01 - 09/06 - EEFI
032038959011WESTWING              
040038959011000000000000000000000109201930092019000000000000000
040038977672000000000000000000000109201930092019000000000000000
040067603335000000000000000000000109201930092019000000000000000
040077879899000000000000000000000109201930092019000000000000000
040080884016000000000000000000000109201930092019000000000000000
044080884016193020672272910201900000000000522918CANCEL.DE VENDAS            552305******072100098583373508082019624763000000000014957092549056080820190808840163193021017490382910201931930210174903810201900000000000000000000000000000000005229               00                            1
044080884016193020672282910201900000000000523018CANCEL.DE VENDAS            552305******072100098583373508082019624763000000000014957092549056080820190808840163193021017490382910201931930210174903810201900000000000000000000000000000000005230               00                            1
044080884016193020672292910201900000000000828418CANCEL.DE VENDAS            553636******124100097153606710092019028886000000000049942062149828100920190808840163193021017490572910201931930210174905710201900000000000000000000000000000000008284               00                            1
044080884016193020672302910201900000000000828118CANCEL.DE VENDAS            553636******124100097153606710092019028886000000000049942062149828100920190808840163193021017490572910201931930210174905710201900000000000000000000000000000000008281               00                            1
044080884016193020672312910201900000000000828118CANCEL.DE VENDAS            553636******124100097153606710092019028886000000000049942062149828100920190808840163193021017490572910201931930210174905710201900000000000000000000000000000000008281               00                            1
044080884016193020672322910201900000000000828118CANCEL.DE VENDAS            553636******124100097153606710092019028886000000000049942062149828100920190808840163193021017490572910201931930210174905710201900000000000000000000000000000000008281               00                            1
044080884016193020672332910201900000000000828118CANCEL.DE VENDAS            553636******124100097153606710092019028886000000000049942062149828100920190808840163193021017490572910201931930210174905710201900000000000000000000000000000000008281               00                            1
044080884016193020672342910201900000000000073518CANCEL.DE VENDAS            515590******718100001195457711092019103770000000000049472093549746110920190808840163193021017492092910201931930210174920910201900000000000000000000000000000000000735               00                            1
044080884016193020672352910201900000000000073318CANCEL.DE VENDAS            515590******718100001195457711092019103770000000000049472093549746110920190808840163193021017492092910201931930210174920910201900000000000000000000000000000000000733               00                            1
044080884016193020672362910201900000000000073318CANCEL.DE VENDAS            515590******718100001195457711092019103770000000000049472093549746110920190808840163193021017492092910201931930210174920910201900000000000000000000000000000000000733               00                            1
044080884016193020672372910201900000000000358218CANCEL.DE VENDAS            549167******236200099183671122092019036642000000000032478091549543220920190808840163193021017493062910201931930210174930610201900000000000000000000000000000000003582               00                            1
044080884016193020672382910201900000000000358318CANCEL.DE VENDAS            549167******236200099183671122092019036642000000000032478091549543220920190808840163193021017493062910201931930210174930610201900000000000000000000000000000000003583               00                            1
044080884016193020672392910201900000000000358318CANCEL.DE VENDAS            549167******236200099183671122092019036642000000000032478091549543220920190808840163193021017493062910201931930210174930610201900000000000000000000000000000000003583               00                            1
044080884016193020672402910201900000000000358318CANCEL.DE VENDAS            549167******236200099183671122092019036642000000000032478091549543220920190808840163193021017493062910201931930210174930610201900000000000000000000000000000000003583               00                            1
044080884016193020672412910201900000000000456918CANCEL.DE VENDAS            422005******572000098809711519092019030480000000000016474004349468190920190808840163193021017493272910201931930210174932710201900000000000000000000000000000000004569               00                            3
044080884016193020672422910201900000000000456818CANCEL.DE VENDAS            422005******572000098809711519092019030480000000000016474004349468190920190808840163193021017493272910201931930210174932710201900000000000000000000000000000000004568               00                            3
044080884016193020672432910201900000000000870018CANCEL.DE VENDAS            550209******464100096972481518092019764112000000000017780090549911180920190808840163193021017494382910201931930210174943810201900000000000000000000000000000000008700               00                            1
044080884016193020672442910201900000000000870018CANCEL.DE VENDAS            550209******464100096972481518092019764112000000000017780090549911180920190808840163193021017494382910201931930210174943810201900000000000000000000000000000000008700               00                            1
044080884016193020672452910201900000000000750618CANCEL.DE VENDAS            422061******807800095343750717092019192673000000000015339044249858170920190808840163193021017495242910201931930210174952410201900000000000000000000000000000000007506               00                            3
044080884016193020672462910201900000000000750518CANCEL.DE VENDAS            422061******807800095343750717092019192673000000000015339044249858170920190808840163193021017495242910201931930210174952410201900000000000000000000000000000000007505               00                            3
044080884016193020672472910201900000000000243718CANCEL.DE VENDAS            422061******772500098930364107092019523852000000000054573081749987070920190808840163193021017495962910201931930210174959610201900000000000000000000000000000000002437               00                            3
044080884016193020672482910201900000000000243818CANCEL.DE VENDAS            422061******772500098930364107092019523852000000000054573081749987070920190808840163193021017495962910201931930210174959610201900000000000000000000000000000000002438               00                            3
044080884016193020672492910201900000000000243818CANCEL.DE VENDAS            422061******772500098930364107092019523852000000000054573081749987070920190808840163193021017495962910201931930210174959610201900000000000000000000000000000000002438               00                            3
044080884016193020672502910201900000000000243818CANCEL.DE VENDAS            422061******772500098930364107092019523852000000000054573081749987070920190808840163193021017495962910201931930210174959610201900000000000000000000000000000000002438               00                            3
044080884016193020672512910201900000000000243818CANCEL.DE VENDAS            422061******772500098930364107092019523852000000000054573081749987070920190808840163193021017495962910201931930210174959610201900000000000000000000000000000000002438               00                            3
044080884016193020672522910201900000000000722418CANCEL.DE VENDAS            553636******797700001789518920092019078189000000000023712050649876200920190808840163193021017498022910201931930210174980210201900000000000000000000000000000000007224               00                            1
044080884016193020672532910201900000000000722418CANCEL.DE VENDAS            553636******797700001789518920092019078189000000000023712050649876200920190808840163193021017498022910201931930210174980210201900000000000000000000000000000000007224               00                            1
044080884016193020672542910201900000000000722418CANCEL.DE VENDAS            553636******797700001789518920092019078189000000000023712050649876200920190808840163193021017498022910201931930210174980210201900000000000000000000000000000000007224               00                            1
044080884016193020672552910201900000000000094718CANCEL.DE VENDAS            514895******053400099338396309092019066328000000000056955031249344090920190808840163193021017498062910201931930210174980610201900000000000000000000000000000000000947               00                            1
044080884016193020672562910201900000000000094918CANCEL.DE VENDAS            514895******053400099338396309092019066328000000000056955031249344090920190808840163193021017498062910201931930210174980610201900000000000000000000000000000000000949               00                            1
044080884016193020672572910201900000000000094918CANCEL.DE VENDAS            514895******053400099338396309092019066328000000000056955031249344090920190808840163193021017498062910201931930210174980610201900000000000000000000000000000000000949               00                            1
044080884016193020672582910201900000000000094918CANCEL.DE VENDAS            514895******053400099338396309092019066328000000000056955031249344090920190808840163193021017498062910201931930210174980610201900000000000000000000000000000000000949               00                            1
044080884016193020672592910201900000000000094918CANCEL.DE VENDAS            514895******053400099338396309092019066328000000000056955031249344090920190808840163193021017498062910201931930210174980610201900000000000000000000000000000000000949               00                            1
044080884016193020672602910201900000000000239218CANCEL.DE VENDAS            453211******682800099034978312082019640855000000000053375085449648120820190808840163193021017498852910201931930210174988510201900000000000000000000000000000000002392               00                            3
044080884016193020672612910201900000000000239218CANCEL.DE VENDAS            453211******682800099034978312082019640855000000000053375085449648120820190808840163193021017498852910201931930210174988510201900000000000000000000000000000000002392               00                            3
044080884016193020672622910201900000000000239218CANCEL.DE VENDAS            453211******682800099034978312082019640855000000000053375085449648120820190808840163193021017498852910201931930210174988510201900000000000000000000000000000000002392               00                            3
044080884016193020672632910201900000000000239218CANCEL.DE VENDAS            453211******682800099034978312082019640855000000000053375085449648120820190808840163193021017498852910201931930210174988510201900000000000000000000000000000000002392               00                            3
044080884016193020672642910201900000000000239218CANCEL.DE VENDAS            453211******682800099034978312082019640855000000000053375085449648120820190808840163193021017498852910201931930210174988510201900000000000000000000000000000000002392               00                            3
044080884016193020672652910201900000000000239218CANCEL.DE VENDAS            453211******682800099034978312082019640855000000000053375085449648120820190808840163193021017498852910201931930210174988510201900000000000000000000000000000000002392               00                            3
044080884016193020672662910201900000000001617218CANCEL.DE VENDAS            403225******017100099965825127082019003224000000000138235083849977270820190808840163193021017499342910201931930210174993410201900000000000000000000000000000000016172               00                            3
044080884016193020672672910201900000000001617418CANCEL.DE VENDAS            403225******017100099965825127082019003224000000000138235083849977270820190808840163193021017499342910201931930210174993410201900000000000000000000000000000000016174               00                            3
044080884016193020672682910201900000000001617418CANCEL.DE VENDAS            403225******017100099965825127082019003224000000000138235083849977270820190808840163193021017499342910201931930210174993410201900000000000000000000000000000000016174               00                            3
044080884016193020672692910201900000000001617418CANCEL.DE VENDAS            403225******017100099965825127082019003224000000000138235083849977270820190808840163193021017499342910201931930210174993410201900000000000000000000000000000000016174               00                            3
044080884016193020672702910201900000000001598018CANCEL.DE VENDAS            406669******859900096386843516092019634420000000000048990015049803160920190808840163193021017499352910201931930210174993510201900000000000000000000000000000000015980               00                            3
044080884016193020672712910201900000000001598118CANCEL.DE VENDAS            406669******859900096386843516092019634420000000000048990015049803160920190808840163193021017499352910201931930210174993510201900000000000000000000000000000000015981               00                            3
044080884016193020672722910201900000000001598118CANCEL.DE VENDAS            406669******859900096386843516092019634420000000000048990015049803160920190808840163193021017499352910201931930210174993510201900000000000000000000000000000000015981               00                            3
044080884016193020672732910201900000000000069318CANCEL.DE VENDAS            544731******047800099287540308082019541566000000000036270092549056080820190808840163193021017499662910201931930210174996610201900000000000000000000000000000000000693               00                            1
044080884016193020672742910201900000000000069018CANCEL.DE VENDAS            544731******047800099287540308082019541566000000000036270092549056080820190808840163193021017499662910201931930210174996610201900000000000000000000000000000000000690               00                            1
044080884016193020672752910201900000000000069018CANCEL.DE VENDAS            544731******047800099287540308082019541566000000000036270092549056080820190808840163193021017499662910201931930210174996610201900000000000000000000000000000000000690               00                            1
044080884016193020672762910201900000000000069018CANCEL.DE VENDAS            544731******047800099287540308082019541566000000000036270092549056080820190808840163193021017499662910201931930210174996610201900000000000000000000000000000000000690               00                            1
044080884016193020672772910201900000000000069018CANCEL.DE VENDAS            544731******047800099287540308082019541566000000000036270092549056080820190808840163193021017499662910201931930210174996610201900000000000000000000000000000000000690               00                            1
044080884016193020672782910201900000000000069018CANCEL.DE VENDAS            544731******047800099287540308082019541566000000000036270092549056080820190808840163193021017499662910201931930210174996610201900000000000000000000000000000000000690               00                            1
044080884016193020672792910201900000000000644118CANCEL.DE VENDAS            541555******534000099539216521072019016214000000000019744002649617210720190808840163193021017499882910201931930210174998810201900000000000000000000000000000000006441               00                            1
044080884016193020672802910201900000000000644018CANCEL.DE VENDAS            541555******534000099539216521072019016214000000000019744002649617210720190808840163193021017499882910201931930210174998810201900000000000000000000000000000000006440               00                            1
044080884016193020672812910201900000000000644018CANCEL.DE VENDAS            541555******534000099539216521072019016214000000000019744002649617210720190808840163193021017499882910201931930210174998810201900000000000000000000000000000000006440               00                            1
044080884016193020672822910201900000000000417818CANCEL.DE VENDAS            498406******903000099550678330092019021176000000000028643086549615300920190808840163193021017500182910201931930210175001810201900000000000000000000000000000000004178               00                            3
044080884016193020672832910201900000000000417918CANCEL.DE VENDAS            498406******903000099550678330092019021176000000000028643086549615300920190808840163193021017500182910201931930210175001810201900000000000000000000000000000000004179               00                            3
044080884016193020672842910201900000000000062618CANCEL.DE VENDAS            530780******902200098862346123092019078355000000000013653018149560230920190808840163193021017500722910201931930210175007210201900000000000000000000000000000000000626               00                            1
044080884016193020672852910201900000000000062618CANCEL.DE VENDAS            530780******902200098862346123092019078355000000000013653018149560230920190808840163193021017500722910201931930210175007210201900000000000000000000000000000000000626               00                            1
044080884016193020672862910201900000000000698618CANCEL.DE VENDAS            544731******858400000620594721102019004486000000000028564077949792211020190808840163193021017500982910201931930210175009810201900000000000000000000000000000000006986               00                            1
044080884016193020672872910201900000000000698918CANCEL.DE VENDAS            544731******858400000620594721102019004486000000000028564077949792211020190808840163193021017500982910201931930210175009810201900000000000000000000000000000000006989               00                            1
044080884016193020672882910201900000000000698918CANCEL.DE VENDAS            544731******858400000620594721102019004486000000000028564077949792211020190808840163193021017500982910201931930210175009810201900000000000000000000000000000000006989               00                            1
044080884016193020672892910201900000000000698918CANCEL.DE VENDAS            544731******858400000620594721102019004486000000000028564077949792211020190808840163193021017500982910201931930210175009810201900000000000000000000000000000000006989               00                            1
044080884016193020672902910201900000000000099318CANCEL.DE VENDAS            406655******228400001387083722092019691621000000000024510086549701220920190808840163193021017501052910201931930210175010510201900000000000000000000000000000000000993               00                            3
044080884016193020672912910201900000000000099618CANCEL.DE VENDAS            406655******228400001387083722092019691621000000000024510086549701220920190808840163193021017501052910201931930210175010510201900000000000000000000000000000000000996               00                            3
044080884016193020672922910201900000000000099618CANCEL.DE VENDAS            406655******228400001387083722092019691621000000000024510086549701220920190808840163193021017501052910201931930210175010510201900000000000000000000000000000000000996               00                            3
044080884016193020672932910201900000000000099618CANCEL.DE VENDAS            406655******228400001387083722092019691621000000000024510086549701220920190808840163193021017501052910201931930210175010510201900000000000000000000000000000000000996               00                            3
044080884016193020672942910201900000000000156318CANCEL.DE VENDAS            553636******221200000617494523102019044845000000000034540036249384231020190808840163193021017501342910201931930210175013410201900000000000000000000000000000000001563               00                            1
044080884016193020672952910201900000000000156418CANCEL.DE VENDAS            553636******221200000617494523102019044845000000000034540036249384231020190808840163193021017501342910201931930210175013410201900000000000000000000000000000000001564               00                            1
044080884016193020672962910201900000000000156418CANCEL.DE VENDAS            553636******221200000617494523102019044845000000000034540036249384231020190808840163193021017501342910201931930210175013410201900000000000000000000000000000000001564               00                            1
044080884016193020672972910201900000000000156418CANCEL.DE VENDAS            553636******221200000617494523102019044845000000000034540036249384231020190808840163193021017501342910201931930210175013410201900000000000000000000000000000000001564               00                            1
044080884016193020672982910201900000000001658118CANCEL.DE VENDAS            498408******331900099553632505102019067876000000000051936036149893051020190808840163193021017502112910201931930210175021110201900000000000000000000000000000000016581               00                            3
044080884016193020672992910201900000000001658118CANCEL.DE VENDAS            498408******331900099553632505102019067876000000000051936036149893051020190808840163193021017502112910201931930210175021110201900000000000000000000000000000000016581               00                            3
044080884016193020673002910201900000000000774318CANCEL.DE VENDAS            544731******898800000863828118102019585678000000000031646012549255181020190808840163193021017502122910201931930210175021210201900000000000000000000000000000000007743               00                            1
044080884016193020673012910201900000000000774218CANCEL.DE VENDAS            544731******898800000863828118102019585678000000000031646012549255181020190808840163193021017502122910201931930210175021210201900000000000000000000000000000000007742               00                            1
044080884016193020673022910201900000000000774218CANCEL.DE VENDAS            544731******898800000863828118102019585678000000000031646012549255181020190808840163193021017502122910201931930210175021210201900000000000000000000000000000000007742               00                            1
044080884016193020673032910201900000000000774218CANCEL.DE VENDAS            544731******898800000863828118102019585678000000000031646012549255181020190808840163193021017502122910201931930210175021210201900000000000000000000000000000000007742               00                            1
044080884016193020673042910201900000000000518018CANCEL.DE VENDAS            515601******591500095261882117092019312021000000000029450060449387170920190808840163193021017502302910201931930210175023010201900000000000000000000000000000000005180               00                            1
044080884016193020673052910201900000000000518018CANCEL.DE VENDAS            515601******591500095261882117092019312021000000000029450060449387170920190808840163193021017502302910201931930210175023010201900000000000000000000000000000000005180               00                            1
044080884016193020673062910201900000000001349418CANCEL.DE VENDAS            514945******334700098326221503082019058541000000000027578062349189030820190808840163193021017502552910201931930210175025510201900000000000000000000000000000000013494               00                            1
044080884016193020673072910201900000000001349418CANCEL.DE VENDAS            514945******334700098326221503082019058541000000000027578062349189030820190808840163193021017502552910201931930210175025510201900000000000000000000000000000000013494               00                            1
044080884016193020673082910201900000000000422018CANCEL.DE VENDAS            425850******695600000627347902102019462972000000000023273044349097021020190808840163193021017502762910201931930210175027610201900000000000000000000000000000000004220               00                            3
044080884016193020673092910201900000000000422118CANCEL.DE VENDAS            425850******695600000627347902102019462972000000000023273044349097021020190808840163193021017502762910201931930210175027610201900000000000000000000000000000000004221               00                            3
044080884016193020673102910201900000000000422118CANCEL.DE VENDAS            425850******695600000627347902102019462972000000000023273044349097021020190808840163193021017502762910201931930210175027610201900000000000000000000000000000000004221               00                            3
044080884016193020673112910201900000000001378618CANCEL.DE VENDAS            415275******211000099342345730092019080771000000000070441086549615300920190808840163193021017504042910201931930210175040410201900000000000000000000000000000000013786               00                            3
044080884016193020673122910201900000000001378718CANCEL.DE VENDAS            415275******211000099342345730092019080771000000000070441086549615300920190808840163193021017504042910201931930210175040410201900000000000000000000000000000000013787               00                            3
044080884016193020673132910201900000000001378718CANCEL.DE VENDAS            415275******211000099342345730092019080771000000000070441086549615300920190808840163193021017504042910201931930210175040410201900000000000000000000000000000000013787               00                            3
044080884016193020673142910201900000000001378718CANCEL.DE VENDAS            415275******211000099342345730092019080771000000000070441086549615300920190808840163193021017504042910201931930210175040410201900000000000000000000000000000000013787               00                            3
044080884016193020673152910201900000000001378718CANCEL.DE VENDAS            415275******211000099342345730092019080771000000000070441086549615300920190808840163193021017504042910201931930210175040410201900000000000000000000000000000000013787               00                            3
044080884016193020673162910201900000000000713518CANCEL.DE VENDAS            456137******370900099955743118102019019777000000000021873095449514181020190808840163193021017504492910201931930210175044910201900000000000000000000000000000000007135               00                            3
044080884016193020673172910201900000000000713518CANCEL.DE VENDAS            456137******370900099955743118102019019777000000000021873095449514181020190808840163193021017504492910201931930210175044910201900000000000000000000000000000000007135               00                            3
044080884016193020673182910201900000000000713518CANCEL.DE VENDAS            456137******370900099955743118102019019777000000000021873095449514181020190808840163193021017504492910201931930210175044910201900000000000000000000000000000000007135               00                            3
044080884016193020673192910201900000000001490918CANCEL.DE VENDAS            552305******531900099535364710102019604213000000000046107088949804101020190808840163193021017504572910201931930210175045710201900000000000000000000000000000000014909               00                            1
044080884016193020673202910201900000000001490818CANCEL.DE VENDAS            552305******531900099535364710102019604213000000000046107088949804101020190808840163193021017504572910201931930210175045710201900000000000000000000000000000000014908               00                            1
044080884016193020673212910201900000000000998518CANCEL.DE VENDAS            422061******119600099042421701102019415270000000000078060012349651011020190808840163193021017505212910201931930210175052110201900000000000000000000000000000000009985               00                            3
044080884016193020673222910201900000000000998618CANCEL.DE VENDAS            422061******119600099042421701102019415270000000000078060012349651011020190808840163193021017505212910201931930210175052110201900000000000000000000000000000000009986               00                            3
044080884016193020673232910201900000000000998618CANCEL.DE VENDAS            422061******119600099042421701102019415270000000000078060012349651011020190808840163193021017505212910201931930210175052110201900000000000000000000000000000000009986               00                            3
044080884016193020673242910201900000000000998618CANCEL.DE VENDAS            422061******119600099042421701102019415270000000000078060012349651011020190808840163193021017505212910201931930210175052110201900000000000000000000000000000000009986               00                            3
044080884016193020673252910201900000000000998618CANCEL.DE VENDAS            422061******119600099042421701102019415270000000000078060012349651011020190808840163193021017505212910201931930210175052110201900000000000000000000000000000000009986               00                            3
044080884016193020673262910201900000000001124618CANCEL.DE VENDAS            606282******642900000727316315102019092606000000000011470063330077151020190808840163193021017505292910201931930210175052910201900000000000000000000000000000000011246               00                            5
044080884016193020673272910201900000000000380718CANCEL.DE VENDAS            498406******702700098361882905092019053763000000000078808024049554050920190808840163193021017505762910201931930210175057610201900000000000000000000000000000000003807               00                            3
044080884016193020673282910201900000000000380418CANCEL.DE VENDAS            498406******702700098361882905092019053763000000000078808024049554050920190808840163193021017505762910201931930210175057610201900000000000000000000000000000000003804               00                            3
044080884016193020673292910201900000000000380418CANCEL.DE VENDAS            498406******702700098361882905092019053763000000000078808024049554050920190808840163193021017505762910201931930210175057610201900000000000000000000000000000000003804               00                            3
044080884016193020673302910201900000000000380418CANCEL.DE VENDAS            498406******702700098361882905092019053763000000000078808024049554050920190808840163193021017505762910201931930210175057610201900000000000000000000000000000000003804               00                            3
044080884016193020673312910201900000000000380418CANCEL.DE VENDAS            498406******702700098361882905092019053763000000000078808024049554050920190808840163193021017505762910201931930210175057610201900000000000000000000000000000000003804               00                            3
044080884016193020673322910201900000000000487218CANCEL.DE VENDAS            553096******447000098732176525092019262015000000000017700074249175250920190808840163193021017506202910201931930210175062010201900000000000000000000000000000000004872               00                            1
044080884016193020673332910201900000000000487318CANCEL.DE VENDAS            553096******447000098732176525092019262015000000000017700074249175250920190808840163193021017506202910201931930210175062010201900000000000000000000000000000000004873               00                            1
044080884016193020673342910201900000000000453118CANCEL.DE VENDAS            464301******712400096489878716092019091050000000000053550015049803160920190808840163193021017507082910201931930210175070810201900000000000000000000000000000000004531               00                            3
044080884016193020673352910201900000000000452918CANCEL.DE VENDAS            464301******712400096489878716092019091050000000000053550015049803160920190808840163193021017507082910201931930210175070810201900000000000000000000000000000000004529               00                            3
044080884016193020673362910201900000000000452918CANCEL.DE VENDAS            464301******712400096489878716092019091050000000000053550015049803160920190808840163193021017507082910201931930210175070810201900000000000000000000000000000000004529               00                            3
044080884016193020673372910201900000000000452918CANCEL.DE VENDAS            464301******712400096489878716092019091050000000000053550015049803160920190808840163193021017507082910201931930210175070810201900000000000000000000000000000000004529               00                            3
044080884016193020673382910201900000000000353218CANCEL.DE VENDAS            514895******918900099927491330092019034835000000000034491002149478300920190808840163193021017508052910201931930210175080510201900000000000000000000000000000000003532               00                            1
044080884016193020673392910201900000000000353218CANCEL.DE VENDAS            514895******918900099927491330092019034835000000000034491002149478300920190808840163193021017508052910201931930210175080510201900000000000000000000000000000000003532               00                            1
044080884016193020673402910201900000000000131318CANCEL.DE VENDAS            498442******091700098811621723092019073247000000000034096003349982230920190808840163193021017508452910201931930210175084510201900000000000000000000000000000000001313               00                            3
044080884016193020673412910201900000000000131318CANCEL.DE VENDAS            498442******091700098811621723092019073247000000000034096003349982230920190808840163193021017508452910201931930210175084510201900000000000000000000000000000000001313               00                            3
044080884016193020673422910201900000000000567218CANCEL.DE VENDAS            606282******098700098968856722082019032939000000000041660074849555220820190808840163193021017508462910201931930210175084610201900000000000000000000000000000000005672               00                            5
044080884016193020673432910201900000000000566918CANCEL.DE VENDAS            606282******098700098968856722082019032939000000000041660074849555220820190808840163193021017508462910201931930210175084610201900000000000000000000000000000000005669               00                            5
044080884016193020673442910201900000000000566918CANCEL.DE VENDAS            606282******098700098968856722082019032939000000000041660074849555220820190808840163193021017508462910201931930210175084610201900000000000000000000000000000000005669               00                            5
044080884016193020673452910201900000000000566918CANCEL.DE VENDAS            606282******098700098968856722082019032939000000000041660074849555220820190808840163193021017508462910201931930210175084610201900000000000000000000000000000000005669               00                            5
044080884016193020673462910201900000000001423418CANCEL.DE VENDAS            498406******275900099118411301092019071755000000000029092021349903010920190808840163193021017508482910201931930210175084810201900000000000000000000000000000000014234               00                            3
044080884016193020673472910201900000000001423518CANCEL.DE VENDAS            498406******275900099118411301092019071755000000000029092021349903010920190808840163193021017508482910201931930210175084810201900000000000000000000000000000000014235               00                            3
044080884016193020673482910201900000000000413418CANCEL.DE VENDAS            525664******603500097070128716092019005524000000000020598030649613160920190808840163193021017508542910201931930210175085410201900000000000000000000000000000000004134               00                            1
044080884016193020673492910201900000000000413418CANCEL.DE VENDAS            525664******603500097070128716092019005524000000000020598030649613160920190808840163193021017508542910201931930210175085410201900000000000000000000000000000000004134               00                            1
044080884016193020673502910201900000000000362918CANCEL.DE VENDAS            553636******278200000383928918102019036169000000000012283012549255181020190808840163193021017508852910201931930210175088510201900000000000000000000000000000000003629               00                            1
044080884016193020673512910201900000000000362918CANCEL.DE VENDAS            553636******278200000383928918102019036169000000000012283012549255181020190808840163193021017508852910201931930210175088510201900000000000000000000000000000000003629               00                            1
044080884016193020673522910201900000000001028918CANCEL.DE VENDAS            498408******785200000819271915102019735874000000000021027099449526151020190808840163193021017509042910201931930210175090410201900000000000000000000000000000000010289               00                            3
044080884016193020673532910201900000000001028818CANCEL.DE VENDAS            498408******785200000819271915102019735874000000000021027099449526151020190808840163193021017509042910201931930210175090410201900000000000000000000000000000000010288               00                            3
044080884016193020673542910201900000000000248218CANCEL.DE VENDAS            544731******056300095540896702092019040763000000000025751053249857020920190808840163193021017509052910201931930210175090510201900000000000000000000000000000000002482               00                            1
044080884016193020673552910201900000000000248018CANCEL.DE VENDAS            544731******056300095540896702092019040763000000000025751053249857020920190808840163193021017509052910201931930210175090510201900000000000000000000000000000000002480               00                            1
044080884016193020673562910201900000000000248018CANCEL.DE VENDAS            544731******056300095540896702092019040763000000000025751053249857020920190808840163193021017509052910201931930210175090510201900000000000000000000000000000000002480               00                            1
044080884016193020673572910201900000000000248018CANCEL.DE VENDAS            544731******056300095540896702092019040763000000000025751053249857020920190808840163193021017509052910201931930210175090510201900000000000000000000000000000000002480               00                            1
044080884016193020673582910201900000000000643518CANCEL.DE VENDAS            498453******276800099728288923092019051731000000000013152003349982230920190808840163193021017509262910201931930210175092610201900000000000000000000000000000000006435               00                            3
044080884016193020673592910201900000000000643618CANCEL.DE VENDAS            498453******276800099728288923092019051731000000000013152003349982230920190808840163193021017509262910201931930210175092610201900000000000000000000000000000000006436               00                            3
044080884016193020673602910201900000000000244818CANCEL.DE VENDAS            525631******249500098768200125092019548433000000000030464074249175250920190808840163193021017509342910201931930210175093410201900000000000000000000000000000000002448               00                            1
044080884016193020673612910201900000000000244818CANCEL.DE VENDAS            525631******249500098768200125092019548433000000000030464074249175250920190808840163193021017509342910201931930210175093410201900000000000000000000000000000000002448               00                            1
044080884016193020673622910201900000000000244818CANCEL.DE VENDAS            525631******249500098768200125092019548433000000000030464074249175250920190808840163193021017509342910201931930210175093410201900000000000000000000000000000000002448               00                            1
044080884016193020673632910201900000000000185418CANCEL.DE VENDAS            552289******313000098514927703082019012870000000000067119062349189030820190808840163193021017509632910201931930210175096310201900000000000000000000000000000000001854               00                            1
044080884016193020673642910201900000000000185418CANCEL.DE VENDAS            552289******313000098514927703082019012870000000000067119062349189030820190808840163193021017509632910201931930210175096310201900000000000000000000000000000000001854               00                            1
044080884016193020673652910201900000000000185418CANCEL.DE VENDAS            552289******313000098514927703082019012870000000000067119062349189030820190808840163193021017509632910201931930210175096310201900000000000000000000000000000000001854               00                            1
044080884016193020673662910201900000000000185418CANCEL.DE VENDAS            552289******313000098514927703082019012870000000000067119062349189030820190808840163193021017509632910201931930210175096310201900000000000000000000000000000000001854               00                            1
044080884016193020673672910201900000000000185418CANCEL.DE VENDAS            552289******313000098514927703082019012870000000000067119062349189030820190808840163193021017509632910201931930210175096310201900000000000000000000000000000000001854               00                            1
044080884016193020673682910201900000000000185418CANCEL.DE VENDAS            552289******313000098514927703082019012870000000000067119062349189030820190808840163193021017509632910201931930210175096310201900000000000000000000000000000000001854               00                            1
044080884016193020673692910201900000000000879518CANCEL.DE VENDAS            535871******957300098352419121082019068010000000000053924046149636210820190808840163193021017509802910201931930210175098010201900000000000000000000000000000000008795               00                            1
044080884016193020673702910201900000000000879518CANCEL.DE VENDAS            535871******957300098352419121082019068010000000000053924046149636210820190808840163193021017509802910201931930210175098010201900000000000000000000000000000000008795               00                            1
044080884016193020673712910201900000000000879518CANCEL.DE VENDAS            535871******957300098352419121082019068010000000000053924046149636210820190808840163193021017509802910201931930210175098010201900000000000000000000000000000000008795               00                            1
044080884016193020673722910201900000000000879518CANCEL.DE VENDAS            535871******957300098352419121082019068010000000000053924046149636210820190808840163193021017509802910201931930210175098010201900000000000000000000000000000000008795               00                            1
044080884016193020673732910201900000000000879518CANCEL.DE VENDAS            535871******957300098352419121082019068010000000000053924046149636210820190808840163193021017509802910201931930210175098010201900000000000000000000000000000000008795               00                            1
044080884016193020673742910201900000000000879518CANCEL.DE VENDAS            535871******957300098352419121082019068010000000000053924046149636210820190808840163193021017509802910201931930210175098010201900000000000000000000000000000000008795               00                            1
044080884016193020673752910201900000000003501118CANCEL.DE VENDAS            522840******819800098862325116072019194975000000000093101069349355160720190808840163193021017509842910201931930210175098410201900000000000000000000000000000000035011               00                            1
044080884016193020673762910201900000000003501118CANCEL.DE VENDAS            522840******819800098862325116072019194975000000000093101069349355160720190808840163193021017509842910201931930210175098410201900000000000000000000000000000000035011               00                            1
044080884016193020673772910201900000000005661418CANCEL.DE VENDAS            422061******896300099621069701102019310066000000000115704012349651011020190808840163193021119352702910201931930211193527010201900000000000000000000000000000000056614               00                            3
044080884016193020673782910201900000000005661418CANCEL.DE VENDAS            422061******896300099621069701102019310066000000000115704012349651011020190808840163193021119352702910201931930211193527010201900000000000000000000000000000000056614               00                            3
044080884016193020673792910201900000000002239118CANCEL.DE VENDAS            490172******834700099152543514102019067425000000000152058071049827141020190808840163193021125123812910201931930211251238110201900000000000000000000000000000000022391               00                            3
044080884016193020673802910201900000000002239218CANCEL.DE VENDAS            490172******834700099152543514102019067425000000000152058071049827141020190808840163193021125123812910201931930211251238110201900000000000000000000000000000000022392               00                            3
044080884016193020673812910201900000000002239218CANCEL.DE VENDAS            490172******834700099152543514102019067425000000000152058071049827141020190808840163193021125123812910201931930211251238110201900000000000000000000000000000000022392               00                            3
044080884016193020673822910201900000000002239218CANCEL.DE VENDAS            490172******834700099152543514102019067425000000000152058071049827141020190808840163193021125123812910201931930211251238110201900000000000000000000000000000000022392               00                            3
044080884016193020673832910201900000000000132218CANCEL.DE VENDAS            530780******902200098862346123092019078355000000000013653018149560230920190808840163193021127370042910201931930211273700410201900000000000000000000000000000000001322               00                            1
044080884016193020673842910201900000000000132118CANCEL.DE VENDAS            530780******902200098862346123092019078355000000000013653018149560230920190808840163193021127370042910201931930211273700410201900000000000000000000000000000000001321               00                            1
044080884016193020673852910201900000000000835318CANCEL.DE VENDAS            550209******354400001165818922102019602285000000000051240007049832221020190808840163193021127370072910201931930211273700710201900000000000000000000000000000000008353               00                            1
044080884016193020673862910201900000000000835818CANCEL.DE VENDAS            550209******354400001165818922102019602285000000000051240007049832221020190808840163193021127370072910201931930211273700710201900000000000000000000000000000000008358               00                            1
044080884016193020673872910201900000000000835818CANCEL.DE VENDAS            550209******354400001165818922102019602285000000000051240007049832221020190808840163193021127370072910201931930211273700710201900000000000000000000000000000000008358               00                            1
044080884016193020673882910201900000000000835818CANCEL.DE VENDAS            550209******354400001165818922102019602285000000000051240007049832221020190808840163193021127370072910201931930211273700710201900000000000000000000000000000000008358               00                            1
044080884016193020673892910201900000000000299418CANCEL.DE VENDAS            410425******433200099148334922092019683830000000000038387086549701220920190808840163193021127370122910201931930211273701210201900000000000000000000000000000000002994               00                            3
044080884016193020673902910201900000000000299518CANCEL.DE VENDAS            410425******433200099148334922092019683830000000000038387086549701220920190808840163193021127370122910201931930211273701210201900000000000000000000000000000000002995               00                            3
044080884016193020673912910201900000000000299518CANCEL.DE VENDAS            410425******433200099148334922092019683830000000000038387086549701220920190808840163193021127370122910201931930211273701210201900000000000000000000000000000000002995               00                            3
044080884016193020673922910201900000000000236818CANCEL.DE VENDAS            530033******233400098850370723092019032396000000000021390018149560230920190808840163193021127370162910201931930211273701610201900000000000000000000000000000000002368               00                            1
044080884016193020673932910201900000000000237018CANCEL.DE VENDAS            530033******233400098850370723092019032396000000000021390018149560230920190808840163193021127370162910201931930211273701610201900000000000000000000000000000000002370               00                            1
044080884016193020673942910201900000000000237018CANCEL.DE VENDAS            530033******233400098850370723092019032396000000000021390018149560230920190808840163193021127370162910201931930211273701610201900000000000000000000000000000000002370               00                            1
044080884016193020673952910201900000000000124618CANCEL.DE VENDAS            515590******784600098520197322092019250778000000000018484091549543220920190808840163193021127370172910201931930211273701710201900000000000000000000000000000000001246               00                            1
044080884016193020673962910201900000000000124718CANCEL.DE VENDAS            515590******784600098520197322092019250778000000000018484091549543220920190808840163193021127370172910201931930211273701710201900000000000000000000000000000000001247               00                            1
044080884016193020673972910201900000000000238218CANCEL.DE VENDAS            459383******653500000854858723092019725452000000000062225003349982230920190808840163193021127370232910201931930211273702310201900000000000000000000000000000000002382               00                            3
044080884016193020673982910201900000000000238118CANCEL.DE VENDAS            459383******653500000854858723092019725452000000000062225003349982230920190808840163193021127370232910201931930211273702310201900000000000000000000000000000000002381               00                            3
044080884016193020673992910201900000000000238118CANCEL.DE VENDAS            459383******653500000854858723092019725452000000000062225003349982230920190808840163193021127370232910201931930211273702310201900000000000000000000000000000000002381               00                            3
044080884016193020674002910201900000000000091718CANCEL.DE VENDAS            421847******023000099594603723092019091036000000000013243003349982230920190808840163193021127370242910201931930211273702410201900000000000000000000000000000000000917               00                            3
044080884016193020674012910201900000000000091618CANCEL.DE VENDAS            421847******023000099594603723092019091036000000000013243003349982230920190808840163193021127370242910201931930211273702410201900000000000000000000000000000000000916               00                            3
044080884016193020674022910201900000000000933918CANCEL.DE VENDAS            498408******839000099139694722082019064737000000000028628059249960220820190808840163193021127371222910201931930211273712210201900000000000000000000000000000000009339               00                            3
044080884016193020674032910201900000000000933818CANCEL.DE VENDAS            498408******839000099139694722082019064737000000000028628059249960220820190808840163193021127371222910201931930211273712210201900000000000000000000000000000000009338               00                            3
044080884016193020674042910201900000000000933818CANCEL.DE VENDAS            498408******839000099139694722082019064737000000000028628059249960220820190808840163193021127371222910201931930211273712210201900000000000000000000000000000000009338               00                            3
044080884016193020674052910201900000000000903018CANCEL.DE VENDAS            490172******634800098937177718082019089291000000000023585057449547180820190808840163193021127371392910201931930211273713910201900000000000000000000000000000000009030               00                            3
044080884016193020674062910201900000000000903118CANCEL.DE VENDAS            490172******634800098937177718082019089291000000000023585057449547180820190808840163193021127371392910201931930211273713910201900000000000000000000000000000000009031               00                            3
044080884016193020674072910201900000000001464218CANCEL.DE VENDAS            498453******925300099754484721102019842160000000000059849065149162211020190808840163193021127371432910201931930211273714310201900000000000000000000000000000000014642               00                            3
044080884016193020674082910201900000000001464218CANCEL.DE VENDAS            498453******925300099754484721102019842160000000000059849065149162211020190808840163193021127371432910201931930211273714310201900000000000000000000000000000000014642               00                            3
044080884016193020674092910201900000000001464218CANCEL.DE VENDAS            498453******925300099754484721102019842160000000000059849065149162211020190808840163193021127371432910201931930211273714310201900000000000000000000000000000000014642               00                            3
044080884016193020674102910201900000000001464218CANCEL.DE VENDAS            498453******925300099754484721102019842160000000000059849065149162211020190808840163193021127371432910201931930211273714310201900000000000000000000000000000000014642               00                            3
044080884016193020674112910201900000000000090518CANCEL.DE VENDAS            515590******753800099963390530092019120364000000000018994002149478300920190808840163193021127371852910201931930211273718510201900000000000000000000000000000000000905               00                            1
044080884016193020674122910201900000000000090518CANCEL.DE VENDAS            515590******753800099963390530092019120364000000000018994002149478300920190808840163193021127371852910201931930211273718510201900000000000000000000000000000000000905               00                            1
044080884016193020674132910201900000000000090518CANCEL.DE VENDAS            515590******753800099963390530092019120364000000000018994002149478300920190808840163193021127371852910201931930211273718510201900000000000000000000000000000000000905               00                            1
044080884016193020674142910201900000000001312118CANCEL.DE VENDAS            554927******116500099524197720102019087592000000000026815054449974201020190808840163193021127371922910201931930211273719210201900000000000000000000000000000000013121               00                            1
044080884016193020674152910201900000000001312018CANCEL.DE VENDAS            554927******116500099524197720102019087592000000000026815054449974201020190808840163193021127371922910201931930211273719210201900000000000000000000000000000000013120               00                            1
044080884016193020674162910201900000000000468618CANCEL.DE VENDAS            439388******695800099539749130092019027188000000000083208086549615300920190808840163193021127372012910201931930211273720110201900000000000000000000000000000000004686               00                            3
044080884016193020674172910201900000000000468718CANCEL.DE VENDAS            439388******695800099539749130092019027188000000000083208086549615300920190808840163193021127372012910201931930211273720110201900000000000000000000000000000000004687               00                            3
044080884016193020674182910201900000000001250518CANCEL.DE VENDAS            498407******011500099916331730092019931758000000000082549086549615300920190808840163193021127372122910201931930211273721210201900000000000000000000000000000000012505               00                            3
044080884016193020674192910201900000000001250418CANCEL.DE VENDAS            498407******011500099916331730092019931758000000000082549086549615300920190808840163193021127372122910201931930211273721210201900000000000000000000000000000000012504               00                            3
044080884016193020674202910201900000000001250418CANCEL.DE VENDAS            498407******011500099916331730092019931758000000000082549086549615300920190808840163193021127372122910201931930211273721210201900000000000000000000000000000000012504               00                            3
044080884016193020674212910201900000000001250418CANCEL.DE VENDAS            498407******011500099916331730092019931758000000000082549086549615300920190808840163193021127372122910201931930211273721210201900000000000000000000000000000000012504               00                            3
044080884016193020674222910201900000000001250418CANCEL.DE VENDAS            498407******011500099916331730092019931758000000000082549086549615300920190808840163193021127372122910201931930211273721210201900000000000000000000000000000000012504               00                            3
044080884016193020674232910201900000000000323118CANCEL.DE VENDAS            549167******186600099071706722092019054771000000000010538091549543220920190808840163193021127372512910201931930211273725110201900000000000000000000000000000000003231               00                            1
044080884016193020674242910201900000000000323118CANCEL.DE VENDAS            549167******186600099071706722092019054771000000000010538091549543220920190808840163193021127372512910201931930211273725110201900000000000000000000000000000000003231               00                            1
044080884016193020674252910201900000000000357218CANCEL.DE VENDAS            552937******380800098764712923092019896268000000000020329018149560230920190808840163193021127372522910201931930211273725210201900000000000000000000000000000000003572               00                            1
044080884016193020674262910201900000000000357118CANCEL.DE VENDAS            552937******380800098764712923092019896268000000000020329018149560230920190808840163193021127372522910201931930211273725210201900000000000000000000000000000000003571               00                            1
044080884016193020674272910201900000000000357118CANCEL.DE VENDAS            552937******380800098764712923092019896268000000000020329018149560230920190808840163193021127372522910201931930211273725210201900000000000000000000000000000000003571               00                            1
044080884016193020674282910201900000000000187118CANCEL.DE VENDAS            415274******815700000674325928092019088218000000000012948047549022280920190808840163193021127372592910201931930211273725910201900000000000000000000000000000000001871               00                            3
044080884016193020674292910201900000000000187018CANCEL.DE VENDAS            415274******815700000674325928092019088218000000000012948047549022280920190808840163193021127372592910201931930211273725910201900000000000000000000000000000000001870               00                            3
044080884016193020674302910201900000000000629218CANCEL.DE VENDAS            523421******841400099576571930092019118704000000000025718002149478300920190808840163193021127372712910201931930211273727110201900000000000000000000000000000000006292               00                            1
044080884016193020674312910201900000000000629218CANCEL.DE VENDAS            523421******841400099576571930092019118704000000000025718002149478300920190808840163193021127372712910201931930211273727110201900000000000000000000000000000000006292               00                            1
044080884016193020674322910201900000000000629218CANCEL.DE VENDAS            523421******841400099576571930092019118704000000000025718002149478300920190808840163193021127372712910201931930211273727110201900000000000000000000000000000000006292               00                            1
044080884016193020674332910201900000000000629218CANCEL.DE VENDAS            523421******841400099576571930092019118704000000000025718002149478300920190808840163193021127372712910201931930211273727110201900000000000000000000000000000000006292               00                            1
044080884016193020674342910201900000000000616318CANCEL.DE VENDAS            550209******796800001581503111092019535448000000000031489093549746110920190808840163193021127372842910201931930211273728410201900000000000000000000000000000000006163               00                            1
044080884016193020674352910201900000000000616318CANCEL.DE VENDAS            550209******796800001581503111092019535448000000000031489093549746110920190808840163193021127372842910201931930211273728410201900000000000000000000000000000000006163               00                            1
044080884016193020674362910201900000000000616318CANCEL.DE VENDAS            550209******796800001581503111092019535448000000000031489093549746110920190808840163193021127372842910201931930211273728410201900000000000000000000000000000000006163               00                            1
044080884016193020674372910201900000000000616318CANCEL.DE VENDAS            550209******796800001581503111092019535448000000000031489093549746110920190808840163193021127372842910201931930211273728410201900000000000000000000000000000000006163               00                            1
044080884016193020674382910201900000000000616318CANCEL.DE VENDAS            550209******796800001581503111092019535448000000000031489093549746110920190808840163193021127372842910201931930211273728410201900000000000000000000000000000000006163               00                            1
044080884016193020674392910201900000000002078118CANCEL.DE VENDAS            516291******687400099410763118102019056961000000000084948012549255181020190808840163193021127372922910201931930211273729210201900000000000000000000000000000000020781               00                            1
044080884016193020674402910201900000000002078318CANCEL.DE VENDAS            516291******687400099410763118102019056961000000000084948012549255181020190808840163193021127372922910201931930211273729210201900000000000000000000000000000000020783               00                            1
044080884016193020674412910201900000000002078318CANCEL.DE VENDAS            516291******687400099410763118102019056961000000000084948012549255181020190808840163193021127372922910201931930211273729210201900000000000000000000000000000000020783               00                            1
044080884016193020674422910201900000000002078318CANCEL.DE VENDAS            516291******687400099410763118102019056961000000000084948012549255181020190808840163193021127372922910201931930211273729210201900000000000000000000000000000000020783               00                            1
044080884016193020674432910201900000000002760118CANCEL.DE VENDAS            552289******368600099585591315102019006803000000000141035019049898151020190808840163193021127372982910201931930211273729810201900000000000000000000000000000000027601               00                            1
044080884016193020674442910201900000000002760418CANCEL.DE VENDAS            552289******368600099585591315102019006803000000000141035019049898151020190808840163193021127372982910201931930211273729810201900000000000000000000000000000000027604               00                            1
044080884016193020674452910201900000000002760418CANCEL.DE VENDAS            552289******368600099585591315102019006803000000000141035019049898151020190808840163193021127372982910201931930211273729810201900000000000000000000000000000000027604               00                            1
044080884016193020674462910201900000000002760418CANCEL.DE VENDAS            552289******368600099585591315102019006803000000000141035019049898151020190808840163193021127372982910201931930211273729810201900000000000000000000000000000000027604               00                            1
044080884016193020674472910201900000000000766918CANCEL.DE VENDAS            520132******575500099916437530092019244257000000000015674002149478300920190808840163193021127373242910201931930211273732410201900000000000000000000000000000000007669               00                            1
044080884016193020674482910201900000000000767018CANCEL.DE VENDAS            520132******575500099916437530092019244257000000000015674002149478300920190808840163193021127373242910201931930211273732410201900000000000000000000000000000000007670               00                            1
044080884016193020674492910201900000000000441218CANCEL.DE VENDAS            535081******165900098007959514092019074197000000000056434091449814140920190808840163193021127373282910201931930211273732810201900000000000000000000000000000000004412               00                            1
044080884016193020674502910201900000000000441118CANCEL.DE VENDAS            535081******165900098007959514092019074197000000000056434091449814140920190808840163193021127373282910201931930211273732810201900000000000000000000000000000000004411               00                            1
044080884016193020674512910201900000000000441118CANCEL.DE VENDAS            535081******165900098007959514092019074197000000000056434091449814140920190808840163193021127373282910201931930211273732810201900000000000000000000000000000000004411               00                            1
044080884016193020674522910201900000000000441118CANCEL.DE VENDAS            535081******165900098007959514092019074197000000000056434091449814140920190808840163193021127373282910201931930211273732810201900000000000000000000000000000000004411               00                            1
044080884016193020674532910201900000000000441118CANCEL.DE VENDAS            535081******165900098007959514092019074197000000000056434091449814140920190808840163193021127373282910201931930211273732810201900000000000000000000000000000000004411               00                            1
044080884016193020674542910201900000000000342118CANCEL.DE VENDAS            409308******018100001249261527092019010354000000000038970016749188270920190808840163193021127373422910201931930211273734210201900000000000000000000000000000000003421               00                            3
044080884016193020674552910201900000000000342418CANCEL.DE VENDAS            409308******018100001249261527092019010354000000000038970016749188270920190808840163193021127373422910201931930211273734210201900000000000000000000000000000000003424               00                            3
044080884016193020674562910201900000000000342418CANCEL.DE VENDAS            409308******018100001249261527092019010354000000000038970016749188270920190808840163193021127373422910201931930211273734210201900000000000000000000000000000000003424               00                            3
044080884016193020674572910201900000000000342418CANCEL.DE VENDAS            409308******018100001249261527092019010354000000000038970016749188270920190808840163193021127373422910201931930211273734210201900000000000000000000000000000000003424               00                            3
044080884016193020674582910201900000000000342418CANCEL.DE VENDAS            409308******018100001249261527092019010354000000000038970016749188270920190808840163193021127373422910201931930211273734210201900000000000000000000000000000000003424               00                            3
044080884016193020674592910201900000000001935818CANCEL.DE VENDAS            514895******298300099354737922102019013242000000000079128007049832221020190808840163193021127373872910201931930211273738710201900000000000000000000000000000000019358               00                            1
044080884016193020674602910201900000000001935918CANCEL.DE VENDAS            514895******298300099354737922102019013242000000000079128007049832221020190808840163193021127373872910201931930211273738710201900000000000000000000000000000000019359               00                            1
044080884016193020674612910201900000000001935918CANCEL.DE VENDAS            514895******298300099354737922102019013242000000000079128007049832221020190808840163193021127373872910201931930211273738710201900000000000000000000000000000000019359               00                            1
044080884016193020674622910201900000000001935918CANCEL.DE VENDAS            514895******298300099354737922102019013242000000000079128007049832221020190808840163193021127373872910201931930211273738710201900000000000000000000000000000000019359               00                            1
044080884016193020674632910201900000000000117318CANCEL.DE VENDAS            515787******762800098852384923092019937394000000000017589018149560230920190808840163193021127374122910201931930211273741210201900000000000000000000000000000000001173               00                            1
044080884016193020674642910201900000000000117318CANCEL.DE VENDAS            515787******762800098852384923092019937394000000000017589018149560230920190808840163193021127374122910201931930211273741210201900000000000000000000000000000000001173               00                            1
044080884016193020674652910201900000000000259418CANCEL.DE VENDAS            415275******813500099194473522092019042754000000000083691086549701220920190808840163193021127374262910201931930211273742610201900000000000000000000000000000000002594               00                            3
044080884016193020674662910201900000000000259518CANCEL.DE VENDAS            415275******813500099194473522092019042754000000000083691086549701220920190808840163193021127374262910201931930211273742610201900000000000000000000000000000000002595               00                            3
044080884016193020674672910201900000000000343818CANCEL.DE VENDAS            525631******732900001216068307092019050735000000000022010091149337070920190808840163193021127374882910201931930211273748810201900000000000000000000000000000000003438               00                            1
044080884016193020674682910201900000000000343718CANCEL.DE VENDAS            525631******732900001216068307092019050735000000000022010091149337070920190808840163193021127374882910201931930211273748810201900000000000000000000000000000000003437               00                            1
044080884016193020674692910201900000000000343718CANCEL.DE VENDAS            525631******732900001216068307092019050735000000000022010091149337070920190808840163193021127374882910201931930211273748810201900000000000000000000000000000000003437               00                            1
044080884016193020674702910201900000000000434718CANCEL.DE VENDAS            554463******312900099630343727092019R54979000000000025697033149918270920190808840163193021127374982910201931930211273749810201900000000000000000000000000000000004347               00                            1
044080884016193020674712910201900000000000434618CANCEL.DE VENDAS            554463******312900099630343727092019R54979000000000025697033149918270920190808840163193021127374982910201931930211273749810201900000000000000000000000000000000004346               00                            1
044080884016193020674722910201900000000000434618CANCEL.DE VENDAS            554463******312900099630343727092019R54979000000000025697033149918270920190808840163193021127374982910201931930211273749810201900000000000000000000000000000000004346               00                            1
044080884016193020674732910201900000000000678118CANCEL.DE VENDAS            490172******576900098820256129082019065012000000000013860040349460290820190808840163193021127375022910201931930211273750210201900000000000000000000000000000000006781               00                            3
044080884016193020674742910201900000000000678218CANCEL.DE VENDAS            490172******576900098820256129082019065012000000000013860040349460290820190808840163193021127375022910201931930211273750210201900000000000000000000000000000000006782               00                            3
044080884016193020674752910201900000000000061518CANCEL.DE VENDAS            553639******501200097870481122082019027124000000000029521074849554220820190808840163193021127375492910201931930211273754910201900000000000000000000000000000000000615               00                            1
044080884016193020674762910201900000000000061418CANCEL.DE VENDAS            553639******501200097870481122082019027124000000000029521074849554220820190808840163193021127375492910201931930211273754910201900000000000000000000000000000000000614               00                            1
044080884016193020674772910201900000000000061418CANCEL.DE VENDAS            553639******501200097870481122082019027124000000000029521074849554220820190808840163193021127375492910201931930211273754910201900000000000000000000000000000000000614               00                            1
044080884016193020674782910201900000000000061418CANCEL.DE VENDAS            553639******501200097870481122082019027124000000000029521074849554220820190808840163193021127375492910201931930211273754910201900000000000000000000000000000000000614               00                            1
044080884016193020674792910201900000000000048118CANCEL.DE VENDAS            406669******958000099339342909092019600123000000000057669011349579090920190808840163193021127375502910201931930211273755010201900000000000000000000000000000000000481               00                            3
044080884016193020674802910201900000000000048518CANCEL.DE VENDAS            406669******958000099339342909092019600123000000000057669011349579090920190808840163193021127375502910201931930211273755010201900000000000000000000000000000000000485               00                            3
044080884016193020674812910201900000000000048518CANCEL.DE VENDAS            406669******958000099339342909092019600123000000000057669011349579090920190808840163193021127375502910201931930211273755010201900000000000000000000000000000000000485               00                            3
044080884016193020674822910201900000000000048518CANCEL.DE VENDAS            406669******958000099339342909092019600123000000000057669011349579090920190808840163193021127375502910201931930211273755010201900000000000000000000000000000000000485               00                            3
044080884016193020674832910201900000000000048518CANCEL.DE VENDAS            406669******958000099339342909092019600123000000000057669011349579090920190808840163193021127375502910201931930211273755010201900000000000000000000000000000000000485               00                            3
044080884016193020674842910201900000000000038318CANCEL.DE VENDAS            550209******695700099001278525092019481468000000000061603074249175250920190808840163193021127376012910201931930211273760110201900000000000000000000000000000000000383               00                            1
044080884016193020674852910201900000000000038418CANCEL.DE VENDAS            550209******695700099001278525092019481468000000000061603074249175250920190808840163193021127376012910201931930211273760110201900000000000000000000000000000000000384               00                            1
044080884016193020674862910201900000000000038418CANCEL.DE VENDAS            550209******695700099001278525092019481468000000000061603074249175250920190808840163193021127376012910201931930211273760110201900000000000000000000000000000000000384               00                            1
044080884016193020674872910201900000000000038418CANCEL.DE VENDAS            550209******695700099001278525092019481468000000000061603074249175250920190808840163193021127376012910201931930211273760110201900000000000000000000000000000000000384               00                            1
044080884016193020674882910201900000000000038418CANCEL.DE VENDAS            550209******695700099001278525092019481468000000000061603074249175250920190808840163193021127376012910201931930211273760110201900000000000000000000000000000000000384               00                            1
044080884016193020674892910201900000000000243518CANCEL.DE VENDAS            489391******034200098872983915092019021830000000000015125096849904150920190808840163193021127376982910201931930211273769810201900000000000000000000000000000000002435               00                            3
044080884016193020674902910201900000000000243618CANCEL.DE VENDAS            489391******034200098872983915092019021830000000000015125096849904150920190808840163193021127376982910201931930211273769810201900000000000000000000000000000000002436               00                            3
044080884016193020674912910201900000000000768818CANCEL.DE VENDAS            422061******092200096999830716092019540949000000000023568015049803160920190808840163193021127377092910201931930211273770910201900000000000000000000000000000000007688               00                            3
044080884016193020674922910201900000000000768818CANCEL.DE VENDAS            422061******092200096999830716092019540949000000000023568015049803160920190808840163193021127377092910201931930211273770910201900000000000000000000000000000000007688               00                            3
044080884016193020674932910201900000000000768818CANCEL.DE VENDAS            422061******092200096999830716092019540949000000000023568015049803160920190808840163193021127377092910201931930211273770910201900000000000000000000000000000000007688               00                            3
044080884016193020674942910201900000000000291518CANCEL.DE VENDAS            459360******070600099554404530092019670791000000000012275086549615300920190808840163193021127378042910201931930211273780410201900000000000000000000000000000000002915               00                            3
044080884016193020674952910201900000000000291518CANCEL.DE VENDAS            459360******070600099554404530092019670791000000000012275086549615300920190808840163193021127378042910201931930211273780410201900000000000000000000000000000000002915               00                            3
044080884016193020674962910201900000000000284218CANCEL.DE VENDAS            522688******838600001634505524092019426686000000000046970046249503240920190808840163193021127378782910201931930211273787810201900000000000000000000000000000000002842               00                            1
044080884016193020674972910201900000000000284218CANCEL.DE VENDAS            522688******838600001634505524092019426686000000000046970046249503240920190808840163193021127378782910201931930211273787810201900000000000000000000000000000000002842               00                            1
044080884016193020674982910201900000000000284218CANCEL.DE VENDAS            522688******838600001634505524092019426686000000000046970046249503240920190808840163193021127378782910201931930211273787810201900000000000000000000000000000000002842               00                            1
044080884016193020674992910201900000000000284218CANCEL.DE VENDAS            522688******838600001634505524092019426686000000000046970046249503240920190808840163193021127378782910201931930211273787810201900000000000000000000000000000000002842               00                            1
044080884016193020675002910201900000000000284218CANCEL.DE VENDAS            522688******838600001634505524092019426686000000000046970046249503240920190808840163193021127378782910201931930211273787810201900000000000000000000000000000000002842               00                            1
044080884016193020675012910201900000000000231618CANCEL.DE VENDAS            552305******310300098139990723092019655588000000000060541018149560230920190808840163193021127378812910201931930211273788110201900000000000000000000000000000000002316               00                            1
044080884016193020675022910201900000000000231518CANCEL.DE VENDAS            552305******310300098139990723092019655588000000000060541018149560230920190808840163193021127378812910201931930211273788110201900000000000000000000000000000000002315               00                            1
044080884016193020675032910201900000000000231518CANCEL.DE VENDAS            552305******310300098139990723092019655588000000000060541018149560230920190808840163193021127378812910201931930211273788110201900000000000000000000000000000000002315               00                            1
044080884016193020675042910201900000000000231518CANCEL.DE VENDAS            552305******310300098139990723092019655588000000000060541018149560230920190808840163193021127378812910201931930211273788110201900000000000000000000000000000000002315               00                            1
044080884016193020675052910201900000000000231518CANCEL.DE VENDAS            552305******310300098139990723092019655588000000000060541018149560230920190808840163193021127378812910201931930211273788110201900000000000000000000000000000000002315               00                            1
044080884016193020675062910201900000000000098918CANCEL.DE VENDAS            544731******655600099944371330092019350069000000000030996002149478300920190808840163193021127379002910201931930211273790010201900000000000000000000000000000000000989               00                            1
044080884016193020675072910201900000000000099218CANCEL.DE VENDAS            544731******655600099944371330092019350069000000000030996002149478300920190808840163193021127379002910201931930211273790010201900000000000000000000000000000000000992               00                            1
044080884016193020675082910201900000000000099218CANCEL.DE VENDAS            544731******655600099944371330092019350069000000000030996002149478300920190808840163193021127379002910201931930211273790010201900000000000000000000000000000000000992               00                            1
044080884016193020675092910201900000000000099218CANCEL.DE VENDAS            544731******655600099944371330092019350069000000000030996002149478300920190808840163193021127379002910201931930211273790010201900000000000000000000000000000000000992               00                            1
044080884016193020675102910201900000000000986218CANCEL.DE VENDAS            515590******869700000809266730092019485281000000000030233002149478300920190808840163193021127379082910201931930211273790810201900000000000000000000000000000000009862               00                            1
044080884016193020675112910201900000000000986218CANCEL.DE VENDAS            515590******869700000809266730092019485281000000000030233002149478300920190808840163193021127379082910201931930211273790810201900000000000000000000000000000000009862               00                            1
044080884016193020675122910201900000000000986218CANCEL.DE VENDAS            515590******869700000809266730092019485281000000000030233002149478300920190808840163193021127379082910201931930211273790810201900000000000000000000000000000000009862               00                            1
044080884016193020675132910201900000000010759718CANCEL.DE VENDAS            515590******533600099247626502092019430965000000000219900053249857020920190808840163193021127379172910201931930211273791710201900000000000000000000000000000000107597               00                            1
044080884016193020675142910201900000000010759718CANCEL.DE VENDAS            515590******533600099247626502092019430965000000000219900053249857020920190808840163193021127379172910201931930211273791710201900000000000000000000000000000000107597               00                            1
044080884016193020675152910201900000000000133918CANCEL.DE VENDAS            549167******867900098808294515092019025136000000000021366002349254150920190808840163193021127379192910201931930211273791910201900000000000000000000000000000000001339               00                            1
044080884016193020675162910201900000000000134018CANCEL.DE VENDAS            549167******867900098808294515092019025136000000000021366002349254150920190808840163193021127379192910201931930211273791910201900000000000000000000000000000000001340               00                            1
044080884016193020675172910201900000000000134018CANCEL.DE VENDAS            549167******867900098808294515092019025136000000000021366002349254150920190808840163193021127379192910201931930211273791910201900000000000000000000000000000000001340               00                            1
044080884016193020675182910201900000000001027118CANCEL.DE VENDAS            536805******126100098888198926092019672123000000000020992002549200260920190808840163193021127379412910201931930211273794110201900000000000000000000000000000000010271               00                            1
044080884016193020675192910201900000000001027218CANCEL.DE VENDAS            536805******126100098888198926092019672123000000000020992002549200260920190808840163193021127379412910201931930211273794110201900000000000000000000000000000000010272               00                            1
044080884016193020675202910201900000000000829818CANCEL.DE VENDAS            553096******510100099035910722102019271540000000000016960007049832221020190808840163193021127379442910201931930211273794410201900000000000000000000000000000000008298               00                            1
044080884016193020675212910201900000000000829918CANCEL.DE VENDAS            553096******510100099035910722102019271540000000000016960007049832221020190808840163193021127379442910201931930211273794410201900000000000000000000000000000000008299               00                            1
044080884016193020675222910201900000000000172118CANCEL.DE VENDAS            541759******200500098524916106092019003977000000000104928072949364060920190808840163193021127379502910201931930211273795010201900000000000000000000000000000000001721               00                            1
044080884016193020675232910201900000000000172118CANCEL.DE VENDAS            541759******200500098524916106092019003977000000000104928072949364060920190808840163193021127379502910201931930211273795010201900000000000000000000000000000000001721               00                            1
044080884016193020675242910201900000000000172118CANCEL.DE VENDAS            541759******200500098524916106092019003977000000000104928072949364060920190808840163193021127379502910201931930211273795010201900000000000000000000000000000000001721               00                            1
044080884016193020675252910201900000000000509018CANCEL.DE VENDAS            544540******028700099266420317102019014287000000000022064080549681171020190808840163193021127379532910201931930211273795310201900000000000000000000000000000000005090               00                            1
044080884016193020675262910201900000000000509018CANCEL.DE VENDAS            544540******028700099266420317102019014287000000000022064080549681171020190808840163193021127379532910201931930211273795310201900000000000000000000000000000000005090               00                            1
044080884016193020675272910201900000000000509018CANCEL.DE VENDAS            544540******028700099266420317102019014287000000000022064080549681171020190808840163193021127379532910201931930211273795310201900000000000000000000000000000000005090               00                            1
044080884016193020675282910201900000000002764018CANCEL.DE VENDAS            515590******495200098260255118092019063960000000000056490090549911180920190808840163193021127379862910201931930211273798610201900000000000000000000000000000000027640               00                            1
044080884016193020675292910201900000000002764118CANCEL.DE VENDAS            515590******495200098260255118092019063960000000000056490090549911180920190808840163193021127379862910201931930211273798610201900000000000000000000000000000000027641               00                            1
044080884016193020675302910201900000000000362618CANCEL.DE VENDAS            536143******043400098162517523092019070863000000000069313018149560230920190808840163193021127387142910201931930211273871410201900000000000000000000000000000000003626               00                            1
044080884016193020675312910201900000000000362718CANCEL.DE VENDAS            536143******043400098162517523092019070863000000000069313018149560230920190808840163193021127387142910201931930211273871410201900000000000000000000000000000000003627               00                            1
044080884016193020675322910201900000000013048018CANCEL.DE VENDAS            553636******655700000943458513082019054011000000000618714030449564130820190808840163193021143067472910201931930211430674710201900000000000000000000000000000000130480               00                            1
044080884016193020675332910201900000000013048018CANCEL.DE VENDAS            553636******655700000943458513082019054011000000000618714030449564130820190808840163193021143067472910201931930211430674710201900000000000000000000000000000000130480               00                            1
044080884016193020675342910201900000000013048018CANCEL.DE VENDAS            553636******655700000943458513082019054011000000000618714030449564130820190808840163193021143067472910201931930211430674710201900000000000000000000000000000000130480               00                            1
044080884016193020675352910201900000000007134618CANCEL.DE VENDAS            553636******655700000943458513082019054011000000000618714030449564130820190808840163193021144042292910201931930211440422910201900000000000000000000000000000000071346               00                            1
044080884016193020675362910201900000000007134418CANCEL.DE VENDAS            553636******655700000943458513082019054011000000000618714030449564130820190808840163193021144042292910201931930211440422910201900000000000000000000000000000000071344               00                            1
044080884016193020675372910201900000000007134418CANCEL.DE VENDAS            553636******655700000943458513082019054011000000000618714030449564130820190808840163193021144042292910201931930211440422910201900000000000000000000000000000000071344               00                            1
044080884016193020675382910201900000000000739018CANCEL.DE VENDAS            544731******464300098490306719092019093480000000000022657020549028190920190808840163193021148350132910201931930211483501310201900000000000000000000000000000000007390               00                            1
044080884016193020675392910201900000000000739118CANCEL.DE VENDAS            544731******464300098490306719092019093480000000000022657020549028190920190808840163193021148350132910201931930211483501310201900000000000000000000000000000000007391               00                            1
044080884016193020675402910201900000000000739118CANCEL.DE VENDAS            544731******464300098490306719092019093480000000000022657020549028190920190808840163193021148350132910201931930211483501310201900000000000000000000000000000000007391               00                            1
044080884016193020675412910201900000000000739518CANCEL.DE VENDAS            553636******539900099923892530092019014984000000000032232002149478300920190808840163193021148350282910201931930211483502810201900000000000000000000000000000000007395               00                            1
044080884016193020675422910201900000000000739518CANCEL.DE VENDAS            553636******539900099923892530092019014984000000000032232002149478300920190808840163193021148350282910201931930211483502810201900000000000000000000000000000000007395               00                            1
044080884016193020675432910201900000000000594218CANCEL.DE VENDAS            430535******213500099121850522092019013114000000000024288086549701220920190808840163193021148350532910201931930211483505310201900000000000000000000000000000000005942               00                            3
044080884016193020675442910201900000000000594218CANCEL.DE VENDAS            430535******213500099121850522092019013114000000000024288086549701220920190808840163193021148350532910201931930211483505310201900000000000000000000000000000000005942               00                            3
044080884016193020675452910201900000000000594218CANCEL.DE VENDAS            430535******213500099121850522092019013114000000000024288086549701220920190808840163193021148350532910201931930211483505310201900000000000000000000000000000000005942               00                            3
044080884016193020675462910201900000000000594218CANCEL.DE VENDAS            430535******213500099121850522092019013114000000000024288086549701220920190808840163193021148350532910201931930211483505310201900000000000000000000000000000000005942               00                            3
044080884016193020675472910201900000000000219418CANCEL.DE VENDAS            523421******636900098591282907092019077121000000000026719091149337070920190808840163193021148350952910201931930211483509510201900000000000000000000000000000000002194               00                            1
044080884016193020675482910201900000000000219318CANCEL.DE VENDAS            523421******636900098591282907092019077121000000000026719091149337070920190808840163193021148350952910201931930211483509510201900000000000000000000000000000000002193               00                            1
044080884016193020675492910201900000000000219318CANCEL.DE VENDAS            523421******636900098591282907092019077121000000000026719091149337070920190808840163193021148350952910201931930211483509510201900000000000000000000000000000000002193               00                            1
044080884016193020675502910201900000000000219318CANCEL.DE VENDAS            523421******636900098591282907092019077121000000000026719091149337070920190808840163193021148350952910201931930211483509510201900000000000000000000000000000000002193               00                            1
044080884016193020675512910201900000000001693018CANCEL.DE VENDAS            522840******194900098359639125092019420962000000000069198074249175250920190808840163193021148351032910201931930211483510310201900000000000000000000000000000000016930               00                            1
044080884016193020675522910201900000000001692918CANCEL.DE VENDAS            522840******194900098359639125092019420962000000000069198074249175250920190808840163193021148351032910201931930211483510310201900000000000000000000000000000000016929               00                            1
044080884016193020675532910201900000000001692918CANCEL.DE VENDAS            522840******194900098359639125092019420962000000000069198074249175250920190808840163193021148351032910201931930211483510310201900000000000000000000000000000000016929               00                            1
044080884016193020675542910201900000000001692918CANCEL.DE VENDAS            522840******194900098359639125092019420962000000000069198074249175250920190808840163193021148351032910201931930211483510310201900000000000000000000000000000000016929               00                            1
044080884016193020675552910201900000000000661518CANCEL.DE VENDAS            516292******117500098814064523092019350652000000000027039018149560230920190808840163193021148351532910201931930211483515310201900000000000000000000000000000000006615               00                            1
044080884016193020675562910201900000000000661518CANCEL.DE VENDAS            516292******117500098814064523092019350652000000000027039018149560230920190808840163193021148351532910201931930211483515310201900000000000000000000000000000000006615               00                            1
044080884016193020675572910201900000000000661518CANCEL.DE VENDAS            516292******117500098814064523092019350652000000000027039018149560230920190808840163193021148351532910201931930211483515310201900000000000000000000000000000000006615               00                            1
044080884016193020675582910201900000000000661518CANCEL.DE VENDAS            516292******117500098814064523092019350652000000000027039018149560230920190808840163193021148351532910201931930211483515310201900000000000000000000000000000000006615               00                            1
044080884016193020675592910201900000000000464518CANCEL.DE VENDAS            415274******712200098162306123092019053213000000000035351003349982230920190808840163193021148351562910201931930211483515610201900000000000000000000000000000000004645               00                            3
044080884016193020675602910201900000000000464518CANCEL.DE VENDAS            415274******712200098162306123092019053213000000000035351003349982230920190808840163193021148351562910201931930211483515610201900000000000000000000000000000000004645               00                            3
044080884016193020675612910201900000000000464518CANCEL.DE VENDAS            415274******712200098162306123092019053213000000000035351003349982230920190808840163193021148351562910201931930211483515610201900000000000000000000000000000000004645               00                            3
044080884016193020675622910201900000000001144118CANCEL.DE VENDAS            498401******483300098944886105102019758748000000000047892036149893051020190808840163193021148351922910201931930211483519210201900000000000000000000000000000000011441               00                            3
044080884016193020675632910201900000000001144018CANCEL.DE VENDAS            498401******483300098944886105102019758748000000000047892036149893051020190808840163193021148351922910201931930211483519210201900000000000000000000000000000000011440               00                            3
044080884016193020675642910201900000000001144018CANCEL.DE VENDAS            498401******483300098944886105102019758748000000000047892036149893051020190808840163193021148351922910201931930211483519210201900000000000000000000000000000000011440               00                            3
044080884016193020675652910201900000000000396518CANCEL.DE VENDAS            422061******834900099503626709102019143762000000000070126038649969091020190808840163193021148351982910201931930211483519810201900000000000000000000000000000000003965               00                            3
044080884016193020675662910201900000000000396618CANCEL.DE VENDAS            422061******834900099503626709102019143762000000000070126038649969091020190808840163193021148351982910201931930211483519810201900000000000000000000000000000000003966               00                            3
044080884016193020675672910201900000000000122518CANCEL.DE VENDAS            515894******484100097994178722092019142461000000000025935091549543220920190808840163193021148352302910201931930211483523010201900000000000000000000000000000000001225               00                            1
044080884016193020675682910201900000000000122818CANCEL.DE VENDAS            515894******484100097994178722092019142461000000000025935091549543220920190808840163193021148352302910201931930211483523010201900000000000000000000000000000000001228               00                            1
044080884016193020675692910201900000000000122818CANCEL.DE VENDAS            515894******484100097994178722092019142461000000000025935091549543220920190808840163193021148352302910201931930211483523010201900000000000000000000000000000000001228               00                            1
044080884016193020675702910201900000000000122818CANCEL.DE VENDAS            515894******484100097994178722092019142461000000000025935091549543220920190808840163193021148352302910201931930211483523010201900000000000000000000000000000000001228               00                            1
