03010102019RedecardExtrato de Movimentacao FinanceiraWESTWING              000468038959011DIARIO         V3.01 - 09/06 - EEFI
032038959011WESTWING              
040038959011000000000000000000000109201930092019000000000000000
040038977672000000000000000000000109201930092019000000000000000
040067603335000000000000000000000109201930092019000000000000000
040077879899000000000000000000000109201930092019000000000000000
040080884016000000000000000000000109201930092019000000000000000
044080884016192820765360910201900000000000722918CANCEL.DE VENDAS            459080******762900000914621115082019036892000000000029542074349598150820190808840163192821149500060910201931928211495000610201900000000000000000000000000000000007229               00                            3
044080884016192820765370910201900000000000722718CANCEL.DE VENDAS            459080******762900000914621115082019036892000000000029542074349598150820190808840163192821149500060910201931928211495000610201900000000000000000000000000000000007227               00                            3
044080884016192820765380910201900000000000722718CANCEL.DE VENDAS            459080******762900000914621115082019036892000000000029542074349598150820190808840163192821149500060910201931928211495000610201900000000000000000000000000000000007227               00                            3
044080884016192820765390910201900000000000722718CANCEL.DE VENDAS            459080******762900000914621115082019036892000000000029542074349598150820190808840163192821149500060910201931928211495000610201900000000000000000000000000000000007227               00                            3
044080884016192820765400910201900000000001154318CANCEL.DE VENDAS            552289******693200000952735323072019073521000000000031989059549905230720190808840163192821149500130910201931928211495001310201900000000000000000000000000000000011543               00                            1
044080884016192820765410910201900000000001154318CANCEL.DE VENDAS            552289******693200000952735323072019073521000000000031989059549905230720190808840163192821149500130910201931928211495001310201900000000000000000000000000000000011543               00                            1
044080884016192820765420910201900000000001354518CANCEL.DE VENDAS            522688******396100000231076723072019418473000000000027682059549905230720190808840163192821149500400910201931928211495004010201900000000000000000000000000000000013545               00                            1
044080884016192820765430910201900000000001354518CANCEL.DE VENDAS            522688******396100000231076723072019418473000000000027682059549905230720190808840163192821149500400910201931928211495004010201900000000000000000000000000000000013545               00                            1
044080884016192820765440910201900000000000661918CANCEL.DE VENDAS            523421******506000000378101128072019657024000000000027064086449911280720190808840163192821149500410910201931928211495004110201900000000000000000000000000000000006619               00                            1
044080884016192820765450910201900000000000662218CANCEL.DE VENDAS            523421******506000000378101128072019657024000000000027064086449911280720190808840163192821149500410910201931928211495004110201900000000000000000000000000000000006622               00                            1
044080884016192820765460910201900000000000662218CANCEL.DE VENDAS            523421******506000000378101128072019657024000000000027064086449911280720190808840163192821149500410910201931928211495004110201900000000000000000000000000000000006622               00                            1
044080884016192820765470910201900000000000662218CANCEL.DE VENDAS            523421******506000000378101128072019657024000000000027064086449911280720190808840163192821149500410910201931928211495004110201900000000000000000000000000000000006622               00                            1
044080884016192820765480910201900000000000690218CANCEL.DE VENDAS            606282******304100000858384902082019004796000000000035320031849489020820190808840163192821149500790910201931928211495007910201900000000000000000000000000000000006902               00                            5
044080884016192820765490910201900000000000690518CANCEL.DE VENDAS            606282******304100000858384902082019004796000000000035320031849489020820190808840163192821149500790910201931928211495007910201900000000000000000000000000000000006905               00                            5
044080884016192820765500910201900000000000690518CANCEL.DE VENDAS            606282******304100000858384902082019004796000000000035320031849489020820190808840163192821149500790910201931928211495007910201900000000000000000000000000000000006905               00                            5
044080884016192820765510910201900000000000690518CANCEL.DE VENDAS            606282******304100000858384902082019004796000000000035320031849489020820190808840163192821149500790910201931928211495007910201900000000000000000000000000000000006905               00                            5
044080884016192820765520910201900000000000690518CANCEL.DE VENDAS            606282******304100000858384902082019004796000000000035320031849489020820190808840163192821149500790910201931928211495007910201900000000000000000000000000000000006905               00                            5
044080884016192820765530910201900000000001989618CANCEL.DE VENDAS            553636******758200000308168313092019040565000000000040661058349997130920190808840163192821149500800910201931928211495008010201900000000000000000000000000000000019896               00                            1
044080884016192820765540910201900000000001989518CANCEL.DE VENDAS            553636******758200000308168313092019040565000000000040661058349997130920190808840163192821149500800910201931928211495008010201900000000000000000000000000000000019895               00                            1
044080884016192820765550910201900000000001044518CANCEL.DE VENDAS            544540******788200000957620928082019023528000000000083027027249599280820190808840163192821149501020910201931928211495010210201900000000000000000000000000000000010445               00                            1
044080884016192820765560910201900000000001044418CANCEL.DE VENDAS            544540******788200000957620928082019023528000000000083027027249599280820190808840163192821149501020910201931928211495010210201900000000000000000000000000000000010444               00                            1
044080884016192820765570910201900000000001044418CANCEL.DE VENDAS            544540******788200000957620928082019023528000000000083027027249599280820190808840163192821149501020910201931928211495010210201900000000000000000000000000000000010444               00                            1
044080884016192820765580910201900000000001044418CANCEL.DE VENDAS            544540******788200000957620928082019023528000000000083027027249599280820190808840163192821149501020910201931928211495010210201900000000000000000000000000000000010444               00                            1
044080884016192820765590910201900000000000608818CANCEL.DE VENDAS            490172******835000000912856515082019027477000000000031093074349598150820190808840163192821149501220910201931928211495012210201900000000000000000000000000000000006088               00                            3
044080884016192820765600910201900000000000608518CANCEL.DE VENDAS            490172******835000000912856515082019027477000000000031093074349598150820190808840163192821149501220910201931928211495012210201900000000000000000000000000000000006085               00                            3
044080884016192820765610910201900000000000608518CANCEL.DE VENDAS            490172******835000000912856515082019027477000000000031093074349598150820190808840163192821149501220910201931928211495012210201900000000000000000000000000000000006085               00                            3
044080884016192820765620910201900000000000608518CANCEL.DE VENDAS            490172******835000000912856515082019027477000000000031093074349598150820190808840163192821149501220910201931928211495012210201900000000000000000000000000000000006085               00                            3
044080884016192820765630910201900000000000608518CANCEL.DE VENDAS            490172******835000000912856515082019027477000000000031093074349598150820190808840163192821149501220910201931928211495012210201900000000000000000000000000000000006085               00                            3
044080884016192820765640910201900000000000724218CANCEL.DE VENDAS            554906******478500000961988113082019092846000000000044397030449564130820190808840163192821149501380910201931928211495013810201900000000000000000000000000000000007242               00                            1
044080884016192820765650910201900000000000724118CANCEL.DE VENDAS            554906******478500000961988113082019092846000000000044397030449564130820190808840163192821149501380910201931928211495013810201900000000000000000000000000000000007241               00                            1
044080884016192820765660910201900000000000724118CANCEL.DE VENDAS            554906******478500000961988113082019092846000000000044397030449564130820190808840163192821149501380910201931928211495013810201900000000000000000000000000000000007241               00                            1
044080884016192820765670910201900000000000724118CANCEL.DE VENDAS            554906******478500000961988113082019092846000000000044397030449564130820190808840163192821149501380910201931928211495013810201900000000000000000000000000000000007241               00                            1
044080884016192820765680910201900000000000724118CANCEL.DE VENDAS            554906******478500000961988113082019092846000000000044397030449564130820190808840163192821149501380910201931928211495013810201900000000000000000000000000000000007241               00                            1
044080884016192820765690910201900000000000724118CANCEL.DE VENDAS            554906******478500000961988113082019092846000000000044397030449564130820190808840163192821149501380910201931928211495013810201900000000000000000000000000000000007241               00                            1
044080884016192820765700910201900000000000270318CANCEL.DE VENDAS            535858******443800000785192305092019089455000000000023934040149134050920190808840163192821149501400910201931928211495014010201900000000000000000000000000000000002703               00                            1
044080884016192820765710910201900000000000270218CANCEL.DE VENDAS            535858******443800000785192305092019089455000000000023934040149134050920190808840163192821149501400910201931928211495014010201900000000000000000000000000000000002702               00                            1
044080884016192820765720910201900000000000270218CANCEL.DE VENDAS            535858******443800000785192305092019089455000000000023934040149134050920190808840163192821149501400910201931928211495014010201900000000000000000000000000000000002702               00                            1
044080884016192820765730910201900000000000466818CANCEL.DE VENDAS            552316******588800000841715119082019661831000000000030486089549539190820190808840163192821149501440910201931928211495014410201900000000000000000000000000000000004668               00                            1
044080884016192820765740910201900000000000466818CANCEL.DE VENDAS            552316******588800000841715119082019661831000000000030486089549539190820190808840163192821149501440910201931928211495014410201900000000000000000000000000000000004668               00                            1
044080884016192820765750910201900000000000466818CANCEL.DE VENDAS            552316******588800000841715119082019661831000000000030486089549539190820190808840163192821149501440910201931928211495014410201900000000000000000000000000000000004668               00                            1
044080884016192820765760910201900000000000466818CANCEL.DE VENDAS            552316******588800000841715119082019661831000000000030486089549539190820190808840163192821149501440910201931928211495014410201900000000000000000000000000000000004668               00                            1
044080884016192820765770910201900000000000466818CANCEL.DE VENDAS            552316******588800000841715119082019661831000000000030486089549539190820190808840163192821149501440910201931928211495014410201900000000000000000000000000000000004668               00                            1
044080884016192820765780910201900000000000846018CANCEL.DE VENDAS            421958******024600000779788726082019053030000000000017290056649934260820190808840163192821149501450910201931928211495014510201900000000000000000000000000000000008460               00                            3
044080884016192820765790910201900000000000846018CANCEL.DE VENDAS            421958******024600000779788726082019053030000000000017290056649934260820190808840163192821149501450910201931928211495014510201900000000000000000000000000000000008460               00                            3
044080884016192820765800910201900000000000240018CANCEL.DE VENDAS            550209******915700000840347701082019557340000000000033573099349448010820190808840163192821149501660910201931928211495016610201900000000000000000000000000000000002400               00                            1
044080884016192820765810910201900000000000239818CANCEL.DE VENDAS            550209******915700000840347701082019557340000000000033573099349448010820190808840163192821149501660910201931928211495016610201900000000000000000000000000000000002398               00                            1
044080884016192820765820910201900000000000239818CANCEL.DE VENDAS            550209******915700000840347701082019557340000000000033573099349448010820190808840163192821149501660910201931928211495016610201900000000000000000000000000000000002398               00                            1
044080884016192820765830910201900000000000239818CANCEL.DE VENDAS            550209******915700000840347701082019557340000000000033573099349448010820190808840163192821149501660910201931928211495016610201900000000000000000000000000000000002398               00                            1
044080884016192820765840910201900000000000239818CANCEL.DE VENDAS            550209******915700000840347701082019557340000000000033573099349448010820190808840163192821149501660910201931928211495016610201900000000000000000000000000000000002398               00                            1
044080884016192820765850910201900000000000241418CANCEL.DE VENDAS            553636******040400000215520921072019042481000000000037034002649617210720190808840163192821149501930910201931928211495019310201900000000000000000000000000000000002414               00                            1
044080884016192820765860910201900000000000241418CANCEL.DE VENDAS            553636******040400000215520921072019042481000000000037034002649617210720190808840163192821149501930910201931928211495019310201900000000000000000000000000000000002414               00                            1
044080884016192820765870910201900000000000241418CANCEL.DE VENDAS            553636******040400000215520921072019042481000000000037034002649617210720190808840163192821149501930910201931928211495019310201900000000000000000000000000000000002414               00                            1
044080884016192820765880910201900000000000241418CANCEL.DE VENDAS            553636******040400000215520921072019042481000000000037034002649617210720190808840163192821149501930910201931928211495019310201900000000000000000000000000000000002414               00                            1
044080884016192820765890910201900000000000653518CANCEL.DE VENDAS            522688******687700000921977314082019141170000000000026712061249596140820190808840163192821149502040910201931928211495020410201900000000000000000000000000000000006535               00                            1
044080884016192820765900910201900000000000653518CANCEL.DE VENDAS            522688******687700000921977314082019141170000000000026712061249596140820190808840163192821149502040910201931928211495020410201900000000000000000000000000000000006535               00                            1
044080884016192820765910910201900000000000653518CANCEL.DE VENDAS            522688******687700000921977314082019141170000000000026712061249596140820190808840163192821149502040910201931928211495020410201900000000000000000000000000000000006535               00                            1
044080884016192820765920910201900000000000653518CANCEL.DE VENDAS            522688******687700000921977314082019141170000000000026712061249596140820190808840163192821149502040910201931928211495020410201900000000000000000000000000000000006535               00                            1
044080884016192820765930910201900000000000759018CANCEL.DE VENDAS            514945******858200000262947723072019003284000000000023264059549905230720190808840163192821149502130910201931928211495021310201900000000000000000000000000000000007590               00                            1
044080884016192820765940910201900000000000758818CANCEL.DE VENDAS            514945******858200000262947723072019003284000000000023264059549905230720190808840163192821149502130910201931928211495021310201900000000000000000000000000000000007588               00                            1
044080884016192820765950910201900000000000758818CANCEL.DE VENDAS            514945******858200000262947723072019003284000000000023264059549905230720190808840163192821149502130910201931928211495021310201900000000000000000000000000000000007588               00                            1
044080884016192820765960910201900000000000741318CANCEL.DE VENDAS            522840******445100000240362511092019182669000000000045435093549746110920190808840163192821149502790910201931928211495027910201900000000000000000000000000000000007413               00                            1
044080884016192820765970910201900000000000741018CANCEL.DE VENDAS            522840******445100000240362511092019182669000000000045435093549746110920190808840163192821149502790910201931928211495027910201900000000000000000000000000000000007410               00                            1
044080884016192820765980910201900000000000741018CANCEL.DE VENDAS            522840******445100000240362511092019182669000000000045435093549746110920190808840163192821149502790910201931928211495027910201900000000000000000000000000000000007410               00                            1
044080884016192820765990910201900000000000741018CANCEL.DE VENDAS            522840******445100000240362511092019182669000000000045435093549746110920190808840163192821149502790910201931928211495027910201900000000000000000000000000000000007410               00                            1
044080884016192820766000910201900000000000741018CANCEL.DE VENDAS            522840******445100000240362511092019182669000000000045435093549746110920190808840163192821149502790910201931928211495027910201900000000000000000000000000000000007410               00                            1
044080884016192820766010910201900000000000307318CANCEL.DE VENDAS            421958******525000000926601919082019932854000000000017625074449719190820190808840163192821149502940910201931928211495029410201900000000000000000000000000000000003073               00                            3
044080884016192820766020910201900000000000307318CANCEL.DE VENDAS            421958******525000000926601919082019932854000000000017625074449719190820190808840163192821149502940910201931928211495029410201900000000000000000000000000000000003073               00                            3
044080884016192820766030910201900000000000704018CANCEL.DE VENDAS            521370******540200000968647916082019287693000000000021578021349273160820190808840163192821149503140910201931928211495031410201900000000000000000000000000000000007040               00                            1
044080884016192820766040910201900000000000703818CANCEL.DE VENDAS            521370******540200000968647916082019287693000000000021578021349273160820190808840163192821149503140910201931928211495031410201900000000000000000000000000000000007038               00                            1
044080884016192820766050910201900000000000703818CANCEL.DE VENDAS            521370******540200000968647916082019287693000000000021578021349273160820190808840163192821149503140910201931928211495031410201900000000000000000000000000000000007038               00                            1
044080884016192820766060910201900000000001008118CANCEL.DE VENDAS            422061******138600000225019313092019014653000000000031009040749669130920190808840163192821149503690910201931928211495036910201900000000000000000000000000000000010081               00                            3
044080884016192820766070910201900000000001008118CANCEL.DE VENDAS            422061******138600000225019313092019014653000000000031009040749669130920190808840163192821149503690910201931928211495036910201900000000000000000000000000000000010081               00                            3
044080884016192820766080910201900000000000615318CANCEL.DE VENDAS            514945******925100000343090507082019063828000000000031434060549587070820190808840163192821149504780910201931928211495047810201900000000000000000000000000000000006153               00                            1
044080884016192820766090910201900000000000615218CANCEL.DE VENDAS            514945******925100000343090507082019063828000000000031434060549587070820190808840163192821149504780910201931928211495047810201900000000000000000000000000000000006152               00                            1
044080884016192820766100910201900000000000615218CANCEL.DE VENDAS            514945******925100000343090507082019063828000000000031434060549587070820190808840163192821149504780910201931928211495047810201900000000000000000000000000000000006152               00                            1
044080884016192820766110910201900000000000615218CANCEL.DE VENDAS            514945******925100000343090507082019063828000000000031434060549587070820190808840163192821149504780910201931928211495047810201900000000000000000000000000000000006152               00                            1
044080884016192820766120910201900000000000615218CANCEL.DE VENDAS            514945******925100000343090507082019063828000000000031434060549587070820190808840163192821149504780910201931928211495047810201900000000000000000000000000000000006152               00                            1
044080884016192820766130910201900000000000127818CANCEL.DE VENDAS            523421******937300000950253116082019737436000000000041984021349273160820190808840163192821149504810910201931928211495048110201900000000000000000000000000000000001278               00                            1
044080884016192820766140910201900000000000127718CANCEL.DE VENDAS            523421******937300000950253116082019737436000000000041984021349273160820190808840163192821149504810910201931928211495048110201900000000000000000000000000000000001277               00                            1
044080884016192820766150910201900000000000127718CANCEL.DE VENDAS            523421******937300000950253116082019737436000000000041984021349273160820190808840163192821149504810910201931928211495048110201900000000000000000000000000000000001277               00                            1
044080884016192820766160910201900000000000127718CANCEL.DE VENDAS            523421******937300000950253116082019737436000000000041984021349273160820190808840163192821149504810910201931928211495048110201900000000000000000000000000000000001277               00                            1
044080884016192820766170910201900000000000127718CANCEL.DE VENDAS            523421******937300000950253116082019737436000000000041984021349273160820190808840163192821149504810910201931928211495048110201900000000000000000000000000000000001277               00                            1
044080884016192820766180910201900000000000127718CANCEL.DE VENDAS            523421******937300000950253116082019737436000000000041984021349273160820190808840163192821149504810910201931928211495048110201900000000000000000000000000000000001277               00                            1
044080884016192820766190910201900000000000742018CANCEL.DE VENDAS            515590******056400000910936101082019240358000000000022745099349448010820190808840163192821149504910910201931928211495049110201900000000000000000000000000000000007420               00                            1
044080884016192820766200910201900000000000741918CANCEL.DE VENDAS            515590******056400000910936101082019240358000000000022745099349448010820190808840163192821149504910910201931928211495049110201900000000000000000000000000000000007419               00                            1
044080884016192820766210910201900000000000741918CANCEL.DE VENDAS            515590******056400000910936101082019240358000000000022745099349448010820190808840163192821149504910910201931928211495049110201900000000000000000000000000000000007419               00                            1
044080884016192820766220910201900000000000136918CANCEL.DE VENDAS            536537******211800000564916930092019R99629000000000029138002149478300920190808840163192821149505330910201931928211495053310201900000000000000000000000000000000001369               00                            1
044080884016192820766230910201900000000000136818CANCEL.DE VENDAS            536537******211800000564916930092019R99629000000000029138002149478300920190808840163192821149505330910201931928211495053310201900000000000000000000000000000000001368               00                            1
044080884016192820766240910201900000000000136818CANCEL.DE VENDAS            536537******211800000564916930092019R99629000000000029138002149478300920190808840163192821149505330910201931928211495053310201900000000000000000000000000000000001368               00                            1
044080884016192820766250910201900000000000115118CANCEL.DE VENDAS            553096******393900000705892703092019488933000000000036124081549010030920190808840163192821149505510910201931928211495055110201900000000000000000000000000000000001151               00                            1
044080884016192820766260910201900000000000115218CANCEL.DE VENDAS            553096******393900000705892703092019488933000000000036124081549010030920190808840163192821149505510910201931928211495055110201900000000000000000000000000000000001152               00                            1
044080884016192820766270910201900000000000115218CANCEL.DE VENDAS            553096******393900000705892703092019488933000000000036124081549010030920190808840163192821149505510910201931928211495055110201900000000000000000000000000000000001152               00                            1
044080884016192820766280910201900000000000115218CANCEL.DE VENDAS            553096******393900000705892703092019488933000000000036124081549010030920190808840163192821149505510910201931928211495055110201900000000000000000000000000000000001152               00                            1
044080884016192820766290910201900000000000115218CANCEL.DE VENDAS            553096******393900000705892703092019488933000000000036124081549010030920190808840163192821149505510910201931928211495055110201900000000000000000000000000000000001152               00                            1
044080884016192820766300910201900000000000855918CANCEL.DE VENDAS            606282******557900000935899506082019052227000000000017514029549036060820190808840163192821149505960910201931928211495059610201900000000000000000000000000000000008559               00                            5
044080884016192820766310910201900000000000855918CANCEL.DE VENDAS            606282******557900000935899506082019052227000000000017514029549036060820190808840163192821149505960910201931928211495059610201900000000000000000000000000000000008559               00                            5
044080884016192820766320910201900000000000116618CANCEL.DE VENDAS            406655******302300000323221330082019674396000000000023236069849640300820190808840163192821149506000910201931928211495060010201900000000000000000000000000000000001166               00                            3
044080884016192820766330910201900000000000116618CANCEL.DE VENDAS            406655******302300000323221330082019674396000000000023236069849640300820190808840163192821149506000910201931928211495060010201900000000000000000000000000000000001166               00                            3
044080884016192820766340910201900000000000116618CANCEL.DE VENDAS            406655******302300000323221330082019674396000000000023236069849640300820190808840163192821149506000910201931928211495060010201900000000000000000000000000000000001166               00                            3
044080884016192820766350910201900000000000147018CANCEL.DE VENDAS            439389******154000000214109501092019009360000000000068551021349903010920190808840163192821149506150910201931928211495061510201900000000000000000000000000000000001470               00                            3
044080884016192820766360910201900000000000146918CANCEL.DE VENDAS            439389******154000000214109501092019009360000000000068551021349903010920190808840163192821149506150910201931928211495061510201900000000000000000000000000000000001469               00                            3
044080884016192820766370910201900000000000146918CANCEL.DE VENDAS            439389******154000000214109501092019009360000000000068551021349903010920190808840163192821149506150910201931928211495061510201900000000000000000000000000000000001469               00                            3
044080884016192820766380910201900000000000146918CANCEL.DE VENDAS            439389******154000000214109501092019009360000000000068551021349903010920190808840163192821149506150910201931928211495061510201900000000000000000000000000000000001469               00                            3
044080884016192820766390910201900000000000764718CANCEL.DE VENDAS            516292******940500000646312527092019884142000000000015627033149918270920190808840163192821149506570910201931928211495065710201900000000000000000000000000000000007647               00                            1
044080884016192820766400910201900000000000764618CANCEL.DE VENDAS            516292******940500000646312527092019884142000000000015627033149918270920190808840163192821149506570910201931928211495065710201900000000000000000000000000000000007646               00                            1
044080884016192820766410910201900000000000099318CANCEL.DE VENDAS            552693******731900000842245324072019313675000000000022506088149320240720190808840163192821149506760910201931928211495067610201900000000000000000000000000000000000993               00                            1
044080884016192820766420910201900000000000099318CANCEL.DE VENDAS            552693******731900000842245324072019313675000000000022506088149320240720190808840163192821149506760910201931928211495067610201900000000000000000000000000000000000993               00                            1
044080884016192820766430910201900000000000099318CANCEL.DE VENDAS            552693******731900000842245324072019313675000000000022506088149320240720190808840163192821149506760910201931928211495067610201900000000000000000000000000000000000993               00                            1
044080884016192820766440910201900000000000094518CANCEL.DE VENDAS            539083******520600000992610106092019083374000000000030639072949364060920190808840163192821149506920910201931928211495069210201900000000000000000000000000000000000945               00                            1
044080884016192820766450910201900000000000094718CANCEL.DE VENDAS            539083******520600000992610106092019083374000000000030639072949364060920190808840163192821149506920910201931928211495069210201900000000000000000000000000000000000947               00                            1
044080884016192820766460910201900000000000094718CANCEL.DE VENDAS            539083******520600000992610106092019083374000000000030639072949364060920190808840163192821149506920910201931928211495069210201900000000000000000000000000000000000947               00                            1
044080884016192820766470910201900000000000094718CANCEL.DE VENDAS            539083******520600000992610106092019083374000000000030639072949364060920190808840163192821149506920910201931928211495069210201900000000000000000000000000000000000947               00                            1
044080884016192820766480910201900000000000094718CANCEL.DE VENDAS            539083******520600000992610106092019083374000000000030639072949364060920190808840163192821149506920910201931928211495069210201900000000000000000000000000000000000947               00                            1
044080884016192820766490910201900000000000108818CANCEL.DE VENDAS            553636******088000000246213319082019039260000000000066409089549539190820190808840163192821149507590910201931928211495075910201900000000000000000000000000000000001088               00                            1
044080884016192820766500910201900000000000108918CANCEL.DE VENDAS            553636******088000000246213319082019039260000000000066409089549539190820190808840163192821149507590910201931928211495075910201900000000000000000000000000000000001089               00                            1
044080884016192820766510910201900000000000108918CANCEL.DE VENDAS            553636******088000000246213319082019039260000000000066409089549539190820190808840163192821149507590910201931928211495075910201900000000000000000000000000000000001089               00                            1
044080884016192820766520910201900000000000108918CANCEL.DE VENDAS            553636******088000000246213319082019039260000000000066409089549539190820190808840163192821149507590910201931928211495075910201900000000000000000000000000000000001089               00                            1
044080884016192820766530910201900000000000108918CANCEL.DE VENDAS            553636******088000000246213319082019039260000000000066409089549539190820190808840163192821149507590910201931928211495075910201900000000000000000000000000000000001089               00                            1
044080884016192820766540910201900000000000108918CANCEL.DE VENDAS            553636******088000000246213319082019039260000000000066409089549539190820190808840163192821149507590910201931928211495075910201900000000000000000000000000000000001089               00                            1
044080884016192820766550910201900000000008241318CANCEL.DE VENDAS            498431******369500000506261730092019256255000000000168429086549615300920190808840163192821149507600910201931928211495076010201900000000000000000000000000000000082413               00                            3
044080884016192820766560910201900000000008241218CANCEL.DE VENDAS            498431******369500000506261730092019256255000000000168429086549615300920190808840163192821149507600910201931928211495076010201900000000000000000000000000000000082412               00                            3
044080884016192820766570910201900000000000670518CANCEL.DE VENDAS            547408******743300000423437324082019878315000000000013704035149679240820190808840163192821149507920910201931928211495079210201900000000000000000000000000000000006705               00                            1
044080884016192820766580910201900000000000670618CANCEL.DE VENDAS            547408******743300000423437324082019878315000000000013704035149679240820190808840163192821149507920910201931928211495079210201900000000000000000000000000000000006706               00                            1
044080884016192820766590910201900000000000847318CANCEL.DE VENDAS            544570******555400000272032707082019005214000000000051950060549587070820190808840163192821149508220910201931928211495082210201900000000000000000000000000000000008473               00                            1
044080884016192820766600910201900000000000847318CANCEL.DE VENDAS            544570******555400000272032707082019005214000000000051950060549587070820190808840163192821149508220910201931928211495082210201900000000000000000000000000000000008473               00                            1
044080884016192820766610910201900000000000847318CANCEL.DE VENDAS            544570******555400000272032707082019005214000000000051950060549587070820190808840163192821149508220910201931928211495082210201900000000000000000000000000000000008473               00                            1
044080884016192820766620910201900000000000847318CANCEL.DE VENDAS            544570******555400000272032707082019005214000000000051950060549587070820190808840163192821149508220910201931928211495082210201900000000000000000000000000000000008473               00                            1
044080884016192820766630910201900000000000847318CANCEL.DE VENDAS            544570******555400000272032707082019005214000000000051950060549587070820190808840163192821149508220910201931928211495082210201900000000000000000000000000000000008473               00                            1
044080884016192820766640910201900000000000847318CANCEL.DE VENDAS            544570******555400000272032707082019005214000000000051950060549587070820190808840163192821149508220910201931928211495082210201900000000000000000000000000000000008473               00                            1
044080884016192820766650910201900000000000856418CANCEL.DE VENDAS            421847******162300000866454905092019043050000000000026252024049554050920190808840163192821149508490910201931928211495084910201900000000000000000000000000000000008564               00                            3
044080884016192820766660910201900000000000856318CANCEL.DE VENDAS            421847******162300000866454905092019043050000000000026252024049554050920190808840163192821149508490910201931928211495084910201900000000000000000000000000000000008563               00                            3
044080884016192820766670910201900000000000856318CANCEL.DE VENDAS            421847******162300000866454905092019043050000000000026252024049554050920190808840163192821149508490910201931928211495084910201900000000000000000000000000000000008563               00                            3
044080884016192820766680910201900000000000491518CANCEL.DE VENDAS            516292******586800000366706530072019726405000000000022856043149451300720190808840163192821149508570910201931928211495085710201900000000000000000000000000000000004915               00                            1
044080884016192820766690910201900000000000491518CANCEL.DE VENDAS            516292******586800000366706530072019726405000000000022856043149451300720190808840163192821149508570910201931928211495085710201900000000000000000000000000000000004915               00                            1
044080884016192820766700910201900000000000491518CANCEL.DE VENDAS            516292******586800000366706530072019726405000000000022856043149451300720190808840163192821149508570910201931928211495085710201900000000000000000000000000000000004915               00                            1
044080884016192820766710910201900000000000270218CANCEL.DE VENDAS            544315******639000000867337517082019809567000000000024544052549819170820190808840163192821149508620910201931928211495086210201900000000000000000000000000000000002702               00                            1
044080884016192820766720910201900000000000269918CANCEL.DE VENDAS            544315******639000000867337517082019809567000000000024544052549819170820190808840163192821149508620910201931928211495086210201900000000000000000000000000000000002699               00                            1
044080884016192820766730910201900000000000269918CANCEL.DE VENDAS            544315******639000000867337517082019809567000000000024544052549819170820190808840163192821149508620910201931928211495086210201900000000000000000000000000000000002699               00                            1
044080884016192820766740910201900000000000269918CANCEL.DE VENDAS            544315******639000000867337517082019809567000000000024544052549819170820190808840163192821149508620910201931928211495086210201900000000000000000000000000000000002699               00                            1
044080884016192820766750910201900000000000214918CANCEL.DE VENDAS            515590******153800000832641315082019100377000000000030884089749124150820190808840163192821149508720910201931928211495087210201900000000000000000000000000000000002149               00                            1
044080884016192820766760910201900000000000214518CANCEL.DE VENDAS            515590******153800000832641315082019100377000000000030884089749124150820190808840163192821149508720910201931928211495087210201900000000000000000000000000000000002145               00                            1
044080884016192820766770910201900000000000214518CANCEL.DE VENDAS            515590******153800000832641315082019100377000000000030884089749124150820190808840163192821149508720910201931928211495087210201900000000000000000000000000000000002145               00                            1
044080884016192820766780910201900000000000214518CANCEL.DE VENDAS            515590******153800000832641315082019100377000000000030884089749124150820190808840163192821149508720910201931928211495087210201900000000000000000000000000000000002145               00                            1
044080884016192820766790910201900000000000214518CANCEL.DE VENDAS            515590******153800000832641315082019100377000000000030884089749124150820190808840163192821149508720910201931928211495087210201900000000000000000000000000000000002145               00                            1
044080884016192820766800910201900000000003525918CANCEL.DE VENDAS            553636******488000000968292730092019016714000000000248558002149478300920190808840163192821149508810910201931928211495088110201900000000000000000000000000000000035259               00                            1
044080884016192820766810910201900000000003525418CANCEL.DE VENDAS            553636******488000000968292730092019016714000000000248558002149478300920190808840163192821149508810910201931928211495088110201900000000000000000000000000000000035254               00                            1
044080884016192820766820910201900000000003525418CANCEL.DE VENDAS            553636******488000000968292730092019016714000000000248558002149478300920190808840163192821149508810910201931928211495088110201900000000000000000000000000000000035254               00                            1
044080884016192820766830910201900000000000128818CANCEL.DE VENDAS            553636******343700000926192702072019010661000000000034411079349689020720190808840163192821149508830910201931928211495088310201900000000000000000000000000000000001288               00                            1
044080884016192820766840910201900000000000128518CANCEL.DE VENDAS            553636******343700000926192702072019010661000000000034411079349689020720190808840163192821149508830910201931928211495088310201900000000000000000000000000000000001285               00                            1
044080884016192820766850910201900000000000128518CANCEL.DE VENDAS            553636******343700000926192702072019010661000000000034411079349689020720190808840163192821149508830910201931928211495088310201900000000000000000000000000000000001285               00                            1
044080884016192820766860910201900000000000128518CANCEL.DE VENDAS            553636******343700000926192702072019010661000000000034411079349689020720190808840163192821149508830910201931928211495088310201900000000000000000000000000000000001285               00                            1
044080884016192820766870910201900000000000360718CANCEL.DE VENDAS            544731******635600000811881910092019590864000000000020510062149828100920190808840163192821149508900910201931928211495089010201900000000000000000000000000000000003607               00                            1
044080884016192820766880910201900000000000360718CANCEL.DE VENDAS            544731******635600000811881910092019590864000000000020510062149828100920190808840163192821149508900910201931928211495089010201900000000000000000000000000000000003607               00                            1
044080884016192820766890910201900000000000360718CANCEL.DE VENDAS            544731******635600000811881910092019590864000000000020510062149828100920190808840163192821149508900910201931928211495089010201900000000000000000000000000000000003607               00                            1
044080884016192820766900910201900000000000858918CANCEL.DE VENDAS            516159******307400000923597329072019352881000000000017554014449248290720190808840163192821149509000910201931928211495090010201900000000000000000000000000000000008589               00                            1
044080884016192820766910910201900000000000858918CANCEL.DE VENDAS            516159******307400000923597329072019352881000000000017554014449248290720190808840163192821149509000910201931928211495090010201900000000000000000000000000000000008589               00                            1
044080884016192820766920910201900000000000284618CANCEL.DE VENDAS            522590******613600000627514704082019R50762000000000027457072049709040820190808840163192821149509010910201931928211495090110201900000000000000000000000000000000002846               00                            1
044080884016192820766930910201900000000000284418CANCEL.DE VENDAS            522590******613600000627514704082019R50762000000000027457072049709040820190808840163192821149509010910201931928211495090110201900000000000000000000000000000000002844               00                            1
044080884016192820766940910201900000000000284418CANCEL.DE VENDAS            522590******613600000627514704082019R50762000000000027457072049709040820190808840163192821149509010910201931928211495090110201900000000000000000000000000000000002844               00                            1
044080884016192820766950910201900000000000284418CANCEL.DE VENDAS            522590******613600000627514704082019R50762000000000027457072049709040820190808840163192821149509010910201931928211495090110201900000000000000000000000000000000002844               00                            1
044080884016192820766960910201900000000000645618CANCEL.DE VENDAS            453211******119300000810310130092019620335000000000032990086549615300920190808840163192821149509080910201931928211495090810201900000000000000000000000000000000006456               00                            3
044080884016192820766970910201900000000000645718CANCEL.DE VENDAS            453211******119300000810310130092019620335000000000032990086549615300920190808840163192821149509080910201931928211495090810201900000000000000000000000000000000006457               00                            3
044080884016192820766980910201900000000000645718CANCEL.DE VENDAS            453211******119300000810310130092019620335000000000032990086549615300920190808840163192821149509080910201931928211495090810201900000000000000000000000000000000006457               00                            3
044080884016192820766990910201900000000004403218CANCEL.DE VENDAS            470598******528600000820302930092019041581000000000089990086549615300920190808840163192821149509180910201931928211495091810201900000000000000000000000000000000044032               00                            3
044080884016192820767000910201900000000004403218CANCEL.DE VENDAS            470598******528600000820302930092019041581000000000089990086549615300920190808840163192821149509180910201931928211495091810201900000000000000000000000000000000044032               00                            3
044080884016192820767010910201900000000001680018CANCEL.DE VENDAS            515590******958100000973268116082019223364000000000051502021349273160820190808840163192821149509200910201931928211495092010201900000000000000000000000000000000016800               00                            1
044080884016192820767020910201900000000001680018CANCEL.DE VENDAS            515590******958100000973268116082019223364000000000051502021349273160820190808840163192821149509200910201931928211495092010201900000000000000000000000000000000016800               00                            1
044080884016192820767030910201900000000001680018CANCEL.DE VENDAS            515590******958100000973268116082019223364000000000051502021349273160820190808840163192821149509200910201931928211495092010201900000000000000000000000000000000016800               00                            1
044080884016192820767040910201900000000001467818CANCEL.DE VENDAS            406655******226000000365056528082019680583000000000069760011849595280820190808840163192821149509500910201931928211495095010201900000000000000000000000000000000014678               00                            3
044080884016192820767050910201900000000001467618CANCEL.DE VENDAS            406655******226000000365056528082019680583000000000069760011849595280820190808840163192821149509500910201931928211495095010201900000000000000000000000000000000014676               00                            3
044080884016192820767060910201900000000001467618CANCEL.DE VENDAS            406655******226000000365056528082019680583000000000069760011849595280820190808840163192821149509500910201931928211495095010201900000000000000000000000000000000014676               00                            3
044080884016192820767070910201900000000001467618CANCEL.DE VENDAS            406655******226000000365056528082019680583000000000069760011849595280820190808840163192821149509500910201931928211495095010201900000000000000000000000000000000014676               00                            3
044080884016192820767080910201900000000001027918CANCEL.DE VENDAS            432032******712400000571690930092019004592000000000026405086549615300920190808840163192821149509900910201931928211495099010201900000000000000000000000000000000010279               00                            3
044080884016192820767090910201900000000001027818CANCEL.DE VENDAS            432032******712400000571690930092019004592000000000026405086549615300920190808840163192821149509900910201931928211495099010201900000000000000000000000000000000010278               00                            3
044080884016192820767100910201900000000000435518CANCEL.DE VENDAS            515601******912800001029553315082019022967000000000023200089749124150820190808840163192821156071340910201931928211560713410201900000000000000000000000000000000004355               00                            1
044080884016192820767110910201900000000000435418CANCEL.DE VENDAS            515601******912800001029553315082019022967000000000023200089749124150820190808840163192821156071340910201931928211560713410201900000000000000000000000000000000004354               00                            1
044080884016192820767120910201900000000000435418CANCEL.DE VENDAS            515601******912800001029553315082019022967000000000023200089749124150820190808840163192821156071340910201931928211560713410201900000000000000000000000000000000004354               00                            1
044080884016192820767130910201900000000000258518CANCEL.DE VENDAS            421958******418800001027270328082019969475000000000012574011849595280820190808840163192821156071620910201931928211560716210201900000000000000000000000000000000002585               00                            3
044080884016192820767140910201900000000000258618CANCEL.DE VENDAS            421958******418800001027270328082019969475000000000012574011849595280820190808840163192821156071620910201931928211560716210201900000000000000000000000000000000002586               00                            3
044080884016192820767150910201900000000000032718CANCEL.DE VENDAS            515601******600700001002887905082019242564000000000067853099949658050820190808840163192821156072790910201931928211560727910201900000000000000000000000000000000000327               00                            1
044080884016192820767160910201900000000000032418CANCEL.DE VENDAS            515601******600700001002887905082019242564000000000067853099949658050820190808840163192821156072790910201931928211560727910201900000000000000000000000000000000000324               00                            1
044080884016192820767170910201900000000000032418CANCEL.DE VENDAS            515601******600700001002887905082019242564000000000067853099949658050820190808840163192821156072790910201931928211560727910201900000000000000000000000000000000000324               00                            1
044080884016192820767180910201900000000000032418CANCEL.DE VENDAS            515601******600700001002887905082019242564000000000067853099949658050820190808840163192821156072790910201931928211560727910201900000000000000000000000000000000000324               00                            1
044080884016192820767190910201900000000000032418CANCEL.DE VENDAS            515601******600700001002887905082019242564000000000067853099949658050820190808840163192821156072790910201931928211560727910201900000000000000000000000000000000000324               00                            1
044080884016192820767200910201900000000000032418CANCEL.DE VENDAS            515601******600700001002887905082019242564000000000067853099949658050820190808840163192821156072790910201931928211560727910201900000000000000000000000000000000000324               00                            1
044080884016192820767210910201900000000002876918CANCEL.DE VENDAS            553636******286400001050865705082019041155000000000176389099949658050820190808840163192821156073180910201931928211560731810201900000000000000000000000000000000028769               00                            1
044080884016192820767220910201900000000002876918CANCEL.DE VENDAS            553636******286400001050865705082019041155000000000176389099949658050820190808840163192821156073180910201931928211560731810201900000000000000000000000000000000028769               00                            1
044080884016192820767230910201900000000002876918CANCEL.DE VENDAS            553636******286400001050865705082019041155000000000176389099949658050820190808840163192821156073180910201931928211560731810201900000000000000000000000000000000028769               00                            1
044080884016192820767240910201900000000002876918CANCEL.DE VENDAS            553636******286400001050865705082019041155000000000176389099949658050820190808840163192821156073180910201931928211560731810201900000000000000000000000000000000028769               00                            1
044080884016192820767250910201900000000002876918CANCEL.DE VENDAS            553636******286400001050865705082019041155000000000176389099949658050820190808840163192821156073180910201931928211560731810201900000000000000000000000000000000028769               00                            1
044080884016192820767260910201900000000002876918CANCEL.DE VENDAS            553636******286400001050865705082019041155000000000176389099949658050820190808840163192821156073180910201931928211560731810201900000000000000000000000000000000028769               00                            1
044080884016192820767270910201900000000000234718CANCEL.DE VENDAS            515894******869400001001935905082019439427000000000055851099949658050820190808840163192821156073840910201931928211560738410201900000000000000000000000000000000002347               00                            1
044080884016192820767280910201900000000000234818CANCEL.DE VENDAS            515894******869400001001935905082019439427000000000055851099949658050820190808840163192821156073840910201931928211560738410201900000000000000000000000000000000002348               00                            1
044080884016192820767290910201900000000000234818CANCEL.DE VENDAS            515894******869400001001935905082019439427000000000055851099949658050820190808840163192821156073840910201931928211560738410201900000000000000000000000000000000002348               00                            1
044080884016192820767300910201900000000000234818CANCEL.DE VENDAS            515894******869400001001935905082019439427000000000055851099949658050820190808840163192821156073840910201931928211560738410201900000000000000000000000000000000002348               00                            1
044080884016192820767310910201900000000000234818CANCEL.DE VENDAS            515894******869400001001935905082019439427000000000055851099949658050820190808840163192821156073840910201931928211560738410201900000000000000000000000000000000002348               00                            1
044080884016192820767320910201900000000000234818CANCEL.DE VENDAS            515894******869400001001935905082019439427000000000055851099949658050820190808840163192821156073840910201931928211560738410201900000000000000000000000000000000002348               00                            1
044080884016192820767330910201900000000003493818CANCEL.DE VENDAS            498442******387500001042257305082019921821000000000163668084549779050820190808840163192821156074450910201931928211560744510201900000000000000000000000000000000034938               00                            3
044080884016192820767340910201900000000003493818CANCEL.DE VENDAS            498442******387500001042257305082019921821000000000163668084549779050820190808840163192821156074450910201931928211560744510201900000000000000000000000000000000034938               00                            3
044080884016192820767350910201900000000000135718CANCEL.DE VENDAS            524314******093800001032725705082019065135000000000024083099949658050820190808840163192821156077110910201931928211560771110201900000000000000000000000000000000001357               00                            1
044080884016192820767360910201900000000000135818CANCEL.DE VENDAS            524314******093800001032725705082019065135000000000024083099949658050820190808840163192821156077110910201931928211560771110201900000000000000000000000000000000001358               00                            1
044080884016192820767370910201900000000000135818CANCEL.DE VENDAS            524314******093800001032725705082019065135000000000024083099949658050820190808840163192821156077110910201931928211560771110201900000000000000000000000000000000001358               00                            1
044080884016192820767380910201900000000000135818CANCEL.DE VENDAS            524314******093800001032725705082019065135000000000024083099949658050820190808840163192821156077110910201931928211560771110201900000000000000000000000000000000001358               00                            1
044080884016192820767390910201900000000000332818CANCEL.DE VENDAS            553636******755800001025004715082019042533000000000053068089749124150820190808840163192821156077810910201931928211560778110201900000000000000000000000000000000003328               00                            1
044080884016192820767400910201900000000000332918CANCEL.DE VENDAS            553636******755800001025004715082019042533000000000053068089749124150820190808840163192821156077810910201931928211560778110201900000000000000000000000000000000003329               00                            1
044080884016192820767410910201900000000000332918CANCEL.DE VENDAS            553636******755800001025004715082019042533000000000053068089749124150820190808840163192821156077810910201931928211560778110201900000000000000000000000000000000003329               00                            1
044080884016192820767420910201900000000000332918CANCEL.DE VENDAS            553636******755800001025004715082019042533000000000053068089749124150820190808840163192821156077810910201931928211560778110201900000000000000000000000000000000003329               00                            1
044080884016192820767430910201900000000000332918CANCEL.DE VENDAS            553636******755800001025004715082019042533000000000053068089749124150820190808840163192821156077810910201931928211560778110201900000000000000000000000000000000003329               00                            1
044080884016192820767440910201900000000000332918CANCEL.DE VENDAS            553636******755800001025004715082019042533000000000053068089749124150820190808840163192821156077810910201931928211560778110201900000000000000000000000000000000003329               00                            1
044080884016192820767450910201900000000000066318CANCEL.DE VENDAS            527497******728200000994578706092019066703000000000020155072949364060920190808840163192821156077980910201931928211560779810201900000000000000000000000000000000000663               00                            1
044080884016192820767460910201900000000000066318CANCEL.DE VENDAS            527497******728200000994578706092019066703000000000020155072949364060920190808840163192821156077980910201931928211560779810201900000000000000000000000000000000000663               00                            1
044080884016192820767470910201900000000000066318CANCEL.DE VENDAS            527497******728200000994578706092019066703000000000020155072949364060920190808840163192821156077980910201931928211560779810201900000000000000000000000000000000000663               00                            1
044080884016192820767480910201900000000000311918CANCEL.DE VENDAS            406655******226000000998381128082019655206000000000019900011849595280820190808840163192821156079190910201931928211560791910201900000000000000000000000000000000003119               00                            3
044080884016192820767490910201900000000000311818CANCEL.DE VENDAS            406655******226000000998381128082019655206000000000019900011849595280820190808840163192821156079190910201931928211560791910201900000000000000000000000000000000003118               00                            3
044080884016192820767500910201900000000000311818CANCEL.DE VENDAS            406655******226000000998381128082019655206000000000019900011849595280820190808840163192821156079190910201931928211560791910201900000000000000000000000000000000003118               00                            3
044080884016192820767510910201900000000000244518CANCEL.DE VENDAS            422061******783400001168263702082019253561000000000033256015549500020820190808840163192821156080060910201931928211560800610201900000000000000000000000000000000002445               00                            3
044080884016192820767520910201900000000000244618CANCEL.DE VENDAS            422061******783400001168263702082019253561000000000033256015549500020820190808840163192821156080060910201931928211560800610201900000000000000000000000000000000002446               00                            3
044080884016192820767530910201900000000000244618CANCEL.DE VENDAS            422061******783400001168263702082019253561000000000033256015549500020820190808840163192821156080060910201931928211560800610201900000000000000000000000000000000002446               00                            3
044080884016192820767540910201900000000000244618CANCEL.DE VENDAS            422061******783400001168263702082019253561000000000033256015549500020820190808840163192821156080060910201931928211560800610201900000000000000000000000000000000002446               00                            3
044080884016192820767550910201900000000000244618CANCEL.DE VENDAS            422061******783400001168263702082019253561000000000033256015549500020820190808840163192821156080060910201931928211560800610201900000000000000000000000000000000002446               00                            3
044080884016192820767560910201900000000000147418CANCEL.DE VENDAS            421847******535100001259935122072019022277000000000036609015249745220720190808840163192821156080090910201931928211560800910201900000000000000000000000000000000001474               00                            3
044080884016192820767570910201900000000000147018CANCEL.DE VENDAS            421847******535100001259935122072019022277000000000036609015249745220720190808840163192821156080090910201931928211560800910201900000000000000000000000000000000001470               00                            3
044080884016192820767580910201900000000000147018CANCEL.DE VENDAS            421847******535100001259935122072019022277000000000036609015249745220720190808840163192821156080090910201931928211560800910201900000000000000000000000000000000001470               00                            3
044080884016192820767590910201900000000000147018CANCEL.DE VENDAS            421847******535100001259935122072019022277000000000036609015249745220720190808840163192821156080090910201931928211560800910201900000000000000000000000000000000001470               00                            3
044080884016192820767600910201900000000000147018CANCEL.DE VENDAS            421847******535100001259935122072019022277000000000036609015249745220720190808840163192821156080090910201931928211560800910201900000000000000000000000000000000001470               00                            3
044080884016192820767610910201900000000000147018CANCEL.DE VENDAS            421847******535100001259935122072019022277000000000036609015249745220720190808840163192821156080090910201931928211560800910201900000000000000000000000000000000001470               00                            3
044080884016192820767620910201900000000000052518CANCEL.DE VENDAS            514945******974600001241448307092019006921000000000036558091149337070920190808840163192821156080430910201931928211560804310201900000000000000000000000000000000000525               00                            1
044080884016192820767630910201900000000000052418CANCEL.DE VENDAS            514945******974600001241448307092019006921000000000036558091149337070920190808840163192821156080430910201931928211560804310201900000000000000000000000000000000000524               00                            1
044080884016192820767640910201900000000000052418CANCEL.DE VENDAS            514945******974600001241448307092019006921000000000036558091149337070920190808840163192821156080430910201931928211560804310201900000000000000000000000000000000000524               00                            1
044080884016192820767650910201900000000000052418CANCEL.DE VENDAS            514945******974600001241448307092019006921000000000036558091149337070920190808840163192821156080430910201931928211560804310201900000000000000000000000000000000000524               00                            1
044080884016192820767660910201900000000000052418CANCEL.DE VENDAS            514945******974600001241448307092019006921000000000036558091149337070920190808840163192821156080430910201931928211560804310201900000000000000000000000000000000000524               00                            1
044080884016192820767670910201900000000000036018CANCEL.DE VENDAS            410424******555500001244537906092019674256000000000012046055249853060920190808840163192821156080530910201931928211560805310201900000000000000000000000000000000000360               00                            3
044080884016192820767680910201900000000000035918CANCEL.DE VENDAS            410424******555500001244537906092019674256000000000012046055249853060920190808840163192821156080530910201931928211560805310201900000000000000000000000000000000000359               00                            3
044080884016192820767690910201900000000000289118CANCEL.DE VENDAS            401684******223000001291642311092019003941000000000039283076649267110920190808840163192821156080570910201931928211560805710201900000000000000000000000000000000002891               00                            3
044080884016192820767700910201900000000000289218CANCEL.DE VENDAS            401684******223000001291642311092019003941000000000039283076649267110920190808840163192821156080570910201931928211560805710201900000000000000000000000000000000002892               00                            3
044080884016192820767710910201900000000000289218CANCEL.DE VENDAS            401684******223000001291642311092019003941000000000039283076649267110920190808840163192821156080570910201931928211560805710201900000000000000000000000000000000002892               00                            3
044080884016192820767720910201900000000001033718CANCEL.DE VENDAS            411049******379700001409176520082019015190000000000021125002249309200820190808840163192821156080910910201931928211560809110201900000000000000000000000000000000010337               00                            3
044080884016192820767730910201900000000001033618CANCEL.DE VENDAS            411049******379700001409176520082019015190000000000021125002249309200820190808840163192821156080910910201931928211560809110201900000000000000000000000000000000010336               00                            3
044080884016192820767740910201900000000001236518CANCEL.DE VENDAS            498407******252300001300146730072019947166000000000061534027449432300720190808840163192821156081440910201931928211560814410201900000000000000000000000000000000012365               00                            3
044080884016192820767750910201900000000001236518CANCEL.DE VENDAS            498407******252300001300146730072019947166000000000061534027449432300720190808840163192821156081440910201931928211560814410201900000000000000000000000000000000012365               00                            3
044080884016192820767760910201900000000000123718CANCEL.DE VENDAS            498407******557500001141683702082019038263000000000027824015549500020820190808840163192821156081480910201931928211560814810201900000000000000000000000000000000001237               00                            3
044080884016192820767770910201900000000000123718CANCEL.DE VENDAS            498407******557500001141683702082019038263000000000027824015549500020820190808840163192821156081480910201931928211560814810201900000000000000000000000000000000001237               00                            3
044080884016192820767780910201900000000000123718CANCEL.DE VENDAS            498407******557500001141683702082019038263000000000027824015549500020820190808840163192821156081480910201931928211560814810201900000000000000000000000000000000001237               00                            3
044080884016192820767790910201900000000000123718CANCEL.DE VENDAS            498407******557500001141683702082019038263000000000027824015549500020820190808840163192821156081480910201931928211560814810201900000000000000000000000000000000001237               00                            3
044080884016192820767800910201900000000000698718CANCEL.DE VENDAS            544731******774300001245207906092019055880000000000021423072949364060920190808840163192821156081880910201931928211560818810201900000000000000000000000000000000006987               00                            1
044080884016192820767810910201900000000000698918CANCEL.DE VENDAS            544731******774300001245207906092019055880000000000021423072949364060920190808840163192821156081880910201931928211560818810201900000000000000000000000000000000006989               00                            1
044080884016192820767820910201900000000000698918CANCEL.DE VENDAS            544731******774300001245207906092019055880000000000021423072949364060920190808840163192821156081880910201931928211560818810201900000000000000000000000000000000006989               00                            1
044080884016192820767830910201900000000000471618CANCEL.DE VENDAS            522840******726500001085724514082019483861000000000053991061249596140820190808840163192821156082200910201931928211560822010201900000000000000000000000000000000004716               00                            1
044080884016192820767840910201900000000000471518CANCEL.DE VENDAS            522840******726500001085724514082019483861000000000053991061249596140820190808840163192821156082200910201931928211560822010201900000000000000000000000000000000004715               00                            1
044080884016192820767850910201900000000000471518CANCEL.DE VENDAS            522840******726500001085724514082019483861000000000053991061249596140820190808840163192821156082200910201931928211560822010201900000000000000000000000000000000004715               00                            1
044080884016192820767860910201900000000000471518CANCEL.DE VENDAS            522840******726500001085724514082019483861000000000053991061249596140820190808840163192821156082200910201931928211560822010201900000000000000000000000000000000004715               00                            1
044080884016192820767870910201900000000000471518CANCEL.DE VENDAS            522840******726500001085724514082019483861000000000053991061249596140820190808840163192821156082200910201931928211560822010201900000000000000000000000000000000004715               00                            1
044080884016192820767880910201900000000000471518CANCEL.DE VENDAS            522840******726500001085724514082019483861000000000053991061249596140820190808840163192821156082200910201931928211560822010201900000000000000000000000000000000004715               00                            1
044080884016192820767890910201900000000000640218CANCEL.DE VENDAS            548474******669500001142169315082019009546000000000026168089749124150820190808840163192821156082690910201931928211560826910201900000000000000000000000000000000006402               00                            1
044080884016192820767900910201900000000000640218CANCEL.DE VENDAS            548474******669500001142169315082019009546000000000026168089749124150820190808840163192821156082690910201931928211560826910201900000000000000000000000000000000006402               00                            1
044080884016192820767910910201900000000000640218CANCEL.DE VENDAS            548474******669500001142169315082019009546000000000026168089749124150820190808840163192821156082690910201931928211560826910201900000000000000000000000000000000006402               00                            1
044080884016192820767920910201900000000000640218CANCEL.DE VENDAS            548474******669500001142169315082019009546000000000026168089749124150820190808840163192821156082690910201931928211560826910201900000000000000000000000000000000006402               00                            1
044080884016192820767930910201900000000000103818CANCEL.DE VENDAS            515117******084800001130527727072019114643000000000044596076849608270720190808840163192821156083150910201931928211560831510201900000000000000000000000000000000001038               00                            1
044080884016192820767940910201900000000000104118CANCEL.DE VENDAS            515117******084800001130527727072019114643000000000044596076849608270720190808840163192821156083150910201931928211560831510201900000000000000000000000000000000001041               00                            1
044080884016192820767950910201900000000000104118CANCEL.DE VENDAS            515117******084800001130527727072019114643000000000044596076849608270720190808840163192821156083150910201931928211560831510201900000000000000000000000000000000001041               00                            1
044080884016192820767960910201900000000000104118CANCEL.DE VENDAS            515117******084800001130527727072019114643000000000044596076849608270720190808840163192821156083150910201931928211560831510201900000000000000000000000000000000001041               00                            1
044080884016192820767970910201900000000000104118CANCEL.DE VENDAS            515117******084800001130527727072019114643000000000044596076849608270720190808840163192821156083150910201931928211560831510201900000000000000000000000000000000001041               00                            1
044080884016192820767980910201900000000000275218CANCEL.DE VENDAS            421960******337700001350901316082019397679000000000067246004249932160820190808840163192821156083420910201931928211560834210201900000000000000000000000000000000002752               00                            3
044080884016192820767990910201900000000000274918CANCEL.DE VENDAS            421960******337700001350901316082019397679000000000067246004249932160820190808840163192821156083420910201931928211560834210201900000000000000000000000000000000002749               00                            3
044080884016192820768000910201900000000000274918CANCEL.DE VENDAS            421960******337700001350901316082019397679000000000067246004249932160820190808840163192821156083420910201931928211560834210201900000000000000000000000000000000002749               00                            3
044080884016192820768010910201900000000000274918CANCEL.DE VENDAS            421960******337700001350901316082019397679000000000067246004249932160820190808840163192821156083420910201931928211560834210201900000000000000000000000000000000002749               00                            3
044080884016192820768020910201900000000000274918CANCEL.DE VENDAS            421960******337700001350901316082019397679000000000067246004249932160820190808840163192821156083420910201931928211560834210201900000000000000000000000000000000002749               00                            3
044080884016192820768030910201900000000000274918CANCEL.DE VENDAS            421960******337700001350901316082019397679000000000067246004249932160820190808840163192821156083420910201931928211560834210201900000000000000000000000000000000002749               00                            3
044080884016192820768040910201900000000000189618CANCEL.DE VENDAS            553636******797700001235261901082019056749000000000028989099349448010820190808840163192821156083490910201931928211560834910201900000000000000000000000000000000001896               00                            1
044080884016192820768050910201900000000000189618CANCEL.DE VENDAS            553636******797700001235261901082019056749000000000028989099349448010820190808840163192821156083490910201931928211560834910201900000000000000000000000000000000001896               00                            1
044080884016192820768060910201900000000002610618CANCEL.DE VENDAS            541759******321700001679039305082019071826000000000053354099949658050820190808840163192821156083530910201931928211560835310201900000000000000000000000000000000026106               00                            1
044080884016192820768070910201900000000002610618CANCEL.DE VENDAS            541759******321700001679039305082019071826000000000053354099949658050820190808840163192821156083530910201931928211560835310201900000000000000000000000000000000026106               00                            1
044080884016192820768080910201900000000000726918CANCEL.DE VENDAS            522840******944000001201756106092019202554000000000014855072949364060920190808840163192821156083550910201931928211560835510201900000000000000000000000000000000007269               00                            1
044080884016192820768090910201900000000000726818CANCEL.DE VENDAS            522840******944000001201756106092019202554000000000014855072949364060920190808840163192821156083550910201931928211560835510201900000000000000000000000000000000007268               00                            1
044080884016192820768100910201900000000000840318CANCEL.DE VENDAS            552937******135800001241000720082019641809000000000033651017549297200820190808840163192821156083560910201931928211560835610201900000000000000000000000000000000008403               00                            1
044080884016192820768110910201900000000000840418CANCEL.DE VENDAS            552937******135800001241000720082019641809000000000033651017549297200820190808840163192821156083560910201931928211560835610201900000000000000000000000000000000008404               00                            1
044080884016192820768120910201900000000000840418CANCEL.DE VENDAS            552937******135800001241000720082019641809000000000033651017549297200820190808840163192821156083560910201931928211560835610201900000000000000000000000000000000008404               00                            1
044080884016192820768130910201900000000000514118CANCEL.DE VENDAS            606282******706300001414497721092019034938000000000014526081549830210920190808840163192821156083600910201931928211560836010201900000000000000000000000000000000005141               00                            5
044080884016192820768140910201900000000000514018CANCEL.DE VENDAS            606282******706300001414497721092019034938000000000014526081549830210920190808840163192821156083600910201931928211560836010201900000000000000000000000000000000005140               00                            5
044080884016192820768150910201900000000000907318CANCEL.DE VENDAS            421958******606700001577608723082019621077000000000018544088649943230820190808840163192821156083640910201931928211560836410201900000000000000000000000000000000009073               00                            3
044080884016192820768160910201900000000000907418CANCEL.DE VENDAS            421958******606700001577608723082019621077000000000018544088649943230820190808840163192821156083640910201931928211560836410201900000000000000000000000000000000009074               00                            3
044080884016192820768170910201900000000000039018CANCEL.DE VENDAS            444456******774000001128342520082019054862000000000064765002249309200820190808840163192821156083910910201931928211560839110201900000000000000000000000000000000000390               00                            3
044080884016192820768180910201900000000000039318CANCEL.DE VENDAS            444456******774000001128342520082019054862000000000064765002249309200820190808840163192821156083910910201931928211560839110201900000000000000000000000000000000000393               00                            3
044080884016192820768190910201900000000000039318CANCEL.DE VENDAS            444456******774000001128342520082019054862000000000064765002249309200820190808840163192821156083910910201931928211560839110201900000000000000000000000000000000000393               00                            3
044080884016192820768200910201900000000000039318CANCEL.DE VENDAS            444456******774000001128342520082019054862000000000064765002249309200820190808840163192821156083910910201931928211560839110201900000000000000000000000000000000000393               00                            3
044080884016192820768210910201900000000000039318CANCEL.DE VENDAS            444456******774000001128342520082019054862000000000064765002249309200820190808840163192821156083910910201931928211560839110201900000000000000000000000000000000000393               00                            3
044080884016192820768220910201900000000000039318CANCEL.DE VENDAS            444456******774000001128342520082019054862000000000064765002249309200820190808840163192821156083910910201931928211560839110201900000000000000000000000000000000000393               00                            3
044080884016192820768230910201900000000000748918CANCEL.DE VENDAS            544828******571300001137141102082019009959000000000030617031849488020820190808840163192821156084380910201931928211560843810201900000000000000000000000000000000007489               00                            1
044080884016192820768240910201900000000000749118CANCEL.DE VENDAS            544828******571300001137141102082019009959000000000030617031849488020820190808840163192821156084380910201931928211560843810201900000000000000000000000000000000007491               00                            1
044080884016192820768250910201900000000000749118CANCEL.DE VENDAS            544828******571300001137141102082019009959000000000030617031849488020820190808840163192821156084380910201931928211560843810201900000000000000000000000000000000007491               00                            1
044080884016192820768260910201900000000000749118CANCEL.DE VENDAS            544828******571300001137141102082019009959000000000030617031849488020820190808840163192821156084380910201931928211560843810201900000000000000000000000000000000007491               00                            1
044080884016192820768270910201900000000000759218CANCEL.DE VENDAS            544731******506800001194497919082019342971000000000022651089549539190820190808840163192821156085180910201931928211560851810201900000000000000000000000000000000007592               00                            1
044080884016192820768280910201900000000000759118CANCEL.DE VENDAS            544731******506800001194497919082019342971000000000022651089549539190820190808840163192821156085180910201931928211560851810201900000000000000000000000000000000007591               00                            1
044080884016192820768290910201900000000000656018CANCEL.DE VENDAS            522840******875000001572523113092019203862000000000013407058349997130920190808840163192821156085660910201931928211560856610201900000000000000000000000000000000006560               00                            1
044080884016192820768300910201900000000000656018CANCEL.DE VENDAS            522840******875000001572523113092019203862000000000013407058349997130920190808840163192821156085660910201931928211560856610201900000000000000000000000000000000006560               00                            1
044080884016192820768310910201900000000000361718CANCEL.DE VENDAS            498423******821900001733764317082019073439000000000017337035849343170820190808840163192821156086620910201931928211560866210201900000000000000000000000000000000003617               00                            3
044080884016192820768320910201900000000000361618CANCEL.DE VENDAS            498423******821900001733764317082019073439000000000017337035849343170820190808840163192821156086620910201931928211560866210201900000000000000000000000000000000003616               00                            3
044080884016192820768330910201900000000000167818CANCEL.DE VENDAS            523421******859500001400265314072019271207000000000020053009149534140720190808840163192821156086810910201931928211560868110201900000000000000000000000000000000001678               00                            1
044080884016192820768340910201900000000000168018CANCEL.DE VENDAS            523421******859500001400265314072019271207000000000020053009149534140720190808840163192821156086810910201931928211560868110201900000000000000000000000000000000001680               00                            1
044080884016192820768350910201900000000000168018CANCEL.DE VENDAS            523421******859500001400265314072019271207000000000020053009149534140720190808840163192821156086810910201931928211560868110201900000000000000000000000000000000001680               00                            1
044080884016192820768360910201900000000001076218CANCEL.DE VENDAS            498406******536900001132578123082019020840000000000130118088649943230820190808840163192821156086930910201931928211560869310201900000000000000000000000000000000010762               00                            3
044080884016192820768370910201900000000001076218CANCEL.DE VENDAS            498406******536900001132578123082019020840000000000130118088649943230820190808840163192821156086930910201931928211560869310201900000000000000000000000000000000010762               00                            3
044080884016192820768380910201900000000001076218CANCEL.DE VENDAS            498406******536900001132578123082019020840000000000130118088649943230820190808840163192821156086930910201931928211560869310201900000000000000000000000000000000010762               00                            3
044080884016192820768390910201900000000001076218CANCEL.DE VENDAS            498406******536900001132578123082019020840000000000130118088649943230820190808840163192821156086930910201931928211560869310201900000000000000000000000000000000010762               00                            3
044080884016192820768400910201900000000000463018CANCEL.DE VENDAS            542820******050200001525033529072019122458000000000104863014449248290720190808840163192821156087000910201931928211560870010201900000000000000000000000000000000004630               00                            1
044080884016192820768410910201900000000000462718CANCEL.DE VENDAS            542820******050200001525033529072019122458000000000104863014449248290720190808840163192821156087000910201931928211560870010201900000000000000000000000000000000004627               00                            1
044080884016192820768420910201900000000000462718CANCEL.DE VENDAS            542820******050200001525033529072019122458000000000104863014449248290720190808840163192821156087000910201931928211560870010201900000000000000000000000000000000004627               00                            1
044080884016192820768430910201900000000000462718CANCEL.DE VENDAS            542820******050200001525033529072019122458000000000104863014449248290720190808840163192821156087000910201931928211560870010201900000000000000000000000000000000004627               00                            1
044080884016192820768440910201900000000000462718CANCEL.DE VENDAS            542820******050200001525033529072019122458000000000104863014449248290720190808840163192821156087000910201931928211560870010201900000000000000000000000000000000004627               00                            1
044080884016192820768450910201900000000000470818CANCEL.DE VENDAS            484132******712200001190362506092019020155000000000012030055249853060920190808840163192821156087220910201931928211560872210201900000000000000000000000000000000004708               00                            3
044080884016192820768460910201900000000000470818CANCEL.DE VENDAS            484132******712200001190362506092019020155000000000012030055249853060920190808840163192821156087220910201931928211560872210201900000000000000000000000000000000004708               00                            3
044080884016192820768470910201900000000000163818CANCEL.DE VENDAS            406669******318100001106587930082019663780000000000033394069849640300820190808840163192821156087280910201931928211560872810201900000000000000000000000000000000001638               00                            3
044080884016192820768480910201900000000000164118CANCEL.DE VENDAS            406669******318100001106587930082019663780000000000033394069849640300820190808840163192821156087280910201931928211560872810201900000000000000000000000000000000001641               00                            3
044080884016192820768490910201900000000000164118CANCEL.DE VENDAS            406669******318100001106587930082019663780000000000033394069849640300820190808840163192821156087280910201931928211560872810201900000000000000000000000000000000001641               00                            3
044080884016192820768500910201900000000000164118CANCEL.DE VENDAS            406669******318100001106587930082019663780000000000033394069849640300820190808840163192821156087280910201931928211560872810201900000000000000000000000000000000001641               00                            3
044080884016192820768510910201900000000000164118CANCEL.DE VENDAS            406669******318100001106587930082019663780000000000033394069849640300820190808840163192821156087280910201931928211560872810201900000000000000000000000000000000001641               00                            3
044080884016192820768520910201900000000000500818CANCEL.DE VENDAS            498408******839000001175014720082019023098000000000198230002249309200820190808840163192821156087370910201931928211560873710201900000000000000000000000000000000005008               00                            3
044080884016192820768530910201900000000000500818CANCEL.DE VENDAS            498408******839000001175014720082019023098000000000198230002249309200820190808840163192821156087370910201931928211560873710201900000000000000000000000000000000005008               00                            3
044080884016192820768540910201900000000000500818CANCEL.DE VENDAS            498408******839000001175014720082019023098000000000198230002249309200820190808840163192821156087370910201931928211560873710201900000000000000000000000000000000005008               00                            3
044080884016192820768550910201900000000000500818CANCEL.DE VENDAS            498408******839000001175014720082019023098000000000198230002249309200820190808840163192821156087370910201931928211560873710201900000000000000000000000000000000005008               00                            3
044080884016192820768560910201900000000000500818CANCEL.DE VENDAS            498408******839000001175014720082019023098000000000198230002249309200820190808840163192821156087370910201931928211560873710201900000000000000000000000000000000005008               00                            3
044080884016192820768570910201900000000000500818CANCEL.DE VENDAS            498408******839000001175014720082019023098000000000198230002249309200820190808840163192821156087370910201931928211560873710201900000000000000000000000000000000005008               00                            3
044080884016192820768580910201900000000000967318CANCEL.DE VENDAS            498407******635800001464301701082019903089000000000049435083049175010820190808840163192821156087750910201931928211560877510201900000000000000000000000000000000009673               00                            3
044080884016192820768590910201900000000000967618CANCEL.DE VENDAS            498407******635800001464301701082019903089000000000049435083049175010820190808840163192821156087750910201931928211560877510201900000000000000000000000000000000009676               00                            3
044080884016192820768600910201900000000000967618CANCEL.DE VENDAS            498407******635800001464301701082019903089000000000049435083049175010820190808840163192821156087750910201931928211560877510201900000000000000000000000000000000009676               00                            3
044080884016192820768610910201900000000000967618CANCEL.DE VENDAS            498407******635800001464301701082019903089000000000049435083049175010820190808840163192821156087750910201931928211560877510201900000000000000000000000000000000009676               00                            3
044080884016192820768620910201900000000000967618CANCEL.DE VENDAS            498407******635800001464301701082019903089000000000049435083049175010820190808840163192821156087750910201931928211560877510201900000000000000000000000000000000009676               00                            3
044080884016192820768630910201900000000001039718CANCEL.DE VENDAS            406655******117100001138004323082019642596000000000031875088649943230820190808840163192821156087910910201931928211560879110201900000000000000000000000000000000010397               00                            3
044080884016192820768640910201900000000001039818CANCEL.DE VENDAS            406655******117100001138004323082019642596000000000031875088649943230820190808840163192821156087910910201931928211560879110201900000000000000000000000000000000010398               00                            3
044080884016192820768650910201900000000001039818CANCEL.DE VENDAS            406655******117100001138004323082019642596000000000031875088649943230820190808840163192821156087910910201931928211560879110201900000000000000000000000000000000010398               00                            3
044080884016192820768660910201900000000000556818CANCEL.DE VENDAS            515590******752300001480376927082019222464000000000062356098949809270820190808840163192821156088120910201931928211560881210201900000000000000000000000000000000005568               00                            1
044080884016192820768670910201900000000000556818CANCEL.DE VENDAS            515590******752300001480376927082019222464000000000062356098949809270820190808840163192821156088120910201931928211560881210201900000000000000000000000000000000005568               00                            1
044080884016192820768680910201900000000000556818CANCEL.DE VENDAS            515590******752300001480376927082019222464000000000062356098949809270820190808840163192821156088120910201931928211560881210201900000000000000000000000000000000005568               00                            1
044080884016192820768690910201900000000000556818CANCEL.DE VENDAS            515590******752300001480376927082019222464000000000062356098949809270820190808840163192821156088120910201931928211560881210201900000000000000000000000000000000005568               00                            1
044080884016192820768700910201900000000000556818CANCEL.DE VENDAS            515590******752300001480376927082019222464000000000062356098949809270820190808840163192821156088120910201931928211560881210201900000000000000000000000000000000005568               00                            1
044080884016192820768710910201900000000000556818CANCEL.DE VENDAS            515590******752300001480376927082019222464000000000062356098949809270820190808840163192821156088120910201931928211560881210201900000000000000000000000000000000005568               00                            1
044080884016192820768720910201900000000000263518CANCEL.DE VENDAS            523421******315100001314483327082019746513000000000032330098949809270820190808840163192821156088350910201931928211560883510201900000000000000000000000000000000002635               00                            1
044080884016192820768730910201900000000000263618CANCEL.DE VENDAS            523421******315100001314483327082019746513000000000032330098949809270820190808840163192821156088350910201931928211560883510201900000000000000000000000000000000002636               00                            1
044080884016192820768740910201900000000000263618CANCEL.DE VENDAS            523421******315100001314483327082019746513000000000032330098949809270820190808840163192821156088350910201931928211560883510201900000000000000000000000000000000002636               00                            1
044080884016192820768750910201900000000000263618CANCEL.DE VENDAS            523421******315100001314483327082019746513000000000032330098949809270820190808840163192821156088350910201931928211560883510201900000000000000000000000000000000002636               00                            1
044080884016192820768760910201900000000000263618CANCEL.DE VENDAS            523421******315100001314483327082019746513000000000032330098949809270820190808840163192821156088350910201931928211560883510201900000000000000000000000000000000002636               00                            1
044080884016192820768770910201900000000000358318CANCEL.DE VENDAS            421958******239800001234804927082019555260000000000025489083849977270820190808840163192821156088680910201931928211560886810201900000000000000000000000000000000003583               00                            3
044080884016192820768780910201900000000000358418CANCEL.DE VENDAS            421958******239800001234804927082019555260000000000025489083849977270820190808840163192821156088680910201931928211560886810201900000000000000000000000000000000003584               00                            3
044080884016192820768790910201900000000000358418CANCEL.DE VENDAS            421958******239800001234804927082019555260000000000025489083849977270820190808840163192821156088680910201931928211560886810201900000000000000000000000000000000003584               00                            3
